:020000040000fa
:080000000001040000000000f3
:020000040000fa
:100200008fba200000ff20000001880000000000dd
:100210000c000700207426000100200011000700d8
:10022000000020000000e000020032000000020098
:10023000000000006e600200000000000040da00d4
:100240000000fe004440a900402720000000e0001c
:100250000300320000002000a00188004440a800f4
:100260000000060091018800800078000000eb008b
:1002700015003700e280400032a0b4009101ba00be
:10028000e280400032a0b4009102ba00e280400057
:1002900032a0b4000002eb00472bde00f507b200ed
:1002a000602ce10004003a000059eb008301e900f2
:1002b000fdff3e00040037006128e100010032002c
:1002c0000082eb00040007001101ba000200e00008
:1002d000e8ff3a00000006003159ba008301e90046
:1002e0000c0032002159ba008301e90008003200f5
:1002f0000400e00003003a00e280400032a0b400b5
:10030000f5ff370011d9ba008301e900faff3a007e
:100310008100e800e180400032a0b4000000060047
:1003200000000000000000000000000000000000cd
:1003300000000000000000000000000000000000bd
:1003400000000000000000000000000000000000ad
:10035000000000000000000000000000000000009d
:10036000000000000000000000000000000000008d
:10037000000000000000000000000000000000007d
:10038000000000000000000000000000000000006d
:10039000000000000000000000000000000000005d
:1003a000000000000000000000000000000000004d
:1003b000000000000000000000000000000000003d
:1003c000000000000000000000000000000000002d
:1003d000000000000000000000000000000000001d
:1003e000000000000000000000000000000000000d
:1003f00000000000000000000000000000000000fd
:1004000000000000000000000000000000000000ec
:1004100000000000000000006022b800060220007a
:100420000000d0008180d2000482d2008582d200f8
:100430000000a0000202520083825a000300310033
:100440000202420083824a000000a1000603e90084
:10045000f3ff3a0000000600efff07000400be00b3
:1004600000000600839f68000100e00002003d00dc
:1004700060001000e08018000300e00002003d0072
:1004800060011100e0811900e3ff07004f00e00068
:1004900002003b0060001000e08018000000060031
:1004a000811f78000100e00002003d0060001000a4
:1004b000e08018000300e00002003d006001110030
:1004c000e0811900e4ff07004f00e00002003b005c
:1004d00060001000e080180000000600889fbe0049
:1004e0008a9fbe00010578000100e000040035008d
:1004f00008003c000000e00020003200050037004a
:1005000060001000e080180002003b0001f02c00a9
:100510001a0037000004be006011b8006b0920000b
:100520000982cf00020039000882cf000441b000e8
:10053000694252000e00320008003b0082817100c7
:10054000610164008904d1000884d3008b05e800b0
:100550000442e800f9ff3a000500370008044400af
:1005600089844c008b05e9000442e900fbff3a0056
:10057000fa0007000af0a70001f0a0004f05be0036
:100580004f04be000000060003f0a200889fbe00da
:100590008a9fbe008c1f7800160107001d013300e2
:1005a0006450e1004f0032006420e100520032004c
:1005b00003826c0007003b000905d0000306d00051
:1005c000820f54000c065d00020039000200320068
:1005d00089017800030678008582550004003d00fb
:1005e0000003fd008103fd008502ea008b854200c7
:1005f000840f720002003b0060001000e0801800d1
:100600006011b8000005eb007a28e1000a0039000b
:1006100006007800c75ddd00f707b200878075002f
:100620002d003700828171000a01780061056000a9
:100630008180d1000080d3008502e900f9ff3b00f2
:10064000060440008784480002003b006004140058
:10065000e0841c000988a300070032008a81710031
:1006600082817100610164008904d1000884d30093
:100670008b05e800170037000978a30013003a0043
:100680000b00e000130034008b05e900080444006f
:1006900089844c000a4474000978a3000d003a00d4
:1006a0000b00e000070034008b05e900080444005b
:1006b00089844c0001003a000b0020000978a30057
:1006c000f7ff32000001eb00020037008281710069
:1006d0000a017800a10007000cf0a70001f0a000bb
:1006e000d50037006420e10002003a00838f6c00df
:1006f000d50033000801be000200be00ce00370066
:10070000889fbe008a9fbe008c1f7800b90007003a
:10071000c000330003866c006450e1002e003200fc
:100720006420e100330032006150e1002f0032000c
:100730006120e1003100320085855500eb07b000f3
:1007400009002000080420000500370008044400c8
:1007500089844c000a0031000603430087834b0064
:100760000001530081815b00f8ff33000203be00eb
:100770000800a0000804440089844c00f6ff3900fa
:10078000c639dd0083017300010032001300200030
:100790008904d1000884d3000998a3000500320021
:1007a0000800a7000300a0008904d1000884d3003a
:1007b0008b05e8008904d1000884d3000001eb0018
:1007c0000281d2006500070001f0a1000cf0a70033
:1007d00001f0a000980037006420e1009a00320088
:1007e0000801be000200be00f7ff37006120e100f3
:1007f000950032006000b800f3ff370000002000d1
:1008000001f82700f0ff3700889fbe008a9fbe00d6
:100810008c1f7800770007007e00330003866c0091
:100820006450e100240032006420e100270032001f
:100830006150e100220032006120e100210032001d
:100840008b854200eb07b1000134b800003ab800d4
:100850000804420089844a00013ab8000030b80018
:100860008880400009014a00040033000000400075
:1008700081804800020149008b05e900c909dd00bb
:10088000830170000100320013002000c814de0054
:100890004814dd004709de001200b200c808de007f
:1008a000088470002d00070001f0a1000cf0a700e3
:1008b00001f0a000600037006120e100620032001a
:1008c0000801be000200be00f7ff37006150e100e2
:1008d000fcff3a005c0037000001be005d0007002d
:1008e0000470a70003f0a1006509b10016003200f2
:1008f0000d0035006828e10006003500f0ff2f00ec
:10090000f1ff27000300e00013003b000100280076
:100910000000050000004000818048008502e900d9
:10092000fcff3a0008003700f88f420002003c004c
:100930008000eb00000005008100d1000080d300a2
:100940008502e800fcff3a000300e00002003b00e3
:1009500060001000e0801800000006008100200008
:10096000618055000b003d000b00200061fe2f0050
:100970000100e1001d00340082817100610164000a
:100980008904d1000884d3000000e800faff3a008f
:10099000710020006100640003007000020060002c
:1009a0000900320061044400e0844c000988a5007d
:1009b000050032008b05e8006808e10002003a00fb
:1009c0008904d1000884d300f20f20000258e1000e
:1009d00005003d00c75ddd00f907b20089807500a4
:1009e00008007800000006000bf827008b00780054
:1009f000000005000004be00160007000003be0052
:100a00000405be000200be0012000700844f7500fe
:100a1000000006000200be006450e1000500360040
:100a20006420e100020036000968a30001003a00da
:100a30000800be000160a0004f0678004f05be0010
:100a40004f04be0000000600f0ff2f00f1ff27005a
:100a5000f9ff3700c70ade00f107b200f50fb20058
:100a600008003200e1cf4200020032000170a00015
:100a700024000500810f7000010032000408050009
:100a800044000500810f700002003a0014000500c8
:100a90008502e9000000400081c04800fcff3b00e7
:080aa0000170a0002400050014
:020000040000fa
:0200000401f009
:04000000f6ff000007
:020000040000fa
:0200000401f009
:04000400ff7f00007a
:020000040000fa
:0200000401f009
:04000800ec7f000089
:020000040000fa
:10000800a4670000a4670000a4670000a4670000bc
:10001800a4670000a4670000a4670000a4670000ac
:1000280050620000a4670000a46700001c63000081
:10003800a4670000a467000066630000ec6300008a
:10004800a4670000a4670000a4670000a46700007c
:10005800a4670000a4670000a4670000a46700006c
:10006800a4670000a4670000a4670000a46700005c
:10007800a4670000d2620000a4670000a467000023
:1000880090620000a2630000a4670000a46700005b
:10009800a4670000a4670000a4670000a46700002c
:1000a800a4670000a4670000a4670000a46700001c
:1000b800a4670000a4670000a4670000a46700000c
:1000c800a4670000a4670000a4670000a4670000fc
:1000d800a4670000a4670000a4670000a4670000ec
:1000e800a4670000a4670000a4670000a4670000dc
:0800f800a4670000a4670000ea
:020000040000fa
:10010800a4670000a4670000a4670000a4670000bb
:10011800a4670000a4670000a4670000a4670000ab
:1001280050620000a4670000a46700001c63000080
:10013800a4670000a467000066630000ec63000089
:10014800a4670000a4670000a4670000a46700007b
:10015800a4670000a4670000a4670000a46700006b
:10016800a4670000a4670000a4670000a46700005b
:10017800a4670000d2620000a4670000a467000022
:1001880090620000a2630000a4670000a46700005a
:10019800a4670000a4670000a4670000a46700002b
:1001a800a4670000a4670000a4670000a46700001b
:1001b800a4670000a4670000a4670000a46700000b
:1001c800a4670000a4670000a4670000a4670000fb
:1001d800a4670000a4670000a4670000a4670000eb
:1001e800a4670000a4670000a4670000a4670000db
:0801f800a4670000a4670000e9
:020000040000fa
:100aa80000c100008140000001c00000804100003a
:100ab80001c000008041000000c10000814000002a
:100ac80001c000008041000000c10000814000001a
:100ad80000c100008140000001c00000804100000a
:100ae80001c000008041000000c1000081400000fa
:100af80000c100008140000001c0000080410000ea
:100b080000c100008140000001c0000080410000d9
:100b180001c000008041000000c1000081400000c9
:100b280001c000008041000000c1000081400000b9
:100b380000c100008140000001c0000080410000a9
:100b480000c100008140000001c000008041000099
:100b580001c000008041000000c100008140000089
:100b680000c100008140000001c000008041000079
:100b780001c000008041000000c100008140000069
:100b880001c000008041000000c100008140000059
:100b980000c100008140000001c000008041000049
:100ba80001c000008041000000c100008140000039
:100bb80000c100008140000001c000008041000029
:100bc80000c100008140000001c000008041000019
:100bd80001c000008041000000c100008140000009
:100be80000c100008140000001c0000080410000f9
:100bf80001c000008041000000c1000081400000e9
:100c080001c000008041000000c1000081400000d8
:100c180000c100008140000001c0000080410000c8
:100c280000c100008140000001c0000080410000b8
:100c380001c000008041000000c1000081400000a8
:100c480001c000008041000000c100008140000098
:100c580000c100008140000001c000008041000088
:100c680001c000008041000000c100008140000078
:100c780000c100008140000001c000008041000068
:100c880000c100008140000001c000008041000058
:100c980001c000008041000000c100008140000048
:100ca80000c00000c1010000c303000002c2000030
:100cb800c606000007c7000005c50000c404000000
:100cc800cc0c00000dcd00000fcf0000ce0e0000b0
:100cd8000aca0000cb0b0000c909000008c80000c0
:100ce800d818000019d900001bdb0000da1a000030
:100cf8001ede0000df1f0000dd1d00001cdc000000
:100d080014d40000d5150000d717000016d600002f
:100d1800d212000013d3000011d10000d01000003f
:100d2800f030000031f1000033f30000f23200002f
:100d380036f60000f7370000f535000034f40000ff
:100d48003cfc0000fd3d0000ff3f00003efe0000af
:100d5800fa3a00003bfb000039f90000f8380000bf
:100d680028e80000e9290000eb2b00002aea00002f
:100d7800ee2e00002fef00002ded0000ec2c0000ff
:100d8800e424000025e5000027e70000e62600002f
:100d980022e20000e3230000e121000020e000003f
:100da800a060000061a1000063a30000a26200002f
:100db80066a60000a7670000a565000064a40000ff
:100dc8006cac0000ad6d0000af6f00006eae0000af
:100dd800aa6a00006bab000069a90000a8680000bf
:100de80078b80000b9790000bb7b00007aba00002f
:100df800be7e00007fbf00007dbd0000bc7c0000ff
:100e0800b474000075b5000077b70000b67600002e
:100e180072b20000b3730000b171000070b000003e
:100e2800509000009151000093530000529200002e
:100e380096560000579700005595000094540000fe
:100e48009c5c00005d9d00005f9f00009e5e0000ae
:100e58005a9a00009b5b00009959000058980000be
:100e680088480000498900004b8b00008a4a00002e
:100e78004e8e00008f4f00008d4d00004c8c0000fe
:100e8800448400008545000087470000468600002e
:100e9800824200004383000041810000804000003e
:100ea800e8030000000000006400000000000000eb
:100eb8000a0000000000000001000000000000001f
:100ec8001027000000000000e803000000000000f8
:100ed80064000000000000000a000000000000009c
:100ee8000100000000000000a086000001000000d2
:100ef8001027000000000000e803000000000000c8
:100f080064000000000000000a000000000000006b
:100f18000100000000000000af0300009d970000e2
:100f280033b60000be830000bfb70000bb3e000020
:100f3800ac1f0000bcb8000010af000082cd00005c
:100f4800cee200006e6f000086ef0000eee70000c2
:100f58006b2d0000cb6d00006540000030310000b3
:100f680032330000343500003637000038390000cd
:100f780041420000434400004546000001090000ca
:080f880009090000090900003d
:020000040000fa
:100f90000a00fa002047980031479800ae409000c0
:100fa00000cdb30000c04000104798001e409000e4
:100fb0008080fb00a0b3200000804000104078003b
:100fc0000080fb00300798000000eb00200798002d
:100fd0001e04e00002003a001100200021079800e2
:100fe0003e019000ae009000010071000000e000a2
:100ff000030032000001eb004207980002003700b6
:1010000000042000400798004e0090000080fa0085
:10101000000006000000fa00cdcabf006140600079
:101020000004e0001900320002c8bf000040e800e0
:1010300002e8b700218020009140780010c3b3007f
:1010400080cf5000110036000040eb0002e8b700ee
:10105000cccabf000080fb004600de000004a200f6
:10106000614060006140600061406000614060007c
:101070004601dd00c1ac200091407800f0cbb30008
:1010800000c0600002407000cceab7000080fa00a7
:10109000000006000000fa00cdcabf0061406000f9
:1010a0000004e0001700320002c8bf000040e80062
:1010b00002e8b70002c8bf00f84f50001100360028
:1010c0000040eb0002e8b700cccabf000080fb0084
:1010d0004600de000004a200614060006140600044
:1010e00061406000614060004601dd00c1ac20004d
:1010f00091407800f0cbb30000c060000240700067
:10110000cceab7000080fa00000006000200fa00f6
:101110000040eb00004f7800060037009e80fb0087
:1011200090802000808040000040eb0080487800e4
:101130001e4fe800b0c0b3009e4f1000f7ff36000e
:101140000080fa00000006000400fa00004f78005a
:1011500011479800120798009e4078001e009000ea
:10116000014878001e0090000000e8001007980079
:101170009e4090001e009000014878000080fa0018
:10118000000006000600fa00004f780011479800a2
:1011900022479800230798009e4078002e00900078
:1011a000014878002e0090000000e8002007980019
:1011b0009e4090002e009000014878002e00900084
:1011c0000000e80020079800ae4090002e0090003c
:1011d000014878000080fa00000006000600fa00ce
:1011e000004f780011479800224798003347980035
:1011f000240798009e4078002e0090000148780057
:101200002e0090000000e800200798009e4090000b
:101210002e009000014878002e0090000000e800a9
:1012200020079800ae4090002e0090000148780002
:101230002e0090000000e80020079800be409000bb
:101240002e009000014878000080fa00000006009f
:101250000800fa00004f78001147980022479800d4
:101260003347980044479800350798009e4078001f
:101270003e009000014878003e0090000000e80029
:10128000300798009e4090003e0090000148780092
:101290003e0090000000e80030079800ae4090004b
:1012a0003e009000014878003e0090000000e800f9
:1012b00030079800be4090003e0090000148780042
:1012c0003e0090000000e80030079800ce409000fb
:1012d0003e009000014878000080fa0000000600ff
:1012e0000800fa00004f7800114798002247980044
:1012f00033479800444798005547980036079800b0
:101300009e4078003e009000014878003e0090002a
:101310000000e800300798009e4090003e009000da
:10132000014878003e0090000000e8003007980077
:10133000ae4090003e009000014878003e009000d2
:101340000000e80030079800be4090003e0090008a
:10135000014878003e0090000000e8003007980047
:10136000ce4090003e009000014878003e00900082
:101370000000e80030079800de4090003e0090003a
:10138000014878000080fa00000006000600fa001c
:1013900010079800210798000040eb00004f7800ec
:1013a000110037001e80fb00800078001e009000b6
:1013b00000804000104078008080fb0000fd2f007e
:1013c00080804000a0b32000008040009040780062
:1013d0002e009000014878002e0090000000e800e8
:1013e000200798001e4fe80030c0b3009e4f100049
:1013f000ecff36000080fa00000006003c00fa0016
:10140000008fbe001e00be00200798003107980024
:101410002e009000be009000e00f5000e08f5800ba
:1014200008003d00f0ff2f00010020002e01900079
:10143000be0190000201400083814800220798000d
:10144000330798002e029000be02900040a8de00f4
:10145000cf80de00f20020000300280000027800a8
:1014600081027800020078008300780000016200a9
:10147000018062006102b800640798007507980057
:101480006e009000fe009000c000dd000000200013
:1014900060079800710798006e029000fe029000ad
:1014a00044079800550798006110b800600798003d
:1014b000710798004e019000de0190006e029000ce
:1014c000fe029000040171008581710042079800be
:1014d000530798004e009000de009000e00f50008f
:1014e000e08f580014003d004e019000de01900096
:1014f00061015100e08159004207980053079800ac
:1015000000ff2f00f1ff2f004e029000de0290003e
:10151000000272008182720044079800550798000b
:101520004e009000de00900061004000e080480026
:1015300040079800510798004e009000de00900090
:10154000800078000079280000804000104078007a
:1015500009e8b7001e00be00000f9800110f9800a8
:101560000e0990009e099000e00f5100e08f590095
:1015700008003d00f0ff2000010020000e0a90004e
:101580009e0a90000402400085824800040f9800e3
:10159000150f98000e0990009e099000441add0076
:1015a0004c10de0000007200cc98de00f20020003b
:1015b0000300280000027800810278000200780011
:1015c0008300780000016200018062006102b800bf
:1015d000440f9800550f98004e089000de089000c8
:1015e000c000dd0000002000400f9800510f98005f
:1015f0004e0a9000de0a9000240f9800350f9800e4
:101600006110b800400f9800510f98002e0990000b
:10161000be0990004e0a9000de0a9000040171009d
:1016200085817100220f9800330f98002e089000da
:10163000be089000e00f5000e08f580014003d00fd
:101640002e099000be09900061015100e08159000f
:10165000220f9800330f980000ff2f00f1ff2f009a
:101660002e0a9000be0a9000000272008182720071
:10167000240f9800350f98002e089000be089000a7
:1016800061004000e0804800200f9800310f980072
:101690002e089000be089000800078000079280095
:1016a00000804000104078000ae8b7001e00be002d
:1016b000600f9800710f98006e099000fe0990006d
:1016c000e00f5100e08f590006003d006e0a9000c7
:1016d000fe0a9000f40fb0000580b000640f98007f
:1016e000750f98006e099000fe099000481add0001
:1016f0004810de0000007200c898de00f2002000f2
:1017000003002800000278008102780002007800bf
:101710008300780000016200018062006102b8006d
:1017200024179800351798002e109000be109000d6
:10173000c000dd000000200020179800311798003d
:101740002e129000be1290000417980015179800f2
:101750006110b80020179800311798000e11900002
:101760009e1190002e129000be1290000401710094
:101770008581710002179800131798000e109000d1
:101780009e109000e00f5000e08f580014003d00c4
:101790000e1190009e11900061015100e0815900ee
:1017a000021798001317980000ff2f00f1ff2f0079
:1017b0000e1290009e129000000272008182720050
:1017c00004179800151798000e1090009e109000b6
:1017d00061004000e0804800001798001117980051
:1017e0000e1090009e109000800078000079280074
:1017f00000804000104078000be8b7001e00be00db
:1018000040179800511798004e119000de1190007b
:10181000e00f5100e08f590006003d004e1290008d
:10182000de1290006f024200e0824a0044179800e6
:10183000551798004e119000de1190004c1add00f3
:101840004410de0000007200c498de00f2002000a8
:10185000030028000002780081027800020078006e
:101860008300780000016200018062006102b8001c
:10187000041f9800151f98000e1890009e189000e5
:10188000c000dd0000002000001f9800111f98001c
:101890000e1a90009e1a9000641798007517980011
:1018a0006110b800001f9800111f98006e11900081
:1018b000fe1190000e1a90009e1a90000401710013
:1018c0008581710062179800731798006e10900060
:1018d000fe109000e00f5000e08f580014003d0013
:1018e0006e119000fe11900061015100e0815900dd
:1018f000621798007317980000ff2f00f1ff2f0068
:101900006e129000fe12900000027200818272003e
:1019100064179800751798006e109000fe109000e4
:1019200061004000e080480060179800711798003f
:101930006e109000fe109000800078000079280062
:1019400000804000104078000ce8b7001e00be0088
:10195000f2002000030028000002780081027800d5
:1019600002007800830078000001620001806200bc
:101970006102b800441f9800551f98004e1890004f
:10198000de189000c000dd0000002000401f98001d
:10199000511f98004e1a9000de1a9000241f9800e4
:1019a000351f98006110b800401f9800511f980023
:1019b0002e199000be1990004e1a9000de1a900069
:1019c0000401710085817100221f9800331f980067
:1019d0002e189000be189000e00f5000e08f5800c5
:1019e00014003d002e199000be19900061015100b5
:1019f000e0815900221f9800331f980000ff2f003c
:101a0000f1ff2f002e1a9000be1a90000002720003
:101a100081827200241f9800351f98002e189000b4
:101a2000be18900061004000e0804800201f980030
:101a3000311f98002e189000be189000800078008a
:101a40000079280000804000104078000de8b700c1
:101a50000080fa00000006000a00fa00008fbe00b5
:101a6000220798001e00be00a23a8400b33a840008
:101a700069fa0700e00f5000e08f58000d003200b7
:101a80001e00be00a23a8400b33a840062fa070046
:101a9000a2002000030020006ffa070080007800f9
:101aa000007928000080400010407800004f980026
:101ab000020037000040eb00004f98002e0090001d
:101ac0008e489000014878002e0090000000e80049
:101ad000200798001e00be00c23a8400d33a84005a
:101ae0004dfa0700e00f5000e08f58000d00320063
:101af0001e00be00c23a8400d33a840046fa0700b2
:101b0000a20020000300200053fa070080007800a4
:101b1000007928000080400010407800704798004d
:101b2000020037000040eb00704798002e00900044
:101b3000fe409000014878002e0090000000e80070
:101b4000200798001e00be00e23a8400f33a8400a9
:101b500031fa0700e00f5000e08f58000d0032000e
:101b60001e00be00e23a8400f33a84002afa07001d
:101b7000a20020000300200037fa07008000780050
:101b8000107a2800008040001040780060479800dc
:101b9000020037000040eb00604798002e009000e4
:101ba000ee409000014878002e0090000000e80010
:101bb000200798001e00be00023b8400133b8400f7
:101bc00015fa0700a20020000300200022fa0700f7
:101bd0008000780000792800008040009040780064
:101be0002e009000014878000080fa0000000600f6
:101bf0000600fa00000f7800110798001e00780018
:101c0000cf80de00e23a8400f33a840002fa070053
:101c1000e00f5000e08f58000e0032001e007800e8
:101c2000cf80de00e23a8400f33a8400faf907003c
:101c3000a20020000300200007fa070080007800bf
:101c4000007928000080400010407800404798004c
:101c5000020037000040eb00404798001e00900053
:101c6000ce409000014878001e0090000000e8007f
:101c7000100798001e007800cf80de00023b840031
:101c8000133b8400e4f90700a200200003002000b9
:101c9000f1f90700800078000079280000804000fa
:101ca000904078001e009000014878000080fa0003
:101cb000000006000800fa00000f780011079800e5
:101cc0001e007800cf80de00a23a8400b33a840080
:101cd000d1f90700e00f5000e08f58000e003200ed
:101ce0001e007800cf80de00a23a8400b33a840060
:101cf000c9f90700a200200003002000d6f9070060
:101d000080007800007928000080400010407800b2
:101d100060479800020037000040eb0060479800e1
:101d20001e009000ee409000014878001e009000d8
:101d30000000e800100798001e007800cf80de0049
:101d4000c23a8400d33a8400b3f90700e00f500090
:101d5000e08f58000e0032001e007800cf80de00b9
:101d6000c23a8400d33a8400abf90700a2002000f5
:101d700003002000b8f907008000780000792800ef
:101d80000080400010407800504798000200370063
:101d90000040eb00504798001e009000de4090008d
:101da000014878001e0090000000e800100798002d
:101db0001e007800cf80de00e23a8400f33a84000f
:101dc00095f90700e00f5000e08f58000e00320038
:101dd0001e007800cf80de00e23a8400f33a8400ef
:101de0008df90700a2002000030020009af90700e7
:101df00080007800007928000080400010407800c2
:101e000040479800020037000040eb004047980030
:101e10001e009000ce409000014878001e00900007
:101e20000000e800100798001e007800cf80de0058
:101e3000023b8400133b840077f90700a2002000d6
:101e40000300200084f90700800078000079280052
:101e500000804000904078001e009000014878000b
:101e60000080fa00000006000a00fa00008fbe00a1
:101e7000220798001e00be00223b8400333b8400f2
:101e800065f90700e00f5000e08f58000d003200a8
:101e90001e00be00223b8400333b84005ef9070035
:101ea000a2002000030020006bf9070080007800ea
:101eb000007928000080400010407800104f980002
:101ec000020037000040eb00104f98002e009000f9
:101ed0009e489000014878002e0090000000e80025
:101ee000200798001e00be00423b8400533b840044
:101ef00049f90700e00f5000e08f58000d00320054
:101f00001e00be00423b8400533b840042f90700a0
:101f1000a2002000030020004ff907008000780095
:101f2000007928000080400010407800004f9800a1
:101f3000020037000040eb00004f98002e00900098
:101f40008e489000014878002e0090000000e800c4
:101f5000200798001e00be00623b8400733b840093
:101f60002df90700e00f5000e08f58000d003200ff
:101f70001e00be00623b8400733b840026f907000c
:101f8000a20020000300200033f907008000780041
:101f900000792800008040001040780070479800c9
:101fa000020037000040eb00704798002e009000c0
:101fb000fe409000014878002e0090000000e800ec
:101fc000200798001e00be00823b8400933b8400e3
:101fd00011f90700e00f5000e08f58000d003200ab
:101fe0001e00be00823b8400933b84000af9070078
:101ff000a20020000300200017f9070080007800ed
:102000000079280000804000104078006047980068
:10201000020037000040eb00604798002e0090005f
:10202000ee409000014878002e0090000000e8008b
:10203000200798001e00be00a23b8400b33b840032
:10204000f5f80700a20020000300200002f90700b5
:1020500080007800007928000080400090407800df
:102060002e009000014878000080fa000000060071
:102070001400fa0040079800510798006207980082
:1020800010c0b300004f78004e009000de009000ba
:10209000e00f5000e08f580008003d000040eb00ca
:1020a000004f78004e009000de00900060001000ad
:1020b000e080180040079800510798004e009000fb
:1020c000de009000c23b8400d33b8400d2f80700be
:1020d000a200200003002000dff807008040780005
:1020e0000e00e800014878004e009000de009000ed
:1020f000e23b8400f33b8400c7f80700a200200005
:1021000003002000d4f80700804078000e00e800ab
:10211000114098004e009000de009000023c8400c8
:10212000133c8400bcf80700a2002000030020003c
:10213000c9f80700804078000e00e80021409800b0
:102140004e009000de009000223c8400333c84006e
:10215000b1f80700a200200003002000bef807002d
:10216000804078000e00e800314098004e0090005a
:10217000de009000423c8400533c8400a6f8070037
:10218000a200200003002000b3f807008040780080
:102190000e00e800414098004e009000de009000e4
:1021a000623c8400733c84009bf80700a20020007e
:1021b00003002000a8f80700804078000e00e80027
:1021c000514098001e04e0001b0032004e009000b9
:1021d000de009000c23b8400d33b84008ef80700f1
:1021e000e00f5000e08f58000e0032004e009000cb
:1021f000de009000c23b8400d33b840086f80700d9
:10220000a20020000300200093f80700800078005f
:102210000079280000804000104078002057980086
:10222000020037000040eb0020579800ae509000ad
:10223000315798000200370000c1b30030579800b2
:102240006e009000be509000014878006e00900033
:102250000000e800600798004e009000de0090004b
:10226000e23b8400f33b84006bf80700e00f500072
:10227000e08f58000e0032004e009000de0090000b
:10228000e23b8400f33b840063f80700a2002000d7
:102290000300200070f80700800078000079280013
:1022a000008040001040780010579800020037006e
:1022b0000040eb00105798006e0090009e50900078
:1022c000014878006e0090000000e8006007980068
:1022d0004e009000de009000023c8400133c84001d
:1022e0004df80700e00f5000e08f58000e0032005c
:1022f0004e009000de009000023c8400133c8400fd
:1023000045f80700a20020000300200052f8070053
:10231000800078000079280000804000104078009c
:1023200000579800020037000040eb00005798006b
:102330006e0090008e509000014878006e00900072
:102340000000e800600798004e009000de0090005a
:10235000223c8400333c84002ff80700e00f50003b
:10236000e08f58000e0032004e009000de0090001a
:10237000223c8400333c840027f80700a2002000a0
:102380000300200034f8070080007800007928005e
:102390000080400010407800704f98000200370025
:1023a0000040eb00704f98006e009000fe489000d7
:1023b000014878006e0090000000e8006007980077
:1023c0004e009000de009000423c8400533c8400ac
:1023d00011f80700e00f5000e08f58000e003200a7
:1023e0004e009000de009000423c8400533c84008c
:1023f00009f80700a20020000300200016f80700db
:1024000080007800007928000080400010407800ab
:10241000604f9800020037000040eb00604f9800ca
:102420006e009000ee489000014878006e00900029
:102430000000e800600798004e009000de00900069
:10244000623c8400733c8400f3f70700a200200084
:102450000300200000f807008000780000792800c1
:1024600000804000904078006e00900001487800a5
:102470000080fa00000006002400fa0040079800df
:1024800051079800424f98007307980010c0b3009e
:10249000004f78004e009000de009000e00f5000ea
:1024a000e08f580008003d000040eb00004f78002e
:1024b0004e009000de00900060001000e0801800e8
:1024c00040079800510798004e009000de009000f1
:1024d000c23b8400d33b8400cff70700a20020005a
:1024e00003002000dcf70700804078000e00e800c1
:1024f000014878004e009000de009000e23b84002e
:10250000f33b8400c4f70700a20020000300200072
:10251000d1f70700804078000e00e80011409800d5
:102520004e009000de009000023c8400133c8400ca
:10253000b9f70700a200200003002000c6f707003b
:10254000804078000e00e800214098004e00900086
:10255000de009000223c8400333c8400aef707008c
:10256000a200200003002000bbf707008040780095
:102570000e00e800314098004e009000de00900010
:10258000423c8400533c8400a3f70700a2002000d3
:1025900003002000b0f70700804078000e00e8003c
:1025a000414098004e009000de009000623c8400a4
:1025b000733c840098f70700a2002000030020006d
:1025c000a5f70700804078000e00e8005140980011
:1025d0001e04e000290032004e489000e54f5000f4
:1025e00013003a000e00e800104078000004e000fc
:1025f0000a0032000e00e800104078008080fb00e6
:1026000000792800008040009040780000c4b300aa
:1026100080c070001167980002003700f0ceb30050
:10262000106798009e6090002167980010003700a6
:102630000e00e800104078000004e00008003200be
:102640000e00e800104078008080fb000079280030
:1026500000804000104078000067980002003700ba
:102660000040eb00006798008e60900021679800a2
:102670002e609000306798000200370001c1b3005f
:10268000316798007e009000be609000014878009d
:102690007e0090000000e800700798004e4890000f
:1026a000e44f500013003a000e00e8001040900084
:1026b0000004e0000a0032000e00e8001040900024
:1026c0008080fb0000792800008040009040780066
:1026d00000c4b30080c07000615f98000200370042
:1026e000f0ceb300605f9800ee589000715f9800e4
:1026f000210037004e489000e44f5000080036009b
:102700000e00e800104090008080fb000079280057
:102710000080400010407800505f9800140037009f
:102720000e00e800104078000004e00004003a00c9
:102730000e00e800104090000004e00008003200a5
:102740000e00e800104090008080fb000079280017
:102750000080400010407800405f98000200370081
:102760000040eb00405f9800ce589000515f980009
:102770005e589000705f98007e009000fe589000b8
:10278000014878007e0090000000e8007007980083
:102790004e489000e34f500013003a000e00e8004e
:1027a000204090000004e0000a0032000e00e80023
:1027b000204090008080fb000079280000804000cd
:1027c0009040780000c4b30080c07000215f980082
:1027d00002003700f0ceb300205f9800ae589000a2
:1027e000315f9800250037004e489000e34f5000bd
:1027f000080036000e00e800204090008080fb00ba
:10280000007928000080400010407800105f980098
:10281000180037000e00e800104078000004e000c7
:1028200008003a000e00e800104090000004e000ac
:1028300004003a000e00e800204090000004e00090
:10284000080032000e00e800204090008080fb006d
:10285000007928000080400010407800005f980058
:10286000020037000040eb00005f98008e58900097
:10287000115f98001e589000305f98007e00900015
:10288000be589000014878007e0090000000e800eb
:10289000700798004e489000e24f500013003a0035
:1028a0000e00e800304090000004e0000a00320012
:1028b0000e00e800304090008080fb000079280086
:1028c000008040009040780000c4b30080c07000d9
:1028d0006157980002003700f0ceb30060579800af
:1028e000ee50900071579800290037004e48900034
:1028f000e24f5000080036000e00e8003040900023
:102900008080fb00007928000080400010407800a3
:10291000505798001c0037000e00e8001040780067
:102920000004e0000c003a000e00e80010409000a7
:102930000004e00008003a000e00e800204090008b
:102940000004e00004003a000e00e800304090006f
:102950000004e000080032000e00e8003040900063
:102960008080fb0000792800008040001040780043
:1029700040579800020037000040eb004057980095
:10298000ce509000515798005e50900070579800bc
:102990007e009000fe509000014878007e0090007c
:1029a0000000e800700798004e489000e14f50008a
:1029b00013003a000e00e800404090000004e000e0
:1029c0000a0032000e00e800404090008080fb00ca
:1029d00000792800008040009040780000c4b300d7
:1029e00080c070002157980002003700f0ceb3007d
:1029f00020579800ae509000315798002d003700b6
:102a00004e489000e14f5000080036000e00e800ec
:102a1000404090008080fb0000792800008040004a
:102a20001040780010579800200037000e00e80092
:102a3000104078000004e00010003a000e00e800aa
:102a4000104090000004e0000c003a000e00e80086
:102a5000204090000004e00008003a000e00e8006a
:102a6000304090000004e00004003a000e00e8004e
:102a7000404090000004e000080032000e00e80032
:102a8000404090008080fb000079280000804000da
:102a90001040780000579800020037000040eb001b
:102aa000005798008e509000115798001e509000cb
:102ab000305798007e009000be509000014878008a
:102ac0007e0090000000e800700798000e00e8000b
:102ad000504090008080fb0000792800008040007a
:102ae000904078007e009000014878000080fa0055
:102af000000006001600fa00200798003107980031
:102b0000420798002e009000cf80de00a23a840099
:102b1000b33a840040f60700a20020000300200022
:102b20004df60700004f78002e009000cf80de00a9
:102b3000c23a8400d33a840037f60700a20020008e
:102b40000300200044f60700104798002e00900074
:102b5000cf80de00e23a8400f33a84002ef60700cc
:102b6000a2002000030020003bf607002047980049
:102b70002e009000cf80de00023b8400133b8400d7
:102b800025f60700a20020000300200032f607000f
:102b9000304798003e009000e30f500011003a00cb
:102ba0001e4078000004e000090032001e4078005a
:102bb0008080fb0000792800008040009040780071
:102bc00000c4b30080c07000315798000200370085
:102bd000f0ceb30030579800be5090004157980097
:102be0000e0037001e4078000004e00007003200ad
:102bf0001e4078008080fb000079280000804000a3
:102c00001040780020579800020037000040eb0089
:102c100020579800ae509000415798004e00900009
:102c2000ce509000014878004e0090000000e8006f
:102c3000400798003e009000e20f500011003a005b
:102c40001e4090000004e000090032001e40900089
:102c50008080fb00007928000080400090407800d0
:102c600000c4b30080c07000015798000200370014
:102c7000f0ceb300005798008e5090001157980086
:102c80001d0037003e009000e20f500007003400a6
:102c90001e4090008080fb000079280000804000ea
:102ca00010407800704f9800110037001e407800e7
:102cb0000004e00003003a001e4090000004e00021
:102cc000070032001e4090008080fb000079280041
:102cd0000080400010407800604f980002003700ec
:102ce0000040eb00604f9800ee489000714f980054
:102cf0007e489000105798004e0090009e50900023
:102d0000014878004e0090000000e800400798005d
:102d10003e009000e10f500011003a002e4090005c
:102d20000004e000090032002e4090008080fb008b
:102d300000792800008040009040780000c4b30073
:102d400080c07000414f980002003700f0ceb30001
:102d5000404f9800ce489000514f98002000370017
:102d60003e009000e10f5000070034002e4090001c
:102d70008080fb000079280000804000104078002f
:102d8000304f9800140037001e4078000004e00027
:102d900006003a001e4090000004e00003003a00e4
:102da0002e4090000004e000070032002e4090000a
:102db0008080fb00007928000080400010407800ef
:102dc000204f9800020037000040eb00204f980091
:102dd000ae489000314f98003e489000504f980008
:102de0004e009000de489000014878004e009000b0
:102df0000000e800400798003e4090008080fb0003
:102e00000079280000804000904078004e0090003b
:102e1000014878000080fa00000006001a00fa005d
:102e200030079800410798003e009000cf80de00f8
:102e3000223b8400333b840077f50700a20020008a
:102e40000300200084f50700004f78003e0090004a
:102e5000cf80de00423b8400533b84006ef50700c8
:102e6000a2002000030020007bf507001047980017
:102e70003e009000cf80de00623b8400733b840004
:102e800065f50700a20020000300200072f507008e
:102e9000204798003e009000cf80de00823b8400f7
:102ea000933b84005cf50700a20020000300200093
:102eb00069f50700304798003e009000cf80de00a3
:102ec000a23b8400b33b840053f50700a20020001e
:102ed0000300200060f507003047980000438000a1
:102ee000e40f500011003a001e4078000004e0009a
:102ef000090032001e4078008080fb000079280025
:102f0000008040009040780000c4b30080c0700092
:102f10007157980002003700f0ceb3007057980048
:102f2000fe509000015f98000e0037001e407800b0
:102f30000004e000070032001e4078008080fb00a3
:102f40000079280000804000104078006057980009
:102f5000020037000040eb0060579800ee509000f0
:102f6000015f98004e0090008e5890000148780054
:102f70004e0090000000e8004007980000438000e9
:102f8000e30f500011003a001e4090000004e000e2
:102f9000090032001e4090008080fb00007928006c
:102fa000008040009040780000c4b30080c07000f2
:102fb0004157980002003700f0ceb3004057980008
:102fc000ce509000515798001d00370000438000fc
:102fd000e40f5000070034001e4090008080fb008a
:102fe0000079280000804000104078003057980099
:102ff000110037001e4078000004e00003003a0092
:103000001e4090000004e000070032001e409000c7
:103010008080fb000079280000804000104078008c
:1030200020579800020037000040eb00205798001e
:10303000ae509000315798003e5090005057980085
:103040004e009000de509000014878004e00900045
:103050000000e8004007980000438000e20f5000a5
:1030600011003a002e4090000004e00009003200f8
:103070002e4090008080fb000079280000804000f6
:103080009040780000c4b30080c0700001579800e1
:1030900002003700f0ceb300005798008e50900029
:1030a000115798002000370000438000e30f5000c4
:1030b000070034002e4090008080fb00007928003b
:1030c0000080400010407800704f980014003700d6
:1030d0001e4078000004e00006003a001e40900008
:1030e0000004e00003003a002e4090000004e000dd
:1030f000070032002e4090008080fb0000792800fd
:103100000080400010407800604f980002003700b7
:103110000040eb00604f9800ee489000714f98001f
:103120007e489000105798004e0090009e509000ee
:10313000014878004e0090000000e8004007980029
:1031400000438000e10f500011003a003e40900023
:103150000004e000090032003e4090008080fb0047
:1031600000792800008040009040780000c4b3003f
:1031700080c07000414f980002003700f0ceb300cd
:10318000404f9800ce489000514f980023003700e0
:1031900000438000e20f5000070034003e409000e2
:1031a0008080fb00007928000080400010407800fb
:1031b000304f9800170037001e4078000004e000f0
:1031c00009003a001e4090000004e00006003a00aa
:1031d0002e4090000004e00003003a003e409000c2
:1031e0000004e000070032003e4090008080fb00b9
:1031f000007928000080400010407800204f98009f
:10320000020037000040eb00204f9800ae489000cd
:10321000314f98003e489000504f98004e0090006b
:10322000de489000014878004e0090000000e80061
:10323000400798004e4090008080fb0000792800f5
:1032400000804000904078004e00900001487800d7
:103250000080fa00000006000800fa00000f780065
:10326000cccabf000044b2000004e0000f003a00e6
:1032700015c8bf000004e0000700320015c8bf00f9
:103280008080fb000079280000804000104078001a
:1032900050479800020037000040eb00504798006c
:1032a000de40900061479800020037000040eb00cc
:1032b000604798001e007800ee40900001487800ba
:1032c0001e0fe800cccabf000044b2000004e000ba
:1032d00012003a0015c8bf000004e00003003a00e5
:1032e00016c8bf000004e0000700320016c8bf0087
:1032f0008080fb00007928000080400010407800aa
:1033000030479800020037000040eb00304798003b
:10331000be40900041479800020037000040eb009b
:10332000404798001e007800ce4090000148780089
:103330001e0fe800cccabf000044b2000004e00049
:1033400007003a0018c8bf008080fb000079280001
:1033500000804000104078002047980002003700ad
:103360000040eb00204798001e007800ae4090001f
:10337000014878000080fa00000006000c00fa0006
:10338000000f7800cccabf000044b2000004e00087
:103390000f003a0015c8bf000004e000070032002b
:1033a00015c8bf008080fb00007928000080400025
:1033b00010407800104f9800020037000040eb00ea
:1033c000104f98009e489000214f9800020037004f
:1033d0000040eb00204f98001e007800ae4890009f
:1033e000014878001e0fe800cccabf000044b200bc
:1033f0000004e00012003a0015c8bf000004e0001d
:1034000003003a0016c8bf000004e00007003200c5
:1034100016c8bf008080fb000079280000804000b3
:103420001040780070479800020037000040eb0021
:1034300070479800fe409000014f9800020037004e
:103440000040eb00004f98001e0078008e4890006e
:10345000014878001e0fe800cccabf000044b2004b
:103460000004e00015003a0015c8bf000004e000a9
:1034700006003a0016c8bf000004e00003003a004e
:1034800017c8bf000004e0000700320017c8bf00e3
:103490008080fb0000792800008040001040780008
:1034a00050479800020037000040eb00504798005a
:1034b000de40900061479800020037000040eb00ba
:1034c000604798001e007800ee40900001487800a8
:1034d0001e0fe800cccabf000044b2000004e000a8
:1034e00018003a0015c8bf000004e00009003a00c7
:1034f00016c8bf000004e00006003a0017c8bf006d
:103500000004e00003003a0018c8bf000004e00017
:103510000700320018c8bf008080fb000079280037
:1035200000804000104078003047980002003700cb
:103530000040eb0030479800be40900041479800a3
:10354000020037000040eb00404798001e00780062
:10355000ce409000014878001e0fe800cccabf00a2
:103560000044b2000004e00007003a0019c8bf00a0
:103570008080fb0000792800008040001040780027
:1035800020479800020037000040eb0020479800d9
:103590001e007800ae409000014878000080fa00dc
:1035a000000006000a00fa00000f78001cc8bf00e7
:1035b000e14f500010003a00cccabf000044b200f6
:1035c0000004e00007003a0015c8bf008080fb003f
:1035d000007928000080400010407800004f9800db
:1035e000020037000040eb00004f98008e4890002a
:1035f000114f98000600370015c8bf008080fb00ff
:10360000007928000080400010407800104f98009a
:103610001e0078009e489000014878001e0fe800c8
:103620001cc8bf00e24f500013003a00cccabf00d4
:103630000044b2000004e0000a003a0016c8bf00cf
:103640008080fb0000792800008040001040780056
:103650008040780000c4b30000c07000604798004c
:103660000200370000c4b30060479800ee409000ad
:10367000714798000800370016c8bf008080fb0023
:1036800000792800008040009040780000c4b3001a
:1036900080c07000714798001e007800fe409000c6
:1036a000014878001e0fe8001cc8bf00e34f50001f
:1036b00011003a00cccabf000044b2000004e00090
:1036c00008003a0017c8bf008080fb00107a28006d
:1036d00000804000104078000044a000404798005f
:1036e0000200370000c1b30040479800ce40900070
:1036f000514798000800370017c8bf008080fb00c2
:10370000107a280000804000104078008040780047
:103710000144a000514798001e007800de40900050
:10372000014878001e0fe8001cc8bf00e44f50009d
:1037300010003a00cccabf000044b2000004e00010
:1037400007003a0018c8bf008080fb0000792800fd
:1037500000804000104078002047980002003700a9
:103760000040eb0020479800ae40900031479800a1
:103770000600370018c8bf008080fb0000792800d1
:103780000080400010407800304798001e0078000c
:10379000be409000014878000080fa00000006005a
:1037a0000200fa00004f7800114798001e80fb00cd
:1037b000a2002000110009000280d8008080fb00d8
:1037c00000792800008040001040780009e8b70028
:1037d0001e80fb00a2002000110009000280d8001a
:1037e0008000fd008080fb00007928000080400000
:1037f0009040780000c4b30000c070000ae8b70031
:103800001e4090000080fb00a20020001100090073
:103810000280d8008080fb00107a280000804000e1
:10382000104078000044a0000be8b7001e40900054
:103830000080fb00a2002000110009000280d800d7
:103840008000fd008080fb0000792800008040009f
:10385000104078000ce8b7000080fa000000060075
:103860002c00fa0060079800710798000257980032
:10387000130f98000e509000504798006e00900073
:10388000fe009000008fbe0010c0b30040479800bb
:103890001e00be00e00f5000e08f580006003d0003
:1038a0000040eb00404798001e00be006000100082
:1038b000e0801800008fbe001e00be00026a2800d3
:1038c00013002000e7f20700a20020000300200000
:1038d000f3f2070080407800660047000148780056
:1038e0001e00be000271220003002000ddf207006e
:1038f000a200200003002000e9f2070080407800c9
:1039000066004700114098001e00be00823e200065
:1039100003002000d3f20700a200200003002000d3
:10392000dff20700804078006600470021409800e1
:103930001e00be004206200003002000c9f207005e
:10394000a200200003002000d5f20700804078008c
:1039500066004700314098001e00be00a200200013
:1039600003002000bff20700a20020000300200097
:10397000cbf2070080407800660047004140980085
:103980001e00be00a200200003002000c4f20700b9
:103990008040780066004700514098005e409000eb
:1039a000e54f50002a003a006600470010407800ba
:1039b0000004e0000b003a004e4090000004e000dc
:1039c00003003a0001c1b300016f98000200370004
:1039d000f0ceb300006f98008e689000116f9800d1
:1039e000180037004e4090000004e0000a003a0042
:1039f00066004700104078008080fb0000792800b6
:103a0000008040009040780000c5b30080c0700086
:103a10007167980009003700660047001040780081
:103a20008080fb00007928000080400090407800f2
:103a300000c4b30080c07000716798007e60900081
:103a4000106f98009e689000216f98002700370043
:103a500066004700104078000004e0000b003a00c8
:103a60004e4090000004e00003003a0000c1b300a3
:103a700050679800020037008040eb0051679800c3
:103a80005e60900060679800160037004e4090001e
:103a90000004e0000a003a00660047001040780089
:103aa0008080fb00007928000080400010407800f2
:103ab000804078000144a00041679800070037006b
:103ac00066004700104078008080fb0000792800e5
:103ad0000080400010407800406798004e609000e1
:103ae00060679800ee609000216f98001e089000bb
:103af000ae689000014878001e0890000000e800c1
:103b0000100f98005e409000e44f500013003a0000
:103b100066004700104090000004e0000a003200f8
:103b200066004700104090008080fb00007928006c
:103b3000008040009040780000c4b30080c0700056
:103b40002167980002003700f0ceb300206798008c
:103b5000ae60900031679800210037005e40900011
:103b6000e44f500008003600660047001040900007
:103b70008080fb0000792800008040001040780021
:103b80001067980014003700660047001040780066
:103b90000004e00004003a00660047001040900076
:103ba0000004e0000800320066004700104090006a
:103bb0008080fb00007928000080400010407800e1
:103bc00000679800020037000040eb000067980093
:103bd0008e609000116798001e609000306798001a
:103be0001e089000be609000014878001e089000fa
:103bf0000000e800100f98005e409000e34f500076
:103c000013003a0066004700204090000004e000e6
:103c10000a00320066004700204090008080fb00d0
:103c200000792800008040009040780000c4b30074
:103c300080c07000615f980002003700f0ceb300d2
:103c4000605f9800ee589000715f98002500370083
:103c50005e409000e34f50000800360066004700c9
:103c6000204090008080fb00007928000080400008
:103c700010407800505f9800180037006600470039
:103c8000104078000004e00008003a006600470099
:103c9000104090000004e00004003a006600470075
:103ca000204090000004e000080032006600470059
:103cb000204090008080fb000079280000804000b8
:103cc00010407800405f9800020037000040eb0091
:103cd000405f9800ce589000515f98005e58900069
:103ce000705f98001e089000fe5890000148780010
:103cf0001e0890000000e800100f98005e40900041
:103d0000e24f500013003a00660047003040900038
:103d10000004e0000a0032006600470030409000d6
:103d20008080fb00007928000080400090407800ef
:103d300000c4b30080c07000215f9800020037000b
:103d4000f0ceb300205f9800ae589000315f98002d
:103d5000290037005e409000e24f50000800360016
:103d600066004700304090008080fb00007928000a
:103d70000080400010407800105f98001c00370061
:103d800066004700104078000004e0000c003a0094
:103d900066004700104090000004e00008003a0070
:103da00066004700204090000004e00004003a0054
:103db00066004700304090000004e0000800320038
:103dc00066004700304090008080fb0000792800aa
:103dd0000080400010407800005f9800020037002b
:103de0000040eb00005f98008e589000115f980033
:103df0001e589000305f98001e089000be5890003a
:103e0000014878001e0890000000e800100f98009c
:103e10005e409000e14f500013003a0066004700fa
:103e2000404090000004e0000a00320066004700b5
:103e3000404090008080fb00007928000080400016
:103e40009040780000c4b30080c0700061579800b3
:103e500002003700f0ceb30060579800ee5090009b
:103e6000715798002d0037005e409000e14f5000e0
:103e70000800360066004700404090008080fb004c
:103e800000792800008040001040780050579800ca
:103e90002000370066004700104078000004e00072
:103ea00010003a0066004700104090000004e00057
:103eb0000c003a0066004700204090000004e0003b
:103ec00008003a0066004700304090000004e0001f
:103ed00004003a0066004700404090000004e00003
:103ee0000800320066004700404090008080fb00e0
:103ef000007928000080400010407800405798006a
:103f0000020037000040eb0040579800ce50900070
:103f1000515798005e509000705798001e0890000e
:103f2000fe509000014878001e0890000000e80054
:103f3000100f980066004700504090008080fb0002
:103f40000079280000804000904078001e08900012
:103f5000014878000080fa00000006002000fa0006
:103f6000404f9800710798004e48900040479800d5
:103f7000cccabf000080fb004500de00614060004d
:103f8000304798005181200091407800650047003b
:103f90000148780061812000914078006500470069
:103fa0001140980071812000914078006500470021
:103fb00021409800818120009140780065004700f1
:103fc000314098000040eb00204798004e409000a0
:103fd0008080fb002e4090000080fb0063001000fa
:103fe000808f500030003a002e4090008080fb000f
:103ff00065004700614078000004e0000b003a00d3
:104000003e4090000004e0000300320001c5b30010
:10401000415f980002003700f0ceb300405f980087
:10402000ce589000515f98001c0037003e40900031
:104030000004e0000c0032002e4090008080fb0065
:1040400065004700614078008080fb00007928000f
:10405000008040009040780000c5b30080c0700030
:10406000315f98000b0037002e4090008080fb00ed
:1040700065004700614078008080fb0000792800df
:10408000008040009040780000c4b30080c0700001
:10409000315f98003e589000505f9800de589000c5
:1040a000615f98002d0037002e4090008080fb005b
:1040b00065004700614078000004e0000b003a0012
:1040c0003e4090000004e0000300320000c1b30055
:1040d000105f9800020037008040eb00115f9800ed
:1040e0001e589000205f98001a0037003e40900054
:1040f0000004e0000c0032002e4090008080fb00a5
:1041000065004700614078008080fb00007928004e
:104110000080400010407800804078000144a000fa
:10412000015f9800090037002e4090008080fb005e
:1041300065004700614078008080fb00007928001e
:104140000080400010407800005f98000e589000fa
:10415000205f9800ae589000615f98007e0090004c
:10416000ee589000014878007e0090000000e800c2
:10417000700798002e4090000040e800204798000b
:104180004e4090008080fb002e4090000080fb009d
:1041900063001000808f500017003a002e409000fe
:1041a0008080fb0065004700614078000004e0006b
:1041b0000c0032002e4090008080fb00650047001c
:1041c000614078008080fb0000792800008040007a
:1041d0009040780000c4b30080c070006157980020
:1041e00002003700f0ceb30060579800ee50900008
:1041f000715798002e0037004e4090008080fb00e1
:104200002e4090000080fb0063001000808f500063
:104210000a0034002e4090008080fb0065004700bb
:10422000614078008080fb00007928000080400019
:1042300010407800505798001b0037002e40900027
:104240000080fb008000e9006500470061407800c5
:104250000004e00006003a002e4090008080fb0041
:1042600065004700614078000004e0000a00320069
:104270002e4090008080fb00650047006140780080
:104280008080fb000079280000804000104078000a
:1042900040579800020037000040eb00405798005c
:1042a000ce509000515798005e5090007057980083
:1042b0007e009000fe509000014878007e00900043
:1042c0000000e800700798002e4090000040e800d1
:1042d000204798004e4090008080fb002e409000c8
:1042e0000080fb0063001000808f500017003a0030
:1042f0002e4090008080fb00650047006140780000
:104300000004e0000c0032002e4090008080fb0092
:1043100065004700614078008080fb00007928003c
:10432000008040009040780000c4b30080c070005e
:104330002157980002003700f0ceb30020579800b4
:10434000ae50900031579800350037004e40900035
:104350008080fb002e4090000080fb006300100076
:10436000808f50000a0034002e4090008080fb00b7
:1043700065004700614078008080fb0000792800dc
:10438000008040001040780010579800220037004d
:104390002e4090000080fb008080e900650047000f
:1043a000614078000004e0000d003a002e409000cb
:1043b0000080fb008000e900650047006140780054
:1043c0000004e00006003a002e4090008080fb00d0
:1043d00065004700614078000004e0000a003200f8
:1043e0002e4090008080fb0065004700614078000f
:1043f0008080fb0000792800008040001040780099
:1044000000579800020037000040eb00005798006a
:104410008e509000115798001e5090003057980011
:104420007e009000be509000014878007e00900011
:104430000000e800700798002e4090000040e8005f
:10444000204798002e4090008080fb0065004700c8
:10445000614078008080fb000079280000804000e7
:10446000904078007e009000014878000080fa00bb
:10447000000006000200fa002cc8bf000080fb000c
:10448000000f78001e007800e10f50001c00320081
:104490001e007800e20f50002e0032001e0078004f
:1044a0000000e000010032003e0037009480200050
:1044b00080c1eb0000c1eb0080c0eb0000c0eb004e
:1044c00046f30700d08020000002780080c1eb0096
:1044d00000c1eb0080c0eb0000c0eb003ff3070021
:1044e000108120000002780080c1eb0000c1eb00c9
:1044f00080c0eb0000c0eb0038f307002900370054
:10450000948020008041eb000041eb008040eb00f4
:104510000040eb0031f30700d0802000000278005b
:1045200033c8b30032c0b30031c3b300c0cab30054
:104530002af3070010812000000278008041eb0080
:104540000041eb008040eb000040eb0023f307004c
:1045500014003700948020008041eb000041eb0004
:104560008040eb000040eb001cf30700d0802000ef
:10457000000278008041eb000041eb008040eb003e
:104580000040eb0015f307001081200000027800c6
:104590008041eb000041eb008040eb000040eb006d
:1045a0000ef307000080fa00000006000800fa0081
:1045b0000143800040438000928020004df90700b5
:1045c000d2802000014380003043800049f9070079
:1045d0002043800082252000110009000200d8003d
:1045e000a2002000110009000200d8008000fd0098
:1045f000804078000e00e8000148780020438000e9
:10460000c2032000110009000200d800a20020000f
:10461000110009000200d8008000fd0080407800f1
:104620000e00e8001140980020438000c2032000e3
:10463000110009000200d8008000fd00a200200047
:10464000110009000200d800a2002000110009009a
:104650000200d8008000fd00804078000e00e800d5
:104660002140980020438000c2032000110009006f
:104670000200d8008000fd00a20020001100090007
:104680000200d8008000fd00804078000e00e800a5
:10469000314098000040eb00004f78001e80fb0086
:1046a000680140009e80fb000e00e8006140780039
:1046b0008080fb0000792800008040009040780056
:1046c0009080200000004100014878001e4fe80063
:1046d0001e80fb00680140009e80fb000e00e80089
:1046e000614078008080fb00007928000080400055
:1046f0009040780000c4b30080c07000908020001b
:1047000000004100014878001e4fe8001e80fb00b9
:10471000680140009e80fb000e00e80061407800c8
:104720008080fb00107a2800008040001040780054
:10473000804078000144a0009080200000004100eb
:10474000014878001e4fe8001e80fb006801400011
:104750009e80fb000e00e800614078008080fb0036
:104760000079280000804000904078009080200070
:1047700000004100014878001e4fe8000080fa0068
:10478000000006000000fa000080fa0000000600a9
:104790000000fa000080fa00000006000000fa00a5
:1047a0009480200080c1eb0000c1eb0080c0eb00d2
:1047b00000c0eb0089f20700d080200000027800e2
:1047c00080c1eb0000c1eb0080c0eb0000c0eb003b
:1047d00082f20700108120000002780080c1eb0007
:1047e00000c1eb0080c0eb0000c0eb007bf20700d3
:1047f000f04480000000e800f0448800f1448000ac
:10480000700c2000808f5000030036000000eb0089
:10481000f0448800cd1507000080fa000000060073
:104820000000fa00fbf10700cccabf000044b20050
:104830000004e00008003a00958020000042eb00f0
:104840008041eb000041eb008040eb000040eb00ba
:104850007ff207000700370095802000a4c1b30055
:10486000c3cab30062cfb30081c2b300f0c1b300ca
:1048700077f2070080c9bf000004e00001003200a9
:10488000b21507000080fa00000006000000fa00e0
:104890000080fa00000006000200fa00fdf10700a7
:1048a00094802000f3c1b300f2c1b300b1cbb300d8
:1048b0000040eb0049f207000040eb000de8b700b4
:1048c00016c8bf000004e0000700320016c8bf0091
:1048d0008080fb00007928000080400010407800b4
:1048e00010479800020037000040eb001047980086
:1048f0001e4090000ee8b70016c8bf000004e0009c
:1049000003003a0017c8bf000004e00007003200af
:1049100017c8bf008080fb0000792800008040009d
:1049200010407800004f7800020037000040eb0094
:10493000004f78001e4078000fe8b70018c8bf008d
:104940008080fb0000792800008040001040780043
:1049500010e8b700cccabf000044b2000004e00079
:1049600007003200d0802000000278008041eb0078
:104970000041eb008040eb000040eb0017f2070025
:1049800010812000000278008041eb000041eb0024
:104990008040eb000040eb0010f207000080fa00be
:1049a000000006000200fa00baf10700948020001f
:1049b00063cbb30092cbb300e1c3b3000040eb0084
:1049c00006f2070018c8bf000080fb00000f780047
:1049d0001e007800e20f5000210032001e00780017
:1049e000e20f500007003c001e0078000000e000cd
:1049f0000b0032001e007800e10f50001000320062
:104a00002e0037001e007800e30f50001c0032001b
:104a10001e007800e40f500021003200270037000c
:104a2000d080200000027800f3cbb30032c7b3007f
:104a30008040eb000040eb00e8f107001f0037006a
:104a4000d080200000027800e3cbb30072cfb30027
:104a50008040eb000040eb00e0f10700170037005a
:104a6000d080200000027800d3c9b30072cfb30019
:104a700031c0b3000040eb00d8f107000f00370051
:104a8000d08020000002780033c3b30000c1eb00e7
:104a900071c9b3000040eb00d0f1070007003700f8
:104aa000d080200000027800e3cbb30032ccb3000a
:104ab00061cbb3000040eb00c8f10700cccabf00d7
:104ac0000044b2000004e00007003200d080200063
:104ad000000278008041eb000041eb008040eb00d9
:104ae0000040eb00bdf107001081200000027800bb
:104af0008041eb000041eb008040eb000040eb0008
:104b0000b6f107000080fa00000006000200fa007b
:104b100060f1070094802000a3c8b300a2c8b300ce
:104b2000e1c1b300c0cab300acf1070018c8bf00b0
:104b30000080fb00000f78001e007800e10f50009d
:104b40000f0032001e007800e20f50001400320007
:104b50001e0078000000e00001003200170037005e
:104b6000d08020000002780033c0b300a2c1b3009f
:104b7000f1cbb3000040eb0098f107000f003700c5
:104b8000d08020000002780033c0b300e2c1b3003f
:104b9000f1cbb3000040eb0090f1070007003700b5
:104ba000d08020000002780033c0b300c2cbb30035
:104bb000f1cbb3000040eb0088f10700cccabf0086
:104bc0000044b2000004e00007003200d080200062
:104bd000000278008041eb000041eb008040eb00d8
:104be0000040eb007df107001081200000027800fa
:104bf0008041eb000041eb008040eb000040eb0007
:104c000076f107000080fa00000006000200fa00ba
:104c100020f107009380200082c1b300f1c1b300ee
:104c2000b0cbb30057f1070016c8bf000004e00086
:104c30000700320016c8bf008080fb000079280002
:104c400000804000104078001047980002003700b4
:104c50000040eb00104798001e4090000de8b700a0
:104c600016c8bf000004e00003003a0017c8bf00e8
:104c70000004e0000700320017c8bf008080fb007e
:104c8000007928000080400010407800004f780034
:104c9000020037000040eb00004f78001e40780013
:104ca0000ee8b70018c8bf008080fb00007928001c
:104cb00000804000104078000fe8b700cccabf0069
:104cc0000044b2000004e00006003200d080200062
:104cd000800178000041eb008040eb000040eb00d9
:104ce00028f107000080fa00000006000200fa0028
:104cf000e8f007009380200072cbb300a1c1b3009d
:104d0000c0c2b3001ff1070016c8bf000004e000d6
:104d10000700320016c8bf008080fb000079280021
:104d200000804000104078001047980002003700d3
:104d30000040eb00104798001e4090000de8b700bf
:104d400016c8bf000004e00003003a0017c8bf0007
:104d50000004e0000700320017c8bf008080fb009d
:104d6000007928000080400010407800004f780053
:104d7000020037000040eb00004f78001e40780032
:104d80000ee8b70018c8bf008080fb00007928003b
:104d900000804000104078000fe8b700cccabf0088
:104da0000044b2000004e00006003200d080200081
:104db000800178000041eb008040eb000040eb00f8
:104dc000f0f007000080fa00000006000200fa0080
:104dd000b0f0070093802000c2c2b300e1c1b3006d
:104de00090cbb300e7f0070016c8bf000004e00056
:104df0000700320016c8bf008080fb000079280041
:104e000000804000104078001047980002003700f2
:104e10000040eb00104798001e4090000de8b700de
:104e200016c8bf000004e00003003a0017c8bf0026
:104e30000004e0000700320017c8bf008080fb00bc
:104e4000007928000080400010407800004f780072
:104e5000020037000040eb00004f78001e40780051
:104e60000ee8b70018c8bf008080fb00007928005a
:104e700000804000104078000fe8b700cccabf00a7
:104e80000044b2000004e00006003200d0802000a0
:104e9000800178000041eb008040eb000040eb0017
:104ea000b8f007000080fa00000006000200fa00d7
:104eb00078f007009380200062cbb300c1cbb30031
:104ec00080c1b300aff0070016c8bf000004e000c7
:104ed0000700320016c8bf008080fb000079280060
:104ee0000080400010407800104798000200370012
:104ef0000040eb00104798001e4090000de8b700fe
:104f000016c8bf000004e00003003a0017c8bf0045
:104f10000004e0000700320017c8bf008080fb00db
:104f2000007928000080400010407800004f780091
:104f3000020037000040eb00004f78001e40780070
:104f40000ee8b70018c8bf008080fb000079280079
:104f500000804000104078000fe8b700cccabf00c6
:104f60000044b2000004e00006003200d0802000bf
:104f7000800178000041eb008040eb000040eb0036
:104f800080f007000080fa00000006000000fa0030
:104f90000080fa00000006000000fa009480200063
:104fa00003c1b3000041eb008040eb000040eb0088
:104fb0008af00700d08020000002780003c1b3000f
:104fc0000041eb008040eb000040eb0083f0070065
:104fd000108120000002780003c1b3000041eb0003
:104fe0008040eb000040eb007cf007000080fa00fe
:104ff000000006000000fa000080fa000000060031
:105000000000fa000080fa00000006000000fa002c
:105010000080fa00000006000000fa001df0070002
:105020000043800091802000ccfb0700cccabf0069
:105030000044b2000004e00006003200948020002a
:105040008041eb000041eb008040eb000040eb00b2
:1050500062f007000080fa00000006000000fa007d
:105060000cf00700d180200000438000bbfb07004c
:10507000cccabf000044b2000004e00007003200c8
:10508000d0802000000278008041eb000041eb005e
:105090008040eb000040eb0050f007000080fa0079
:1050a000000006000c00fa00faef0700cccabf00af
:1050b0000080fb004500de00614060003047980042
:1050c0005181200091407800650047000148780038
:1050d00061812000914078006500470011409800f0
:1050e00071812000914078006500470021409800c0
:1050f0008181200091407800650047003140980090
:105100000040eb00204798002e4090000080fb00fc
:10511000680140002e4090008080fb006500470041
:10512000614078008080fb0000792800008040000a
:1051300090407800908020000000410001487800f5
:105140002e4090000040e800204798002e4090003c
:105150000080fb00680140002e4090008080fb0032
:1051600065004700614078008080fb0000792800de
:1051700000804000904078009080200000004100b6
:10518000014878002e4090000040e8002047980039
:105190002e4090000080fb00680140002e409000ef
:1051a0008080fb0065004700614078008080fb0044
:1051b000107a280000804000904078009080200005
:1051c00000004100014878002e4090000040e800b7
:1051d000204798002e4090000080fb0068014000ae
:1051e0002e4090008080fb00650047006140780001
:1051f0008080fb000079280000804000904078000b
:105200009080200000004100014878002e4090006e
:105210000040e80020479800cccabf000044b2001c
:105220000004e000070032001cc8bf000080fb0043
:10523000e700400090802000808040000040eb00ac
:1052400080487800218120009140780000c4b3009c
:1052500000c0700012e8b70013c8bf000044a000ef
:1052600013e8b7000080fa00000006000000fa0012
:1052700088ef070051812000f042800037fb0700d3
:10528000cccabf000044b2000004e00007003200b6
:1052900050812000000278008041eb000041eb00cb
:1052a0008040eb000040eb00ccef07000080fa00ec
:1052b000000006000200fa0076ef070017c8bf00e2
:1052c0000004e0000700320017c8bf008080fb0028
:1052d000007928000080400010407800004f7800de
:1052e000020037000040eb00004f78001e407800bd
:1052f00019e8b70018c8bf008080fb0000792800bb
:1053000000804000104078001ae8b700b18120000a
:10531000d042800036f20700d1812000c0428000d8
:1053200033f20700cccabf000044b2000004e00022
:1053300004003200928120008040eb000040eb002e
:1053400081ef07000080fa00000006000200fa006a
:1053500050ef070017c8bf000004e000070032004c
:1053600017c8bf008080fb00007928000080400043
:1053700010407800004f7800020037000040eb003a
:10538000004f78001e4078001be8b70018c8bf0027
:105390008080fb00007928000080400010407800e9
:1053a0001ce8b70091812000e042800010f2070065
:1053b000d1812000c04280000df20700cccabf009e
:1053c0000044b2000004e00004003200b28120007a
:1053d0008040eb000040eb005bef07000080fa002c
:1053e000000006000200fa002aef070017c8bf00fd
:1053f0000004e0000700320017c8bf008080fb00f7
:10540000007928000080400010407800004f7800ac
:10541000020037000040eb00004f78001e4078008b
:105420001de8b70018c8bf008080fb000079280085
:1054300000804000104078001ee8b70091812000f5
:10544000e0428000eaf10700b1812000d0428000f4
:10545000e7f10700cccabf000044b2000004e0003e
:1054600004003200d28120008040eb000040eb00bd
:1054700035ef07000080fa00000006000000fa0087
:105480000080fa00000006000000fa000080fa0028
:10549000000006000000fa000080fa00000006008c
:1054a0000000fa000080fa00000006000000fa0088
:1054b0000080fa00000006000000fa00da62a8008e
:1054c0000080fa00000006000000fa00da62a9007d
:1054d0000080fa00000006000600fa00100798009d
:1054e0004147980000c0eb00ffe8b700ffc8bf00cd
:1054f000fee8b7000040eb001047980018003700a6
:10550000e18f2000914078001e009000104078004c
:1055100000cf6800f28f2000124178009e80fb00cf
:10552000405528000080400010407800004069008d
:10553000fee8b7009e80fb00406528000080400028
:1055400010407800ffe8b7001e4090000040e800df
:10555000104798001e0090000000e8001007980017
:105560009e4090004e40900080cf5000e4ff3900f4
:105570000080fa00000006000600fa00000f780024
:1055800021479800ae4090001e007800d2ff07002f
:105590002e4090000080fb001e00400090407800ec
:1055a000fec8bf0080cf50000b003a002e40900094
:1055b0000080fb001e0040000000e80090407800e2
:1055c000ffc8bf0080cf500003003a001000200049
:1055d00020079800020037000000eb002007980029
:1055e0004e4090000000fb000080fa000000060022
:1055f0003c00fa00204798002107980032079800e5
:10560000034f9800540798006507980076079800a4
:105610007e009000000f78007e009000ae40900069
:10562000014878007e0090000000e80070079800b4
:10563000fe00900000c1b300804878007e0090001a
:105640000000e800700798002e0090004800de007f
:10565000804078007e009000014878007e00900035
:105660000000e800700798002e009000804078004d
:105670007e009000014878007e0090000000e80065
:10568000700798003e0090004800de0080407800df
:105690007e009000014878007e0090000000e80045
:1056a000700798003e009000804078007e009000d7
:1056b000014878007e0090000000e8007007980024
:1056c0007e0090000e499000024878007e00900015
:1056d0000000e800700798005e009000ee00900067
:1056e000000f9800110f98000e0a90009e0a90007b
:1056f000e00f5200e08f5a0008003d00f0ff2f003d
:10570000f10f20000e0990009e0990000201400058
:1057100083814800020f9800130f98000e0a900032
:105720009e0a900048a8de00cf80de00f20f200025
:10573000030028000002780081027800020078004f
:105740008300780000016200018062006102b800fd
:10575000440f9800550f98004e089000de08900006
:10576000c000dd0000002000400f9800510f98009d
:105770004e0a9000de0a9000240f9800350f980022
:105780006110b800400f9800510f98002e0990004a
:10579000be0990004e0a9000de0a900004017100dc
:1057a00085817100220f9800330f98002e08900019
:1057b000be089000e00f5000e08f580014003d003c
:1057c0002e099000be09900061015100e08159004e
:1057d000220f9800330f980000f02f00f1ff2f00e8
:1057e0002e0a9000be0a90000002720081827200b0
:1057f000240f9800350f98002e089000be089000e6
:1058000061004000e0804800200f9800310f9800b0
:105810002e089000be089000804078007e00900026
:10582000014878007e0090000000e80070079800b2
:105830005e009000ee009000600f9800710f9800dd
:105840006e099000fe099000e00f5100e08f5900b2
:1058500008003d00f0ff2f00010020006e0a9000bc
:10586000fe0a90000402400085824800640f980000
:10587000750f98006e099000fe0990004098de00b8
:10588000cf80de00f20f2000030028000002780025
:105890008102780002007800830078000001620035
:1058a000018062006102b800241798003517980043
:1058b0002e109000be109000c000dd0000002000ff
:1058c00020179800311798002e129000be129000f9
:1058d00004179800151798006110b8002017980059
:1058e000311798000e1190009e1190002e1290001a
:1058f000be129000040171008581710002179800aa
:10590000131798000e1090009e109000e00f5000aa
:10591000e08f580014003d000e1190009e11900081
:1059200061015100e0815900021798001317980097
:1059300000f02f00f1ff2f000e1290009e12900039
:1059400000027200818272000417980015179800f7
:105950000e1090009e10900061004000e080480012
:1059600000179800111798000e1090009e109000dc
:10597000804078007e009000014878007e00900012
:105980000000e800700798005e009000ee009000b4
:1059900040179800511798004e119000de119000aa
:1059a000e00f5100e08f590006003d004e129000bc
:1059b000de129000f40fb0000580b000441798008c
:1059c000551798004e119000de119000481add0026
:1059d0004810de0000007200c898de00f20f2000c0
:1059e000030028000002780081027800020078009d
:1059f0008300780000016200018062006102b8004b
:105a0000041f9800151f98000e1890009e18900013
:105a1000c000dd0000002000001f9800111f98004a
:105a20000e1a90009e1a900064179800751798003f
:105a30006110b800001f9800111f98006e119000af
:105a4000fe1190000e1a90009e1a90000401710041
:105a50008581710062179800731798006e1090008e
:105a6000fe109000e00f5000e08f580014003d0041
:105a70006e119000fe11900061015100e08159000b
