:020000040000fa
:080000000001040000000000f3
:020000040000fa
:10020000cfc1200000ff2000000188000000000096
:100210000c000700c0192700010020001100070092
:10022000000020000000e000020032000000020098
:100230000000000092600200000000000040da00b0
:100240000000fe004440a900c02520000000e0009e
:100250000300320000002000a00188004440a800f4
:100260000000060091018800800078000000eb008b
:1002700015003700e280400032a0b4009101ba00be
:10028000e280400032a0b4009102ba00e280400057
:1002900032a0b4000002eb00472bde00f507b200ed
:1002a000602ce10004003a000059eb008301e900f2
:1002b000fdff3e00040037006128e100010032002c
:1002c0000082eb00040007001101ba000200e00008
:1002d000e8ff3a00000006003159ba008301e90046
:1002e0000c0032002159ba008301e90008003200f5
:1002f0000400e00003003a00e280400032a0b400b5
:10030000f5ff370011d9ba008301e900faff3a007e
:100310008100e800e180400032a0b4000000060047
:1003200000000000000000000000000000000000cd
:1003300000000000000000000000000000000000bd
:1003400000000000000000000000000000000000ad
:10035000000000000000000000000000000000009d
:10036000000000000000000000000000000000008d
:10037000000000000000000000000000000000007d
:10038000000000000000000000000000000000006d
:10039000000000000000000000000000000000005d
:1003a000000000000000000000000000000000004d
:1003b000000000000000000000000000000000003d
:1003c000000000000000000000000000000000002d
:1003d000000000000000000000000000000000001d
:1003e000000000000000000000000000000000000d
:1003f00000000000000000000000000000000000fd
:1004000000000000000000000000000000000000ec
:1004100000000000000000006022b800060220007a
:100420000000d0008180d2000482d2008582d200f8
:100430000000a0000202520083825a000300310033
:100440000202420083824a000000a1000603e90084
:10045000f3ff3a0000000600efff07000400be00b3
:1004600000000600839f68000100e00002003d00dc
:1004700060001000e08018000300e00002003d0072
:1004800060011100e0811900e3ff07004f00e00068
:1004900002003b0060001000e08018000000060031
:1004a000811f78000100e00002003d0060001000a4
:1004b000e08018000300e00002003d006001110030
:1004c000e0811900e4ff07004f00e00002003b005c
:1004d00060001000e080180000000600889fbe0049
:1004e0008a9fbe00010578000100e000040035008d
:1004f00008003c000000e00020003200050037004a
:1005000060001000e080180002003b0001f02c00a9
:100510001a0037000004be006011b8006b0920000b
:100520000982cf00020039000882cf000441b000e8
:10053000694252000e00320008003b0082817100c7
:10054000610164008904d1000884d3008b05e800b0
:100550000442e800f9ff3a000500370008044400af
:1005600089844c008b05e9000442e900fbff3a0056
:10057000fa0007000af0a70001f0a0004f05be0036
:100580004f04be000000060003f0a200889fbe00da
:100590008a9fbe008c1f7800160107001d013300e2
:1005a0006450e1004f0032006420e100520032004c
:1005b00003826c0007003b000905d0000306d00051
:1005c000820f54000c065d00020039000200320068
:1005d00089017800030678008582550004003d00fb
:1005e0000003fd008103fd008502ea008b854200c7
:1005f000840f720002003b0060001000e0801800d1
:100600006011b8000005eb007a28e1000a0039000b
:1006100006007800c75ddd00f707b200878075002f
:100620002d003700828171000a01780061056000a9
:100630008180d1000080d3008502e900f9ff3b00f2
:10064000060440008784480002003b006004140058
:10065000e0841c000988a300070032008a81710031
:1006600082817100610164008904d1000884d30093
:100670008b05e800170037000978a30013003a0043
:100680000b00e000130034008b05e900080444006f
:1006900089844c000a4474000978a3000d003a00d4
:1006a0000b00e000070034008b05e900080444005b
:1006b00089844c0001003a000b0020000978a30057
:1006c000f7ff32000001eb00020037008281710069
:1006d0000a017800a10007000cf0a70001f0a000bb
:1006e000d50037006420e10002003a00838f6c00df
:1006f000d50033000801be000200be00ce00370066
:10070000889fbe008a9fbe008c1f7800b90007003a
:10071000c000330003866c006450e1002e003200fc
:100720006420e100330032006150e1002f0032000c
:100730006120e1003100320085855500eb07b000f3
:1007400009002000080420000500370008044400c8
:1007500089844c000a0031000603430087834b0064
:100760000001530081815b00f8ff33000203be00eb
:100770000800a0000804440089844c00f6ff3900fa
:10078000c639dd0083017300010032001300200030
:100790008904d1000884d3000998a3000500320021
:1007a0000800a7000300a0008904d1000884d3003a
:1007b0008b05e8008904d1000884d3000001eb0018
:1007c0000281d2006500070001f0a1000cf0a70033
:1007d00001f0a000980037006420e1009a00320088
:1007e0000801be000200be00f7ff37006120e100f3
:1007f000950032006000b800f3ff370000002000d1
:1008000001f82700f0ff3700889fbe008a9fbe00d6
:100810008c1f7800770007007e00330003866c0091
:100820006450e100240032006420e100270032001f
:100830006150e100220032006120e100210032001d
:100840008b854200eb07b1000134b800003ab800d4
:100850000804420089844a00013ab8000030b80018
:100860008880400009014a00040033000000400075
:1008700081804800020149008b05e900c909dd00bb
:10088000830170000100320013002000c814de0054
:100890004814dd004709de001200b200c808de007f
:1008a000088470002d00070001f0a1000cf0a700e3
:1008b00001f0a000600037006120e100620032001a
:1008c0000801be000200be00f7ff37006150e100e2
:1008d000fcff3a005c0037000001be005d0007002d
:1008e0000470a70003f0a1006509b10016003200f2
:1008f0000d0035006828e10006003500f0ff2f00ec
:10090000f1ff27000300e00013003b000100280076
:100910000000050000004000818048008502e900d9
:10092000fcff3a0008003700f88f420002003c004c
:100930008000eb00000005008100d1000080d300a2
:100940008502e800fcff3a000300e00002003b00e3
:1009500060001000e0801800000006008100200008
:10096000618055000b003d000b00200061fe2f0050
:100970000100e1001d00340082817100610164000a
:100980008904d1000884d3000000e800faff3a008f
:10099000710020006100640003007000020060002c
:1009a0000900320061044400e0844c000988a5007d
:1009b000050032008b05e8006808e10002003a00fb
:1009c0008904d1000884d300f20f20000258e1000e
:1009d00005003d00c75ddd00f907b20089807500a4
:1009e00008007800000006000bf827008b00780054
:1009f000000005000004be00160007000003be0052
:100a00000405be000200be0012000700844f7500fe
:100a1000000006000200be006450e1000500360040
:100a20006420e100020036000968a30001003a00da
:100a30000800be000160a0004f0678004f05be0010
:100a40004f04be0000000600f0ff2f00f1ff27005a
:100a5000f9ff3700c70ade00f107b200f50fb20058
:100a600008003200e1cf4200020032000170a00015
:100a700024000500810f7000010032000408050009
:100a800044000500810f700002003a0014000500c8
:100a90008502e9000000400081c04800fcff3b00e7
:080aa0000170a0002400050014
:020000040000fa
:0200000401f009
:04000000f6ff000007
:020000040000fa
:0200000401f009
:04000400ff7f00007a
:020000040000fa
:0200000401f009
:04000800ec7f000089
:020000040000fa
:10000800e6710000e6710000e6710000e67100008c
:10001800e6710000e6710000e6710000e67100007c
:100028002e6d0000e6710000e6710000fa6d000018
:10003800e6710000e6710000446e0000ca6e000020
:10004800e6710000e6710000e6710000e67100004c
:10005800e6710000e6710000e6710000e67100003c
:10006800e6710000e6710000e6710000e67100002c
:10007800e6710000b06d0000e6710000e671000056
:100088006e6d0000806e0000e6710000e6710000f1
:10009800e6710000e6710000e6710000e6710000fc
:1000a800e6710000e6710000e6710000e6710000ec
:1000b800e6710000e6710000e6710000e6710000dc
:1000c800e6710000e6710000e6710000e6710000cc
:1000d800e6710000e6710000e6710000e6710000bc
:1000e800e6710000e6710000e6710000e6710000ac
:0800f800e6710000e671000052
:020000040000fa
:10010800e6710000e6710000e6710000e67100008b
:10011800e6710000e6710000e6710000e67100007b
:100128002e6d0000e6710000e6710000fa6d000017
:10013800e6710000e6710000446e0000ca6e00001f
:10014800e6710000e6710000e6710000e67100004b
:10015800e6710000e6710000e6710000e67100003b
:10016800e6710000e6710000e6710000e67100002b
:10017800e6710000b06d0000e6710000e671000055
:100188006e6d0000806e0000e6710000e6710000f0
:10019800e6710000e6710000e6710000e6710000fb
:1001a800e6710000e6710000e6710000e6710000eb
:1001b800e6710000e6710000e6710000e6710000db
:1001c800e6710000e6710000e6710000e6710000cb
:1001d800e6710000e6710000e6710000e6710000bb
:1001e800e6710000e6710000e6710000e6710000ab
:0801f800e6710000e671000051
:020000040000fa
:100aa80000c100008140000001c00000804100003a
:100ab80001c000008041000000c10000814000002a
:100ac80001c000008041000000c10000814000001a
:100ad80000c100008140000001c00000804100000a
:100ae80001c000008041000000c1000081400000fa
:100af80000c100008140000001c0000080410000ea
:100b080000c100008140000001c0000080410000d9
:100b180001c000008041000000c1000081400000c9
:100b280001c000008041000000c1000081400000b9
:100b380000c100008140000001c0000080410000a9
:100b480000c100008140000001c000008041000099
:100b580001c000008041000000c100008140000089
:100b680000c100008140000001c000008041000079
:100b780001c000008041000000c100008140000069
:100b880001c000008041000000c100008140000059
:100b980000c100008140000001c000008041000049
:100ba80001c000008041000000c100008140000039
:100bb80000c100008140000001c000008041000029
:100bc80000c100008140000001c000008041000019
:100bd80001c000008041000000c100008140000009
:100be80000c100008140000001c0000080410000f9
:100bf80001c000008041000000c1000081400000e9
:100c080001c000008041000000c1000081400000d8
:100c180000c100008140000001c0000080410000c8
:100c280000c100008140000001c0000080410000b8
:100c380001c000008041000000c1000081400000a8
:100c480001c000008041000000c100008140000098
:100c580000c100008140000001c000008041000088
:100c680001c000008041000000c100008140000078
:100c780000c100008140000001c000008041000068
:100c880000c100008140000001c000008041000058
:100c980001c000008041000000c100008140000048
:100ca80000c00000c1010000c303000002c2000030
:100cb800c606000007c7000005c50000c404000000
:100cc800cc0c00000dcd00000fcf0000ce0e0000b0
:100cd8000aca0000cb0b0000c909000008c80000c0
:100ce800d818000019d900001bdb0000da1a000030
:100cf8001ede0000df1f0000dd1d00001cdc000000
:100d080014d40000d5150000d717000016d600002f
:100d1800d212000013d3000011d10000d01000003f
:100d2800f030000031f1000033f30000f23200002f
:100d380036f60000f7370000f535000034f40000ff
:100d48003cfc0000fd3d0000ff3f00003efe0000af
:100d5800fa3a00003bfb000039f90000f8380000bf
:100d680028e80000e9290000eb2b00002aea00002f
:100d7800ee2e00002fef00002ded0000ec2c0000ff
:100d8800e424000025e5000027e70000e62600002f
:100d980022e20000e3230000e121000020e000003f
:100da800a060000061a1000063a30000a26200002f
:100db80066a60000a7670000a565000064a40000ff
:100dc8006cac0000ad6d0000af6f00006eae0000af
:100dd800aa6a00006bab000069a90000a8680000bf
:100de80078b80000b9790000bb7b00007aba00002f
:100df800be7e00007fbf00007dbd0000bc7c0000ff
:100e0800b474000075b5000077b70000b67600002e
:100e180072b20000b3730000b171000070b000003e
:100e2800509000009151000093530000529200002e
:100e380096560000579700005595000094540000fe
:100e48009c5c00005d9d00005f9f00009e5e0000ae
:100e58005a9a00009b5b00009959000058980000be
:100e680088480000498900004b8b00008a4a00002e
:100e78004e8e00008f4f00008d4d00004c8c0000fe
:100e8800448400008545000087470000468600002e
:100e9800824200004383000041810000804000003e
:100ea800e8030000000000006400000000000000eb
:100eb8000a0000000000000001000000000000001f
:100ec800a0860000010000001027000000000000bc
:100ed800e8030000000000006400000000000000bb
:100ee8000a000000000000000100000000000000ef
:100ef800039d0000af0300009d97000033b600007b
:100f0800be830000bfb70000bb3e0000ac1f00005e
:100f1800bcb8000010fa000082d90000cba3000082
:100f28006b7b0000c2fb0000ebf300003b78000085
:100f38009b7900007101000030310000323300005d
:100f480034350000363700003839000041420000cf
:080f580043440000454600007f
:020000040000fa
:100f60000000fa0007cbbf00614060000004e00011
:100f700018003200104080000000e8001040880097
:100f80001140800010032000808f500011003600b7
:100f90000000eb001040880006cbbf000080fb0083
:100fa0004600de000004a200614060006140600075
:100fb00061406000614060004601dd0061b02000da
:100fc00091407800f0cbb30000c060000240700098
:100fd00006ebb7000080fa00000006000200fa00ed
:100fe0000040eb00004f7800060037009e80fb00b9
:100ff000d0802000808040000040eb0080487800d6
:101000001e4fe80070c0b3009e4f1000f7ff36007f
:101010000080fa00000006000400fa00000f7800cb
:10102000110798009e007800e077280000804000bb
:10103000904078001e009000014878000080fa007f
:10104000000006000800fa00000f78001107980061
:101050001e007800cf80de00a23a8400b33a8400fc
:10106000edfc0700e00f5000e08f58000e0032004a
:101070001e007800cf80de00a23a8400b33a8400dc
:10108000e5fc0700a200200003002000f2fc07009e
:1010900080007800e0772800008040001040780051
:1010a00070479800020037000040eb00704798003e
:1010b0001e009000fe409000014878001e00900045
:1010c0000000e800100798001e007800cf80de00c6
:1010d000c23a8400d33a8400cffc0700e00f5000ee
:1010e000e08f58000e0032001e007800cf80de0036
:1010f000c23a8400d33a8400c7fc0700a200200053
:1011000003002000d4fc070080007800e07728006e
:1011100000804000104078006047980002003700cf
:101120000040eb00604798001e009000ee409000e9
:10113000014878001e0090000000e80010079800a9
:101140001e007800cf80de00e23a8400f33a84008b
:10115000b1fc0700e00f5000e08f58000e00320095
:101160001e007800cf80de00e23a8400f33a84006b
:10117000a9fc0700a200200003002000b6fc070025
:1011800080007800e0772800008040001040780060
:1011900050479800020037000040eb00504798008d
:1011a0001e009000de409000014878001e00900074
:1011b0000000e800100798001e007800cf80de00d5
:1011c000023b8400133b840093fc0700e00f5000b7
:1011d000e08f58000e0032001e007800cf80de0045
:1011e000023b8400133b84008bfc0700a20020001c
:1011f0000300200098fc070080007800e0772800ba
:1012000000804000104078004047980002003700fe
:101210000040eb00404798001e009000ce40900038
:10122000014878001e0090000000e80010079800b8
:101230000080fa00000006000a00fa00000f7800a3
:10124000110798001e007800cf80de00223b84004a
:10125000333b840070fc0700e00f5000e08f580023
:101260000e0032001e007800cf80de00223b84009a
:10127000333b840068fc0700a2002000030020002c
:1012800075fc070080007800e077280000804000af
:1012900010407800004f9800020037000040eb003b
:1012a000004f98001e0090008e4890000148780082
:1012b0001e0090000000e800100798001e00780053
:1012c000cf80de00423b8400533b840052fc070089
:1012d000e00f5000e08f58000e0032001e00780032
:1012e000cf80de00423b8400533b84004afc070071
:1012f000a20020000300200057fc070080007800b7
:10130000e077280000804000104078007047980087
:10131000020037000040eb00704798001e0090006c
:10132000fe409000014878001e0090000000e80098
:10133000100798001e007800cf80de00623b84001a
:10134000733b840034fc0700e00f5000e08f58002e
:101350000e0032001e007800cf80de00623b840069
:10136000733b84002cfc0700a20020000300200037
:1013700039fc070080007800e077280000804000fa
:101380001040780060479800020037000040eb00f2
:10139000604798001e009000ee40900001487800e1
:1013a0001e0090000000e800100798001e00780062
:1013b000cf80de00823b8400933b840016fc070054
:1013c000e00f5000e08f58000e0032001e00780041
:1013d000cf80de00823b8400933b84000efc07003c
:1013e000a2002000030020001bfc07008000780002
:1013f000e0772800008040001040780050479800b7
:10140000020037000040eb00504798001e0090009b
:10141000de409000014878001e0090000000e800c7
:10142000100798001e007800cf80de00a23b8400e9
:10143000b33b8400f8fb0700e00f5000e08f58003a
:101440000e0032001e007800cf80de00a23b840038
:10145000b33b8400f0fb0700a20020000300200043
:10146000fdfb070080007800e07728000080400046
:101470001040780040479800020037000040eb0021
:10148000404798001e009000ce4090000148780030
:101490001e0090000000e800100798001e00780071
:1014a000cf80de00423b8400533b8400dafb070020
:1014b000a200200003002000e7fb07008000780066
:1014c000e077280000804000904078001e009000e7
:1014d000014878000080fa00000006000800fa00c9
:1014e000004f780011479800224798003347980032
:1014f00044479800350798009e4078003e009000d1
:10150000014878003e0090000000e8003007980095
:101510009e4090003e009000014878003e00900000
:101520000000e80030079800ae4090003e009000b8
:10153000014878003e0090000000e8003007980065
:10154000be4090003e009000014878003e009000b0
:101550000000e80030079800ce4090003e00900068
:10156000014878000080fa00000006000400fa003c
:10157000004f7800110798009e4078001e009000f0
:10158000014878000080fa00000006000400fa001c
:10159000004f780011479800120798009e4078008d
:1015a0001e009000014878001e0090000000e80036
:1015b000100798009e4090001e009000014878009f
:1015c0000080fa00000006000600fa00004f7800d4
:1015d0001147980022479800230798009e40780002
:1015e0002e009000014878002e0090000000e800d6
:1015f000200798009e4090002e009000014878003f
:101600002e0090000000e80020079800ae409000f7
:101610002e009000014878000080fa0000000600cb
:101620000600fa00004f7800114798002247980002
:1016300033479800240798009e4078002e009000c1
:10164000014878002e0090000000e8002007980074
:101650009e4090002e009000014878002e009000df
:101660000000e80020079800ae4090002e00900097
:10167000014878002e0090000000e8002007980044
:10168000be4090002e009000014878000080fa00d3
:10169000000006000800fa00004f7800114798008b
:1016a0002247980033479800444798003507980030
:1016b0009e4078003e009000014878003e00900077
:1016c0000000e800300798009e4090003e00900027
:1016d000014878003e0090000000e80030079800c4
:1016e000ae4090003e009000014878003e0090001f
:1016f0000000e80030079800be4090003e009000d7
:10170000014878003e0090000000e8003007980093
:10171000ce4090003e009000014878000080fa0022
:10172000000006000800fa00004f780011479800fa
:10173000224798003347980044479800554798003f
:10174000360798009e4078003e00900001487800df
:101750003e0090000000e800300798009e40900096
:101760003e009000014878003e0090000000e80034
:1017700030079800ae4090003e009000014878008d
:101780003e0090000000e80030079800be40900046
:101790003e009000014878003e0090000000e80004
:1017a00030079800ce4090003e009000014878003d
:1017b0003e0090000000e80030079800de409000f6
:1017c0003e009000014878000080fa00000006000a
:1017d0004800fa00008fbe001e00be0020079800df
:1017e000310798002e009000be009000e00f5000de
:1017f000e08f580008003d00f0ff2f00f1002000ae
:101800002e019000be01900002014000838148003b
:1018100022079800330798002e029000be02900025
:1018200044a8de00cf80de00f20020000300280084
:1018300000027800810278000200780083007800be
:1018400000016200018062006102b8006407980034
:10185000750798006e009000fe009000c000dd004b
:101860000000200060079800710798006e02900049
:10187000fe02900044079800550798006110b800d8
:1018800060079800710798004e019000de019000fb
:101890006e029000fe0290000401710085817100cb
:1018a00042079800530798004e009000de00900019
:1018b000e00f5000e08f580014003d004e019000f2
:1018c000de01900061015100e0815900420798005b
:1018d0005307980000ff2f00f1ff2f004e029000e9
:1018e000de029000000272008182720044079800bc
:1018f000550798004e009000de0090006100400007
:10190000e080480040079800510798004e00900082
:10191000de00900080007800e07728000080400022
:10192000104078000de8b7001e00be00000f9800c0
:10193000110f98000e0990009e099000e00f5100d1
:10194000e08f590008003d00f0ff2f00010020004b
:101950000e0a90009e0a9000040240008582480012
:10196000040f9800150f98000e0990009e09900032
:101970004098de00cf80de00f20020000300280047
:10198000000278008102780002007800830078006d
:1019900000016200018062006102b800440f9800fb
:1019a000550f98004e089000de089000c000dd0042
:1019b00000002000400f9800510f98004e0a900040
:1019c000de0a9000240f9800350f98006110b800cf
:1019d000400f9800510f98002e099000be0990000a
:1019e0004e0a9000de0a90000401710085817100aa
:1019f000220f9800330f98002e089000be08900028
:101a0000e00f5000e08f580014003d002e099000b8
:101a1000be09900061015100e0815900220f980039
:101a2000330f980000ff2f00f1ff2f002e0a9000c7
:101a3000be0a90000002720081827200240f98009a
:101a4000350f98002e089000be08900061004000fd
:101a5000e0804800200f9800310f98002e08900079
:101a6000be08900080007800e077280000804000e9
:101a7000104078000ee8b7001e00be00600f98000e
:101a8000710f98006e099000fe099000e00f510060
:101a9000e08f590008003d00f0ff20000100200009
:101aa0006e0a9000fe0a9000040240008582480001
:101ab000640f9800750f98006e099000fe09900061
:101ac000441add004c10de0000007200cc98de00ed
:101ad000f200200003002800000278008102780054
:101ae000020078008300780000016200018062003b
:101af0006102b80024179800351798002e10900046
:101b0000be109000c000dd000000200020179800eb
:101b1000311798002e129000be1290000417980002
:101b2000151798006110b800201798003117980019
:101b30000e1190009e1190002e129000be12900087
:101b40000401710085817100021798001317980035
:101b50000e1090009e109000e00f5000e08f580093
:101b600014003d000e1190009e1190006101510083
:101b7000e0815900021798001317980000ff2f000a
:101b8000f1ff2f000e1290009e12900000027200d2
:101b90008182720004179800151798000e109000ab
:101ba0009e10900061004000e080480000179800ff
:101bb000111798000e1090009e1090008000780081
:101bc000e077280000804000104078000fe8b70060
:101bd0001e00be0040179800511798004e1190004b
:101be000de119000e00f5100e08f590006003d002b
:101bf0004e129000de129000f40fb0000580b0008d
:101c000044179800551798004e119000de1190006f
:101c1000481add004810de0000007200c898de009f
:101c2000f200200003002800000278008102780002
:101c300002007800830078000001620001806200e9
:101c40006102b800041f9800151f98000e1890003c
:101c50009e189000c000dd0000002000001f9800ca
:101c6000111f98000e1a90009e1a90006417980099
:101c7000751798006110b800001f9800111f980098
:101c80006e119000fe1190000e1a90009e1a9000a6
:101c90000401710085817100621798007317980024
:101ca0006e109000fe109000e00f5000e08f580082
:101cb00014003d006e119000fe1190006101510072
:101cc000e0815900621798007317980000ff2f00f9
:101cd000f1ff2f006e129000fe12900000027200c1
:101ce0008182720064179800751798006e1090003a
:101cf000fe10900061004000e080480060179800ee
:101d0000711798006e109000fe109000800078000f
:101d1000e0772800008040001040780010e8b7000d
:101d20001e00be00201f9800311f98002e19900041
:101d3000be199000e00f5100e08f590006003d00f1
:101d40002e1a9000be1a90006f024200e0824a00f4
:101d5000241f9800351f98002e199000be1990007e
:101d60004c1add004410de0000007200c498de0052
:101d7000f2002000030028000002780081027800b1
:101d80000200780083007800000162000180620098
:101d90006102b800641f9800751f98006e189000cb
:101da000fe189000c000dd0000002000601f9800b9
:101db000711f98006e1a9000fe1a9000441f980040
:101dc000551f98006110b800601f9800711f98009f
:101dd0004e199000de1990006e1a9000fe1a9000c5
:101de0000401710085817100421f9800531f980003
:101df0004e189000de189000e00f5000e08f580061
:101e000014003d004e199000de1990006101510050
:101e1000e0815900421f9800531f980000ff2f00d7
:101e2000f1ff2f004e1a9000de1a9000000272009f
:101e300081827200441f9800551f98004e18900030
:101e4000de18900061004000e0804800401f9800cc
:101e5000511f98004e189000de1890008000780006
:101e6000e0772800008040001040780011e8b700bb
:101e70001e00be00f20020000300280000027800cf
:101e8000810278000200780083007800000162007f
:101e9000018062006102b80024279800352798006d
:101ea0002e209000be209000c000dd000000200029
:101eb00020279800312798002e229000be22900003
:101ec00004279800152798006110b8002027980073
:101ed000312798000e2190009e2190002e22900024
:101ee000be229000040171008581710002279800d4
:101ef000132798000e2090009e209000e00f5000c5
:101f0000e08f580014003d000e2190009e219000ab
:101f100061015100e08159000227980013279800c1
:101f200000ff2f00f1ff2f000e2290009e22900054
:101f30000002720081827200042798001527980021
:101f40000e2090009e20900061004000e08048003c
:101f500000279800112798000e2090009e209000e6
:101f600080007800e0772800008040001040780072
:101f700012e8b7000080fa00000006003200fa0004
:101f8000008fbe00220798001e00be003007980098
:101f9000410798003e009000ce009000e00f5000f6
:101fa000e08f580008003d00f0ff200001002000f5
:101fb0003e019000ce019000020140008381480064
:101fc00032079800430798003e029000ce0290002e
:101fd0004429dd004c20de0000007100cca8de00aa
:101fe000f20020000300280000027800810278003f
:101ff0000200780083007800000162000180620026
:102000006102b80074079800050f98007e009000e8
:102010008e089000c000dd000000200070079800ce
:10202000010f98007e0290008e0a900054079800dd
:10203000650798006110b80070079800010f9800bc
:102040005e019000ee0190007e0290008e0a9000ea
:1020500004017100858171005207980063079800a0
:102060005e009000ee009000e00f5000e08f5800fe
:1020700014003d005e019000ee01900061015100ee
:10208000e0815900520798006307980000ff2f0075
:10209000f1ff2f005e029000ee029000000272003d
:1020a0008182720054079800650798005e009000d6
:1020b000ee00900061004000e0804800500798006a
:1020c000610798005e009000ee00900080007800ac
:1020d000e077280000804000904078002e009000bb
:1020e000014878002e0090000000e80020079800ca
:1020f0001e00be00100f9800210f98001e099000ce
:10210000ae099000e00f5100e08f590006003d003d
:102110001e0a9000ae0a9000f40fb0000580b000d7
:10212000140f9800250f98001e099000ae0990002a
:10213000481add004810de0000007200c898de007a
:10214000f2002000030028000002780081027800dd
:1021500002007800830078000001620001806200c4
:102160006102b800540f9800650f98005e08900057
:10217000ee089000c000dd0000002000500f980025
:10218000610f98005e0a9000ee0a9000340f9800ec
:10219000450f98006110b800500f9800610f98002b
:1021a0003e099000ce0990005e0a9000ee0a900071
:1021b0000401710085817100320f9800430f98006f
:1021c0003e089000ce089000e00f5000e08f5800cd
:1021d00014003d003e099000ce09900061015100bd
:1021e000e0815900320f9800430f980000ff2f0044
:1021f000f1ff2f003e0a9000ce0a9000000272000c
:1022000081827200340f9800450f98003e089000bc
:10221000ce08900061004000e0804800300f980038
:10222000410f98003e089000ce0890008000780092
:10223000e077280000804000904078002e00900059
:10224000014878002e0090000000e8002007980068
:102250001e00be00700f9800011798007e099000c4
:102260008e119000e00f5100e08f590006003d00f4
:102270007e0a90008e1290006f024200e0824a00b7
:10228000740f9800051798007e0990008e11900039
:102290004c1add004410de0000007200c498de001d
:1022a000f20020000300280000027800810278007c
:1022b0000200780083007800000162000180620063
:1022c0006102b80034179800451798003e1090003e
:1022d000ce109000c000dd000000200030179800f4
:1022e000411798003e129000ce12900014179800eb
:1022f000251798006110b800301798004117980012
:102300001e119000ae1190003e129000ce1290006f
:10231000040171008581710012179800231798003d
:102320001e109000ae109000e00f5000e08f58009b
:1023300014003d001e119000ae119000610151008b
:10234000e0815900121798002317980000ff2f0012
:10235000f1ff2f001e129000ae12900000027200da
:102360008182720014179800251798001e109000a3
:10237000ae10900061004000e08048001017980007
:10238000211798001e109000ae1090008000780079
:10239000e077280000804000904078002e009000f8
:1023a000014878002e0090000000e8002007980007
:1023b0001e00be00f200200003002800000278008a
:1023c000810278000200780083007800000162003a
:1023d000018062006102b80074179800051f980020
:1023e0007e1090008e189000c000dd0000002000dc
:1023f00070179800011f98007e1290008e1a9000ae
:1024000054179800651798006110b800701798006d
:10241000011f98005e119000ee1190007e12900056
:102420008e1a900004017100858171005217980086
:10243000631798005e109000ee109000e00f5000bf
:10244000e08f580014003d005e119000ee119000e6
:1024500061015100e08159005217980063179800fc
:1024600000ff2f00f1ff2f005e129000ee1290008f
:10247000000272008182720054179800651798005c
:102480005e109000ee10900061004000e080480077
:1024900050179800611798005e109000ee109000a1
:1024a00080007800e07728000080400090407800ad
:1024b0002e009000014878000080fa00000006001d
:1024c0003800fa00008fbe001e00be0020079800f2
:1024d000310798002e009000be009000e00f5000e1
:1024e000e08f580008003d00f0ff2f0001002000a1
:1024f0002e019000be01900002014000838148003f
:1025000022079800330798002e029000be02900028
:1025100040a8de00cf80de00f2002000030028008b
:1025200000027800810278000200780083007800c1
:1025300000016200018062006102b8006407980037
:10254000750798006e009000fe009000c000dd004e
:102550000000200060079800710798006e0290004c
:10256000fe02900044079800550798006110b800db
:1025700060079800710798004e019000de019000fe
:102580006e029000fe0290000401710085817100ce
:1025900042079800530798004e009000de0090001c
:1025a000e00f5000e08f580014003d004e019000f5
:1025b000de01900061015100e0815900420798005e
:1025c0005307980000ff2f00f1ff2f004e029000ec
:1025d000de029000000272008182720044079800bf
:1025e000550798004e009000de009000610040000a
:1025f000e080480040079800510798004e00900086
:10260000de00900080007800e07728000080400025
:102610001040780017e8b7001e00be00000f9800b9
:10262000110f98000e0990009e099000e00f5100d4
:10263000e08f590008003d00f0ff2000010020005d
:102640000e0a90009e0a9000040240008582480015
:10265000040f9800150f98000e0990009e09900035
:10266000441add004c10de0000007200cc98de0041
:10267000f2002000030028000002780081027800a8
:10268000020078008300780000016200018062008f
:102690006102b800440f9800550f98004e08900052
:1026a000de089000c000dd0000002000400f980010
:1026b000510f98004e0a9000de0a9000240f9800f7
:1026c000350f98006110b800400f9800510f980026
:1026d0002e099000be0990004e0a9000de0a90007c
:1026e0000401710085817100220f9800330f98005a
:1026f0002e089000be089000e00f5000e08f5800b8
:1027000014003d002e099000be09900061015100a7
:10271000e0815900220f9800330f980000ff2f002e
:10272000f1ff2f002e0a9000be0a900000027200f6
:1027300081827200240f9800350f98002e089000b7
:10274000be08900061004000e0804800200f980023
:10275000310f98002e089000be089000800078008d
:10276000e0772800008040001040780018e8b700ab
:102770001e00be00600f9800710f98006e09900057
:10278000fe099000e00f5100e08f590006003d0067
:102790006e0a9000fe0a9000f40fb0000580b000b1
:1027a000640f9800750f98006e099000fe09900064
:1027b000481add004810de0000007200c898de00f4
:1027c000f200200003002800000278008102780057
:1027d000020078008300780000016200018062003e
:1027e0006102b80024179800351798002e10900049
:1027f000be109000c000dd000000200020179800ef
:10280000311798002e129000be1290000417980005
:10281000151798006110b80020179800311798001c
:102820000e1190009e1190002e129000be1290008a
:102830000401710085817100021798001317980038
:102840000e1090009e109000e00f5000e08f580096
:1028500014003d000e1190009e1190006101510086
:10286000e0815900021798001317980000ff2f000d
:10287000f1ff2f000e1290009e12900000027200d5
:102880008182720004179800151798000e109000ae
:102890009e10900061004000e08048000017980002
:1028a000111798000e1090009e1090008000780084
:1028b000e0772800008040001040780019e8b70059
:1028c0001e00be00a200200003002000e5f6070065
:1028d000f200200003002800000278008102780046
:1028e000020078008300780000016200018062002d
:1028f0006102b80064179800751798006e10900078
:10290000fe109000c000dd0000002000601798005d
:10291000711798006e129000fe12900044179800f4
:10292000551798006110b80060179800711798004b
:102930004e119000de1190006e129000fe12900079
:1029400004017100858171004217980053179800a7
:102950004e109000de109000e00f5000e08f580005
:1029600014003d004e119000de11900061015100f5
:10297000e0815900421798005317980000ff2f007c
:10298000f1ff2f004e129000de1290000002720044
:102990008182720044179800551798004e109000dd
:1029a000de10900061004000e08048004017980071
:1029b000511798004e109000de10900080007800b3
:1029c000e077280000804000104078001ae8b70047
:1029d0001e00be00f2002000030028000002780064
:1029e0008102780002007800830078000001620014
:1029f000018062006102b800241f9800351f980012
:102a00002e189000be189000c000dd0000002000cd
:102a1000201f9800311f98002e1a9000be1a9000b7
:102a2000041f9800151f98006110b800201f98001f
:102a3000311f98000e1990009e1990002e1a9000d8
:102a4000be1a90000401710085817100021f980078
:102a5000131f98000e1890009e189000e00f500071
:102a6000e08f580014003d000e1990009e19900050
:102a700061015100e0815900021f9800131f980066
:102a800000ff2f00f1ff2f000e1a90009e1a9000f9
:102a90000002720081827200041f9800151f9800c6
:102aa0000e1890009e18900061004000e0804800e1
:102ab000001f9800111f98000e1890009e1890009b
:102ac00080007800e0772800008040001040780007
:102ad0001be8b7000080fa00000006000a00fa00b8
:102ae000008fbe00220798001e00be00a23a84009c
:102af000b33a840048f60700e00f5000e08f58001a
:102b00000d0032001e00be00a23a8400b33a8400d9
:102b100041f60700a2002000030020004ef6070047
:102b200080007800e07728000080400010407800a6
:102b3000004f9800020037000040eb00004f980063
:102b40002e0090008e489000014878002e009000e2
:102b50000000e800200798001e00be00c23a840072
:102b6000d33a84002cf60700e00f5000e08f5800a5
:102b70000d0032001e00be00c23a8400d33a840029
:102b800025f60700a20020000300200032f607000f
:102b900080007800e0772800008040001040780036
:102ba00070479800020037000040eb007047980023
:102bb0002e009000fe409000014878002e0090000a
:102bc0000000e800200798001e00be00e23a8400e2
:102bd000f33a840010f60700e00f5000e08f580031
:102be0000d0032001e00be00e23a8400f33a840079
:102bf00009f60700a20020000300200016f60700d7
:102c000080007800f07828000080400010407800b4
:102c100060479800020037000040eb0060479800d2
:102c20002e009000ee409000014878002e009000a9
:102c30000000e800200798001e00be00023b840050
:102c4000133b8400f4f50700a200200003002000dd
:102c500001f6070080007800e0772800008040003f
:102c6000904078002e009000014878000080fa0023
:102c7000000006000a00fa00008fbe00220798003c
:102c80001e00be00a23a8400b33a8400e2f50700b9
:102c9000e00f5000e08f58000d0032001e00be0013
:102ca000a23a8400b33a8400dbf50700a2002000ba
:102cb00003002000e8f5070080007800e077280096
:102cc0000080400010407800004f9800020037005c
:102cd0000040eb00004f98002e0090008e489000be
:102ce000014878002e0090000000e80020079800be
:102cf0001e00be00c23a8400d33a8400c6f5070025
:102d0000e00f5000e08f58000d0032001e00be00a2
:102d1000c23a8400d33a8400bff50700a200200025
:102d200003002000ccf5070080007800e077280041
:102d30000080400010407800704798000200370083
:102d40000040eb00704798002e009000fe4090007d
:102d5000014878002e0090000000e800200798004d
:102d60001e00be00e23a8400f33a8400aaf5070090
:102d7000e00f5000e08f58000d0032001e00be0032
:102d8000e23a8400f33a8400a3f50700a200200091
:102d900003002000b0f5070080007800e0772800ed
:102da0000080400010407800604798000200370023
:102db0000040eb00604798002e009000ee4090002d
:102dc000014878002e0090000000e80020079800dd
:102dd0001e00be00023b8400133b84008ef50700fa
:102de000a2002000030020009bf50700800078006f
:102df000e077280000804000904078002e0090008e
:102e0000014878000080fa00000006000a00fa007d
:102e1000000f780006cbbf000044b2000004e000c1
:102e20000f003a0015c8bf000004e00007003200a0
:102e300015c8bf008080fb00e077280000804000bc
:102e40001040780070479800020037000040eb0007
:102e500070479800fe409000014f98000200370034
:102e60000040eb00004f98001e0078008e48900054
:102e7000014878001e0fe80006cbbf000044b200f6
:102e80000004e00012003a0015c8bf000004e00092
:102e900003003a0016c8bf000004e000070032003b
:102ea00016c8bf008080fb00e0772800008040004b
:102eb0001040780050479800020037000040eb00b7
:102ec00050479800de4090006147980002003700ac
:102ed0000040eb00604798001e007800ee40900034
:102ee000014878001e0fe80006cbbf000044b20086
:102ef0000004e00015003a0015c8bf000004e0001f
:102f000006003a0016c8bf000004e00003003a00c3
:102f100017c8bf000004e0000700320017c8bf0058
:102f20008080fb00f078280000804000104078008e
:102f300030479800020037000040eb00304798000f
:102f4000be40900041479800020037000040eb006f
:102f5000404798001e007800ce409000014878005d
:102f60001e0fe80006cbbf000044b2000004e000e2
:102f700007003a0018c8bf008080fb00e0772800f7
:102f80000080400010407800204798000200370081
:102f90000040eb00204798001e007800ae409000f3
:102fa000014878000080fa00000006000a00fa00dc
:102fb000000f780006cbbf000044b2000004e00020
:102fc0000f003a0015c8bf000004e00007003200ff
:102fd00015c8bf008080fb00e0772800008040001b
:102fe0001040780070479800020037000040eb0066
:102ff00070479800fe409000014f98000200370093
:103000000040eb00004f98001e0078008e489000b2
:10301000014878001e0fe80006cbbf000044b20054
:103020000004e00012003a0015c8bf000004e000f0
:1030300003003a0016c8bf000004e0000700320099
:1030400016c8bf008080fb00e077280000804000a9
:103050001040780050479800020037000040eb0015
:1030600050479800de40900061479800020037000a
:103070000040eb00604798001e007800ee40900092
:10308000014878001e0fe80006cbbf000044b200e4
:103090000004e00015003a0015c8bf000004e0007d
:1030a00006003a0016c8bf000004e00003003a0022
:1030b00017c8bf000004e0000700320017c8bf00b7
:1030c0008080fb00e07728000080400010407800fe
:1030d00030479800020037000040eb00304798006e
:1030e000be40900041479800020037000040eb00ce
:1030f000404798001e007800ce40900001487800bc
:103100001e0fe80006cbbf000044b2000004e00040
:1031100007003a0018c8bf008080fb00e077280055
:1031200000804000104078002047980002003700df
:103130000040eb00204798001e007800ae40900051
:10314000014878000080fa00000006000a00fa003a
:10315000000f78001cc8bf00e14f500010003a007b
:1031600006cbbf000044b2000004e00007003a00b4
:1031700015c8bf008080fb00e07728000080400079
:1031800010407800004f9800020037000040eb002c
:10319000004f98008e489000114f980006003700ad
:1031a00015c8bf008080fb00e07728000080400049
:1031b00010407800104f98001e0078009e48900044
:1031c000014878001e0fe8001cc8bf00e24f500005
:1031d00013003a0006cbbf000044b2000004e00038
:1031e0000a003a0016c8bf008080fb00e077280084
:1031f00000804000104078008040780000c4b30098
:1032000000c07000604798000200370000c4b3009f
:1032100060479800ee409000714798000800370022
:1032200016c8bf008080fb00e077280000804000c7
:103230009040780000c4b30080c0700071479800cf
:103240001e007800fe409000014878001e0fe80044
:103250001cc8bf00e34f500011003a0006cbbf006e
:103260000044b2000004e00008003a0017c8bf00a4
:103270008080fb00f078280000804000104078003b
:103280000024a000404798000200370040c0b3006f
:1032900040479800ce409000514798000800370002
:1032a00017c8bf008080fb00f07828000080400035
:1032b00010407800804078000124a0005147980019
:1032c0001e007800de409000014878001e0fe800e4
:1032d0001cc8bf00e44f500010003a0006cbbf00ee
:1032e0000044b2000004e00007003a0018c8bf0024
:1032f0008080fb00e07728000080400010407800cc
:1033000020479800020037000040eb00204798005b
:10331000ae409000314798000600370018c8bf0043
:103320008080fb00e077280000804000104078009b
:10333000304798001e007800be4090000148780099
:103340000080fa00000006000200fa00004f78003a
:10335000114798001e80fb00a20020001100090008
:103360000280d8008080fb00e077280000804000c9
:10337000104078000de8b7001e80fb00a20020007e
:10338000110009000280d8008000fd008080fb0051
:10339000e0772800008040009040780000c4b3002f
:1033a00000c070000ee8b7001e4090000080fb00d7
:1033b000a2002000110009000280d8008080fb00dc
:1033c000f078280000804000104078000024a00021
:1033d0000fe8b7001e4090000080fb00a200200014
:1033e000110009000280d8008000fd008080fb00f1
:1033f000e0772800008040001040780010e8b70017
:103400000080fa00000006000a00fa00000f7800b1
:1034100006cbbf000042b2000004e00046003a00c4
:103420000045800000004000c1072000808040006f
:10343000008520000080400010007800e10f50005f
:1034400011003a0016c8bf000004e0000900320075
:1034500016c8bf008080fb00e07728000080400095
:103460009040780000c4b30080c07000014f980005
:1034700002003700f0ceb300004f98008e48900055
:10348000114f9800200037000045800000004000e8
:10349000c10720008080400000852000008040009f
:1034a00010007800e10f50000700360016c8bf007a
:1034b0008080fb00e077280000804000104078000a
:1034c000704798000e00370016c8bf000004e000e7
:1034d0000700320016c8bf008080fb00e07728009c
:1034e00000804000104078006047980002003700dc
:1034f0000040eb0060479800ee4090007147980054
:103500007e409000104f98001e0078009e4890006a
:10351000014878001e0fe80017c8bf008080fb003c
:10352000e077280000804000904078001e0078007e
:103530000148780045003700004580000000400049
:10354000c1072000808040000085200000804000ee
:1035500010007800e10f500011003a0016c8bf00bb
:103560000004e0000900320016c8bf008080fb00a4
:10357000e0772800008040009040780000c4b3004d
:1035800080c070004147980002003700f0ceb300c1
:1035900040479800ce4090005147980020003700e7
:1035a0000045800000004000c107200080804000ee
:1035b000008520000080400010007800e10f5000de
:1035c0000700360016c8bf008080fb00e0772800a7
:1035d0000080400010407800304798000e0037000f
:1035e00016c8bf000004e0000700320016c8bf0084
:1035f0008080fb00e07728000080400010407800c9
:10360000204798000200370000c1b300204798000f
:10361000ae409000314798003e40900050479800df
:103620001e007800de409000014878001e0fe80080
:1036300017c8bf008080fb00e077280000804000b2
:10364000904078001e007800014878000080fa0061
:10365000000006001c00fa00004f780011079800d7
:1036600006cbbf000042b2000004e000ad003a000b
:1036700030c0b3009e4f100011003a0015c8bf00c3
:103680000004e0000900320015c8bf008080fb0084
:10369000e0772800008040009040780000c4b3002c
:1036a00080c07000215f980002003700f1ceb300a7
:1036b000215f98002e589000305f98001a00370064
:1036c00031c0b3009ecf10000700360015c8bf0000
:1036d0008080fb00e07728000080400010407800e8
:1036e000105f98000e00370015c8bf000004e0000e
:1036f0000700320015c8bf008080fb00e07728007b
:103700000080400010407800005f98000200370001
:103710000040eb00005f98008e589000115f980009
:103720001e589000305f98001e009000be58900018
:10373000014878001e0090000000e8001007980083
:1037400020c0b3009e4f100011003a0016c8bf0001
:103750000004e0000900320016c8bf008080fb00b2
:10376000e0772800008040009040780000c4b3005b
:1037700080c070006157980002003700f1ceb3009e
:10378000615798006e509000705798001d003700e8
:1037900021c0b3009ecf10000700360016c8bf003e
:1037a0008080fb00e0772800008040001040780017
:1037b000505798001100370015c8bf000004e00002
:1037c00003003a0016c8bf000004e0000700320002
:1037d00016c8bf008080fb00e07728000080400012
:1037e0001040780040579800020037000040eb007e
:1037f00040579800ce509000515798005e5090006e
:10380000705798001e009000fe509000014878000c
:103810001e0090000000e8001007980010c0b300e0
:103820009e4f100011003a0017c8bf000004e000ce
:103830000900320017c8bf008080fb00e077280035
:10384000008040009040780000c4b30080c0700049
:103850002157980002003700f1ceb300215798009d
:103860002e509000305798002000370011c0b30050
:103870009ecf10000700360017c8bf008080fb00f5
:10388000e077280000804000104078001057980032
:103890001400370015c8bf000004e00006003a001d
:1038a00016c8bf000004e00003003a0017c8bf00bc
:1038b0000004e0000700320017c8bf008080fb0052
:1038c000e077280000804000104078000057980002
:1038d000020037000040eb00005798008e50900027
:1038e000115798001e509000305798001e0090000d
:1038f000be509000014878001e0090000000e800d3
:103900001007980018c8bf008080fb00e0772800ef
:1039100000804000904078001e0090000148780030
:10392000ae00370030c0b3009e4f100011003a00c7
:1039300015c8bf000004e0000900320015c8bf0030
:103940008080fb00e07728000080400090407800f5
:1039500000c5b30080c07000614f980002003700be
:1039600080c0eb00614f98006e489000704f980047
:103970001c00370031c0b3009ecf10000700360096
:1039800015c8bf008080fb00e07728000080400061
:1039900010407800504f98001000370015c8bf0045
:1039a0000004e0000900320015c8bf008080fb0061
:1039b000e0772800008040001040780080407800c8
:1039c0000144a000414f98000200370000c1b3003d
:1039d000404f9800ce489000514f98005e489000ac
:1039e000704f98001e009000fe489000014878003b
:1039f0001e0090000000e8001007980020c0b300ef
:103a00009e4f100011003a0016c8bf000004e000ed
:103a10000900320016c8bf008080fb00e077280054
:103a2000008040009040780000c4b30080c0700067
:103a3000214f980002003700f1ceb300214f9800cb
:103a40002e489000304f98001d00370021c0b30071
:103a50009ecf10000700360016c8bf008080fb0014
:103a6000e07728000080400010407800104f980058
:103a70001100370015c8bf000004e00003003a0041
:103a800016c8bf000004e0000700320016c8bf00df
:103a90008080fb00e0772800008040001040780024
:103aa000004f9800020037000040eb00004f9800e4
:103ab0008e489000114f98001e489000304f98009b
:103ac0001e009000be489000014878001e00900043
:103ad0000000e8001007980010c0b3009e4f1000cf
:103ae00011003a0017c8bf000004e00009003200ce
:103af00017c8bf008080fb00e077280000804000ee
:103b00009040780000c4b30080c070006147980006
:103b100002003700f1ceb300614798006e4090007c
:103b2000704798002000370011c0b3009ecf1000ee
:103b30000700360017c8bf008080fb00e077280030
:103b40000080400010407800504798001400370073
:103b500015c8bf000004e00006003a0016c8bf0008
:103b60000004e00003003a0017c8bf000004e000b2
:103b70000700320017c8bf008080fb00e0772800f4
:103b80000080400010407800404798000200370055
:103b90000040eb0040479800ce409000514798000d
:103ba0005e409000704798001e009000fe4090001c
:103bb000014878001e0090000000e80010079800ff
:103bc00018c8bf008080fb00e0772800008040001c
:103bd000904078001e009000014878000080fa00b4
:103be000000006001000fa00004f7800110798004e
:103bf000dbf4070006cbbf000044b2000004e00085
:103c000077003a001e0090007007980021c0b300b2
:103c10009ecf100011003a0015c8bf000004e0005c
:103c20000900320015c8bf008080fb00e077280043
:103c3000008040009040780000c4b30080c0700055
:103c4000414f980002003700f0ceb300404f98007b
:103c5000ce489000514f98001a00370020c0b300a2
:103c60009e4f10000700360015c8bf008080fb0083
:103c7000e07728000080400010407800304f980026
:103c80000e00370015c8bf000004e0000700320036
:103c900015c8bf008080fb00e0772800008040004e
:103ca00010407800204f9800020037008040eb0061
:103cb000214f98002e489000304f9800be48900049
:103cc000514f9800de4890007e0090000148780037
:103cd000fe0090000100e800100798001e00900010
:103ce0004007980011c0b3009ecf100011003a00a9
:103cf00016c8bf000004e0000900320016c8bf006b
:103d00008080fb00e0772800008040009040780031
:103d100000c4b30080c07000614798000200370003
:103d2000f0ceb30060479800ee40900071479800d5
:103d30001d00370010c0b3009e4f10000700360072
:103d400016c8bf008080fb00e0772800008040009c
:103d500010407800504798001100370015c8bf0088
:103d60000004e00003003a0016c8bf000004e000b1
:103d70000700320016c8bf008080fb00e0772800f3
:103d80000080400010407800404798000200370053
:103d90008040eb00414798004e409000504798000b
:103da000de40900071479800fe4090004e00900069
:103db00001487800ce0090000100e800100798004c
:103dc0001e01900017c8bf008080fb00e07728002c
:103dd000008040001040780000497800090037005a
:103de0000e80e800000378008042eb000042eb0008
:103df0008041eb000041eb008040eb000040eb0015
:103e000048f607000080fa00000006000000fa00f3
:103e100053f4070007cbbf00644060000004e000db
:103e20000e003a00d480200080c1eb0000c1eb00fe
:103e300080c0eb0000c0eb00f9f507001081200006
:103e40000002780080c1eb0000c1eb0080c0eb00f5
:103e500000c0eb00f2f507000d003700d480200011
:103e6000f3cbb30032c0b30031c3b300c0cab30058
:103e7000ebf5070010812000000278008041eb0084
:103e80000041eb008040eb000040eb00e4f5070050
:103e90000080fa00000006002400fa00404f98005d
:103ea00072079800030f9800110f98007e00900091
:103eb0008e08900010079800210798000040eb0042
:103ec000004f78001e009000ae009000e00f500000
:103ed000e08f580008003d0010c0b300004f78008c
:103ee0001e009000ae00900060001000e0801800fe
:103ef00010079800210798001e009000ae00900067
:103f0000823e20000300200056f10700a20020009e
:103f10000300200062f1070080407800660047003f
:103f2000014878001e009000ae009000420620007c
:103f3000030020004bf10700a20020000300200036
:103f400057f1070080407800660047001140980054
:103f50001e009000ae009000a20020000300200090
:103f600040f10700a2002000030020004cf10700f0
:103f70008040780066004700214098001e009000b5
:103f8000ae009000a20020000300200044f10700d2
:103f90008040780066004700314098001e04e00031
:103fa00098003a004e489000e34f50000a003a0053
:103fb00066004700104078008080fb00e077280012
:103fc000008040009040780000c4b30080c07000c2
:103fd00031679800100037006600470010407800f5
:103fe0000004e0000800320066004700104078003e
:103ff0008080fb00e07728000080400010407800bf
:1040000020679800020037008040eb00216798008d
:104010002e609000306798001e089000be609000ef
:10402000014878001e0890000000e800100f98007a
:104030004e489000e24f50000a003a0066004700e8
:10404000104090008080fb00e07728000080400056
:104050009040780000c4b30080c0700011679800e1
:10406000210037004e489000e24f50000800360013
:1040700066004700104090008080fb00e077280039
:10408000008040001040780000679800140037005e
:1040900066004700104078000004e00004003a0089
:1040a00066004700104090000004e0000800320065
:1040b00066004700104090008080fb00e0772800f9
:1040c0000080400010407800705f980002003700c8
:1040d0000040eb00705f9800fe5890000167980068
:1040e0000e609000106798001e0890009e6090007f
:1040f000014878001e0890000000e800100f9800aa
:104100004e489000e14f50000a003a006600470018
:10411000204090008080fb00e07728000080400075
:104120009040780000c4b30080c07000615f9800c8
:10413000250037004e489000e14f5000080036003f
:1041400066004700204090008080fb00e077280058
:104150000080400010407800505f98001800370041
:1041600066004700104078000004e00008003a00b4
:1041700066004700104090000004e00004003a0090
:1041800066004700204090000004e0000800320074
:1041900066004700204090008080fb00e077280008
:1041a0000080400010407800405f98000200370017
:1041b0000040eb00405f9800ce589000515f98009f
:1041c0005e589000605f98001e089000ee589000c6
:1041d000014878001e0890000000e800100f9800c9
:1041e00066004700304090008080fb00e0772800a8
:1041f00000804000904078001e0890000148780040
:10420000990037004e489000e34f50000a003a00f2
:1042100066004700104078008080fb00e0772800af
:10422000008040009040780000c5b30080c070005e
:10423000315f980012003700660047001040780098
:104240000004e0000a0032006600470010407800d9
:104250008080fb00e077280000804000104078005c
:10426000804078000144a000215f980002003700e0
:1042700000c1b300205f9800ae589000315f9800f5
:104280001e089000be589000014878001e0890005b
:104290000000e800100f98004e489000e24f5000d8
:1042a0000a003a0066004700104090008080fb0042
:1042b000e0772800008040009040780000c4b30000
:1042c00080c07000115f9800210037004e489000b8
:1042d000e24f500008003600660047001040900092
:1042e0008080fb00e07728000080400010407800cc
:1042f000005f980014003700660047001040780007
:104300000004e00004003a006600470010409000fe
:104310000004e000080032006600470010409000f2
:104320008080fb00e077280000804000104078008b
:1043300070579800020037000040eb00705798005b
:10434000fe509000015f98000e589000105f98009a
:104350001e0890009e589000014878001e089000aa
:104360000000e800100f98004e489000e14f500008
:104370000a003a0066004700204090008080fb0061
:10438000e0772800008040009040780000c4b3002f
:1043900080c0700061579800250037004e4890009b
:1043a000e14f5000080036006600470020409000b2
:1043b0008080fb00e07728000080400010407800fb
:1043c00050579800180037006600470010407800ea
:1043d0000004e00008003a0066004700104090002a
:1043e0000004e00004003a0066004700204090000e
:1043f0000004e00008003200660047002040900002
:104400008080fb00e07728000080400010407800aa
:1044100040579800020037000040eb0040579800da
:10442000ce509000515798005e5090006057980011
:104430001e089000ee509000014878001e08900081
:104440000000e800100f9800660047003040900020
:104450008080fb00e07728000080400090407800da
:104460001e089000014878000080fa000000060055
:104470000000fa0007cbbf00704060000004e000bd
:1044800007003200d480200003c8b30002c8b30084
:1044900001c8b30000c8b30061f407001000370082
:1044a00007cbbf00684060000004e0000700320056
:1044b000d480200043c0b30042c0b30041c0b30069
:1044c00040c0b30056f407000500370012458000d5
:1044d0002345800060468000d18020006efe0700ea
:1044e00007cbbf000044b2000004e0000800320027
:1044f000108120000002780003c8b30002c8b30096
:1045000001c8b30000c8b30045f40700110037002c
:1045100007cbbf000042b2000004e00008003200f8
:10452000108120000002780043c0b30042c0b300f5
:1045300041c0b30040c0b30039f4070005003700a4
:104540001181200032458000434580007046800084
:1045500051fe070040802000100090008000e8001d
:1045600040802000110098004080200090009000c2
:10457000700c2000808f5000030036004180200026
:104580000000eb0090009800408020002000900088
:104590008000e8004080200021009800408020003a
:1045a000a000900030062000808f500003003600ed
:1045b000418020000000eb00a00098001fc8bf0051
:1045c0000004e0000d0032001fc8bf000080fb00a7
:1045d000418020000000400060807800ea0f500019
:1045e00006003e00d48020008041eb000041eb003b
:1045f0008040eb000040eb0009f4070020c8bf003a
:104600000004e0000e00320020c8bf000080fb0064
:10461000418020000000400060807800ea0f5000d8
:1046200007003e0010812000000278008041eb006e
:104630000041eb008040eb000040eb00f8f3070086
:104640000080fa00000006000000fa0044f20700b3
:1046500001458000c07728000080400010407800ad
:10466000d480200080417800b2c7b300e1c0b3001d
:1046700090cbb300eaf307001281200000458000d0
:1046800000004000c107200080804000008520001d
:10469000008040001000780082007800edfb0700e9
:1046a00007cbbf00644060000004e00007003a0050
:1046b00006cbbf000044b2000004e0000e00320050
:1046c0000040eb0010e8b7000b00370006cbbf003e
:1046d0000044b2000004e000070032001081200016
:1046e000000278008041eb000041eb008040eb00cd
:1046f0000040eb00caf307000080fa00000006004b
:104700000000fa0016f2070001458000c07728007b
:104710000080400010407800d48020008041780064
:10472000c2c6b300e1c0b30090cbb300bcf3070036
:10473000128120000045800000004000c1072000d9
:10474000808040000085200000804000100078003c
:1047500082007800bffb070007cbbf006440600009
:104760000004e00007003a0006cbbf000044b2009e
:104770000004e0000e0032000040eb0010e8b7003b
:104780000b00370006cbbf000044b2000004e0007d
:104790000700320010812000000278008041eb0009
:1047a0000041eb008040eb000040eb009cf3070071
:1047b0000080fa00000006000000fa00e8f107009f
:1047c00001458000c077280000804000104078003c
:1047d000d48020008041780092cfb300f1c1b300b3
:1047e0000040eb008ef30700118120000040eb0039
:1047f00098fb070007cbbf00644060000004e000a6
:1048000007003a0006cbbf000044b2000004e000fd
:104810000e0032000040eb0010e8b7000b0037003c
:1048200006cbbf000044b2000004e00007003200e5
:1048300010812000000278008041eb000041eb0075
:104840008040eb000040eb0075f307000080fa00a9
:10485000000006000000fa00c1f10700d48020002b
:1048600083c1b300f2c1b300b1cbb3000040eb0091
:104870006bf30700118120000040eb0075fb07007f
:1048800006cbbf000044b2000004e0000700320085
:1048900010812000000278008041eb000041eb0015
:1048a0008040eb000040eb005df307000080fa0061
:1048b000000006000200fa00a9f10700d4802000e1
:1048c00063cbb30092cbb300e1c3b3000040eb0075
:1048d00053f3070018c8bf000080fb00000f7800ea
:1048e0001e007800e20f5000240032001e00780005
:1048f000e20f500007003c001e0078000000e000be
:104900000e0032001e007800e10f5000130032004c
:10491000390037001e007800e40f500027003200f5
:104920001e007800e40f50001c0035001e007800c7
:10493000e50f5000290032002f00370010812000c1
:1049400000027800f3cbb30032c7b3008040eb0025
:104950000040eb0032f307002700370010812000f1
:1049600000027800e3cbb30072cfb3008040eb00cd
:104970000040eb002af307001f00370010812000e1
:1049800000027800d3c9b30072cfb30031c0b300c6
:104990000040eb0022f307001700370010812000d1
:1049a0000002780033c3b30000c1eb0071c9b3004b
:1049b0000040eb001af307000f00370010812000c1
:1049c00000027800e3cbb30032ccb30061cbb3007c
:1049d0000040eb0012f307000700370010812000b1
:1049e00000027800d3c9b30062cfb30031c0b30076
:1049f00030c0b3000af3070006cbbf000044b2008a
:104a00000004e0000700320010812000000278005e
:104a10008041eb000041eb008040eb000040eb00e8
:104a2000fff207000080fa00000006000200fa0012
:104a30004bf10700d480200083c1b300b2cbb30098
:104a400091cbb3000040eb00f5f2070018c8bf009f
:104a50000080fb00000f78001e007800e10f50007e
:104a60000f0032001e007800e20f500014003200e8
:104a70001e0078000000e00001003200170037003f
:104a8000108120000002780033c0b300a2c1b3003f
:104a9000f1cbb300e0c3b300e1f207000f00370031
:104aa000108120000002780033c0b300e2c1b300df
:104ab000f1cbb300e0c3b300d9f207000700370021
:104ac000108120000002780033c0b300c2cbb300d5
:104ad000f1cbb300e0c3b300d1f2070006cbbf00b7
:104ae0000044b2000004e000070032001081200002
:104af000000278008041eb000041eb008040eb00b9
:104b00000040eb00c6f207000080fa00000006003b
:104b10000000fa000080fa00000006000000fa0021
:104b20000080fa00000006000000fa000cf1070007
:104b300008cbbf00704060000004e0000b003a00aa
:104b400001458000c07728000080400010407800b8
:104b5000d480200080417800b2cfb300a1c8b30058
:104b600030c3b300aef207000a00370001458000f1
:104b7000c07728000080400010407800d4802000da
:104b800080417800a2ccb300f1cab300d0c9b30011
:104b9000a3f2070007cbbf00644060000004e00000
:104ba0002a003a0008cbbf00704060000004e0001b
:104bb0000e003a0006cbbf000044b2000004e00043
:104bc000020032000040eb0010e8b7001081200026
:104bd000000278008041eb000041eb008040eb00d8
:104be0000040eb008ef207002600370006cbbf0026
:104bf0000044b2000004e000020032000040eb007c
:104c000010e8b70010812000000278008041eb001e
:104c10000041eb008040eb000040eb0080f2070019
:104c2000c06080000000e800c0608800c1608000b3
:104c3000700c2000808f5000120036000000eb0046
:104c4000c0608800074ba8000e00370000458000b8
:104c50000000e00004003a0012812000505a800059
:104c6000615a8000c5f4070000458000e10f500044
:104c700004003a0012812000705a8000815a80009e
:104c8000bef407000080fa00000006000000fa00f1
:104c9000d480200003c1b3000041eb008040eb0052
:104ca0000040eb005ef20700108120000002780057
:104cb00003c1b3000041eb008040eb000040eb007b
:104cc00057f207000080fa00000006000000fa001a
:104cd0000080fa00000006000000fa000080fa00e0
:104ce000000006000000fa000080fa000000060044
:104cf0000000fa000080fa00000006000000fa0040
:104d000097f0070001458000c07728000080400030
:104d100010407800d480200080417800c2cab300df
:104d2000e1c0b30090cbb3003df207001281200038
:104d30000045800000004000c10720008080400046
:104d4000008520000080400010007800820078007c
:104d500040fa070007cbbf00644060000004e00099
:104d600007003a0006cbbf000044b2000004e00098
:104d70000e0032000040eb0010e8b7000b003700d7
:104d800006cbbf000044b2000004e0000700320080
:104d900010812000000278008041eb000041eb0010
:104da0008040eb000040eb001df207000080fa009d
:104db000000006000000fa0069f0070001458000cd
:104dc000c07728000080400010407800d480200088
:104dd00080417800c2c2b300c1c2b300b0cbb300ff
:104de0000ff2070012812000004580000000400003
:104df000c107200080804000008520000080400026
:104e0000100078008200780012fa070007cbbf007c
:104e1000644060000004e00007003a0006cbbf00d9
:104e20000044b2000004e0000e0032000040eb003d
:104e300010e8b7000b00370006cbbf000044b200fb
:104e40000004e0000700320010812000000278001a
:104e50008041eb000041eb008040eb000040eb00a4
:104e6000eff107000080fa00000006000000fa00e1
:104e70003bf0070001458000c0772800008040001b
:104e800010407800d480200080417800b2c3b30085
:104e9000c1c2b300b0cbb300e1f107001281200022
:104ea0000045800000004000c107200080804000d5
:104eb000008520000080400010007800820078000b
:104ec000e4f9070007cbbf00644060000004e00085
:104ed00007003a0006cbbf000044b2000004e00027
:104ee0000e0032000040eb0010e8b7000b00370066
:104ef00006cbbf000044b2000004e000070032000f
:104f000010812000000278008041eb000041eb009e
:104f10008040eb000040eb00c1f107000080fa0088
:104f2000000006000000fa000df0070001458000b7
:104f3000c07728000080400010407800d480200016
:104f400080417800c2cab300c1c2b300b0cbb30085
:104f5000b3f10700128120000045800000004000ee
:104f6000c1072000808040000085200000804000b4
:104f70001000780082007800b6f9070007cbbf0068
:104f8000644060000004e00007003a0006cbbf0068
:104f90000044b2000004e0000e0032000040eb00cc
:104fa00010e8b7000b00370006cbbf000044b2008a
:104fb0000004e000070032001081200000027800a9
:104fc0008041eb000041eb008040eb000040eb0033
:104fd00093f107000080fa00000006000000fa00cc
:104fe000dfef0700d4802000c3cbb300f2c1b300d1
:104ff000e1c1b300a0c8b30089f10700118120000e
:105000000040eb0093f9070007cbbf00644060004d
:105010000004e0000b003a0006cbbf000044b200e1
:105020000004e00012003200d48020008041eb0038
:105030000041eb008040eb000040eb0078f10700fe
:105040000b00370006cbbf000044b2000004e000b4
:105050000700320010812000000278008041eb0040
:105060000041eb008040eb000040eb006cf10700da
:105070000080fa00000006000000fa0000458000f1
:105080000000e00006003a00d4802000b3cbb3005b
:10509000a2c8b3008040eb000040eb0060f10700c5
:1050a0000080fa00000006000000fa000080fa000c
:1050b000000006000000fa000080fa000000060070
:1050c0000000fa000080fa00000006000000fa006c
:1050d000004580000000e00006003a00d480200077
:1050e000b3cbb300a2c8b3008040eb000040eb009c
:1050f0004bf107000080fa00000006000000fa00f3
:105100000080fa00000006000000fa000080fa00ab
:10511000000006000000fa000080fa00000006000f
:105120000000fa000080fa00000006000000fa000b
:105130000080fa00000006000200fa000040eb00c8
:10514000004f78000a0037001e01fb001e00fb0024
:105150008000e800508120000080400090407800ee
:105160005081200000004100014878001e4fe800f7
:1051700030c0b3009e4f1000f3ff34000080fa00ef
:10518000000006000400fa00008fbe0006aba90074
:105190001e00be00e00f5000e08f580005003d00eb
:1051a0001e00be0060001000e0801800008fbe00ee
:1051b00006aba8001e00be00823e200003002000b7
:1051c000a8ec0700a200200003002000b4ec0700b8
:1051d00015e8b7001e00be004206200003002000b4
:1051e000a0ec0700a200200003002000acec0700a8
:1051f00016e8b7001e00be00a20020000300200039
:1052000098ec0700a200200003002000a4ec070097
:1052100017e8b7001e00be00a20020000300200017
:105220009fec070018e8b7000080fa0000000600b5
:105230001800fa0015c8bf000080fb000100200024
:10524000008fbe0016c8bf000080fb0001002000d8
:10525000200798003107980017c8bf000080fb00a6
:1052600001002000400798005107980018c8bf00af
:105270000080fb0001002000600798007107980083
:105280001e03be0086007800803e20000009b800a2
:105290006030b9000302780000024200803e200026
:1052a00000b8b9000002420084017800028fbe00fd
:1052b0002e039000be039000860078004006200078
:1052c0000009b8006030b900030278000002420013
:1052d0004006200000b8b9000002420084017800b6
:1052e00022079800330798004e039000de039000d9
:1052f00086007800a0002000000ab8006030b900e5
:1053000005017800000141006a38b9000001410040
:105310008202780044079800550798006e009000bc
:10532000fe00900060079800710798001e01be0003
:105330002e009000be0090000201400083814800d2
:105340004e009000de009000020140008381480082
:105350006e009000fe009000020040008380480034
:10536000008fbe0006cbbf000042b2000004e00088
:10537000040032001e00be0060001000e080180033
:10538000008fbe001e00be000080fa000000060074
:105390000000fa0056c9bf000080fb00a2002000f8
:1053a000110009000280d80015e8b70056c9bf00f7
:1053b0000080fb00a2002000110009000280d8003c
:1053c0008000fd0016e8b70055c9bf000080fb0053
:1053d000a2002000110009000280d80017e8b700e1
:1053e00055c9bf000080fb00a20020001100090089
:1053f0000280d8008000fd0018e8b7000080fa00a5
:10540000000006000200fa0015c8bf000080fb0083
:105410006a00b9008040780016c8bf0000c0400094
:10542000004f780017c8bf000080fb006a00b90079
:105430008040780018c8bf0000c0400010479800a6
:105440001e40780021c0b300251d07001e409000bb
:1054500011c0b300221d07008040eb000040eb00ac
:105460001f1d07000080fa00000006000000fa007f
:1054700057c9bf000080fb00a200200011000900f6
:105480000280d80015e8b70057c9bf000080fb00b4
:10549000a2002000110009000280d8008000fd0059
:1054a00016e8b70058c9bf000080fb00a20020002a
:1054b000110009000280d80017e8b70058c9bf00e2
:1054c0000080fb00a2002000110009000280d8002b
:1054d0008000fd0018e8b7000080fa000000060018
:1054e0000200fa0015c8bf000080fb006a00b90086
:1054f0008040780016c8bf0000c04000004f780010
:1055000017c8bf000080fb006a00b9008040780027
:1055100018c8bf0000c04000104798001e40780027
:1055200031c0b300ee1c07001e40900041c0b30024
:10553000eb1c07000080fa00000006000000fa00e3
:10554000b0488000823e2000110009000200d8000f
:10555000a2002000110009000200d8008000fd0018
:1055600015e8b700b048800042062000110009008d
:105570000200d800a2002000110009000200d8009b
:105580008000fd0016e8b70059c9bf000080fb008d
:10559000a2002000110009000280d80017e8b7001f
:1055a00059c9bf000080fb00a200200011000900c3
:1055b0000280d8008000fd0018e8b7000080fa00e3
:1055c000000006000200fa0015c8bf008080fb0042
:1055d000803e20000088b900b0488800b2488000b2
:1055e00016c8bf008080fb00400620000088b9007c
:1055f00000004100b048880017c8bf000080fb00d1
:105600006a00b9008040780018c8bf0000c04000a0
:1056100010479800b048800000017800c0232000a7
:1056200001002000242307001e40900051c0b30059
:10563000ab1c07000080fa00000006000200fa0020
:10564000000f780006aba9001e00e00002003d003c
:105650001e0fea0006aba8001e007800cf80de0017
:10566000026a2800130020007eeb0700a200200041
:10567000030020008aeb070015e8b7001e00780041
:1056800002712200110009000200d800a2002000cf
:10569000110009000200d8008000fd0016e8b700e4
:1056a0001e007800823e2000110009000200d80090
:1056b000a2002000110009000200d8008000fd00b7
:1056c00017e8b7001e00780042062000110009000c
:1056d0000200d800a2002000110009000200d8003a
:1056e0008000fd0018e8b7001e007800a20020002e
:1056f000110009000200d800a200200011000900da
:105700000200d8008000fd0019e8b7001e007800f4
:10571000a2002000110009000200d8008000fd0056
:105720001ae8b7000080fa00000006000000fa0046
:10573000c0c0b30024e8b700074ba90000458000b3
:10574000c200dd0000852000008040001000be0087
:10575000a0468800b146880000458000c200dd00f8
:1057600000852000008040001000be0085fe07007c
:105770000080fa00000006000000fa0000c1b3003b
:1057800024e8b700074ba90006cba800004580001d
:105790004200dd0081032000808040000085200061
:1057a000008040001000be00a0468800b14688007e
:1057b000004580004200dd00810320008080400021
:1057c00000852000008040001000be006dfe070034
:1057d0000080fa00000006000000fa0010c1b300cb
:1057e00024e8b700074ba90006cba80000458000bd
:1057f0004200dd00f00040000085200000804000f5
:105800001000be00a0468800b14688000045800018
:105810004200dd00f00040000085200000804000d4
:105820001000be0057fe07000080fa0000000600ce
:105830000000fa0020c1b30024e8b700074ba9001c
:1058400006cba800004580004200dd0001022000d8
:105850008080400000852000008040001000be00d5
:10586000a0468800b1468800004580004200dd0067
:105870000102200080804000008520000080400060
:105880001000be003ffe07000080fa000000060086
:105890000000fa0030c1b30024e8b700074ba900ac
:1058a00006cba80000458000c200dd000085200076
:1058b000008040001000be00a0468800b14688006d
:1058c00000458000c200dd0000852000008040000f
:1058d0001000be002bfe07000080fa00000006004a
:1058e0000000fa00d0c0b30024e8b700074ba900bd
:1058f0000080fa00000006000000fa0040c1b3007a
:1059000024e8b700074ba90006cba900004580009a
:1059100000004000810420008080400000852000bd
:105920000080400010007800cf80de00a046880094
:10593000b14688000045800000004000810420003e
:10594000808040000085200000804000100078002a
:10595000cf80de000bfe07000080fa00000006008a
:105960000000fa0050c1b30024e8b700074ba900bb
:105970000080fa00000006000000fa0010c0b3002a
:1059800024e8b700074ba9000040eb001ce8b70073
:105990006000b800fbfd0700086ba9000000eb00e9
:1059a000004588000080fa00000006000000fa00b0
:1059b00020c0b30024e8b700070ba80006cba9005d
:1059c000074ba90010c0b3001ce8b70000458000d9
:1059d0004200dd00410f2000808040000085200053
:1059e000008040001000be00a0468800b14688003c
:1059f000004580004200dd00410f20008080400013
:105a000000852000008040001000be00ddfd070082
:105a10000080fa00000006000000fa0030c0b30069
:105a200024e8b700070ba80006cba900074ba90084
:105a300010c0b3001ce8b700004580004200dd0044
:105a4000410e200080804000008520000080400042
:105a50001000be00a0468800b146880000458000c6
:105a60004200dd00410e20008080400000852000c3
:105a7000008040001000be00c2fd07000080fa0058
