:020000040000fa
:080000000001040000000000f3
:020000040000fa
:10020000efc6200000ff2000000188000000000071
:100210000c000700004b2700010020001100070020
:10022000000020000000e000020032000000020098
:1002300000000000146e0200000000000040da0020
:100240000000fe004440a900e02c20000000e00077
:100250000300320000002000a00188004440a800f4
:100260000000060091018800800078000000eb008b
:1002700015003700e280400032a0b4009101ba00be
:10028000e280400032a0b4009102ba00e280400057
:1002900032a0b4000002eb00472bde00f507b200ed
:1002a000602ce10004003a000059eb008301e900f2
:1002b000fdff3e00040037006128e100010032002c
:1002c0000082eb00040007001101ba000200e00008
:1002d000e8ff3a00000006003159ba008301e90046
:1002e0000c0032002159ba008301e90008003200f5
:1002f0000400e00003003a00e280400032a0b400b5
:10030000f5ff370011d9ba008301e900faff3a007e
:100310008100e800e180400032a0b4000000060047
:1003200000000000000000000000000000000000cd
:1003300000000000000000000000000000000000bd
:1003400000000000000000000000000000000000ad
:10035000000000000000000000000000000000009d
:10036000000000000000000000000000000000008d
:10037000000000000000000000000000000000007d
:10038000000000000000000000000000000000006d
:10039000000000000000000000000000000000005d
:1003a000000000000000000000000000000000004d
:1003b000000000000000000000000000000000003d
:1003c000000000000000000000000000000000002d
:1003d000000000000000000000000000000000001d
:1003e000000000000000000000000000000000000d
:1003f00000000000000000000000000000000000fd
:1004000000000000000000000000000000000000ec
:1004100000000000000000000000000000000000dc
:1004200000000000000000000000000000000000cc
:1004300000000000000000000000000000000000bc
:1004400000000000000000000000000000000000ac
:10045000000000000000000000000000000000009c
:100460006022b800060220000000d0008180d20087
:100470000482d2008582d2000000a0000202520055
:1004800083825a00030031000202420083824a0044
:100490000000a1000603e900f3ff3a000000060097
:0c04a000efff07000400be000000060093
:020000040000fa
:0200000401f009
:04000000f6ff000007
:020000040000fa
:0200000401f009
:04000400ff7f00007a
:020000040000fa
:0200000401f009
:04000800ec7f000089
:020000040000fa
:100008001a7500001a7500001a7500001a750000ac
:100018001a7500001a7500001a7500001a7500009c
:10002800666f00001a7500001a7500003270000033
:100038001a7500001a7500007c700000027100003b
:100048001a7500001a7500001a7500001a7500006c
:100058001a7500001a7500001a7500001a7500005c
:100068001a7500001a7500001a7500001a7500004c
:100078001a750000e86f00001a7500001a75000074
:10008800a66f0000b87000001a7500001a7500000d
:100098001a7500001a7500001a7500001a7500001c
:1000a8001a7500001a7500001a7500001a7500000c
:1000b8001a7500001a7500001a7500001a750000fc
:1000c8001a7500001a7500001a7500001a750000ec
:1000d8001a7500001a7500001a7500001a750000dc
:1000e8001a7500001a7500001a7500001a750000cc
:0800f8001a7500001a750000e2
:020000040000fa
:100108001a7500001a7500001a7500001a750000ab
:100118001a7500001a7500001a7500001a7500009b
:10012800666f00001a7500001a7500003270000032
:100138001a7500001a7500007c700000027100003a
:100148001a7500001a7500001a7500001a7500006b
:100158001a7500001a7500001a7500001a7500005b
:100168001a7500001a7500001a7500001a7500004b
:100178001a750000e86f00001a7500001a75000073
:10018800a66f0000b87000001a7500001a7500000c
:100198001a7500001a7500001a7500001a7500001b
:1001a8001a7500001a7500001a7500001a7500000b
:1001b8001a7500001a7500001a7500001a750000fb
:1001c8001a7500001a7500001a7500001a750000eb
:1001d8001a7500001a7500001a7500001a750000db
:1001e8001a7500001a7500001a7500001a750000cb
:0801f8001a7500001a750000e1
:020000040000fa
:1004ac0000c100008140000001c00000804100003c
:1004bc0001c000008041000000c10000814000002c
:1004cc0001c000008041000000c10000814000001c
:1004dc0000c100008140000001c00000804100000c
:1004ec0001c000008041000000c1000081400000fc
:1004fc0000c100008140000001c0000080410000ec
:10050c0000c100008140000001c0000080410000db
:10051c0001c000008041000000c1000081400000cb
:10052c0001c000008041000000c1000081400000bb
:10053c0000c100008140000001c0000080410000ab
:10054c0000c100008140000001c00000804100009b
:10055c0001c000008041000000c10000814000008b
:10056c0000c100008140000001c00000804100007b
:10057c0001c000008041000000c10000814000006b
:10058c0001c000008041000000c10000814000005b
:10059c0000c100008140000001c00000804100004b
:1005ac0001c000008041000000c10000814000003b
:1005bc0000c100008140000001c00000804100002b
:1005cc0000c100008140000001c00000804100001b
:1005dc0001c000008041000000c10000814000000b
:1005ec0000c100008140000001c0000080410000fb
:1005fc0001c000008041000000c1000081400000eb
:10060c0001c000008041000000c1000081400000da
:10061c0000c100008140000001c0000080410000ca
:10062c0000c100008140000001c0000080410000ba
:10063c0001c000008041000000c1000081400000aa
:10064c0001c000008041000000c10000814000009a
:10065c0000c100008140000001c00000804100008a
:10066c0001c000008041000000c10000814000007a
:10067c0000c100008140000001c00000804100006a
:10068c0000c100008140000001c00000804100005a
:10069c0001c000008041000000c10000814000004a
:1006ac0000c00000c1010000c303000002c2000032
:1006bc00c606000007c7000005c50000c404000002
:1006cc00cc0c00000dcd00000fcf0000ce0e0000b2
:1006dc000aca0000cb0b0000c909000008c80000c2
:1006ec00d818000019d900001bdb0000da1a000032
:1006fc001ede0000df1f0000dd1d00001cdc000002
:10070c0014d40000d5150000d717000016d6000031
:10071c00d212000013d3000011d10000d010000041
:10072c00f030000031f1000033f30000f232000031
:10073c0036f60000f7370000f535000034f4000001
:10074c003cfc0000fd3d0000ff3f00003efe0000b1
:10075c00fa3a00003bfb000039f90000f8380000c1
:10076c0028e80000e9290000eb2b00002aea000031
:10077c00ee2e00002fef00002ded0000ec2c000001
:10078c00e424000025e5000027e70000e626000031
:10079c0022e20000e3230000e121000020e0000041
:1007ac00a060000061a1000063a30000a262000031
:1007bc0066a60000a7670000a565000064a4000001
:1007cc006cac0000ad6d0000af6f00006eae0000b1
:1007dc00aa6a00006bab000069a90000a8680000c1
:1007ec0078b80000b9790000bb7b00007aba000031
:1007fc00be7e00007fbf00007dbd0000bc7c000001
:10080c00b474000075b5000077b70000b676000030
:10081c0072b20000b3730000b171000070b0000040
:10082c005090000091510000935300005292000030
:10083c009656000057970000559500009454000000
:10084c009c5c00005d9d00005f9f00009e5e0000b0
:10085c005a9a00009b5b00009959000058980000c0
:10086c0088480000498900004b8b00008a4a000030
:10087c004e8e00008f4f00008d4d00004c8c000000
:10088c004484000085450000874700004686000030
:10089c008242000043830000418100008040000040
:1008ac0030310000323300003435000036370000a0
:1008bc003839000041420000434400004546000026
:1008cc000a00000000000000010000000000000011
:1008dc00000000000000000000000000000000000c
:1008ec0000000000000000000000000000000000fc
:1008fc000000000000000000640000000000000088
:10090c000a000000000000000100000000000000d0
:10091c0000000000000000000000000000000000cb
:10092c0000000000000000000000000000000000bb
:10093c00e80300000000000064000000000000005c
:10094c000a00000000000000010000000000000090
:10095c00000000000000000000000000000000008b
:10096c000000000000000000102700000000000044
:10097c00e80300000000000064000000000000001c
:10098c000a00000000000000010000000000000050
:10099c00000000000000000000000000000000004b
:1009ac00a0860000010000001027000000000000dd
:1009bc00e8030000000000006400000000000000dc
:1009cc000a00000000000000010000000000000010
:1009dc000000000000000000af0300009d97000025
:1009ec0033b60000be830000bfb70000bb3e000062
:1009fc00ac1f0000bcb8000010fa000082d9000047
:100a0c00cba300006b7b0000c2fb0000ebf30000eb
:100a1c003b7800009b790000710100003031000030
:100a2c00323300003435000036370000383900000e
:0c0a3c0041420000434400004546000019
:020000040000fa
:100a48000000fa0093cbbf00614060000004e000a2
:100a580015003200104080000000e80010408800b7
:100a68001140800010032000808f50000e003600d7
:100a78000000eb001040880091cbbf000004a200ea
:100a88006140600061406000614060006141600059
:100a980011b9200091407800e0cfb30000c0600099
:100aa8000240700091ebb7000080fa0000000600d9
:100ab8000600fa00004f7800114798002247980076
:100ac800230798002e0090001e4878002e00900002
:100ad8000000e800200798002e0090009e4090003b
:100ae800014878002e0090000000e80020079800d8
:100af8002e009000ae409000014878000080fa0077
:100b0800000006000600fa00004f78001147980020
:100b18002247980033479800240798002e00900039
:100b28001e4878002e0090000000e800200798007a
:100b38002e0090009e409000014878002e00900002
:100b48000000e800200798002e009000ae409000ba
:100b5800014878002e0090000000e8002007980067
:100b68002e009000be409000014878000080fa00f6
:100b7800000006000800fa00004f780011479800ae
:100b88002247980033479800444798003507980053
:100b98003e0090001e4878003e0090000000e800eb
:100ba800300798003e0090009e4090000148780071
:100bb8003e0090000000e800300798003e009000da
:100bc800ae409000014878003e0090000000e80028
:100bd800300798003e009000be4090000148780021
:100be8003e0090000000e800300798003e009000aa
:100bf800ce409000014878000080fa00000006000e
:100c08000800fa00004f7800114798002247980022
:100c1800334798004447980055479800360798008e
:100c28003e0090001e4878003e0090000000e8005a
:100c3800300798003e0090009e40900001487800e0
:100c48003e0090000000e800300798003e00900049
:100c5800ae409000014878003e0090000000e80097
:100c6800300798003e009000be4090000148780090
:100c78003e0090000000e800300798003e00900019
:100c8800ce409000014878003e0090000000e80047
:100c9800300798003e009000de4090000148780040
:100ca8000080fa00000006001600fa0040079800cd
:100cb800214f9800620798000040eb0020479800f9
:100cc8004e009000000f78001e00e00003003d0079
:100cd80010c0b300204798001e0fea001e007800dd
:100ce800cf80de003223840043238400dafd07002e
:100cf800a200200003002000e7fd070080407800e4
:100d080063004700014878001e007800cf80de00ad
:100d18005223840063238400cffd0700a200200033
:100d280003002000dcfd07008040780063004700d6
:100d3800114098002e4090000004e0003a003a006c
:100d48002e489000e14f500013003a00630047001e
:100d5800104078000004e0000a00320063004700f9
:100d6800104078008080fb00204f28000080400061
:100d78009040780000c4b30080c0700041579800cc
:100d880002003700f1ceb300415798004e50900052
:100d9800505798001d0037002e489000e14f500032
:100da8000800360063004700104078008080fb0090
:100db800204f2800008040001040780030579800ed
:100dc8001000370063004700104078000004e0007e
:100dd8000800320063004700104078008080fb0064
:100de800204f2800008040001040780020579800cd
:100df800020037008040eb00215798002e509000e9
:100e080030579800be509000515798006e009000df
:100e1800de509000014878006e0090000000e80065
:100e2800600798003b0037002e489000e14f5000c3
:100e380013003a0063004700104078000004e00007
:100e48000a00320063004700104078008080fb00f1
:100e5800204f2800008040009040780000c5b30073
:100e680080c07000015798000200370000c5b30029
:100e7800005798008e509000115798001f003700b7
:100e88002e489000e14f50000800360063004700ec
:100e9800104078008080fb00204f28000080400030
:100ea80010407800704f9800120037006300470028
:100eb800104078000004e0000a0032006300470098
:100ec800104078008080fb00204f28000080400000
:100ed80010407800804078000144a000614f9800dd
:100ee8000200370000c1b300604f9800ee48900040
:100ef800714f98007e489000105798006e0090003f
:100f08009e509000014878006e0090000000e800b4
:100f18006007980063004700104090008080fb0045
:100f2800204f280000804000904078006e0090001c
:100f3800014878000080fa00000006001a00fa0054
:100f480040079800214f9800620798000040eb0086
:100f5800204798004e009000000f78001e00e00027
:100f680003003d0010c0b300204798001e0fea00a0
:100f78001e007800cf80de00122484002324840021
:100f880035fd0700a20020000300200042fd0700f5
:100f98008040780063004700014878001e00780010
:100fa800cf80de0032248400432484002afd070019
:100fb800a20020000300200037fd070080407800d1
:100fc80063004700114098001e007800cf80de00c3
:100fd80052248400632484001ffd0700a20020001f
:100fe800030020002cfd07008040780063004700c4
:100ff800214098002e4090000004e0003a003a009a
:101008002e489000e24f500013003a00630047005a
:10101800104078000004e0000a0032006300470036
:10102800104078008080fb00204f2800008040009e
:101038009040780000c4b30080c07000015f980041
:1010480002003700f1ceb300015f98000e589000ff
:10105800105f98001d0037002e489000e24f5000a6
:101068000800360063004700104078008080fb00cd
:10107800204f2800008040001040780070579800ea
:101088001000370063004700104078000004e000bb
:101098000800320063004700104078008080fb00a1
:1010a800204f2800008040001040780060579800ca
:1010b800020037008040eb00615798006e509000a6
:1010c80070579800fe509000115f98006e009000d5
:1010d8009e589000014878006e0090000000e800db
:1010e800600798003b0037002e489000e24f500000
:1010f80013003a0063004700104078000004e00045
:101108000a00320063004700104078008080fb002e
:10111800204f2800008040009040780000c5b300b0
:1011280080c07000415798000200370000c5b30026
:1011380040579800ce509000515798001f00370034
:101148002e489000e24f5000080036006300470028
:10115800104078008080fb00204f2800008040006d
:10116800104078003057980012003700630047009d
:10117800104078000004e0000a00320063004700d5
:10118800104078008080fb00204f2800008040003d
:1011980010407800804078000144a0002157980052
:1011a8000200370000c1b30020579800ae509000ed
:1011b800315798003e509000505798006e009000ac
:1011c800de509000014878006e0090000000e800b2
:1011d800600798002e489000e14f500013003a0035
:1011e80063004700104090000004e0000a0032004d
:1011f80063004700104090008080fb00204f2800cb
:10120800008040009040780000c4b30080c07000a7
:101218000157980002003700f0ceb300005798003d
:101228008e50900011579800210037002e489000ea
:10123800e14f50000800360063004700204090004e
:101248008080fb00204f280000804000104078007c
:10125800704f980014003700630047001040780072
:101268000004e00004003a006300470010409000ca
:101278000004e000080032006300470010409000be
:101288008080fb00204f280000804000104078003c
:10129800604f9800020037000040eb00604f980054
:1012a800ee489000714f98007e48900010579800c3
:1012b8006e0090009e509000014878006e009000eb
:1012c8000000e80060079800630047002040900095
:1012d8008080fb00204f280000804000904078006c
:1012e8006e009000014878000080fa0000000600b7
:1012f8001e00fa0040079800214f980062079800e6
:101308000040eb00204798004e009000000f780046
:101318001e00e00003003d0010c0b3002047980005
:101328001e0fea001e007800cf80de00f224840041
:101338000325840048fc0700a200200003002000c9
:1013480055fc07008040780063004700014878009a
:101358001e007800cf80de0012258400232584003b
:101368003dfc0700a2002000030020004afc070003
:101378008040780063004700114098001e00780004
:10138800cf80de00322584004325840032fc07002c
:10139800a2002000030020003ffc070080407800e6
:1013a80063004700214098001e007800cf80de00cf
:1013b800522584006325840027fc0700a200200032
:1013c8000300200034fc07008040780063004700d9
:1013d800314098002e4090000004e0003a003a00a6
:1013e8002e489000e34f500013003a006300470076
:1013f800104078000004e0000a0032006300470053
:10140800104078008080fb00204f280000804000ba
:101418009040780000c4b30080c07000415f98001d
:1014280002003700f1ceb300415f98004e5890009b
:10143800505f98001d0037002e489000e34f500081
:101448000800360063004700104078008080fb00e9
:10145800204f28000080400010407800305f98003e
:101468001000370063004700104078000004e000d7
:101478000800320063004700104078008080fb00bd
:10148800204f28000080400010407800205f98001e
:10149800020037008040eb00215f98002e58900032
:1014a800305f9800be589000515f98006e00900021
:1014b800de589000014878006e0090000000e800b7
:1014c800600798003b0037002e489000e34f50001b
:1014d80013003a0063004700104078000004e00061
:1014e8000a00320063004700104078008080fb004b
:1014f800204f2800008040009040780000c5b300cd
:1015080080c07000015f98000200370000c5b3007a
:10151800005f98008e589000115f98001f003700f8
:101528002e489000e34f5000080036006300470043
:10153800104078008080fb00204f28000080400089
:101548001040780070579800120037006300470079
:10155800104078000004e0000a00320063004700f1
:10156800104078008080fb00204f28000080400059
:1015780010407800804078000144a000615798002e
:101588000200370000c1b30060579800ee50900089
:10159800715798007e509000105f98006e00900080
:1015a8009e589000014878006e0090000000e80006
:1015b800600798002e489000e24f500013003a0050
:1015c80063004700104090000004e0000a00320069
:1015d80063004700104090008080fb00204f2800e7
:1015e800008040009040780000c4b30080c07000c4
:1015f8004157980002003700f0ceb30040579800da
:10160800ce50900051579800210037002e48900086
:10161800e24f500008003600630047001040900079
:101628008080fb00204f2800008040001040780098
:1016380030579800140037006300470010407800c6
:101648000004e00004003a006300470010409000e6
:101658000004e000080032006300470010409000da
:101668008080fb00204f2800008040001040780058
:1016780020579800020037000040eb0020579800e0
:10168800ae509000315798003e5090005057980047
:101698006e009000de509000014878006e009000c7
:1016a8000000e800600798002e489000e14f5000c5
:1016b80013003a0063004700204090000004e00057
:1016c8000a00320063004700204090008080fb0041
:1016d800204f2800008040009040780000c4b300ec
:1016e80080c070000157980002003700f0ceb300a8
:1016f800005798008e509000115798002500370029
:101708002e489000e14f5000080036006300470063
:10171800204090008080fb00204f2800008040007f
:1017280010407800704f9800180037006300470099
:10173800104078000004e00008003a006300470009
:10174800104090000004e00004003a0063004700e5
:10175800204090000004e0000800320063004700c9
:10176800204090008080fb00204f2800008040002f
:1017780010407800604f9800020037000040eb00ee
:10178800604f9800ee489000714f98007e48900096
:10179800105798006e0090009e5090000148780005
:1017a8006e0090000000e8006007980063004700a2
:1017b800304090008080fb00204f280000804000cf
:1017c800904078006e009000014878000080fa0090
:1017d800000006002800fa006007980071079800ca
:1017e80002579800130f98000040eb0040479800fc
:1017f8006e009000fe009000008fbe001e00be002c
:10180800e00f5000e08f580006003d0010c0b30004
:10181800404798001e00be0060001000e0801800dd
:10182800008fbe001e00be00d2258400e325840080
:1018380009fb0700a20020000300200016fb070098
:101848008040780065004700014878001e00be000f
:10185800f225840003268400fffa0700a200200076
:10186800030020000cfb070080407800650047005b
:10187800114098001e00be00122684002326840012
:10188800f5fa0700a20020000300200002fb070071
:101898008040780065004700214098001e00be0087
:1018a8003226840043268400ebfa0700a2002000b9
:1018b80003002000f8fa0700804078006500470020
:1018c800314098001e00be00522684006326840022
:1018d800e1fa0700a200200003002000eefa07004a
:1018e8008040780065004700414098004e409000d5
:1018f8000004e0003a003a000e509000e44f500017
:1019080013003a0065004700104078000004e0002a
:101918000a00320065004700104078008080fb0014
:10192800204f2800008040009040780000c4b30099
:1019380080c070006167980002003700f1ceb300e4
:10194800616798006e609000706798001d0037000e
:101958000e509000e44f5000080036006500470024
:10196800104078008080fb00204f28000080400055
:101978001040780050679800100037006500470055
:10198800104078000004e0000800320065004700bd
:10199800104078008080fb00204f28000080400025
:1019a8001040780040679800020037008040eb0044
:1019b800416798004e60900050679800de60900084
:1019c800716798001e089000fe609000014878003a
:1019d8001e0890000000e800100f98003d00370036
:1019e8000e509000e44f500013003a006500470085
:1019f800104078000004e0000a003200650047004b
:101a0800104078008080fb00204f280000804000b4
:101a18009040780000c5b30080c07000216798002e
:101a28000200370000c5b30020679800ae60900040
:101a380031679800210037000e509000e44f5000a5
:101a48000a00360065004700104078008080fb00df
:101a5800204f280000804000104078008040780027
:101a68000144a00011679800120037006500470084
:101a7800104078000004e0000a00320065004700ca
:101a8800104078008080fb00204f28000080400034
:101a980010407800804078000144a0000167980059
:101aa8000200370000c1b300006798008e60900004
:101ab800116798001e609000306798001e0890001b
:101ac800be609000014878001e0890000000e80001
:101ad800100f98000e509000e34f500013003a008a
:101ae80065004700104090000004e0000a00320042
:101af80065004700104090008080fb00204f2800c0
:101b0800008040009040780000c4b30080c070009e
:101b1800615f980002003700f0ceb300605f980064
:101b2800ee589000715f9800210037000e50900029
:101b3800e34f500008003600650047001040900051
:101b48008080fb00204f2800008040001040780073
:101b5800505f980014003700650047001040780077
:101b68000004e00004003a006500470010409000bf
:101b78000004e000080032006500470010409000b3
:101b88008080fb00204f2800008040001040780033
:101b9800405f9800020037000040eb00405f98006b
:101ba800ce589000515f98005e589000705f980082
:101bb8001e089000fe589000014878001e0890000a
:101bc8000000e800100f98000e509000e24f5000ff
:101bd80013003a0065004700204090000004e00030
:101be8000a00320065004700204090008080fb001a
:101bf800204f2800008040009040780000c4b300c7
:101c080080c07000215f980002003700f0ceb3005a
:101c1800205f9800ae589000315f9800250037008b
:101c28000e509000e24f5000080036006500470053
:101c3800204090008080fb00204f2800008040005a
:101c480010407800105f98001800370065004700c2
:101c5800104078000004e00008003a0065004700e2
:101c6800104090000004e00004003a0065004700be
:101c7800204090000004e0000800320065004700a2
:101c8800204090008080fb00204f2800008040000a
:101c980010407800005f9800020037000040eb0019
:101ca800005f98008e589000115f98001e589000b1
:101cb800305f98001e089000be58900001487800d8
:101cc8001e0890000000e800100f98000e509000c9
:101cd800e14f500013003a00650047003040900083
:101ce8000004e0000a003200650047003040900020
:101cf8008080fb00204f2800008040009040780042
:101d080000c4b30080c0700061579800020037001b
:101d1800f0ceb30060579800ee50900071579800cd
:101d2800290037000e509000e14f5000080036009f
:101d380065004700304090008080fb00204f28005d
:101d48000080400010407800505798001c00370071
:101d580065004700104078000004e0000c003a00dd
:101d680065004700104090000004e00008003a00b9
:101d780065004700204090000004e00004003a009d
:101d880065004700304090000004e0000800320081
:101d980065004700304090008080fb00204f2800fd
:101da800008040001040780040579800020037003b
:101db8000040eb0040579800ce50900051579800d3
:101dc8005e509000705798001e089000fe509000da
:101dd800014878001e0890000000e800100f9800e5
:101de80065004700404090008080fb00204f28009d
:101df80000804000904078001e089000014878005c
:101e08000080fa00000006002c00fa006007980025
:101e18007107980002579800130f98000040eb00d4
:101e2800404798006e009000fe009000008fbe00b2
:101e38001e00be00e00f5000e08f580006003d0075
:101e480010c0b300404798001e00be00600010009c
:101e5800e0801800008fbe001e00be00b22684007d
:101e6800c32684007cf90700a2002000030020009c
:101e780089f907008040780065004700014878002c
:101e88001e00be00d2268400e326840072f90700f3
:101e9800a2002000030020007ff90700804078009e
:101ea80065004700114098001e00be00f22684001d
:101eb8000327840068f90700a2002000030020001f
:101ec80075f90700804078006500470021409800b8
:101ed8001e00be0012278400232784005ef9070035
:101ee800a2002000030020006bf907008040780062
:101ef80065004700314098001e00be00322784006c
:101f08004327840054f90700a200200003002000a2
:101f180061f907008040780065004700414098005b
:101f28001e00be0052278400632784004af9070078
:101f3800a20020000300200057f907008040780025
:101f480065004700514098004e4090000004e000b2
:101f58003a003a000e509000e54f500013003a0046
:101f680065004700104078000004e0000a003200d5
:101f780065004700104078008080fb00204f280053
:101f8800008040009040780000c4b30080c070001a
:101f9800216f980002003700f1ceb300216f98003e
:101fa8002e689000306f98001d0037000e5090008a
:101fb800e54f5000080036006500470010407800e3
:101fc8008080fb00204f28000080400010407800ef
:101fd800106f980010003700650047001040780027
:101fe8000004e00008003200650047001040780057
:101ff8008080fb00204f28000080400010407800bf
:10200800006f9800020037008040eb00016f9800d5
:102018000e689000106f98009e689000316f9800cd
:102028001e089000be689000014878001e089000c5
:102038000000e800100f98003d0037000e50900097
:10204800e54f500013003a00650047001040780043
:102058000004e0000a0032006500470010407800e4
:102068008080fb00204f28000080400090407800ce
:1020780000c5b30080c07000616798000200370097
:1020880000c5b30060679800ee6090007167980023
:10209800210037000e509000e54f50000a0036002e
:1020a80065004700104078008080fb00204f280022
:1020b8000080400010407800804078000144a00073
:1020c80051679800120037006500470010407800fb
:1020d8000004e0000a003200650047001040780064
:1020e8008080fb00204f28000080400010407800ce
:1020f800804078000144a000416798000200370042
:1021080000c1b30040679800ce6090005167980006
:102118005e609000706798001e089000fe60900056
:10212800014878001e0890000000e800100f980091
:102138000e509000e44f500013003a00650047002d
:10214800104090000004e0000a00320065004700db
:10215800104090008080fb00204f28000080400045
:102168009040780000c4b30080c0700021679800d8
:1021780002003700f0ceb30020679800ae609000f0
:1021880031679800210037000e509000e44f50004e
:102198000800360065004700104090008080fb0072
:1021a800204f2800008040001040780010679800f9
:1021b8001400370065004700104078000004e00074
:1021c80004003a0065004700104090000004e00059
:1021d8000800320065004700104090008080fb0036
:1021e800204f2800008040001040780000679800c9
:1021f800020037000040eb00006798008e609000f6
:10220800116798001e609000306798001e089000c3
:10221800be609000014878001e0890000000e800a9
:10222800100f98000e509000e34f500013003a0032
:1022380065004700204090000004e0000a003200da
:1022480065004700204090008080fb00204f280058
:10225800008040009040780000c4b30080c0700047
:10226800615f980002003700f0ceb300605f98000d
:10227800ee589000715f9800250037000e509000ce
:10228800e34f5000080036006500470020409000ea
:102298008080fb00204f280000804000104078001c
:1022a800505f98001800370065004700104078001c
:1022b8000004e00008003a00650047001040900064
:1022c8000004e00004003a00650047002040900048
:1022d8000004e0000800320065004700204090003c
:1022e8008080fb00204f28000080400010407800cc
:1022f800405f9800020037000040eb00405f980004
:10230800ce589000515f98005e589000705f98001a
:102318001e089000fe589000014878001e089000a2
:102328000000e800100f98000e509000e24f500097
:1023380013003a0065004700304090000004e000b8
:102348000a00320065004700304090008080fb00a2
:10235800204f2800008040009040780000c4b3005f
:1023680080c07000215f980002003700f0ceb300f3
:10237800205f9800ae589000315f98002900370020
:102388000e509000e24f50000800360065004700ec
:10239800304090008080fb00204f280000804000e3
:1023a80010407800105f98001c0037006500470057
:1023b800104078000004e0000c003a006500470077
:1023c800104090000004e00008003a006500470053
:1023d800204090000004e00004003a006500470037
:1023e800304090000004e00008003200650047001b
:1023f800304090008080fb00204f28000080400083
:1024080010407800005f9800020037000040eb00a1
:10241800005f98008e589000115f98001e58900039
:10242800305f98001e089000be5890000148780060
:102438001e0890000000e800100f98000e50900051
:10244800e14f500013003a006500470040409000fb
:102458000004e0000a003200650047004040900098
:102468008080fb00204f28000080400090407800ca
:1024780000c4b30080c070006157980002003700a4
:10248800f0ceb30060579800ee5090007157980056
:102498002d0037000e509000e14f50000800360024
:1024a80065004700404090008080fb00204f2800d6
:1024b80000804000104078005057980020003700f6
:1024c80065004700104078000004e00010003a0062
:1024d80065004700104090000004e0000c003a003e
:1024e80065004700204090000004e00008003a0022
:1024f80065004700304090000004e00004003a0006
:1025080065004700404090000004e00008003200e9
:1025180065004700404090008080fb00204f280065
:1025280000804000104078004057980002003700b3
:102538000040eb0040579800ce509000515798004b
:102548005e509000705798001e089000fe50900052
:10255800014878001e0890000000e800100f98005d
:1025680065004700504090008080fb00204f280005
:1025780000804000904078001e08900001487800d4
:102588000080fa00000006001600fa0020479800b4
:102598002107980090cbbf000080fb004700de00b9
:1025a8001047980040c0b300004f78001e409000cc
:1025b8000004e00046003a002e409000e34f50002f
:1025c80019003a001e80fb00e60010006089200018
:1025d80000804000104078000004e0000d00320048
:1025e8001e80fb00e600100060892000008040008b
:1025f800104078008080fb00204f280000804000b9
:102608009040780000c4b30080c070004157980023
:1026180002003700f0ceb30040579800ce5090002b
:1026280051579800220037002e409000e34f500089
:102638000b0036001e80fb00e600100060892000b9
:1026480000804000104078008080fb00204f280068
:102658000080400010407800305798001200370082
:1026680098c8bf000004e0000b0032001e80fb0089
:10267800e6001000608920000080400010407800cb
:102688008080fb00204f2800008040001040780028
:1026980020579800020037000040eb0020579800b0
:1026a800ae509000315798003e5090005057980017
:1026b8002e009000de509000014878002e00900017
:1026c8000000e800200798001e4fe9004700370087
:1026d8002e409000e34f500019003a001e80fb0086
:1026e800e60010006089200000804000104078005b
:1026f8000004e0000d0032001e80fb00e600100020
:102708006089200000804000104078008080fb0035
:10271800204f2800008040009040780000c5b3009a
:1027280080c07000015798000200370000c5b30050
:10273800005798008e5090001157980024003700d9
:102748002e409000e34f50000b0036001e80fb0027
:10275800e6001000608920000080400010407800ea
:102768008080fb00204f2800008040001040780047
:10277800704f98001400370098c8bf000004e000ac
:102788000d0032001e80fb00e6001000608920006a
:1027980000804000104078008080fb00204f280017
:1027a8000080400010407800804078000144a0007c
:1027b800614f98000200370000c1b300604f9800d5
:1027c800ee489000714f98007e489000105798008e
:1027d8002e0090009e509000014878002e00900036
:1027e8000000e800200798001e4fe9002e409000e6
:1027f800e24f500019003a001e80fb00e60010006e
:102808006089200000804000104078000004e0004b
:102818000d0032001e80fb00e600100060892000d9
:1028280000804000104078008080fb00204f280086
:10283800008040009040780000c4b30080c0700061
:10284800414f980002003700f0ceb300404f980087
:10285800ce489000514f9800250037002e40900038
:10286800e24f50000b0036001e80fb00e60010000f
:102878006089200000804000104078008080fb00c4
:10288800204f28000080400010407800304f98000a
:102898001500370098c8bf000004e00003003a00a4
:1028a80099c8bf000004e0000b0032001e80fb0046
:1028b800e600100060892000008040001040780089
:1028c8008080fb00204f28000080400010407800e6
:1028d800204f9800020037000040eb00204f98007e
:1028e800ae489000314f98003e489000504f9800f5
:1028f8002e009000de489000014878002e009000dd
:102908000000e800200798001e4fe9002e409000c4
:10291800e14f500019003a001e80fb00e60010004d
:102928006089200000804000104078000004e0002a
:102938000d0032001e80fb00e600100060892000b8
:1029480000804000104078008080fb00204f280065
:10295800008040009040780000c4b30080c0700040
:10296800014f980002003700f0ceb300004f9800e6
:102978008e489000114f9800280037002e40900094
:10298800e14f50000b0036001e80fb00e6001000ef
:102998006089200000804000104078008080fb00a3
:1029a800204f2800008040001040780070479800b1
:1029b8001800370098c8bf000004e00006003a007d
:1029c80099c8bf000004e00003003a009ac8bf009d
:1029d8000004e0000b0032001e80fb00e60010003f
:1029e8006089200000804000104078008080fb0053
:1029f800204f280000804000104078006047980071
:102a0800020037000040eb0060479800ee4090005d
:102a1800714798007e409000104f98002e0090005b
:102a28009e489000014878002e0090000000e800c1
:102a3800200798001e4fe9001e80fb00e6001000ea
:102a48006089200000804000104078008080fb00f2
:102a5800204f280000804000904078002e00900011
:102a6800014878000080fa00000006001a00fa0009
:102a7800204798002107980090cbbf000080fb00fa
:102a88004700de001047980050c0b300004f7800a0
:102a98001e4090000004e0004c003a002e409000d8
:102aa8008080fb001e80fb000000e900808f500042
:102ab80019003a001e80fb00e60010006089200023
:102ac80000804000104078000004e0000d00320053
:102ad8001e80fb00e6001000608920000080400096
:102ae800104078008080fb00204f280000804000c4
:102af8009040780000c4b30080c07000015f980067
:102b080002003700f0ceb300005f98008e589000a6
:102b1800115f9800250037002e4090008080fb0050
:102b28001e80fb000000e900808f50000b0034007d
:102b38001e80fb00e6001000608920000080400035
:102b4800104078008080fb00204f28000080400063
:102b580010407800705798001200370097c8bf00df
:102b68000004e0000b0032001e80fb00e6001000ad
:102b78006089200000804000104078008080fb00c1
:102b8800204f2800008040001040780060579800cf
:102b9800020037000040eb0060579800ee509000ac
:102ba800715798007e509000105f98002e0090009a
:102bb8009e589000014878002e0090000000e80020
:102bc800200798001e4fe9004d0037002e40900066
:102bd8008080fb001e80fb000000e900808f500011
:102be80019003a001e80fb00e600100060892000f2
:102bf80000804000104078000004e0000d00320022
:102c08001e80fb00e6001000608920000080400064
:102c1800104078008080fb00204f28000080400092
:102c28009040780000c5b30080c0700041579800fc
:102c38000200370000c5b30040579800ce509000fe
:102c480051579800270037002e4090008080fb00e5
:102c58001e80fb000000e900808f50000b0034004c
:102c68001e80fb00e6001000608920000080400004
:102c7800104078008080fb00204f28000080400032
:102c880010407800305798001400370097c8bf00ec
:102c98000004e0000d0032001e80fb00e60010007a
:102ca8006089200000804000104078008080fb0090
:102cb800204f2800008040001040780080407800b5
:102cc8000144a000215798000200370000c1b3005a
:102cd80020579800ae509000315798003e50900011
:102ce800505798002e009000de5090000148780060
:102cf8002e0090000000e800200798001e4fe90011
:102d08002e4090008080fb001e80fb000000e90040
:102d1800808f500019003a001e80fb00e60010006a
:102d28006089200000804000104078000004e00026
:102d38000d0032001e80fb00e600100060892000b4
:102d480000804000104078008080fb00204f280061
:102d5800008040009040780000c4b30080c070003c
:102d68000157980002003700f0ceb30000579800d2
:102d78008e50900011579800280037002e40900080
:102d88008080fb001e80fb000000e900808f50005f
:102d98000b0034001e80fb00e60010006089200054
:102da80000804000104078008080fb00204f280001
:102db8000080400010407800704f980015003700e0
:102dc80097c8bf000004e00003003a0098c8bf009d
:102dd8000004e0000b0032001e80fb00e60010003b
:102de8006089200000804000104078008080fb004f
:102df800204f28000080400010407800604f980065
:102e0800020037000040eb00604f9800ee48900049
:102e1800714f98007e489000105798002e0090003f
:102e28009e509000014878002e0090000000e800b5
:102e3800200798001e4fe9002e4090008080fb007c
:102e48001e80fb000000e900808f500019003a0046
:102e58001e80fb00e6001000608920000080400012
:102e6800104078000004e0000d0032001e80fb00d6
:102e7800e6001000608920000080400010407800c3
:102e88008080fb00204f28000080400090407800a0
:102e980000c4b30080c07000414f980002003700a2
:102ea800f0ceb300404f9800ce489000514f9800a4
:102eb8002b0037002e4090008080fb001e80fb0016
:102ec8000000e900808f50000b0034001e80fb00da
:102ed800e600100060892000008040001040780063
:102ee8008080fb00204f28000080400010407800c0
:102ef800304f98001800370097c8bf000004e00062
:102f080006003a0098c8bf000004e00003003a0039
:102f180099c8bf000004e0000b0032001e80fb00cf
:102f2800e600100060892000008040001040780012
:102f38008080fb00204f280000804000104078006f
:102f4800204f9800020037000040eb00204f980007
:102f5800ae489000314f98003e489000504f98007e
:102f68002e009000de489000014878002e00900066
:102f78000000e800200798001e4fe9002e4090004e
:102f88008080fb001e80fb000000e900808f50005d
:102f980019003a001e80fb00e6001000608920003e
:102fa80000804000104078000004e0000d0032006e
:102fb8001e80fb00e60010006089200000804000b1
:102fc800104078008080fb00204f280000804000df
:102fd8009040780000c4b30080c07000014f980092
:102fe80002003700f0ceb300004f98008e489000e2
:102ff800114f98002e0037002e4090008080fb0073
:103008001e80fb000000e900808f50000b00340098
:103018001e80fb00e6001000608920000080400050
:10302800104078008080fb00204f2800008040007e
:1030380010407800704798001b00370097c8bf0001
:103048000004e00009003a0098c8bf000004e0004e
:1030580006003a0099c8bf000004e00003003a00e7
:103068009ac8bf000004e0000b0032001e80fb007d
:10307800e6001000608920000080400010407800c1
:103088008080fb00204f280000804000104078001e
:1030980060479800020037000040eb006047980046
:1030a800ee409000714798007e409000104f9800c5
:1030b8002e0090009e489000014878002e00900055
:1030c8000000e800200798001e4fe9001e80fb0062
:1030d800e600100060892000008040001040780061
:1030e8008080fb00204f280000804000904078003e
:1030f8002e009000014878000080fa0000000600c9
:103108002800fa00404f98007107980090cbbf0044
:103118000080fb004700de004047980061892000de
:1031280091407800650047000148780071892000c7
:10313800914078006500470011409800818920007f
:10314800914078006500470021409800918920004f
:10315800914078006500470031409800a18920001f
:10316800914078006500470041409800b1892000ef
:103178009140780065004700514098004e4090000b
:103188000004e0003a003a004e489000e54f500035
:1031980013003a0065004700104078000004e00082
:1031a8000a00320065004700104078008080fb006c
:1031b800204f2800008040009040780000c4b300f1
:1031c80080c070006167980002003700f0ceb3003d
:1031d80060679800ee609000716798001d003700e6
:1031e8004e489000e54f5000080036006500470043
:1031f800104078008080fb00204f280000804000ad
:1032080010407800506798001000370065004700ac
:10321800104078000004e000080032006500470014
:10322800104078008080fb00204f2800008040007c
:103238001040780040679800020037000040eb001b
:1032480040679800ce609000516798005e609000db
:10325800706798007e009000fe609000014878003a
:103268007e0090000000e800700798003d003700dd
:103278004e489000e54f500013003a0065004700a3
:10328800104078000004e0000a00320065004700a2
:10329800104078008080fb00204f2800008040000c
:1032a8009040780000c5b30080c070002167980086
:1032b8000200370000c5b30020679800ae60900098
:1032c80031679800210037004e489000e54f5000c4
:1032d8000a00360065004700104078008080fb0037
:1032e800204f28000080400010407800804078007f
:1032f8000144a000116798001200370065004700dc
:10330800104078000004e0000a0032006500470021
:10331800104078008080fb00204f2800008040008b
:1033280010407800804078000144a00001679800b0
:103338000200370000c1b300006798008e6090005b
:10334800116798001e609000306798007e0090001a
:10335800be609000014878007e0090000000e80000
:10336800700798004e489000e44f500013003a0050
:1033780065004700104090000004e0000a00320099
:1033880065004700104090008080fb00204f280017
:10339800008040009040780000c4b30080c07000f6
:1033a800615f980002003700f0ceb300605f9800bc
:1033b800ee589000715f9800210037004e48900049
:1033c800e44f5000080036006500470010409000a8
:1033d8008080fb00204f28000080400010407800cb
:1033e800505f9800140037006500470010407800cf
:1033f8000004e00004003a00650047001040900017
:103408000004e0000800320065004700104090000a
:103418008080fb00204f280000804000104078008a
:10342800405f9800020037000040eb00405f9800c2
:10343800ce589000515f98005e589000705f9800d9
:103448007e009000fe589000014878007e009000b1
:103458000000e800700798004e489000e34f5000c5
:1034680013003a0065004700204090000004e00087
:103478000a00320065004700204090008080fb0071
:10348800204f2800008040009040780000c4b3001e
:1034980080c07000215f980002003700f0ceb300b2
:1034a800205f9800ae589000315f980025003700e3
:1034b8004e489000e34f5000080036006500470072
:1034c800204090008080fb00204f280000804000b2
:1034d80010407800105f980018003700650047001a
:1034e800104078000004e00008003a00650047003a
:1034f800104090000004e00004003a006500470016
:10350800204090000004e0000800320065004700f9
:10351800204090008080fb00204f28000080400061
:1035280010407800005f9800020037000040eb0070
:10353800005f98008e589000115f98001e58900008
:10354800305f98007e009000be58900001487800d7
:103558007e0090000000e800700798004e48900038
:10356800e24f500013003a006500470030409000d9
:103578000004e0000a003200650047003040900077
:103588008080fb00204f2800008040009040780099
:1035980000c4b30080c07000615798000200370073
:1035a800f0ceb30060579800ee5090007157980025
:1035b800290037004e489000e24f500008003600be
:1035c80065004700304090008080fb00204f2800b5
:1035d8000080400010407800505798001c003700c9
:1035e80065004700104078000004e0000c003a0035
:1035f80065004700104090000004e00008003a0011
:1036080065004700204090000004e00004003a00f4
:1036180065004700304090000004e00008003200d8
:1036280065004700304090008080fb00204f280054
:103638000080400010407800405798000200370092
:103648000040eb0040579800ce509000515798002a
:103658005e509000705798007e009000fe509000d9
:10366800014878007e0090000000e800700798008c
:103678004e489000e14f500013003a0065004700a3
:10368800404090000004e0000a0032006500470056
:10369800404090008080fb00204f280000804000c0
:1036a8009040780000c4b30080c070002157980093
:1036b80002003700f0ceb30020579800ae509000bb
:1036c800315798002d0037004e489000e14f5000c8
:1036d8000800360065004700404090008080fb00ed
:1036e800204f2800008040001040780010579800b4
:1036f8002000370065004700104078000004e00013
:1037080010003a0065004700104090000004e000f7
:103718000c003a0065004700204090000004e000db
:1037280008003a0065004700304090000004e000bf
:1037380004003a0065004700404090000004e000a3
:103748000800320065004700404090008080fb0080
:10375800204f280000804000104078000057980053
:10376800020037000040eb00005798008e50900090
:10377800115798001e509000305798007e00900016
:10378800be509000014878007e0090000000e800dc
:103798007007980065004700504090008080fb004b
:1037a800204f280000804000904078007e00900064
:1037b800014878000080fa00000006000200fa00c4
:1037c8009ff4070094cbbf000080fb000000d100ed
:1037d8006f4060000080fb00000f78001e0078003a
:1037e800e10f5000200032001e007800e10f500069
:1037f80004003c001e0078000000e00008003200d1
:103808004e0037001e007800e20f500028003200fa
:103818001e007800e30f50003700320047003700e1
:10382800a688200080c2eb0000c2eb0080c1eb003c
:1038380000c1eb0080c0eb0000c0eb00f0f4070013
:10384800008920000003780080c2eb0000c2eb0072
:1038580080c1eb0000c1eb0080c0eb0000c0eb00b2
:10386800e7f4070035003700a68820008042eb0007
:103878000042eb008041eb000041eb008040eb0090
:103888000040eb00def40700008920000003780008
:103898008042eb000042eb008041eb000041eb006e
:1038a8008040eb000040eb00d5f407002300370010
:1038b800a6882000f5cab300d4c9b30033c3b30047
:1038c800c2cab3008040eb000040eb00ccf4070014
:1038d8000089200000037800f5cab300e4c0b300f3
:1038e8008041eb000041eb008040eb000040eb0022
:1038f800c3f4070011003700a688200075cbb30079
:1039080034c0b300f3cab300d2c9b3008040eb009f
:103918000040eb00baf4070000892000000378009b
:103928008042eb000042eb008041eb000041eb00dd
:103938008040eb000040eb00b1f407000080fa0083
:10394800000006000000fa0093cbbf00644060004e
:103958000004e00020003a00a68820008042eb0026
:103968000042eb008041eb000041eb008040eb009f
:103978000040eb00a2f40700008920000003780053
:103988008042eb000042eb008041eb000041eb007d
:103998008040eb000040eb0099f4070093cbbf0098
:1039a800614060000004e000170032001040800011
:1039b8000000e8001040880011408000100320003b
:1039c800808f5000100036000000eb001040880087
:1039d800934ba8000c003700504c80000041780041
:1039e800404d8000514d8000a388200006f9070053
:1039f80003892000504c800000417800204d800051
:103a0800314d800000f907000080fa000000060030
:103a18000000fa000080fa00000006000000fa002a
:103a280007f40700a68820008042eb00c4c6b30054
:103a3800f3c2b300a2c8b3008040eb000040eb0023
:103a48006ff40700018920000040eb00acfd07007f
:103a580093cbbf00644060000004e0000d0032001a
:103a680091cbbf00614060000004e0000900320013
:103a780000892000000378008042eb000042eb0040
:103a88008041eb000041eb008040eb000040eb0080
:103a98005bf407000080fa00000006000000fa004e
:103aa800e7f30700a68820008042eb00e4c4b300d7
:103ab80083c2b300f2c1b3008040eb000040eb00ca
:103ac8004ff40700018920000040eb008cfd07003f
:103ad80093cbbf00644060000004e0000d0032009a
:103ae80091cbbf00614060000004e0000900320093
:103af80000892000000378008042eb000042eb00c0
:103b08008041eb000041eb008040eb000040eb00ff
:103b18003bf407000080fa00000006000000fa00ed
:103b28000080fa00000006000000fa00c4f3070055
:103b3800a68820008042eb00f4c1b300a3c1b30003
:103b480082c2b3008040eb000040eb002cf4070079
:103b58000189200020c0b30069fd070093cbbf0096
:103b6800644060000004e0000d00320091cbbf000b
:103b7800614060000004e000090032000089200074
:103b8800000378008042eb000042eb008041eb002c
:103b98000041eb008040eb000040eb0018f4070008
:103ba8000080fa00000006000000fa00a4f30700f5
:103bb800a68820008042eb00f4c1b300f3c1b30033
:103bc800b2cbb3008040eb000040eb000cf40700e0
:103bd8000189200020c0b30049fd070093cbbf0036
:103be800644060000004e0000d00320091cbbf008b
:103bf800614060000004e0000900320000892000f4
:103c0800000378008042eb000042eb008041eb00ab
:103c18000041eb008040eb000040eb00f8f30700a8
:103c28000080fa00000006000200fa0084f3070092
:103c3800a68820008042eb0064cbb30093cbb3008e
:103c4800e2c3b3008040eb000040eb00ecf3070058
:103c58009bc8bf000080fb00000f78001e007800a2
:103c6800e20f5000250032001e007800e20f5000dd
:103c780007003c001e0078000000e0000b00320046
:103c88001e007800e10f50001200320038003700a3
:103c98001e007800e30f5000220032001e0078005a
:103ca800e40f50002900320031003700008920005d
:103cb80000037800f5cbb30034c7b3008041eb00b4
:103cc8000041eb008040eb000040eb00ccf3070024
:103cd800270037000089200000037800e5cbb300f7
:103ce80074cfb3008041eb000041eb008040eb0053
:103cf8000040eb00c2f307001d00370000892000d8
:103d080000037800d5c9b30074cfb30033c0b30043
:103d18000041eb008040eb000040eb00b8f30700e7
:103d280013003700008920000003780035c3b30072
:103d380000c2eb0073c9b3000041eb008040eb0008
:103d48000040eb00aef307000900370000892000af
:103d580000037800e5cbb30034ccb30063cbb300e9
:103d68000041eb008040eb000040eb00a4f30700ab
:103d780093cbbf00644060000004e0000d003200f7
:103d880091cbbf00614060000004e00009003200f0
:103d980000892000000378008042eb000042eb001d
:103da8008041eb000041eb008040eb000040eb005d
:103db80093f307000080fa00000006000200fa00f2
:103dc8001ff30700a6882000a5c8b300a4c8b30045
:103dd800e3c1b300c2cab3008040eb000040eb006f
:103de80087f307009bc8bf000080fb00000f780026
:103df8001e007800e10f50001b0032001e00780002
:103e0800e20f50000e0032001e0078000000e000b3
:103e1800010032001d0037000089200000037800ef
:103e280035c0b300a4c1b300f3cbb300e2c3b30001
:103e38008040eb000040eb0071f3070013003700ef
:103e4800008920000003780035c0b300e4c1b30046
:103e5800f3cbb300e2c3b3008040eb000040eb00bb
:103e680067f3070009003700008920000003780085
:103e780035c0b300c4cbb300f3cbb300e2c3b30087
:103e88008040eb000040eb005df3070093cbbf00e0
:103e9800644060000004e0000d00320091cbbf00d8
:103ea800614060000004e000090032000089200041
:103eb800000378008042eb000042eb008041eb00f9
:103ec8000041eb008040eb000040eb004cf30700a2
:103ed8000080fa00000006000000fa000080fa00e6
:103ee800000006000000fa000080fa00000006004a
:103ef8000000fa000080fa00000006000000fa0046
:103f0800a688200005c1b3000042eb008041eb0009
:103f18000041eb008040eb000040eb0038f3070065
:103f2800008920000003780005c1b3000042eb00bf
:103f38008041eb000041eb008040eb000040eb00cb
:103f48002ff307000080fa00000006000000fa00c6
:103f5800bbf20700504c8000a188200068fc0700d5
:103f680093cbbf00644060000004e0000c00320006
:103f780091cbbf00614060000004e00008003200ff
:103f8800a68820008042eb000042eb008041eb0055
:103f98000041eb008040eb000040eb0018f3070005
:103fa8000080fa00000006000000fa00a4f20700f2
:103fb80001892000504c800051fc070093cbbf00c2
:103fc800644060000004e0000d00320091cbbf00a7
:103fd800614060000004e000090032000089200010
:103fe800000378008042eb000042eb008041eb00c8
:103ff8000041eb008040eb000040eb0000f30700bd
:104008000080fa00000006000000fa000080fa00b4
:10401800000006000000fa000080fa000000060018
:104028000000fa0086f20700a68820008042eb0014
:10403800c4c3b300c3cab3000041eb008040eb0027
:104048000040eb00eef207000189200020c0b30019
:104058002bfc070093cbbf00644060000004e00025
:104068000d00320091cbbf00614060000004e00009
:104078000900320000892000000378008042eb002c
:104088000042eb008041eb000041eb008040eb0078
:104098000040eb00daf207000080fa00000006009a
:1040a8000000fa000080fa00000006000000fa0094
:1040b8000080fa00000006000000fa000080fa0004
:1040c800000006000000fa000080fa000000060068
:1040d8000000fa000080fa00000006000000fa0064
:1040e8000080fa00000006000000fa000080fa00d4
:1040f800000006000000fa000080fa000000060038
:104108000000fa000080fa00000006000000fa0033
:104118000080fa00000006000200fa0048f20700da
:10412800b04680000000e00004003a00504b8000d8
:10413800614b8000000f780006003700b046800011
:10414800e10f500003003a00304b8000414b8000e3
:10415800000f7800a68820008042eb0094cbb300c3
:1041680063cbb3000041eb008040eb000040eb0064
:10417800a3f2070001892000504c8000e0fb0700f3
:1041880091cbbf00614060000004e00009003200ec
:1041980000892000000378008042eb000042eb0019
:1041a8008041eb000041eb008040eb000040eb0059
:1041b80093f207000080fa00000006000000fa00f1
:1041c800da62a8000080fa00000006000000fa0089
:1041d800da62a9000080fa00000006000600fa0072
:1041e800100798004147980000c0eb0009eab700a3
:1041f80009cabf0008eab7000040eb001047980062
:104208001800370081a02000914078001e0090001f
:104218001040780000cf680092a02000124178007a
:104228009e80fb0060252800008040001040780038
:104238000040690008eab7009e80fb00603528004e
:10424800008040001040780009eab7001e40900046
:104258000040e800104798001e0090000000e800a9
:10426800100798009e4090004e40900080cf50006c
:10427800e4ff39000080fa00000006000600fa009a
:1042880010079800414798000040eb00004f780065
:10429800060037001e009000104078001e4f4000b6
:1042a8001e0090000000e800100798004e409000a3
:1042b8000040e900404798004e409000e14f400020
:1042c800f4ff3a001e4078000040ea00004f7800f2
:1042d8001e80fb004400de008080fb006045280053
:1042e800008040001040780008eab7001e80fb00fc
:1042f800ef00600060452800008040001040780012
:1043080009eab7000080fa00000006000600fa007b
:10431800100798001e0090009040780090c3b300ea
:1043280080cf5000070036001e0090001040780033
:104338008040780090ccb30000c0400050479800ff
:10434800060037001e00900010407800804078007a
:1043580000cdb30000c04000504798005e40900078
:10436800004f78001e0090000000e80090407800a0
:1043780090c3b30080cf5000080036001e009000a4
:104388000000e800104078008040780090ccb3002e
:1043980000c0400040479800070037001e0090000a
:1043a8000000e800104078008040780000cdb3009d
:1043b80000c04000404798004e40900010479800c9
:1043c8001e4078000080fb004400dd00804078003b
:1043d8001e40900000c040000080fb000080fa00f2
:1043e800000006000600fa00881f780010079800f1
:1043f80041479800704e8000e10f50001b003a00c2
:104408004e4090000080fb00630050000080d10007
:10441800404798000040eb00004f78000f0037003d
:104428001e84fb001e80fb00000040008000780016
:104438001e009000008040000000e800b3ff070065
:10444800004178006109200088804000609f2000ba
:1044580000804000024878001e4fe8004e4090005f
:104468009e4f1000eeff3900120037000040eb00ad
:10447800004f78000c0037009e81fb001e80fb0077
:10448800800078001e0090000080400010417800f5
:104498006109200083804000609f20000080400068
:1044a800024878001e4fe8004e4090009e4f1000d2
:1044b800f1ff39004f0478000080fa000000060080
:1044c8000c00fa0020079800310798002e00900091
:1044d800500798005e009000e40f5000480032003a
:1044e8005e009000e40f500004003e005e00900063
:1044f800e20f50000e003600280037005e009000e2
:10450800e60f5000580032005e009000e60f5000a1
:10451800490039005e009000e70f5000600032004b
:104528005e009000e80f5000690032007500370007
:104538003e009000100798003e4090000004e00004
:10454800060035003e409000ff4f50000300360043
:1045580010c0b300004f7800020037000040eb00a5
:10456800004f78002e4090000004e000060035005f
:104578002e409000ff4f50000300360010c0b300db
:10458800004f7800020037000040eb00004f780031
:104598001e80fb00400798005c0037003e0090003a
:1045a800100798002e4090000004e0000600350037
:1045b8002e409000ff4f50000300360010c0b3009b
:1045c800004f7800020037000040eb00004f7800f1
:1045d800be40900000c2b30080cf500003003a00f4
:1045e80010c0b300004f7800020037000040eb0015
:1045f800004f78001e80fb004007980043003700fa
:10460800be009000f0702200808f500007003c0030
:10461800be00900010832f00808f500003003500eb
:104628001000200040079800380037000000eb0019
:1046380040079800350037003e009000e30f500017
:1046480006003c003e0090000000e000030035003a
:1046580010002000400798002c0037000000eb00f5
:104668004007980029003700be009000f070220033
:10467800808f500007003c00be00900010832f0080
:10468800808f50000300350010002000400798007c
:104698001e0037000000eb00400798001b003700a1
:1046a8003e009000e30f500006003c003e009000e2
:1046b8000000e000030035001000200040079800cb
:1046c800120037000000eb00400798000f00370089
:1046d800be00900020752100808f500006003c002d
:1046e8003e0090000000e0000300350010002000ac
:1046f80040079800050037000000eb0040079800cd
:10470800020037000000eb00400798004e009000c0
:104718000080fa00000006000200fa00004f78004e
:104728008ccabf008080fb00604e8000808f5000e4
:10473800dc003a000000eb00704e8800704e8000ec
:104748000000e00038003a000000eb00005088004c
:1047580002508000604e8000804178006105200092
:1047680082804000609f200000804000034878005d
:104778000200e8000050880003508000d1a8200003
:104788009140780000c8b30000c1700061052000a6
:1047980083804000609f200000804000024878002d
:1047a8000300e800005088000250800061052000e6
:1047b80082804000609f2000008040001e487800f2
:1047c8000200e8000050880031c0b300c0a42000f7
:1047d80082fe07000250800083a0200093417800e9
:1047e8006105200082804000609f2000008040001a
:1047f800034878000200e80000508800025080005a
:1048080093a0200093417800610520008280400039
:10481800609f200000804000034878000200e80004
:1048280000508800930037000000eb00005088001b
:10483800025080006105200082804000609f2000b7
:1048480080804000a0c3b300804878000200e800e0
:104858000050880003508000604e8000c480de0055
:104868006045280000804000104178006105200064
:1048780083804000609f200000804000024878004c
:104888000300e8000050880003508000604e80005c
:10489800ef0060006045280000804000104178006b
:1048a8006105200083804000609f20000080400058
:1048b800024878000300e800005088000350800098
:1048c800d1a820009140780000c8b30000c0700053
:1048d8000080fb004400de008080fb00604528006b
:1048e800008040001041780061052000838040006e
:1048f800609f200000804000024878000300e80024
:104908000050880003508000d1a820009140780012
:1049180000c8b30000c070000080fb00ef0060001a
:1049280060452800008040001041780061052000a3
:1049380083804000609f200000804000024878008b
:104948000300e80000508800035080001e80fb0030
:104958004400de008080fb006045280000804000a5
:10496800104178006105200083804000609f20008e
:1049780000804000024878000300e80000508800ea
:10498800035080001e80fb00ef0060006045280097
:1049980000804000104178006105200083804000bd
:1049a800609f200000804000024878000300e80073
:1049b800005088000050800080c0e800c0a420009b
:1049c80088fe0700005080000000e9000000d100c8
:1049d80080407800c0a8200028fe07000250800010
:1049e80083a0200093417800610520008280400068
:1049f800609f200000804000034878000200e80023
:104a0800005088000250800093a020009341780055
:104a18006105200082804000609f200000804000e7
:104a2800034878000200e800005088000250800027
:104a38006105200082804000609f20008080400047
:104a4800d0c0b300804878000200e8000050880019
:104a5800025080006105200082804000609f200095
:104a680080804000a0c0b300804878000200e800c1
:104a780000508800c0a4200040458800906ba80022
:104a88000040eb000aeab700ccfd07004145800072
:104a9800114078000080fb00d01088000100e80079
:104aa800404588000080fa00000006000400fa0073
:104ab800004f7800110798000080fa0000000600f7
:104ac8000200fa00000f78000000eb003045880073
:104ad8001e007800104078000080fb0030458800f8
:104ae8001e0fe900304580004800dd003045880091
:104af8001e007800104078008080fb003045800060
:104b080000807000304588000080fa000000060030
:104b18000200fa00000f78000000eb003045880022
:104b28001e007800104078000080fb0030458800a7
:104b38001e0fe900304580004800dd003045880040
:104b48001e007800104078008080fb00304580000f
:104b580000807000304588000080fa0000000600e0
:104b68000a00fa008ccabf008080fb00604e8000fb
:104b7800808f500088003a00f04f8000e80f500006
:104b880085003a0061c0b300c0a0200093fd070073
:104b980081a020009140780012cabf0080cf500049
:104ba8007d003a0091a020009140780013cabf0010
:104bb80080cf5000010032007700370090cabf0054
:104bc8007047980091cabf00604798003e00900067
:104bd8004300de00004fe8003e0090000000e000c7
:104be8006b0032003e009000e30f500068003e006a
:104bf8008ecabf00104f98008fcabf00004f9800a0
:104c0800ce0090003e00900000804000e30f50006e
:104c18005c003e00109d2000100798000000eb008b
:104c28000050880002508000604e8000804178006b
:104c38006105200082804000609f200000804000c5
:104c4800034878000200e800005088000250800005
:104c5800d3a02000934178006105200082804000a5
:104c6800609f200000804000034878000200e800b0
:104c780000508800025080006105200082804000ba
:104c8800609f2000008040001e4878000200e80075
:104c9800005088000000eb00200798001000370043
:104ca800025080001e0090009041780061052000ad
:104cb80082804000609f2000008040000348780008
:104cc8000200e800005088002e0090000000e80074
:104cd800200798001e0090000000e90010079800c7
:104ce8009e80fb002e009000808f5000ecff3e005d
:104cf8000050800080407800c0a4200037fd0700e5
:104d08000250800083a020009341780061052000b4
:104d180082804000609f20000080400003487800a7
:104d28000200e800005088000250800093a0200094
:104d3800934178006105200082804000609f200038
:104d480000804000034878000200e8000050880016
:104d5800c0a4200040458800906ba8000040eb00ec
:104d68000aeab70015fd07004145800011407800a8
:104d78000080fb00d01088000100e8004045880052
:104d88000500370020c0b30063fe070002003700ab
:104d980030c0b30060fe07000080fa000000060083
:104da8000a00fa008ccabf008080fb00604e8000b9
:104db800808f500002013a00f04f8000f10f500040
:104dc800ff003a00f04f8000650050000000d1005d
:104dd80080407800c0a8200028fd070082a020009d
:104de80012417800f04f800064005000f600400047
:104df800609f20000080400010407800804f5100e4
:104e0800ef003a0092a0200012417800f04f800095
:104e180063005000f6004000609f200000804000c2
:104e280010407800804f510001003200e400370044
:104e380090cabf007047980091cabf0060479800a9
:104e48003e0090004300de00004fe8003e00900066
:104e58000000e000d80032003e009000e30f500050
:104e6800d5003e008ecabf00104f98008fcabf0001
:104e7800004f9800ce0090003e0090000080400057
:104e8800e30f5000c9003e00109d20001007980055
:104e9800025080006105200082804000609f200051
:104ea80080804000a0c3b300804878000200e8007a
:104eb80000508800035080008ccabf000080fb00af
:104ec8004400de008080fb00604528000080400030
:104ed800104178006105200083804000609f200019
:104ee80000804000024878000300e8000050880075
:104ef800035080008ccabf000080fb00ef006000f8
:104f080060452800008040001041780061052000bd
:104f180083804000609f20000080400002487800a5
:104f28000300e80000508800035080008dcabf00cd
:104f38000080fb004400de008080fb006045280004
:104f48000080400010417800610520008380400007
:104f5800609f200000804000024878000300e800bd
:104f680000508800035080008dcabf000080fb00fd
:104f7800ef00600060452800008040001041780084
:104f88006105200083804000609f20000080400071
:104f9800024878000300e8000050880003508000b1
:104fa8001e80fb004400de008080fb006045280076
:104fb8000080400010417800610520008380400097
:104fc800609f200000804000024878000300e8004d
:104fd80000508800035080001e80fb00ef00600036
:104fe80060452800008040001041780061052000dd
:104ff80083804000609f20000080400002487800c5
:105008000300e800005088000000eb00200798002b
:1050180025003700035080001e00900010407800e3
:105028000080fb004400de008080fb006045280013
:105038000080400010417800610520008380400016
:10504800609f200000804000024878000300e800cc
:1050580000508800035080001e0090001040780027
:105068000080fb00ef0060006045280000804000e1
:10507800104178006105200083804000609f200077
:1050880000804000024878000300e80000508800d3
:105098002e0090000000e800200798001e009000f5
:1050a8000000e900100798009e80fb002e00900089
:1050b800808f5000d7ff3e000050800080c0e8007d
:1050c800c0a42000c7fc0700005080000000e900d1
:1050d8000000d10080407800c0a8200067fc0700cd
:1050e8000250800083a020009341780061052000d1
:1050f80082804000609f20000080400003487800c4
:105108000200e800005088000250800093a02000b0
:10511800934178006105200082804000609f200054
:1051280000804000034878000200e8000050880032
:10513800025080006105200082804000609f2000ae
:1051480080804000d0c0b300804878000200e800aa
:1051580000508800025080006105200082804000d5
:10516800609f200080804000a0c0b3008048780085
:105178000200e80000508800c0a4200040458800d4
:10518800906ba8000040eb000aeab7000bfc070090
:1051980041458000114078000080fb00d010880055
:1051a8000100e800404588000500370020c0b30032
:1051b80059fd07000200370030c0b30056fd070054
:1051c8000080fa00000006000800fa008ccabf0040
:1051d8008080fb00604e8000808f500089003a007c
:1051e800f04f8000e80f500086003a0061c0b3001d
:1051f800c0a02000f9fb070081a0200091407800a2
:1052080012cabf0080cf50007e003a0091a0200053
:105218009140780013cabf0080cf500001003200cf
:105228007800370090cabf005047980091cabf0065
:10523800404798002e0090000000e0006f00320008
:105248002e009000e90f50006c003e008ecabf008f
:10525800704798008fcabf0060479800be00900052
:105268002e00900000804000e90f500060003e00d2
:105278003e009000000040001e0f10000000eb00f0
:105288000050880002508000604e80008041780005
:105298006105200082804000609f2000008040005f
:1052a800034878000200e80000508800025080009f
:1052b800d3a020009341780061052000828040003f
:1052c800609f200000804000034878000200e8004a
:1052d800005088002e009000000040002007980031
:1052e800025080002e009000804178006105200067
:1052f80082804000609f20000080400003487800c2
:105308000200e800005088000000eb001007980039
:105318000e003700025080001e007800904178008f
:105328006105200082804000609f200000804000ce
:10533800034878000200e800005088001e00900032
:105348000000e800100798001e0fe900ae0090006a
:105358001e009000808f5000eeff3e00005080003d
:1053680080407800c0a420009cfb07000250800009
:1053780083a02000934178006105200082804000ce
:10538800609f200000804000034878000200e80089
:10539800005088000250800093a0200093417800bc
:1053a8006105200082804000609f2000008040004e
:1053b800034878000200e80000508800c0a42000dc
:1053c80040458800906ba8000040eb000aeab7004f
:1053d8007afb070041458000114078000080fb00ff
:1053e800d01088000100e80040458800050037001b
:1053f80020c0b300c8fc07000200370030c0b3006b
:10540800c5fc07000080fa00000006000800fa004a
:105418008ccabf008080fb00604e8000808f5000e7
:10542800ff003a00f04f8000f10f5000fc003a00f6
:10543800f04f8000650050000000d10080407800e7
:10544800c0a820008dfb070082a020001241780030
:10545800f04f800064005000f6004000609f20007c
:105468000080400010407800804f5100ec003a0066
:1054780092a0200012417800f04f80006300500095
:10548800f6004000609f2000008040001040780037
:10549800804f510001003200e100370090cabf0080
:1054a8005047980091cabf00404798002e009000ce
:1054b8000000e000d80032002e009000e90f5000f4
:1054c800d5003e008ecabf00704798008fcabf0043
:1054d80060479800be0090002e00900000804000b9
:1054e800e90f5000c9003e003e0090000000400057
:1054f8001e0f10000000eb000050880002508000d2
:105508006105200082804000609f2000808040006c
:10551800a0c3b300804878000200e800005088006b
:1055280003508000604e8000c480de006045280083
:105538000080400010417800610520008380400011
:10554800609f200000804000024878000300e800c7
:105558000050880003508000604e8000ef0060001b
:105568006045280000804000104178006105200057
:1055780083804000609f200000804000024878003f
:105588000300e80000508800035080008dcabf0067
:105598000080fb004400de008080fb00604528009e
:1055a80000804000104178006105200083804000a1
:1055b800609f200000804000024878000300e80057
:1055c80000508800035080008dcabf000080fb0097
:1055d800ef0060006045280000804000104178001e
:1055e8006105200083804000609f2000008040000b
:1055f800024878000300e800005088002e00900060
:105608000000400020079800035080002e00900002
:10561800c400de006045280000804000104178008a
:105628006105200083804000609f200000804000ca
:10563800024878000300e80000508800035080000a
:105648002e009000ef0060006045280000804000b8
:10565800104178006105200083804000609f200091
:1056680000804000024878000300e80000508800ed
:105678000000eb001007980023003700035080005b
:105688001e007800104078000080fb004400de0017
:105698008080fb00604528000080400010417800b1
:1056a8006105200083804000609f2000008040004a
:1056b800024878000300e80000508800035080008a
:1056c8001e007800104078000080fb00ef006000aa
:1056d80060452800008040001041780061052000e6
:1056e80083804000609f20000080400002487800ce
:1056f8000300e800005088001e0090000000e80049
:10570800100798001e0fe900ae0090001e009000e0
:10571800808f5000d9ff3e000050800080c0e80014
:10572800c0a420002ffb0700005080000000e90003
:105738000000d10080407800c0a82000cffa070000
:105748000250800083a0200093417800610520006a
:1057580082804000609f200000804000034878005d
:105768000200e800005088000250800093a020004a
:10577800934178006105200082804000609f2000ee
:1057880000804000034878000200e80000508800cc
:10579800025080006105200082804000609f200048
:1057a80080804000d0c0b300804878000200e80044
:1057b800005088000250800061052000828040006f
:1057c800609f200080804000a0c0b300804878001f
:1057d8000200e80000508800c0a42000404588006e
:1057e800906ba8000040eb000aeab70073fa0700c4
:1057f80041458000114078000080fb00d0108800ef
:105808000100e800404588000500370020c0b300cb
:10581800c1fb07000200370030c0b300befb070021
:105828000080fa00000006000800fa008ccabf00d9
:105838008080fb00604e8000808f500081003a001d
:10584800f04f8000e80f50007e003a0061c0b300be
:10585800c0a0200061fa070081a0200091407800d4
:1058680012cabf0080cf500076003a0091a02000f5
:105878009140780013cabf0080cf50000100320069
:105888007000370090cabf003047980091cabf0027
:10589800204798001e0090000000e000040032003d
:1058a8009e00900000f02f00808f500063003a00a7
:1058b8008ecabf00504798008fcabf004047980063
:1058c8002e009000e30f500059003e009e0090000b
:1058d80000f02f00808f500003003a0010c0b30082
:1058e80092ebb700020037000040eb0092ebb700e4
:1058f8002e009000300798003e009000e10f500005
:10590800130032003e009000e10f500004003900ff
:105918003e009000e20f50001900320023003700cb
:1059280092cbbf000004e00004003200d1c9bf00e0
:105938000004a000d1e9b7001c003700d1c9bf009e
:10594800e1cfb30001406000d1e9b700170037008c
:1059580092cbbf000004e00004003200d1c9bf00b0
:105968000014a000d1e9b70010003700d1c9bf006a
:10597800d1cfb30001406000d1e9b7000b00370078
:1059880092cbbf000004e00004003200d1c9bf0080
:105998000024a000d1e9b70004003700d1c9bf0036
:1059a800b1cfb30001406000d1e9b7000000eb00bf
:1059b800000f78000c0037009e0178001e00780068
:1059c800f6004000609f20000080400010417800f1
:1059d8006105200083804000609f20000080400017
:1059e800024878001e0fe800f04f80009e0f50001c
:1059f800f1ff3e00f04f800000508800c0a4200056
:105a080040458800906ba8000040eb000aeab70008
:105a1800eaf9070041458000114078000080fb004a
:105a2800d01088000100e8004045880005003700d4
:105a380020c0b30038fb07000200370030c0b300b5
:105a480035fb07000080fa00000006000600fa0097
:105a58008ccabf008080fb00604e8000808f5000a1
:105a680060013a00f04f8000f10f50005d013a00ec
:105a7800f04f8000650050000000d10080407800a1
