:020000040000fa
:080000000001040000000000f3
:020000040000fa
:100200004fc6200000ff2000000188000000000011
:100210000c000700c0e926000100200011000700c3
:10022000000020000000e000020032000000020098
:100230000000000014680200000000000040da0026
:100240000000fe004440a900e02c20000000e00077
:100250000300320000002000a00188004440a800f4
:100260000000060091018800800078000000eb008b
:1002700015003700e280400032a0b4009101ba00be
:10028000e280400032a0b4009102ba00e280400057
:1002900032a0b4000002eb00472bde00f507b200ed
:1002a000602ce10004003a000059eb008301e900f2
:1002b000fdff3e00040037006128e100010032002c
:1002c0000082eb00040007001101ba000200e00008
:1002d000e8ff3a00000006003159ba008301e90046
:1002e0000c0032002159ba008301e90008003200f5
:1002f0000400e00003003a00e280400032a0b400b5
:10030000f5ff370011d9ba008301e900faff3a007e
:100310008100e800e180400032a0b4000000060047
:1003200000000000000000000000000000000000cd
:1003300000000000000000000000000000000000bd
:1003400000000000000000000000000000000000ad
:10035000000000000000000000000000000000009d
:10036000000000000000000000000000000000008d
:10037000000000000000000000000000000000007d
:10038000000000000000000000000000000000006d
:10039000000000000000000000000000000000005d
:1003a000000000000000000000000000000000004d
:1003b000000000000000000000000000000000003d
:1003c000000000000000000000000000000000002d
:1003d000000000000000000000000000000000001d
:1003e000000000000000000000000000000000000d
:1003f00000000000000000000000000000000000fd
:1004000000000000000000000000000000000000ec
:1004100000000000000000000000000000000000dc
:1004200000000000000000000000000000000000cc
:1004300000000000000000000000000000000000bc
:1004400000000000000000000000000000000000ac
:10045000000000000000000000000000000000009c
:100460006022b800060220000000d0008180d20087
:100470000482d2008582d2000000a0000202520055
:1004800083825a00030031000202420083824a0044
:100490000000a1000603e900f3ff3a000000060097
:0c04a000efff07000400be000000060093
:020000040000fa
:0200000401f009
:04000000f6ff000007
:020000040000fa
:0200000401f009
:04000400ff7f00007a
:020000040000fa
:0200000401f009
:04000800ec7f000089
:020000040000fa
:10000800066f0000066f0000066f0000066f000014
:10001800066f0000066f0000066f0000066f000004
:1000280052690000066f0000066f00001e6a00009b
:10003800066f0000066f0000686a0000ee6a0000a4
:10004800066f0000066f0000066f0000066f0000d4
:10005800066f0000066f0000066f0000066f0000c4
:10006800066f0000066f0000066f0000066f0000b4
:10007800066f0000d4690000066f0000066f0000dc
:1000880092690000a46a0000066f0000066f000075
:10009800066f0000066f0000066f0000066f000084
:1000a800066f0000066f0000066f0000066f000074
:1000b800066f0000066f0000066f0000066f000064
:1000c800066f0000066f0000066f0000066f000054
:1000d800066f0000066f0000066f0000066f000044
:1000e800066f0000066f0000066f0000066f000034
:0800f800066f0000066f000016
:020000040000fa
:10010800066f0000066f0000066f0000066f000013
:10011800066f0000066f0000066f0000066f000003
:1001280052690000066f0000066f00001e6a00009a
:10013800066f0000066f0000686a0000ee6a0000a3
:10014800066f0000066f0000066f0000066f0000d3
:10015800066f0000066f0000066f0000066f0000c3
:10016800066f0000066f0000066f0000066f0000b3
:10017800066f0000d4690000066f0000066f0000db
:1001880092690000a46a0000066f0000066f000074
:10019800066f0000066f0000066f0000066f000083
:1001a800066f0000066f0000066f0000066f000073
:1001b800066f0000066f0000066f0000066f000063
:1001c800066f0000066f0000066f0000066f000053
:1001d800066f0000066f0000066f0000066f000043
:1001e800066f0000066f0000066f0000066f000033
:0801f800066f0000066f000015
:020000040000fa
:1004ac0000c100008140000001c00000804100003c
:1004bc0001c000008041000000c10000814000002c
:1004cc0001c000008041000000c10000814000001c
:1004dc0000c100008140000001c00000804100000c
:1004ec0001c000008041000000c1000081400000fc
:1004fc0000c100008140000001c0000080410000ec
:10050c0000c100008140000001c0000080410000db
:10051c0001c000008041000000c1000081400000cb
:10052c0001c000008041000000c1000081400000bb
:10053c0000c100008140000001c0000080410000ab
:10054c0000c100008140000001c00000804100009b
:10055c0001c000008041000000c10000814000008b
:10056c0000c100008140000001c00000804100007b
:10057c0001c000008041000000c10000814000006b
:10058c0001c000008041000000c10000814000005b
:10059c0000c100008140000001c00000804100004b
:1005ac0001c000008041000000c10000814000003b
:1005bc0000c100008140000001c00000804100002b
:1005cc0000c100008140000001c00000804100001b
:1005dc0001c000008041000000c10000814000000b
:1005ec0000c100008140000001c0000080410000fb
:1005fc0001c000008041000000c1000081400000eb
:10060c0001c000008041000000c1000081400000da
:10061c0000c100008140000001c0000080410000ca
:10062c0000c100008140000001c0000080410000ba
:10063c0001c000008041000000c1000081400000aa
:10064c0001c000008041000000c10000814000009a
:10065c0000c100008140000001c00000804100008a
:10066c0001c000008041000000c10000814000007a
:10067c0000c100008140000001c00000804100006a
:10068c0000c100008140000001c00000804100005a
:10069c0001c000008041000000c10000814000004a
:1006ac0000c00000c1010000c303000002c2000032
:1006bc00c606000007c7000005c50000c404000002
:1006cc00cc0c00000dcd00000fcf0000ce0e0000b2
:1006dc000aca0000cb0b0000c909000008c80000c2
:1006ec00d818000019d900001bdb0000da1a000032
:1006fc001ede0000df1f0000dd1d00001cdc000002
:10070c0014d40000d5150000d717000016d6000031
:10071c00d212000013d3000011d10000d010000041
:10072c00f030000031f1000033f30000f232000031
:10073c0036f60000f7370000f535000034f4000001
:10074c003cfc0000fd3d0000ff3f00003efe0000b1
:10075c00fa3a00003bfb000039f90000f8380000c1
:10076c0028e80000e9290000eb2b00002aea000031
:10077c00ee2e00002fef00002ded0000ec2c000001
:10078c00e424000025e5000027e70000e626000031
:10079c0022e20000e3230000e121000020e0000041
:1007ac00a060000061a1000063a30000a262000031
:1007bc0066a60000a7670000a565000064a4000001
:1007cc006cac0000ad6d0000af6f00006eae0000b1
:1007dc00aa6a00006bab000069a90000a8680000c1
:1007ec0078b80000b9790000bb7b00007aba000031
:1007fc00be7e00007fbf00007dbd0000bc7c000001
:10080c00b474000075b5000077b70000b676000030
:10081c0072b20000b3730000b171000070b0000040
:10082c005090000091510000935300005292000030
:10083c009656000057970000559500009454000000
:10084c009c5c00005d9d00005f9f00009e5e0000b0
:10085c005a9a00009b5b00009959000058980000c0
:10086c0088480000498900004b8b00008a4a000030
:10087c004e8e00008f4f00008d4d00004c8c000000
:10088c004484000085450000874700004686000030
:10089c008242000043830000418100008040000040
:1008ac0030310000323300003435000036370000a0
:1008bc003839000041420000434400004546000026
:1008cc000a00000000000000010000000000000011
:1008dc00000000000000000000000000000000000c
:1008ec0000000000000000000000000000000000fc
:1008fc000000000000000000640000000000000088
:10090c000a000000000000000100000000000000d0
:10091c0000000000000000000000000000000000cb
:10092c0000000000000000000000000000000000bb
:10093c00e80300000000000064000000000000005c
:10094c000a00000000000000010000000000000090
:10095c00000000000000000000000000000000008b
:10096c000000000000000000102700000000000044
:10097c00e80300000000000064000000000000001c
:10098c000a00000000000000010000000000000050
:10099c00000000000000000000000000000000004b
:1009ac00a0860000010000001027000000000000dd
:1009bc00e8030000000000006400000000000000dc
:1009cc000a00000000000000010000000000000010
:1009dc000000000000000000af0300009d97000025
:1009ec0033b60000be830000bfb70000bb3e000062
:1009fc00ac1f0000bcb8000010fa000082d9000047
:100a0c00cba300006b7b0000c2fb0000ebf30000eb
:100a1c003b7800009b790000710100003031000030
:100a2c00323300003435000036370000383900000e
:0c0a3c0041420000434400004546000019
:020000040000fa
:100a48000a00fa00004f78001e80fb006101b9001f
:100a58003207980043079800f001200001002000a9
:100a68003e019000ce019000800f5100818f590007
:100a780083003e003e009000ce0090000060010020
:100a88001f003700210037002300370025003700fa
:100a980027003700290037002b0037002d003700ca
:100aa8002f0037003100370033003700350037009a
:100ab80037003700390037003b0037003d0037006a
:100ac8003f0037004100370043003700450037003a
:100ad80047003700490037004b0037004d0037000a
:100ae8004f003700510037005300370055003700da
:100af80057003700590037005b0037005d003700aa
:100b080001102000110798005e0037002210200015
:100b1800120798005b003700431020001307980065
:100b28005800370060102000100798005500370063
:100b3800811020001107980052003700a2102000f1
:100b4800120798004f003700c310200013079800c1
:100b58004c003700e01020001007980049003700cb
:100b680001112000110798004600370022112000cb
:100b7800120798004300370043112000130798001c
:100b88004000370060112000100798003d00370032
:100b980081112000110798003a003700a2112000a7
:100ba8001207980037003700c31120001307980078
:100bb80034003700e011200010079800310037009a
:100bc80001122000110798002e0037002212200081
:100bd800120798002b0037004312200013079800d3
:100be8002800370060122000100798002500370001
:100bf800811220001107980022003700a21220005d
:100c0800120798001f003700c3122000130798002e
:100c18001c003700e0122000100798001900370068
:100c28000113200011079800160037002213200036
:100c38001207980013003700431320001307980089
:100c48001000370060132000100798000d003700cf
:100c580081132000110798000a003700a213200012
:100c68001207980007003700c313200013079800e5
:100c780004003700e0132000100798000100370037
:100c8800020037009e009000210798002e00900077
:100c98000080fa00000006000a00fa00004f780001
:100ca8001e80fb006101b9003207980043079800d5
:100cb800f0012000010020003e019000ce019000cc
:100cc800800f5100818f590083003e003e00900044
:100cd800ce009000006001001f003700210037009f
:100ce8002300370025003700270037002900370088
:100cf8002b0037002d0037002f0037003100370058
:100d08003300370035003700370037003900370027
:100d18003b0037003d0037003f00370041003700f7
:100d280043003700450037004700370049003700c7
:100d38004b0037004d0037004f0037005100370097
:100d48005300370055003700570037005900370067
:100d58005b0037005d003700011420001107980080
:100d68005e00370022142000120798005b0037004d
:100d7800431420001307980058003700601420001f
:100d880010079800550037008114200011079800bb
:100d980052003700a2142000120798004f003700b5
:100da800c3142000130798004c003700e0142000fb
:100db8001007980049003700011520001107980016
:100dc800460037002215200012079800430037001c
:100dd80043152000130798004000370060152000d5
:100de800100798003d003700811520001107980072
:100df8003a003700a2152000120798003700370084
:100e0800c31520001307980034003700e0152000b0
:100e180010079800310037000116200011079800cc
:100e28002e00370022162000120798002b003700ea
:100e3800431620001307980028003700601620008a
:100e48001007980025003700811620001107980028
:100e580022003700a2162000120798001f00370052
:100e6800c3162000130798001c003700e016200066
:100e78001007980019003700011720001107980083
:100e880016003700221720001207980013003700b9
:100e98004317200013079800100037006017200040
:100ea800100798000d0037008117200011079800df
:100eb8000a003700a2172000120798000700370021
:100ec800c31720001307980004003700e01720001c
:100ed8001007980001003700020037009e009000bc
:100ee800210798002e0090000080fa0000000600fc
:100ef8000200fa000040eb00004f78000a003700bb
:100f08001e01fb001e00fb008000e800e0882000b6
:100f18000080400090407800e088200000004100f8
:100f2800014878001e4fe80030c0b3009e4f100003
:100f3800f3ff34000080fa00000006000200fa0007
:100f48000040eb00004f78000a0037001e01fb004c
:100f58001e00fb008000e800e088200000804000c0
:100f680090407800e08820000000410001487800a7
:100f78001e4fe80030c0b3009e4f1000f3ff34004e
:100f88000080fa00000006000200fa000040eb00b2
:100f9800004f78000a0037001e01fb001e00fb000e
:100fa8008000e800e0882000008040009040780041
:100fb800e088200000004100014878001e4fe8004a
:100fc80040c0b3009e4f1000f3ff34000080fa00c9
:100fd800000006000600fa00881f78001007980035
:100fe8002107980086eba9001e009000ae00900033
:100ff800e00f5000e08f580007003d001e009000f1
:10100800ae00900060001000e08018001007980003
:101018002107980086eba80030c0b300004f780085
:101028000040eb0010479800160037001e40900063
:101038000084fb001e029000ae0290001e80fb00a0
:10104800c200dd0020c32000008040001001be0067
:101058000400be0000fd0700a200200003002000dd
:101068000dfd070080407800e08820000000440063
:10107800014878001e4090000040e80010479800a2
:101088001e4fe9001e409000e34f5000e7ff360076
:101098004f0478000080fa00000006001200fa00f1
:1010a800889fbe008a1f780030c0b300004f7800c8
:1010b8000e81e8006000b8000089be000040eb0027
:1010c800104798002f0037001e4090000085fb0055
:1010d8001e4090008080fb00e088200000804000d7
:1010e800104078000084fb00090020001e80fb00ef
:1010f800c200dd0020c32000008040001003be00b5
:101108008800780006007800000ab80007c0b90017
:10111800050178000001410009b0b9000001410053
:10112800820278000401be008e80e8004250dd0093
:10113800010040000288be001e4fe9001e409000da
:101148000004e0000c0032000e80e8001001be0030
:101158001e4090000080fb008e80e8004200dd0009
:10116800010040001000be000200400083804800db
:101178000e81e8000089be001e4090000040e80093
:10118800104798001e409000e34f5000ceff3600f5
:1011980086cbbf0001c8b300014060000004e00036
:1011a800060032000e80e8001000be00600010004b
:1011b800e08018000e81e8000089be000e80e8007b
:1011c8001000be004f0578004f04be000080fa00f2
:1011d800000006000400fa00000f78000040eb0051
:1011e800204798001e00e00002003d0010c0b30038
:1011f800204798002e409000c700dd0086cbbf0036
:101208000074a1000140700086ebb70061b82000af
:101218009140780000c8b30000c060000004e000fe
:10122800010032001e0fea001e007800823e2000f6
:10123800110009000200d800a200200011000900d6
:101248000200d8008000fd008ee8b7001e0078007c
:1012580042062000110009000200d800a200200068
:10126800110009000200d8008000fd008fe8b700d7
:101278001e007800a2002000110009000200d8001a
:10128800a2002000110009000200d8008000fd0023
:1012980090e8b7001e007800a200200011000900a5
:1012a8000200d8008000fd0091e8b7000080fa0035
:1012b800000006000a00fa008ec8bf000080fb008c
:1012c800000f78008fc8bf000080fb00100798004f
:1012d80090c8bf000080fb002007980091c8bf009d
:1012e8000080fb00300798009e007800803e2000b8
:1012f8000088b900000f78009e009000400620008a
:101308000088b900100798002e0090006a00b90004
:10131800200798003e009000300798009e00780053
:101328001e009000808040002e00900080804000c9
:101338003e00900000804000000f780061b8200057
:101348009140780000c8b30000c060000004e000cd
:10135800030032001e0078000000ea00000f780049
:101368001e0078000080fa00000006000400fa0061
:10137800000f78000040eb00204798001e00e000b6
:1013880002003d0010c0b300204798002e40900096
:10139800c700dd0086cbbf000074a10001407000cb
:1013a80086ebb70061b820009140780000c8b30010
:1013b80000c060000004e000010032001e0fea00d7
:1013c8001e00780042062000110009000200d80023
:1013d800a2002000110009000200d8008000fd00d2
:1013e8008ee8b7001e007800a20020001100090056
:1013f8000200d800a2002000110009000200d80055
:101408008000fd008fe8b7001e007800a2002000d1
:10141800110009000200d8008000fd0090e8b70024
:101428000080fa00000006000a00fa008ec8bf001b
:101438000080fb00000f78008fc8bf000080fb0011
:101448001007980090c8bf000080fb002007980094
:10145800ae009000400620000088b900000f780018
:101468003e0090006a00b900100798004e009000f6
:10147800200798009e0078001e00900080804000a1
:101488002e00900000804000000f780061b8200016
:101498009140780000c8b30000c060000004e0007c
:1014a800030032001e0078000000ea00000f7800f8
:1014b8001e0078000080fa00000006000000fa0014
:1014c80010c0b30094e8b7000040eb008ee8b70006
:1014d8000040eb008fe8b7000040eb0090e8b70051
:1014e8000040eb0091e8b7000040eb0092e8b7003d
:1014f8000080fa00000006000000fa0010c0b300e7
:10150800a0e8b700894ba900890ba8000040eb00b0
:1015180094e8b7000000eb002eff070089aba90094
:101528000080fa00000006000000fa0070c0b30056
:10153800a0e8b700894ba90010c0b30094e8b70031
:1015480060468000b04d8800b04d800021ff070044
:101558000080fa00000006000000fa0080c0b30016
:10156800a0e8b700894ba90010c0b30094e8b70001
:1015780080468000b04d8800b04d800015ff070000
:101588000080fa00000006000000fa0090c0b300d6
:10159800a0e8b700894ba90010c0b30094e8b700d1
:1015a80070468000b04d8800b04d800009ff0700ec
:1015b8000080fa00000006000000fa00a0c0b30096
:1015c800a0e8b700894ba900104e8000cf80de004c
:1015d800404e8800514e8800104e8000cf80de00bb
:1015e8007cfe07000080fa00000006000000fa00f8
:1015f800b0c0b300a0e8b700894ba900004e800036
:10160800cf80de00404e8800514e8800004e80009a
:10161800cf80de006ffe07000080fa0000000600a1
:101628000000fa00c0c0b300a0e8b70089aba8006a
:10163800894ba90089cba9000080fa0000000600a8
:101648000000fa00d0c0b300a0e8b700870ba900db
:10165800890ba8000080fa00000006000000fa00cc
:1016680060c0b300a0e8b700894ba80010c0b30061
:1016780094e8b700890ba800870ba900504c80009c
:10168800b04d8800504c80000100200051fe07003a
:101698000080fa00000006000200fa0030c0b30023
:1016a800a0e8b700894ba80010c0b30094e8b700c1
:1016b800890ba800870ba900c0468000000f78009e
:1016c8001e007800e10f5000110032001e00780063
:1016d800e10f500004003c001e0078000000e0000c
:1016e80008003200120037001e007800e20f500098
:1016f8000a0032001e007800e30f50000a00320092
:101708000b003700d04c8000b04d8800080037002f
:10171800c04c8000b04d880005003700b04c8000f8
:10172800b04d880002003700a04c8000b04d880002
:10173800b04d8000cf80de0026fe07000080fa0052
:10174800000006000200fa0040c0b300a0e8b7009d
:10175800894ba80010c0b30094e8b700890ba80013
:10176800870ba900c0468000000f78001e00780093
:10177800e10f5000110032001e007800e10f500008
:1017880004003c001e0078000000e0000800320061
:10179800120037001e007800e20f50000a003200e5
:1017a8001e007800e30f50000a0032000b003700db
:1017b800904c8000b04d880008003700804c8000b5
:1017c800b04d880005003700704c8000b04d88008f
:1017d80002003700604c8000b04d8800b04d80009a
:1017e800cf80de00fbfd07000080fa000000060045
:1017f8000000fa00e0c0b300a0e8b700894ba800d9
:1018080010c0b30094e8b700890ba800870ba900a3
:10181800a0468000cf80de00c04d8800d14d8800f2
:10182800c04d8000d14d8000eafd07000080fa001d
:10183800000006000000fa00f0c0b300a0e8b700fe
:10184800894ba80010c0b30094e8b700890ba80022
:10185800870ba900204d8000314d8000c04d8800c5
:10186800d14d8800c04d8000d14d8000d9fd0700c2
:101878000080fa00000006000000fa0000c1b30072
:10188800a0e8b700894ba80010c0b30094e8b700df
:10189800890ba800870ba900004d8000114d80001e
:1018a800c04d8800d14d8800c04d8000d14d8000ca
:1018b800c8fd07000080fa00000006000000fa00da
:1018c80010c1b300a0e8b700894ba80010c0b3004e
:1018d80094e8b700890ba800870ba900e04c8000aa
:1018e800f14c8000c04d8800d14d8800c04d80006b
:1018f800d14d8000b7fd07000080fa000000060007
:101908000000fa0000c1b300a0e8b700894ba800a6
:1019180010c0b30094e8b700890ba800870ba90092
:10192800404d8000514d8000c04d8800d14d880049
:10193800c04d8000d14d8000a6fd07000080fa0050
:10194800000006000000fa0010c1b300a0e8b700cc
:10195800894ba80010c0b30094e8b700890ba80011
:10196800870ba900704d8000814d8000c04d880014
:10197800d14d8800c04d8000d14d800095fd0700f5
:101988000080fa00000006000000fa0080c1b300e1
:10199800a0e8b700894ba9000040eb0094e8b70025
:1019a800890ba800870ba900e04a8000f14a800053
:1019b800c04d8800d14d8800c04d8000d14d8000b9
:1019c80084fd07000080fa00000006000000fa000d
:1019d80020c1b300a0e8b700894ba80010c0b3002d
:1019e80094e8b700890ba800870ba9000000eb005a
:1019f800c0468800a04b8000b14b8000c04d8800d5
:101a0800d14d8800c04d8000d14d800071fd070088
:101a18000080fa00000006000000fa0020c1b300b0
:101a2800a0e8b700894ba80010c0b30094e8b7003d
:101a3800890ba800870ba90010002000c046880069
:101a4800a04b8000b14b8000c04d8800d14d88006c
:101a5800c04d8000d14d80005efd07000080fa0077
:101a6800000006000000fa00d0c1b300a0e8b700eb
:101a7800894ba80010c0b30094e8b700890ba800f0
:101a8800870ba9000000eb00c0468800204b8000af
:101a9800314b8000c04d8800d14d8800c04d80007a
:101aa800d14d80004bfd07000080fa0000000600c1
:101ab8000000fa00d0c1b300a0e8b700894ba80025
:101ac80010c0b30094e8b700890ba800870ba900e1
:101ad80010002000c0468800004b8000114b800099
:101ae800c04d8800d14d8800c04d8000d14d800088
:101af80038fd07000080fa00000006000000fa0028
:101b080040c1b300a0e8b700894ba80010c0b300db
:101b180094e8b700890ba800e4c9bf000080fb0067
:101b2800a2002000110009000280d8008ee8b7004a
:101b3800e4c9bf000080fb00a200200011000900da
:101b48000280d8008000fd008fe8b700e3c9bf001d
:101b58000080fb00a2002000110009000280d800cc
:101b680090e8b700e3c9bf000080fb00a200200096
:101b7800110009000280d8008000fd0091e8b7003c
:101b88000080fa00000006000000fa0040c1b3001f
:101b9800a0e8b700894ba8000040eb0094e8b70024
:101ba800890ba800e5c9bf000080fb00a200200047
:101bb800110009000280d8008ee8b700e5c9bf000f
:101bc8000080fb00a2002000110009000280d8005c
:101bd8008000fd008fe8b700e6c9bf000080fb0069
:101be800a2002000110009000280d80090e8b70088
:101bf800e6c9bf000080fb00a20020001100090018
:101c08000280d8008000fd0091e8b7000080fa004b
:101c1800000006000400fa000040eb00204798008e
:101c28008ec8bf000080fb004400dd0080407800c3
:101c38008fc8bf0000c04000004f780000c8b30044
:101c48001e4f700090c8bf000080fb004400dd00fc
:101c58008040780091c8bf0000c04000104798003d
:101c6800ae4090000040eb00ae2907009e40900077
:101c780010c0b300ab2907009e40780020c0b30015
:101c8800a82907000080fa00000006000400fa00f6
:101c98008ec8bf000080fb004400dd008040780053
:101ca8008fc8bf0000c040002047980090c8bf0000
:101cb8000080fb004400dd008040780091c8bf0030
:101cc80000c040001047980020c1b300004f7800c2
:101cd800ae40900030c0b300922907009e409000ab
:101ce80040c0b3008f2907009e40780050c0b30061
:101cf8008c2907000080fa00000006000000fa00a6
:101d080070c1b300a0e8b700894ba9000040eb0000
:101d180094e8b700890ba8000080fa0000000600cc
:101d28000200fa00004f780060c1b300a0e8b700d5
:101d3800894ba9000040eb0094e8b700890ba80084
:101d48001e80fb0000004000ee004000c08c200018
:101d5800008040001000780002a020001100090057
:101d68000280d8008ee8b7001e80fb00000040000b
:101d7800ee004000c08c2000008040001000780079
:101d88004800de00a2002000110009000280d800ef
:101d98008000fd008fe8b7001e80fb0000004000b7
:101da800ee004000c08c20000080400090007800c9
:101db800f00f200000806000a20020001100090040
:101dc8000280d80090e8b7001e80fb0000004000a9
:101dd800ee004000c08c2000008040009000780099
:101de800f00f200000806000a20020001100090010
:101df8000280d8008000fd0091e8b7000080fa005a
:101e0800000006000200fa00004f780050c1b3003d
:101e1800a0e8b700894ba9000040eb0094e8b700a0
:101e2800890ba8001e80fb0000004000c1042000b0
:101e380080804000c08c20000080400010007800a6
:101e480002a02000110009000280d8008ee8b70027
:101e58001e80fb0000004000c1042000808040007c
:101e6800c08c200000804000100078004800de0090
:101e7800a2002000110009000280d8008000fd00a7
:101e88008fe8b7001e80fb0000004000c10420005e
:101e980080804000c08c20000080400090007800c6
:101ea800f00f200000806000a2002000110009004f
:101eb8000280d80090e8b7001e80fb0000004000b8
:101ec800c104200080804000c08c200000804000b9
:101ed80090007800f00f200000806000a200200031
:101ee800110009000280d8008000fd0091e8b700c9
:101ef8000080fa00000006000000fa0030c1b300bc
:101f0800a0e8b700894ba9000040eb0094e8b700af
:101f1800890ba800b04a800002a020001100090027
:101f28000280d8008ee8b700b04a80004800de0082
:101f3800a2002000110009000280d8008000fd00e6
:101f48008fe8b700b14a8000f00f200000806000e1
:101f5800a2002000110009000280d80090e8b70014
:101f6800b14a8000f00f200000806000a20020002d
:101f7800110009000280d8008000fd0091e8b70038
:101f88000080fa00000006000200fa00881f7800ae
:101f9800004f78009e81fb0090c8bf000080fb00c6
:101fa8006a00b900000178008ec8bf000080fb00fd
:101fb8006a00b900800078008fc8bf000080fb006d
:101fc800008040004800dd008000410091c8bf004b
:101fd8000080fb0000804000000178000380410081
:101fe800ee004000c08c200000804000020878000d
:101ff8001e80fb0000004000ee004000c08c200066
:1020080000804000100478001e4078008cfa070019
:102018000100200008017800aa2e07004f0478006c
:102028000080fa00000006000200fa00881f78000d
:10203800004f78009e81fb0090c8bf000080fb0025
:102048006a00b900000178008ec8bf000080fb005c
:102058006a00b900800078008fc8bf000080fb00cc
:10206800008040004800dd008000410091c8bf00aa
:102078000080fb00008040000001780003804100e0
:10208800c104200080804000c08c200000804000f7
:10209800020878001e80fb0000004000c1042000f8
:1020a80080804000c08c2000008040001004780030
:1020b8001e407800f8fa07000100200008017800a7
:1020c800802e07004f0478000080fa000000060008
:1020d8000000fa0090c8bf000080fb006a00b90049
:1020e800000178008ec8bf000080fb006a00b900bc
:1020f800800078008fc8bf000080fb00008040008f
:102108004800dd008000410091c8bf000080fb004e
:1021180000804000b04a8800b24a800000182000c1
:1021280001002000672e0700c24a80002018200006
:1021380001002000632e07000080fa00000006005e
:102148000000fa00a0c8bf00e14f50001b003a0091
:1021580089cbbf000042b2000004e00017003a003b
:1021680094c8bf000004e00014003200ccc9bf00ce
:102178000040e800cce9b700c19c200091407800fd
:1021880020c3b30080cf50000c00360010c0b3004d
:102198008ee8b7008fc8bf00e64f500007003a002e
:1021a80090c8bf00e34f500004003a0091c8bf0038
:1021b800e44f500001003a0019fd07000080fa00c2
:1021c800000006000800fa00a0c8bf000080fb005d
:1021d8006101b900d0ff2f00f1ff2f00020140007c
:1021e800838148002207980033079800a001200047
:1021f800010020002e019000be019000800f5100c8
:10220800818f590075013e002e009000be0090009d
:102218000060010088003700c20037006f013700f6
:10222800fb003700160037001f0037002800370072
:102238006a01370069013700680137006701370014
:102248002d0037003a003700570037006800370084
:102258002b01370061013700600137005f0137004b
:102268005e0137005d0137004f0137005b01370021
:102278005a0137005901370058013700ee0037007e
:10228800b14d800060468000808f500053013200bd
:102298006046800000017800a001200001002000b5
:1022a800082e07004d013700b14d800080468000a0
:1022b800808f50004901320080468000000178007c
:1022c800c001200001002000fe2d07004301370057
:1022d800b14d800070468000808f50003f01320071
:1022e8007046800000017800e00120000100200015
:1022f800f42d070039013700b14d8000a046800059
:10230800808f500035013200418d200042c0b3005b
:1023180000c1b300502d0700a046800000017800de
:10232800a002200001002000e62d07002b01370045
:10233800b04d80006101b900204d8000314d800012
:10234800800f5100818f590024013200419a2000ea
:1023580042c0b30040c1b3003f2d0700204d8000ac
:10236800314d800000017800e002200001002000cb
:10237800d42d0700204d8000314d8000e00f500023
:10238800e08f580015013a006000b800e04c880062
:10239800f14c8800c199200042c0b300c0c1b3000d
:1023a8002d2d07000d013700b04d80006101b900e7
:1023b800004d8000114d8000800f5100818f590021
:1023c80006013200019a200042c0b30080c1b30068
:1023d800212d0700004d8000114d8000000178007c
:1023e8000003200001002000b62d0700fb00370085
:1023f800b04d80006101b900e04c8000f14c8000d4
:10240800800f5100818f5900f4003200c1992000db
:1024180042c0b300c0c1b3000f2d0700e04c8000dc
:10242800f14c80000001780020032000010020000a
:10243800a42d0700e9003700c14680001107980065
:102448001e019000e10f5100180032009e0190001b
:10245800e18f510004003c001e0090000000e000e5
:1024680008003200dd0037009e009000e28f500027
:10247800180032001e019000e30f51001f003200c7
:10248800d6003700b14d8000d04c8000808f5000be
:10249800d2003200d04c80000001780040032000b8
:1024a80001002000872d0700cc003700b14d8000c7
:1024b800c04c8000808f5000c8003200c04c8000a3
:1024c8000001780060032000010020007d2d070036
:1024d800c2003700b14d8000b04c8000808f5000a2
:1024e800be003200b04c800000017800800320005c
:1024f80001002000732d0700b8003700b14d80009f
:10250800a04c8000808f5000b4003200a04c8000a6
:1025180000017800a003200001002000692d0700b9
:10252800ae003700c3468000030f78001e00780015
:10253800e10f5000180032009e007800e18f500033
:1025480004003c001e0178000200e0000800320090
:10255800a20037009e017800e28f51001800320077
:102568001e007800e30f50001f0032009b00370068
:10257800b14d8000904c8000808f50009700320051
:10258800904c8000000178004004200001002000e9
:102598004c2d070091003700b14d8000804c800021
:1025a800808f50008d003200804c80000001780040
:1025b8006004200001002000422d0700870037003a
:1025c800b14d8000704c8000808f50008300320035
:1025d800704c800000017800800420000100200079
:1025e800382d07007d003700b14d8000604c800019
:1025f800808f500079003200604c80000001780024
:10260800a0042000010020002e2d070073003700d1
:10261800b04d800080007800504c8000808f5000c2
:102628006e003200524c8000200220000100200081
:10263800242d070069003700c04680000000e00034
:1026480018003a00b04d80006101b900204b8000ad
:10265800314b8000800f5100818f59005f0032009c
:102668004196200042c0b30040c2b3007a2c070054
:10267800204b8000314b80000001780020082000aa
:10268800010020000f2d0700604b8000714b800077
:1026980000017800c008200001002000092d070073
:1026a8004e003700c0468000e10f50004b003a0052
:1026b800b04d80006101b900004b8000114b8000d3
:1026c800800f5100818f590044003200004b800078
:1026d800114b8000000178006008200001002000f4
:1026e800f82c0700404b8000514b80000001780017
:1026f800e008200001002000f22c07003700370016
:10270800c04680000000e00012003a00b04d800092
:102718006101b900804b8000914b8000800f51000f
:10272800818f59002d0032000197200022c0b3008c
:1027380080c2b300482c0700804b8000914b80007a
:1027480000017800e003200001002000dd2c0700d4
:1027580022003700c0468000e10f50001f003a00f9
:10276800b04d80006101b900a04b8000b14b8000e2
:10277800800f5100818f59001800320041972000c6
:1027880022c0b300c0c2b300332c0700a04b8000a6
:10279800b14b8000000178000004200001002000f7
:1027a800c82c07000d003700b04d80006101b9004a
:1027b800e04a8000f14a8000800f5100818f590063
:1027c80006003200e04a8000f14a800000017800eb
:1027d8000005200001002000ba2c07000080fa0044
:1027e800000006000200fa00604080000000e800d7
:1027f8006040880060408000f80f50008700360075
:102808000000eb0060408800b04a800090408800db
:10281800419e20009140780013c8bf0080cf50002f
:102828007e003a00319e20009140780012c8bf0017
:1028380080cf500079003a00e2c9bf000004e000f0
:1028480076003a00c04a8000000f78001e00780029
:10285800e40f50002f0032001e007800e40f5000f3
:102868000a003e001e007800e20f500019003200f6
:102878001e007800e20f50001e003e001e00780087
:10288800e10f50000b003200640037001e00780092
:10289800e60f50003d0032001e007800e60f5000a1
:1028a8002b0039001e007800e70f50004600320068
:1028b8005a0037006000b800204d8800314d88006c
:1028c800419a200042c0b30000c1b300e22b0700c8
:1028d800520037006000b800204d8800314d880054
:1028e800419a200042c0b30040c1b300da2b070070
:1028f8004a0037006000b800704d8800814d88009c
:10290800e19a200042c0b300c0c1b300d22b070037
:10291800420037006000b800204d8800314d880023
:10292800419a200042c0b30000c1b300ca2b07007f
:102938006000b800204d8800314d8800419a200081
:1029480042c0b30040c1b300c32b070033003700b7
:102958006000b800204d8800314d8800419a200061
:1029680042c0b30000c1b300bb2b07006000b80031
:10297800704d8800814d8800e19a200042c0b30064
:10298800c0c1b300b42b0700240037006000b800b2
:10299800204d8800314d8800419a200042c0b30084
:1029a80040c1b300ac2b07006000b800704d880030
:1029b800814d8800e19a200042c0b300c0c1b30035
:1029c800a52b0700150037006000b800204d8800cf
:1029d800314d8800419a200042c0b30000c1b300c5
:1029e8009d2b07006000b800204d8800314d8800fd
:1029f800419a200042c0b30040c1b300962b0700a3
:102a08006000b800704d8800814d8800e19a200070
:102a180042c0b300c0c1b3008f2b07000080fa008a
:102a2800000006000200fa00d04a8000e10f5000c2
:102a38003e003a00504080000000e8005040880006
:102a480050408000f80f5000380036000000eb00be
:102a5800504088000040eb00004f780030003700fd
:102a68001e80fb0000004000ee004000c08c2000eb
:102a78000080400010007800704088001e80fb0035
:102a880000004000c104200080804000c08c20006d
:102a9800008040001000780080408800419e20009f
:102aa800914078000fc8bf0080cf50000b003a005b
:102ab800319e2000914078000ec8bf0080cf5000a2
:102ac80006003a00e2c9bf000004e00003003a0033
:102ad80089fa070010c0b300ade9b700419e200095
:102ae8009140780011c8bf0080cf50000b003a0019
:102af800319e20009140780010c8bf0080cf500060
:102b080006003a00e2c9bf000004e00003003a00f2
:102b180079fa07000040eb00ade9b7001e4fe80066
:102b280090c0b3009e4f1000cdff36000080fa0021
:102b3800000006001400fa00008fbe00220798006b
:102b480033079800440798005507980066079800cf
:102b5800770798002e009000be009000000f9800a4
:102b6800110f980020002000010020000e0990009d
:102b78009e099000800f5100818f5900a3003200f8
:102b880020002000010020000e0990009e099000fe
:102b9800800f5100818f59000d003c000e089000f5
:102ba8009e089000e00f5000e08f58001700320098
:102bb80010002000010020000e0990009e099000de
:102bc800800f5100818f59001d003200930137009a
:102bd80030002000010020000e0990009e0990009e
:102be800800f5100818f5900d10032004000200031
:102bf800010020000e0990009e099000800f5100ee
:102c0800818f590013013200840137004ef097007c
:102c18000004e00001003a00d422a9004ef0970019
:102c2800e14f500001003a00d462a9004ef097002d
:102c3800e24f500079013a00d442a90077013700e9
:102c48004ef097000004e00023003a00d4c2bf0011
:102c5800624060000004e0000c003a004e00900062
:102c6800de009000be0f1000ae8f180005003d007a
:102c78006e009000fe009000be0f1000ae8f18008e
:102c880015003c00d422a800130037004e00900025
:102c9800de0090003eb99700ceb9970002005000c0
:102ca80083805800be0f5000ae8f58000a003400d1
:102cb8006e009000fe0090003eb99700ceb99700d4
:102cc8000000410081804900be0f5000ae8f5800bf
:102cd80001003d00d422a9004ef09700e14f5000ba
:102ce80023003a00d4c2bf00684060000004e0003e
:102cf8000c003a004e009000de009000be0f10005d
:102d0800ae8f180005003d006e009000fe00900098
:102d1800be0f1000ae8f180015003c00d462a8004a
:102d2800130037004e009000de0090003eb9970077
:102d3800ceb997000200500083805800be0f5000a3
:102d4800ae8f58000a0034006e009000fe0090001c
:102d58003eb99700ceb99700000041008180490034
:102d6800be0f5000ae8f580001003d00d462a9008c
:102d78004ef09700e24f500028013a00d4c2bf003d
:102d8800644060000004e0000c003a004e0090002f
:102d9800de009000be0f1000ae8f180005003d0049
:102da8006e009000fe009000be0f1000ae8f18005d
:102db8001a013c00d442a800180137004e009000c8
:102dc800de0090003eb99700ceb99700020050008f
:102dd80083805800be0f5000ae8f58000f0134009a
:102de8006e009000fe0090003eb99700ceb99700a3
:102df8000000410081804900be0f5000ae8f58008e
:102e080006013d00d442a900040137004ef09700a6
:102e18000004e00015003a00d4c2bf006240600020
:102e28000004e00007003a004e009000de00900029
:102e3800be0f1000ae8f18000c003500d422a80079
:102e48000a0037004e009000de0090003eb997005f
:102e5800ceb997000200500083805800be0f500082
:102e6800ae8f580001003400d422a9004ef097001c
:102e7800e14f500015003a00d4c2bf00684060001e
:102e88000004e00007003a004e009000de009000c9
:102e9800be0f1000ae8f18000c003500d462a800d9
:102ea8000a0037004e009000de0090003eb99700ff
:102eb800ceb997000200500083805800be0f500022
:102ec800ae8f580001003400d462a9004ef097007c
:102ed800e24f5000d1003a00d4c2bf006440600005
:102ee8000004e00007003a004e009000de00900069
:102ef800be0f1000ae8f1800c8003500d442a800dd
:102f0800c60037004e009000de0090003eb99700e2
:102f1800ceb997000200500083805800be0f5000c1
:102f2800ae8f5800bd003400d442a900bb00370062
:102f38004ef097000004e00015003a00d4c2bf002c
:102f4800624060000004e00007003a006e00900054
:102f5800fe009000be0f1000ae8f18000c003c0061
:102f6800d422a8000a0037006e009000fe009000ee
:102f78003eb99700ceb99700000041008180490012
:102f8800be0f5000ae8f580001003d00d422a900aa
:102f98004ef09700e14f500015003a00d4c2bf0030
:102fa800684060000004e00007003a006e009000ee
:102fb800fe009000be0f1000ae8f18000c003c0001
:102fc800d462a8000a0037006e009000fe0090004e
:102fd8003eb99700ceb997000000410081804900b2
:102fe800be0f5000ae8f580001003d00d462a9000a
:102ff8004ef09700e24f500088003a00d4c2bf005c
:10300800644060000004e00007003a006e00900091
:10301800fe009000be0f1000ae8f18007f003c002d
:10302800d442a8007d0037006e009000fe0090009a
:103038003eb99700ceb99700000041008180490051
:10304800be0f5000ae8f580074003d00d442a90056
:10305800720037004ef097000004e00023003a00a9
:10306800d4c2bf00624060000004e0000c003a00d7
:103078004e009000de009000be0f1000ae8f1800ca
:103088001a003c006e009000fe009000be0f100079
:10309800ae8f180015003500d422a80013003700a1
:1030a8004e009000de0090003eb99700ceb9970020
:1030b8000000410081804900be0f5000ae8f5800cb
:1030c800090035006e009000fe0090003eb99700a0
:1030d800ceb997000200500083805800be0f500000
:1030e800ae8f580001003400d422a9004ef097009a
:1030f800e14f500023003a00d4c2bf00684060008e
:103108000004e0000c003a004e009000de00900041
:10311800be0f1000ae8f18001a003c006e00900021
:10312800fe009000be0f1000ae8f1800150035008d
:10313800d462a800130037004e009000de00900013
:103148003eb99700ceb99700000041008180490040
:10315800be0f5000ae8f5800090035006e00900079
:10316800fe0090003eb99700ceb9970002005000cb
:1031780083805800be0f5000ae8f58000100340005
:10318800d462a9004ef09700e24f500023003a00a5
:10319800d4c2bf00644060000004e0000c003a00a4
:1031a8004e009000de009000be0f1000ae8f180099
:1031b8001a003c006e009000fe009000be0f100048
:1031c800ae8f180015003500d442a8001300370050
:1031d8004e009000de0090003eb99700ceb99700ef
:1031e8000000410081804900be0f5000ae8f58009a
:1031f800090035006e009000fe0090003eb997006f
:10320800ceb997000200500083805800be0f5000ce
:10321800ae8f580001003400d442a9000080fa00a3
:10322800000006000000fa00889fbe00204b8000c6
:10323800314b80000001be00284d8000394d8000d0
:103248008f87e8000040eb00e0ff9f006000b800b7
:10325800809fbe006033b8000202be00220020003a
:10326800030020000800be0032fe0700e687570072
:10327800204b8000314b80000001be00284d8000ab
:10328800394d80008f87e80010c0b300e0ff9f0031
:103298006000b800809fbe006033b8000202be0024
:1032a80022002000030020000800be0021fe0700c5
:1032b800e6875700204b8000314b80000001be009c
:1032c800284d8000394d80008f87e80020c0b3006a
:1032d800e0ff9f006000b800809fbe006033b80028
:1032e8000202be0022002000030020000800be00e9
:1032f80010fe0700e6875700a04b8000b14b800006
:10330800e00f5000e08f580013003200c0448000e6
:103318000000e800c0448800c04480006101b80093
:10332800a04b8000b14b8000800f5100818f590065
:10333800090039000000eb00c0448800a046800066
:103348000000e800a0468800418d200042c0b3007c
:1033580000c1b300402907004f04be000080fa00f6
:10336800000006000200fa0020ac2000104078009f
:103378000080fb00000f78001e007800e10f50006d
:10338800120032001e007800e20f50003b003200ad
:103398001e0078000000e000010032004300370002
:1033a800c8c2bf00614060000004e0003f003a006e
:1033b80021ac20000000eb009000980021ac200018
:1033c80010c0b3008048780038003700c8c2bf007a
:1033d800614060000004e00024003a0020ac2000b6
:1033e800100090008000e80020ac20001100980038
:1033f80020ac200010009000e90f50002b00360090
:1034080021ac20000000eb0090009800204d8000c7
:10341800314d8000e00f5000e08f58000f0034005d
:103428006000b800204d8800314d88008a0ba90043
:10343800419a200042c0b30040c1b30006290700ea
:103448006000b800e04c8800f14c8800c199200069
:1034580042c0b300c0c1b300ff28070021ac200060
:1034680020c0b300804878001000370021ac20004d
:1034780020c0b300804878000c003700c8c2bf00e5
:10348800614060000004e000080032008acbbf0001
:10349800614060000004e00001003a008a0ba800c7
:1034a80021ac20000040eb00804878000080fa0042
:1034b800000006000200fa00a0ac200010407800ce
:1034c8000080fb00000f78001e007800e10f50001c
:1034d800120032001e007800e20f5000490032004e
:1034e8001e0078000000e000010032004c003700a8
:1034f800c8c2bf00624060000004e00048003a0013
:10350800a1ac20000000eb0090009800a1ac2000c6
:1035180010c0b3008048780041003700c8c2bf001f
:10352800624060000004e00032003a00a0ac2000d5
:10353800100090008000e800a0ac20001100980066
:10354800a0ac200090009000504c8000808f50006c
:1035580033003900f04b80000000e800f04b880091
:10356800f14b8000904c8000808f50001a0035008d
:103578000000eb00f04b8800224d8000334d8000a6
:10358800d04c8000cf80de000201400083814800db
:10359800f0232400f1002000800f5100818f590092
:1035a8000d003c00224d8000334d8000d04c80003f
:1035b800cf80de000200400083804800204d880054
:1035c800314d88008a0ba800419a200042c0b30000
:1035d80040c1b300a0280700a1ac20000000eb0008
:1035e80090009800a1ac200020c0b300804878006b
:1035f8000b003700a1ac200020c0b3008048780041
:1036080007003700c8c2bf00624060000004e00045
:1036180003003200a1ac20000040eb008048780095
:103628000080fa00000006000200fa0020ad200029
:10363800104078000080fb00000f78001e00780022
:10364800e10f5000120032001e007800e20f500017
:10365800270032001e0078000000e0000100320060
:103668002a003700c8c2bf00644060000004e000c0
:1036780026003a0021ad20000000eb0090009800e1
:1036880021ad200010c0b300804878001f0037002b
:10369800c8c2bf00644060000004e00010003a00a7
:1036a80020ad2000100090008000e80020ad200030
:1036b8001100980020ad200010009000e90f500084
:1036c8001200360021ad20000000eb0090009800a9
:1036d80021ad200020c0b300804878000b003700df
:1036e80021ad200020c0b3008048780007003700d3
:1036f800c8c2bf00644060000004e000030032005c
:1037080021ad20000040eb00804878000080fa00de
:10371800000006000200fa00a0ad2000104078006a
:103728000080fb00000f78001e007800e10f5000b9
:10373800120032001e007800e20f5000270032000d
:103748001e0078000000e000010032002a00370067
:10375800c8c2bf00684060000004e00026003a00cc
:10376800a1ad20000000eb0090009800a1ad200062
:1037780010c0b300804878001f003700c8c2bf00df
:10378800684060000004e00010003a00a0ad20008e
:10379800100090008000e800a0ad20001100980003
:1037a800a0ad200010009000e90f50001200360074
:1037b800a1ad20000000eb0090009800a1ad200012
:1037c80020c0b300804878000b003700a1ad20006e
:1037d80020c0b3008048780007003700c8c2bf0087
:1037e800684060000004e00003003200a1ad200042
:1037f8000040eb00804878000080fa0000000600d6
:103808000200fa0020ae2000104078000080fb0083
:10381800000f78001e007800e10f500012003200ff
:103828001e007800e20f5000280032001e007800c9
:103838000000e000010032002b003700c8c2bf00c2
:10384800704060000004e00027003a0021ae20002c
:103858000000eb009000980021ae200010c0b300db
:103868008048780020003700c8c2bf007040600060
:103878000004e00011003a0020ae20001000900083
:103888008000e80020ae20001100980020ae200043
:1038980090009000504c8000808f5000120039003a
:1038a80021ae20000000eb009000980021ae20001f
:1038b80020c0b300804878000b00370021ae2000fc
:1038c80020c0b3008048780007003700c8c2bf0096
:1038d800704060000004e0000300320021ae2000c8
:1038e8000040eb00804878000080fa0000000600e5
:1038f8000200fa00a0ae2000104078000080fb0013
:10390800000f78001e007800e10f5000120032000e
:103918001e007800e20f5000280032001e007800d8
:103928000000e000010032002b003700c8c2bf00d1
:103938000042b2000004e00027003a00a1ae2000d7
:103948000000eb0090009800a1ae200010c0b3006a
:103958008048780020003700c8c2bf000042b2008b
:103968000004e00011003a00a0ae20001000900012
:103978008000e800a0ae200011009800a0ae200052
:1039880090009000504c8000808f50001200390049
:10399800a1ae20000000eb0090009800a1ae20002e
:1039a80020c0b300804878000b003700a1ae20008b
:1039b80020c0b3008048780007003700c8c2bf00a5
:1039c8000042b2000004e00003003200a1ae200073
:1039d8000040eb00804878000080fa0000000600f4
:1039e8000200fa0020af2000104078000080fb00a1
:1039f800000f78001e007800e10f5000120032001e
:103a08001e007800e20f5000280032001e007800e7
:103a18000000e000010032002b003700cfc2bf00d9
:103a28000042b2000004e00027003a0021af200065
:103a38000000eb009000980021af200010c0b300f8
:103a48008048780020003700cfc2bf000042b20093
:103a58000004e00011003a0020af200010009000a0
:103a68008000e80020af20001100980020af20005f
:103a780090009000504c8000808f50001200390058
:103a880021af20000000eb009000980021af20003b
:103a980020c0b300804878000b00370021af200019
:103aa80020c0b3008048780007003700cfc2bf00ad
:103ab8000042b2000004e0000300320021af200001
:103ac8000040eb00804878000080fa000000060003
:103ad8000200fa00a0af2000104078000080fb0030
:103ae800000f78001e007800e10f5000120032002d
:103af8001e007800e20f5000280032001e007800f7
:103b08000000e000010032002b003700cfc2bf00e8
:103b18000044b2000004e00027003a00a1af2000f2
:103b28000000eb0090009800a1af200010c0b30087
:103b38008048780020003700cfc2bf000044b200a0
:103b48000004e00011003a00a0af2000100090002f
:103b58008000e800a0af200011009800a0af20006e
:103b680090009000504c8000808f50001200390067
:103b7800a1af20000000eb0090009800a1af20004a
:103b880020c0b300804878000b003700a1af2000a8
:103b980020c0b3008048780007003700cfc2bf00bc
:103ba8000044b2000004e00003003200a1af20008e
:103bb8000040eb00804878000080fa000000060012
:103bc8000000fa00da62a8000080fa00000006008f
:103bd8000000fa00da62a9000080fa00000006007e
:103be8000600fa00100798004147980000c0eb0053
:103bf800ffe9b700ffc9bf00fee9b7000040eb00ce
:103c08001047980018003700e19f20009140780085
:103c18001e0090001040780000cf6800f29f20003e
:103c2800124178009e80fb0060252800008040003b
:103c38001040780000406900fee9b7009e80fb0054
:103c4800603528000080400010407800ffe9b70088
:103c58001e4090000040e800104798001e009000a9
:103c68000000e800100798009e4090004e40900029
:103c780080cf5000e4ff39000080fa000000060001
:103c88000600fa0010079800414798000040eb0032
:103c9800004f7800060037001e00900010407800a2
:103ca8001e4f40001e0090000000e800100798001a
:103cb8004e4090000040e900404798004e40900078
:103cc800e14f4000f4ff3a001e4078000040ea004f
:103cd800004f78001e80fb004400de008080fb005f
:103ce800604528000080400010407800fee9b700d9
:103cf8001e80fb00ef006000604528000080400047
:103d080010407800ffe9b7000080fa0000000600c4
:103d18000600fa00100798001e00900090407800f6
:103d280090c3b30080cf5000070036001e009000fb
:103d3800104078008040780090ccb30000c040006c
:103d480050479800060037001e0090001040780089
:103d58008040780000cdb30000c040005047980074
:103d68005e409000004f78001e0090000000e800c0
:103d78009040780090c3b30080cf50000800360010
:103d88001e0090000000e800104078008040780095
:103d980090ccb30000c040004047980007003700af
:103da8001e0090000000e800104078008040780075
:103db80000cdb30000c04000404798004e4090003e
:103dc800104798001e4078000080fb004400dd008a
:103dd800804078001e40900000c040000080fb003a
:103de8000080fa00000006000600fa00881f78002c
:103df8001007980041479800204e8000e10f5000be
:103e08001b003a004e4090000080fb006300500009
:103e18000080d100404798000040eb00004f780038
:103e28000f0037001e84fb001e80fb0000004000ce
:103e3800800078001e009000008040000000e8002c
:103e4800b3ff070000417800610920008880400026
:103e5800c09e200000804000024878001e4fe80005
:103e68004e4090009e4f1000eeff390012003700c0
:103e78000040eb00004f78000c0037009e81fb00eb
:103e88001e80fb00800078001e009000008040002b
:103e9800104178006109200083804000c09e200006
:103ea80000804000024878001e4fe8004e40900015
:103eb8009e4f1000f1ff39004f0478000080fa008f
:103ec800000006000a00fa00200798003107980051
:103ed8000040eb00004f78002e009000400798004b
:103ee8004e009000e20f5000180032004e00900083
:103ef800e20f500007003e004e0090000000e00076
:103f08001b0032004e009000e10f50000500320007
:103f18001a0037004e009000e50f500017003e00d1
:103f280013003700be009000f0702200808f500010
:103f380014003c003e0090000000e0001100350035
:103f480010c0b300004f78000e0037003e0090000c
:103f5800e30f50000b003c003e0090000000e00022
:103f68000800350010c0b300004f78000500370086
:103f78000040eb00004f7800020037000040eb00e3
:103f8800004f78001e80fb000080fa000000060049
:103f98000600fa00000f7800110798001e0078004c
:103fa800200798002e009000e10f50000400320016
:103fb8002e009000e20f50000d0032001300370071
:103fc8001e009000a0468800418d200042c0b3002a
:103fd80000c1b30020260700a04680000001780039
:103fe800a002200001002000b626070007003700c5
:103ff8001e009000904688009046800000017800de
:104008006001200001002000ae2607000080fa00b1
:10401800000006000200fa00004f780082cabf00c4
:104028008080fb0060468000808f5000dc003a00f2
:104038000000eb00204e8800204e80000000e000c9
:1040480038003a000000eb00b04f8800b24f800003
:104058006046800080417800610520008280400031
:10406800c09e200000804000034878000200e8005d
:10407800b04f8800b34f800031a8200091407800ed
:1040880000c8b30000c170006105200083804000b3
:10409800c09e200000804000024878000300e8002d
:1040a800b04f8800b24f8000610520008280400038
:1040b800c09e2000008040001e4878000200e800f2
:1040c800b04f880031c0b30020a42000c4fe070010
:1040d800b24f8000e39f20009341780061052000e3
:1040e80082804000c09e2000008040000348780085
:1040f8000200e800b04f8800b24f8000f39f200014
:10410800934178006105200082804000c09e200015
:1041180000804000034878000200e800b04f8800a3
:10412800930037000000eb00b04f8800b24f8000ca
:104138006105200082804000c09e200080804000f1
:10414800a0c3b300804878000200e800b04f8800a0
:10415800b34f800060468000c480de0060452800c0
:1041680000804000104178006105200083804000f5
:10417800c09e200000804000024878000300e8004c
:10418800b04f8800b34f800060468000ef006000a9
:10419800604528000080400010417800610520003b
:1041a80083804000c09e20000080400002487800c4
:1041b8000300e800b04f8800b34f800031a820000a
:1041c8009140780000c8b30000c070000080fb0078
:1041d8004400de008080fb0060452800008040002d
:1041e800104178006105200083804000c09e2000b7
:1041f80000804000024878000300e800b04f8800c3
:10420800b34f800031a820009140780000c8b30067
:1042180000c070000080fb00ef00600060452800cf
:104228000080400010417800610520008380400034
:10423800c09e200000804000024878000300e8008b
:10424800b04f8800b34f80001e80fb004400de00a2
:104258008080fb0060452800008040001041780005
:104268006105200083804000c09e2000008040003f
:10427800024878000300e800b04f8800b34f800080
:104288001e80fb00ef0060006045280000804000b1
:10429800104178006105200083804000c09e200006
:1042a80000804000024878000300e800b04f880012
:1042b800b04f800080c0e80020a42000cafe07009c
:1042c800b04f80000000e9000000d1008040780075
:1042d80020a820006afe0700b24f8000e39f20005c
:1042e800934178006105200082804000c09e200034
:1042f80000804000034878000200e800b04f8800c2
:10430800b24f8000f39f20009341780061052000a0
:1043180082804000c09e2000008040000348780052
:104328000200e800b04f8800b24f8000610520000d
:1043380082804000c09e200080804000d0c0b30032
:10434800804878000200e800b04f8800b24f800033
:104358006105200082804000c09e200080804000cf
:10436800a0c0b300804878000200e800b04f880081
:1043780020a42000f0448800866ba8000040eb00d1
:1043880000eab7000efe0700f144800011407800f3
:104398000080fb00d01088000100e800f04488008d
:1043a8000080fa00000006000400fa00004f7800c0
:1043b800110798000080fa00000006000200fa00c9
:1043c800000f78000000eb00e04488001e00780031
:1043d800104078000080fb00e04488001e0fe900d0
:1043e800e04480004800dd00e04488001e007800ba
:1043f800104078008080fb00e0448000008070005e
:10440800e04488000080fa00000006000200fa007c
:10441800000f78000000eb00e04488001e007800e0
:10442800104078000080fb00e04488001e0fe9007f
:10443800e04480004800dd00e04488001e00780069
:10444800104078008080fb00e0448000008070000d
:10445800e04488000080fa00000006000a00fa0024
:1044680082cabf008080fb0060468000808f5000b9
:1044780088003a00a04f8000e80f500085003a00fd
:1044880061c0b30020a02000d5fd0700e19f2000f7
:104498009140780008cabf0080cf50007d003a00e4
:1044a800f19f20009140780009cabf0080cf5000da
:1044b800010032007700370086cabf0070479800b5
:1044c80087cabf00604798003e0090004300de00a6
:1044d800004fe8003e0090000000e0006b00320052
:1044e8003e009000e30f500068003e0084cabf0001
:1044f800104f980085cabf00004f9800ce0090006a
:104508003e00900000804000e30f50005c003e0039
:10451800709c2000100798000000eb00b04f880046
:10452800b24f80006046800080417800610520001d
:1045380082804000c09e2000008040000348780030
:104548000200e800b04f8800b24f800033a020007e
:10455800934178006105200082804000c09e2000c1
:1045680000804000034878000200e800b04f88004f
:10457800b24f80006105200082804000c09e20006c
:10458800008040001e4878000200e800b04f880014
:104598000000eb002007980010003700b24f8000a1
:1045a8001e00900090417800610520008280400044
:1045b800c09e200000804000034878000200e80008
:1045c800b04f88002e0090000000e80020079800f7
:1045d8001e0090000000e900100798009e80fb0074
:1045e8002e009000808f5000ecff3e00b04f8000fe
:1045f8008040780020a4200079fd0700b24f800099
:10460800e39f2000934178006105200082804000ec
:10461800c09e200000804000034878000200e800a7
:10462800b04f8800b24f8000f39f2000934178007c
:104638006105200082804000c09e2000008040006c
:10464800034878000200e800b04f880020a420004a
:10465800f0448800866ba8000040eb0000eab70031
:1046680057fd0700f1448000114078000080fb00ee
:10467800d01088000100e800f044880005003700e9
:1046880020c0b30063fe07000200370030c0b3004b
:1046980060fe07000080fa00000006000a00fa0029
:1046a80082cabf008080fb0060468000808f500077
:1046b80002013a00a04f8000f10f5000ff003a00bd
:1046c800a04f8000650050000000d10080407800b5
:1046d80020a820006afd0700e29f20001241780010
:1046e800a04f800064005000f6004000c09e2000eb
:1046f8000080400010407800804f5100ef003a00e1
:10470800f29f200012417800a04f80006300500003
:10471800f6004000c09e2000008040001040780055
:10472800804f510001003200e400370086cabf0004
:104738007047980087cabf00604798003e00900005
:104748004300de00004fe8003e0090000000e0005b
:10475800d80032003e009000e30f5000d5003e0024
:1047680084cabf00104f980085cabf00004f980048
:10477800ce0090003e00900000804000e30f500003
:10478800c9003e00709c200010079800b24f8000be
:104798006105200082804000c09e2000808040008b
:1047a800a0c3b300804878000200e800b04f88003a
:1047b800b34f800082cabf000080fb004400de00c7
:1047c8008080fb0060452800008040001041780090
:1047d8006105200083804000c09e200000804000ca
:1047e800024878000300e800b04f8800b34f80000b
:1047f80082cabf000080fb00ef006000604528000f
:10480800008040001041780061052000838040004e
:10481800c09e200000804000024878000300e800a5
:10482800b04f8800b34f800083cabf000080fb00f0
:104838004400de008080fb006045280000804000c6
:10484800104178006105200083804000c09e200050
:1048580000804000024878000300e800b04f88005c
:10486800b34f800083cabf000080fb00ef006000e8
:104878006045280000804000104178006105200054
:1048880083804000c09e20000080400002487800dd
:104898000300e800b04f8800b34f80001e80fb0083
:1048a8004400de008080fb00604528000080400056
:1048b800104178006105200083804000c09e2000e0
:1048c80000804000024878000300e800b04f8800ec
:1048d800b34f80001e80fb00ef0060006045280099
:1048e800008040001041780061052000838040006e
:1048f800c09e200000804000024878000300e800c5
:10490800b04f88000000eb00200798002500370012
:10491800b34f80001e009000104078000080fb001c
:104928004400de008080fb006045280000804000d5
:10493800104178006105200083804000c09e20005f
:1049480000804000024878000300e800b04f88006b
:10495800b34f80001e009000104078000080fb00dc
:10496800ef0060006045280000804000104178009a
:104978006105200083804000c09e20000080400028
:10498800024878000300e800b04f88002e0090002d
:104998000000e800200798001e0090000000e900d1
:1049a800100798009e80fb002e009000808f50001a
:1049b800d7ff3e00b04f800080c0e80020a4200050
:1049c80009fd0700b04f80000000e9000000d10099
:1049d8008040780020a82000a9fc0700b24f800082
:1049e800e39f200093417800610520008280400009
:1049f800c09e200000804000034878000200e800c4
:104a0800b04f8800b24f8000f39f20009341780098
:104a18006105200082804000c09e20000080400088
:104a2800034878000200e800b04f8800b24f8000c9
:104a38006105200082804000c09e200080804000e8
:104a4800d0c0b300804878000200e800b04f88006a
:104a5800b24f80006105200082804000c09e200087
:104a680080804000a0c0b300804878000200e800c1
:104a7800b04f880020a42000f0448800866ba8006e
:104a88000040eb0000eab7004dfc0700f14480004d
:104a9800114078000080fb00d01088000100e80079
:104aa800f04488000500370020c0b30059fd070016
:104ab8000200370030c0b30056fd07000080fa003e
:104ac800000006000800fa0082cabf008080fb00d0
:104ad80060468000808f500088003a00a04f800018
:104ae800e80f500085003a0061c0b30020a0200004
:104af8003bfc0700e19f20009140780008cabf00f6
:104b080080cf50007d003a00f19f2000914078004e
:104b180009cabf0080cf500001003200770037007b
:104b280086cabf005047980087cabf004047980010
:104b38002e0090000000e0006e0032002e00900071
:104b4800e60f50006b003e0084cabf007047980013
:104b580085cabf0060479800be0090002e009000f4
:104b680000804000e60f50005f003e00708d20007e
:104b7800000f78000000eb00b04f8800b24f8000b3
:104b880060468000804178006105200082804000f6
:104b9800c09e200000804000034878000200e80022
:104ba800b04f8800b24f800033a0200093417800b6
:104bb8006105200082804000c09e200000804000e7
:104bc800034878000200e800b04f88002e009000eb
:104bd8000000400020079800b24f80002e0090008f
:104be800804178006105200082804000c09e20003e
:104bf80000804000034878000200e800b04f8800b9
:104c08000000eb00100798000e003700b24f80003c
:104c18001e007800904178006105200082804000e5
:104c2800c09e200000804000034878000200e80091
:104c3800b04f88001e0090000000e80010079800a0
:104c48001e0fe900ae0090001e009000808f5000fb
:104c5800eeff3e00b04f80008040780020a4200086
:104c6800dffb0700b24f8000e39f200093417800ec
:104c78006105200082804000c09e20000080400026
:104c8800034878000200e800b04f8800b24f800067
:104c9800f39f200093417800610520008280400046
:104ca800c09e200000804000034878000200e80011
:104cb800b04f880020a42000f0448800866ba8002c
:104cc8000040eb0000eab700bdfb0700f14480009c
:104cd800114078000080fb00d01088000100e80037
:104ce800f04488000500370020c0b300c9fc070065
:104cf8000200370030c0b300c6fc07000080fa008d
:104d0800000006000800fa0082cabf008080fb008d
:104d180060468000808f5000fe003a00a04f80005f
:104d2800f10f5000fb003a00a04f800065005000d2
:104d38000000d1008040780020a82000d0fb0700a8
:104d4800e29f200012417800a04f800064005000cc
:104d5800f6004000c09e200000804000104078000f
:104d6800804f5100eb003a00f29f2000124178007a
:104d7800a04f800063005000f6004000c09e200055
:104d88000080400010407800804f51000100320040
:104d9800e000370086cabf005047980087cabf00a6
:104da800404798002e0090000000e000d700320035
:104db8002e009000e60f5000d4003e0084cabf00c9
:104dc8007047980085cabf0060479800be009000f1
:104dd8002e00900000804000e60f5000c8003e0002
:104de800708d2000000f78000000eb00b04f8800a5
:104df800b24f80006105200082804000c09e2000e4
:104e080080804000a0c3b300804878000200e8001a
:104e1800b04f8800b34f800060468000c480de0039
:104e2800604528000080400010417800610520009e
:104e380083804000c09e2000008040000248780027
:104e48000300e800b04f8800b34f80006046800040
:104e5800ef006000604528000080400010417800a5
:104e68006105200083804000c09e20000080400033
:104e7800024878000300e800b04f8800b34f800074
:104e880083cabf000080fb004400de008080fb0076
:104e9800604528000080400010417800610520002e
:104ea80083804000c09e20000080400002487800b7
:104eb8000300e800b04f8800b34f800083cabf00ea
:104ec8000080fb00ef006000604528000080400083
:104ed800104178006105200083804000c09e2000ba
:104ee80000804000024878000300e800b04f8800c6
:104ef8002e0090000000400020079800b34f80006b
:104f08002e009000c400de006045280000804000ac
:104f1800104178006105200083804000c09e200079
:104f280000804000024878000300e800b04f880085
:104f3800b34f80002e009000ef006000604528000d
:104f48000080400010417800610520008380400007
:104f5800c09e200000804000024878000300e8005e
:104f6800b04f88000000eb001007980023003700be
:104f7800b34f80001e007800104078000080fb00ce
:104f88004400de008080fb0060452800008040006f
:104f9800104178006105200083804000c09e2000f9
:104fa80000804000024878000300e800b04f880005
:104fb800b34f80001e007800104078000080fb008e
:104fc800ef00600060452800008040001041780034
:104fd8006105200083804000c09e200000804000c2
:104fe800024878000300e800b04f88001e009000d7
:104ff8000000e800100798001e0fe900ae009000be
:105008001e009000808f5000d9ff3e00b04f8000f6
:1050180080c0e80020a4200073fb0700b04f800088
:105028000000e9000000d1008040780020a820009e
:1050380013fb0700b24f8000e39f200093417800e4
:105048006105200082804000c09e20000080400052
:10505800034878000200e800b04f8800b24f800093
:10506800f39f200093417800610520008280400072
:10507800c09e200000804000034878000200e8003d
:10508800b04f8800b24f8000610520008280400048
:10509800c09e200080804000d0c0b30080487800c7
:1050a8000200e800b04f8800b24f80006105200080
:1050b80082804000c09e200080804000a0c0b300d5
:1050c800804878000200e800b04f880020a4200043
:1050d800f0448800866ba8000040eb0000eab700a7
:1050e800b7fa0700f1448000114078000080fb0007
:1050f800d01088000100e800f0448800050037005f
:1051080020c0b300c3fb07000200370030c0b30063
:10511800c0fb07000080fa00000006000800fa0043
:1051280082cabf008080fb0060468000808f5000ec
:1051380081003a00a04f8000e80f50007e003a003e
:1051480061c0b30020a02000a5fa0700e19f20005d
:105158009140780008cabf0080cf500076003a001e
:10516800f19f20009140780009cabf0080cf50000d
:10517800010032007000370086cabf00304798002f
:1051880087cabf00204798001e0090000000e0007a
:10519800040032009e00900000f02f00808f500025
:1051a80063003a0084cabf005047980085cabf0010
:1051b800404798002e009000e30f500059003e0031
:1051c8009e00900000f02f00808f500003003a00ee
:1051d80010c0b30088ebb700020037000040eb00b6
:1051e80088ebb7002e009000300798003e00900032
:1051f800e10f5000130032003e009000e10f500014
:10520800040039003e009000e20f500019003200ff
:105218002300370088cbbf000004e0000400320000
:10522800c7c9bf000004a000c7e9b7001c003700c9
:10523800c7c9bf00e1cfb30001406000c7e9b700ac
:105248001700370088cbbf000004e00004003200dc
:10525800c7c9bf000014a000c7e9b7001000370095
:10526800c7c9bf00d1cfb30001406000c7e9b7008c
:105278000b00370088cbbf000004e00004003200b8
:10528800c7c9bf000024a000c7e9b7000400370061
:10529800c7c9bf00b1cfb30001406000c7e9b7007c
:1052a8000000eb00000f78000c0037009e0178002a
:1052b8001e007800f6004000c09e200000804000dc
:1052c800104178006105200083804000c09e2000c6
:1052d80000804000024878001e0fe800a04f8000c0
:1052e8009e0f5000f1ff3e00a04f8000b04f880095
:1052f80020a42000f0448800866ba8000040eb0042
:1053080000eab7002efa0700f14480001140780047
:105318000080fb00d01088000100e800f0448800fd
:105328000500370020c0b3003afb07000200370031
:1053380030c0b30037fb07000080fa000000060009
:105348000600fa0082cabf008080fb006046800029
:10535800808f500060013a00a04f8000f10f50008c
:105368005d013a00a04f8000650050000000d100a8
:105378008040780020a8200041fa0700e29f200022
:1053880012417800a04f800064005000f6004000f1
:10539800c09e20000080400010407800804f5100df
:1053a8004d013a00f29f200012417800a04f800082
:1053b80063005000f6004000c09e200000804000be
:1053c80010407800804f5100010032004201370040
:1053d80086cabf001047980087cabf00004f7800f0
:1053e8001e0078000000e000040032009e007800f3
:1053f80000f02f00808f500035013a0084cabf00aa
:105408003047980085cabf00204798001e009000ca
:105418000000e0002b013a009e00780000f02f0009
:10542800808f500003003a0010c0b30088ebb7002b
:10543800020037000040eb0088ebb7001e00900028
:10544800200798002e009000e10f50001300320052
:105458002e009000e10f5000040039002e0090004b
:10546800e20f5000190032002300370088cbbf003c
:105478000004e00004003200c7c9bf000004a00017
:10548800c7e9b7001c003700c7c9bf00e1cfb300a8
:1054980001406000c7e9b7001700370088cbbf009c
:1054a8000004e00004003200c7c9bf000014a000d7
:1054b800c7e9b70010003700c7c9bf00d1cfb30094
:1054c80001406000c7e9b7000b00370088cbbf0078
:1054d8000004e00004003200c7c9bf000024a00097
:1054e800c7e9b70004003700c7c9bf00b1cfb30090
:1054f80001406000c7e9b700b24f80006105200095
:1055080082804000c09e200080804000a0c3b3007d
:10551800804878000200e800b04f8800b34f800050
:1055280082cabf000080fb004400de008080fb00d0
:105538006045280000804000104178006105200087
:1055480083804000c09e2000008040000248780010
:105558000300e800b04f8800b34f800082cabf0044
:105568000080fb00ef0060006045280000804000dc
:10557800104178006105200083804000c09e200013
:1055880000804000024878000300e800b04f88001f
:10559800b34f800083cabf000080fb004400de00d8
:1055a8008080fb00604528000080400010417800a2
:1055b8006105200083804000c09e200000804000dc
:1055c800024878000300e800b04f8800b34f80001d
:1055d80083cabf000080fb00ef0060006045280020
:1055e8000080400010417800610520008380400061
:1055f800c09e200000804000024878000300e800b8
:10560800b04f8800b34f800084cabf000080fb0001
:105618004400de008080fb006045280000804000d8
:10562800104178006105200083804000c09e200062
:1056380000804000024878000300e800b04f88006e
:10564800b34f800084cabf000080fb00ef006000f9
:105658006045280000804000104178006105200066
:1056680083804000c09e20000080400002487800ef
:105678000300e800b04f8800b34f800085cabf0020
:105688000080fb004400de008080fb0060452800ad
:1056980000804000104178006105200083804000b0
:1056a800c09e200000804000024878000300e80007
:1056b800b04f8800b34f800085cabf000080fb0050
:1056c800ef0060006045280000804000104178002d
:1056d8006105200083804000c09e200000804000bb
:1056e800024878000300e800b04f8800b34f8000fc
:1056f80086cabf000080fb004400de008080fb00fb
:1057080060452800008040001041780061052000b5
:1057180083804000c09e200000804000024878003e
:105728000300e800b04f8800b34f800086cabf006e
:105738000080fb00ef00600060452800008040000a
:10574800104178006105200083804000c09e200041
:1057580000804000024878000300e800b04f88004d
:10576800b34f800087cabf000080fb004400de0002
:105778008080fb00604528000080400010417800d0
:105788006105200083804000c09e2000008040000a
:10579800024878000300e800b04f8800b34f80004b
:1057a80087cabf000080fb00ef006000604528004a
:1057b800008040001041780061052000838040008f
:1057c800c09e200000804000024878000300e800e6
:1057d800b04f8800b34f800088cabf000080fb002c
:1057e8004400de008080fb00604528000080400007
:1057f800104178006105200083804000c09e200091
:1058080000804000024878000300e800b04f88009c
:10581800b34f800088cabf000080fb00ef00600023
:105828006045280000804000104178006105200094
:1058380083804000c09e200000804000024878001d
:105848000300e800b04f8800b24f800061052000d7
:1058580082804000c09e200080804000d0c0b300fd
:10586800804878000200e800b04f8800b24f8000fe
:105878006105200082804000c09e2000808040009a
:10588800a0c0b300804878000200e800b04f88004c
:1058980020a42000f0448800866ba8000040eb009c
:1058a80000eab700c6f80700f1448000114078000c
:1058b8000080fb00d01088000100e800f044880058
:1058c8000500370020c0b300d2f9070002003700f6
:1058d80030c0b300cff907000080fa0000000600ce
:1058e8000600fa0082cabf008080fb006046800084
:1058f800808f50000300320082cabf000004e0001d
:105908009f003a00a04f8000e80f50009c003a002a
:10591800a04f800080c0e90020a82000b0f8070050
:10592800e29f200012417800a04f80000080e9002b
:10593800f6004000c09e2000008040001040780023
:10594800804f51008e003a00f29f200012417800eb
:10595800a04f80000000e900f6004000c09e200033
:105968000080400010407800804f51000100320054
:105978008300370084cabf005047980085cabf001b
:10598800404798002e009000e50f50007a003e0036
:1059980086cabf003047980087cabf0020479800d2
:1059a80086aba9001e009000800078002e009000b1
:1059b80044f907000004e0006c0032001e0090006b
:1059c800800078002e00900071f9070082cabf009d
:1059d8008080fb0060468000808f500068003a009d
:1059e8000000eb00b04f8800b24f80006046800096
:1059f800804178006105200082804000c09e200020
:105a080000804000034878000200e800b04f88009a
:105a1800b24f800033a82000934178006105200030
:105a280082804000c09e200000804000034878002b
:105a38000200e800b04f8800b24f800043a8200061
:105a4800934178006105200082804000c09e2000bc
:105a580000804000034878000200e800b04f88004a
:105a6800b24f800053a820009341780061052000c0
:105a780082804000c09e20000080400003487800db
