:020000040000fa
:080000000001040000000000f3
:020000040000fa
:100200000fc6200000ff2000000188000000000051
:100210000c000700a0322700010020001100070099
:10022000000020000000e000020032000000020098
:1002300000000000a26c0200000000000040da0094
:100240000000fe004440a900e02c20000000e00077
:100250000300320000002000a00188004440a800f4
:100260000000060091018800800078000000eb008b
:1002700015003700e280400032a0b4009101ba00be
:10028000e280400032a0b4009102ba00e280400057
:1002900032a0b4000002eb00472bde00f507b200ed
:1002a000602ce10004003a000059eb008301e900f2
:1002b000fdff3e00040037006128e100010032002c
:1002c0000082eb00040007001101ba000200e00008
:1002d000e8ff3a00000006003159ba008301e90046
:1002e0000c0032002159ba008301e90008003200f5
:1002f0000400e00003003a00e280400032a0b400b5
:10030000f5ff370011d9ba008301e900faff3a007e
:100310008100e800e180400032a0b4000000060047
:1003200000000000000000000000000000000000cd
:1003300000000000000000000000000000000000bd
:1003400000000000000000000000000000000000ad
:10035000000000000000000000000000000000009d
:10036000000000000000000000000000000000008d
:10037000000000000000000000000000000000007d
:10038000000000000000000000000000000000006d
:10039000000000000000000000000000000000005d
:1003a000000000000000000000000000000000004d
:1003b000000000000000000000000000000000003d
:1003c000000000000000000000000000000000002d
:1003d000000000000000000000000000000000001d
:1003e000000000000000000000000000000000000d
:1003f00000000000000000000000000000000000fd
:1004000000000000000000000000000000000000ec
:1004100000000000000000000000000000000000dc
:1004200000000000000000000000000000000000cc
:1004300000000000000000000000000000000000bc
:1004400000000000000000000000000000000000ac
:10045000000000000000000000000000000000009c
:100460006022b800060220000000d0008180d20087
:100470000482d2008582d2000000a0000202520055
:1004800083825a00030031000202420083824a0044
:100490000000a1000603e900f3ff3a000000060097
:0c04a000efff07000400be000000060093
:020000040000fa
:0200000401f009
:04000000f6ff000007
:020000040000fa
:0200000401f009
:04000400ff7f00007a
:020000040000fa
:0200000401f009
:04000800ec7f000089
:020000040000fa
:1000080094730000947300009473000094730000cc
:1000180094730000947300009473000094730000bc
:10002800e06d00009473000094730000ac6e000053
:100038009473000094730000f66e00007c6f00005b
:10004800947300009473000094730000947300008c
:10005800947300009473000094730000947300007c
:10006800947300009473000094730000947300006c
:1000780094730000626e0000947300009473000093
:10008800206e0000326f000094730000947300002b
:10009800947300009473000094730000947300003c
:1000a800947300009473000094730000947300002c
:1000b800947300009473000094730000947300001c
:1000c800947300009473000094730000947300000c
:1000d80094730000947300009473000094730000fc
:1000e80094730000947300009473000094730000ec
:0800f8009473000094730000f2
:020000040000fa
:1001080094730000947300009473000094730000cb
:1001180094730000947300009473000094730000bb
:10012800e06d00009473000094730000ac6e000052
:100138009473000094730000f66e00007c6f00005a
:10014800947300009473000094730000947300008b
:10015800947300009473000094730000947300007b
:10016800947300009473000094730000947300006b
:1001780094730000626e0000947300009473000092
:10018800206e0000326f000094730000947300002a
:10019800947300009473000094730000947300003b
:1001a800947300009473000094730000947300002b
:1001b800947300009473000094730000947300001b
:1001c800947300009473000094730000947300000b
:1001d80094730000947300009473000094730000fb
:1001e80094730000947300009473000094730000eb
:0801f8009473000094730000f1
:020000040000fa
:1004ac0000c100008140000001c00000804100003c
:1004bc0001c000008041000000c10000814000002c
:1004cc0001c000008041000000c10000814000001c
:1004dc0000c100008140000001c00000804100000c
:1004ec0001c000008041000000c1000081400000fc
:1004fc0000c100008140000001c0000080410000ec
:10050c0000c100008140000001c0000080410000db
:10051c0001c000008041000000c1000081400000cb
:10052c0001c000008041000000c1000081400000bb
:10053c0000c100008140000001c0000080410000ab
:10054c0000c100008140000001c00000804100009b
:10055c0001c000008041000000c10000814000008b
:10056c0000c100008140000001c00000804100007b
:10057c0001c000008041000000c10000814000006b
:10058c0001c000008041000000c10000814000005b
:10059c0000c100008140000001c00000804100004b
:1005ac0001c000008041000000c10000814000003b
:1005bc0000c100008140000001c00000804100002b
:1005cc0000c100008140000001c00000804100001b
:1005dc0001c000008041000000c10000814000000b
:1005ec0000c100008140000001c0000080410000fb
:1005fc0001c000008041000000c1000081400000eb
:10060c0001c000008041000000c1000081400000da
:10061c0000c100008140000001c0000080410000ca
:10062c0000c100008140000001c0000080410000ba
:10063c0001c000008041000000c1000081400000aa
:10064c0001c000008041000000c10000814000009a
:10065c0000c100008140000001c00000804100008a
:10066c0001c000008041000000c10000814000007a
:10067c0000c100008140000001c00000804100006a
:10068c0000c100008140000001c00000804100005a
:10069c0001c000008041000000c10000814000004a
:1006ac0000c00000c1010000c303000002c2000032
:1006bc00c606000007c7000005c50000c404000002
:1006cc00cc0c00000dcd00000fcf0000ce0e0000b2
:1006dc000aca0000cb0b0000c909000008c80000c2
:1006ec00d818000019d900001bdb0000da1a000032
:1006fc001ede0000df1f0000dd1d00001cdc000002
:10070c0014d40000d5150000d717000016d6000031
:10071c00d212000013d3000011d10000d010000041
:10072c00f030000031f1000033f30000f232000031
:10073c0036f60000f7370000f535000034f4000001
:10074c003cfc0000fd3d0000ff3f00003efe0000b1
:10075c00fa3a00003bfb000039f90000f8380000c1
:10076c0028e80000e9290000eb2b00002aea000031
:10077c00ee2e00002fef00002ded0000ec2c000001
:10078c00e424000025e5000027e70000e626000031
:10079c0022e20000e3230000e121000020e0000041
:1007ac00a060000061a1000063a30000a262000031
:1007bc0066a60000a7670000a565000064a4000001
:1007cc006cac0000ad6d0000af6f00006eae0000b1
:1007dc00aa6a00006bab000069a90000a8680000c1
:1007ec0078b80000b9790000bb7b00007aba000031
:1007fc00be7e00007fbf00007dbd0000bc7c000001
:10080c00b474000075b5000077b70000b676000030
:10081c0072b20000b3730000b171000070b0000040
:10082c005090000091510000935300005292000030
:10083c009656000057970000559500009454000000
:10084c009c5c00005d9d00005f9f00009e5e0000b0
:10085c005a9a00009b5b00009959000058980000c0
:10086c0088480000498900004b8b00008a4a000030
:10087c004e8e00008f4f00008d4d00004c8c000000
:10088c004484000085450000874700004686000030
:10089c008242000043830000418100008040000040
:1008ac0030310000323300003435000036370000a0
:1008bc003839000041420000434400004546000026
:1008cc000a00000000000000010000000000000011
:1008dc00000000000000000000000000000000000c
:1008ec0000000000000000000000000000000000fc
:1008fc000000000000000000640000000000000088
:10090c000a000000000000000100000000000000d0
:10091c0000000000000000000000000000000000cb
:10092c0000000000000000000000000000000000bb
:10093c00e80300000000000064000000000000005c
:10094c000a00000000000000010000000000000090
:10095c00000000000000000000000000000000008b
:10096c000000000000000000102700000000000044
:10097c00e80300000000000064000000000000001c
:10098c000a00000000000000010000000000000050
:10099c00000000000000000000000000000000004b
:1009ac00a0860000010000001027000000000000dd
:1009bc00e8030000000000006400000000000000dc
:1009cc000a00000000000000010000000000000010
:1009dc000000000000000000af0300009d97000025
:1009ec0033b60000be830000bfb70000bb3e000062
:1009fc00ac1f0000bcb8000010fa000082d9000047
:100a0c00cba300006b7b0000c2fb0000ebf30000eb
:100a1c003b7800009b790000710100003031000030
:100a2c00323300003435000036370000383900000e
:0c0a3c0041420000434400004546000019
:020000040000fa
:100a48000000fa0085cbbf00614060000004e000b0
:100a580015003200104080000000e80010408800b7
:100a68001140800010032000808f50000e003600d7
:100a78000000eb001040880083cbbf000004a200f8
:100a88006140600061406000614060006141600059
:100a980031b8200091407800e0cfb30000c060007a
:100aa8000240700083ebb7000080fa0000000600e7
:100ab8000400fa00004f78001147980012079800c8
:100ac8001e0090001e4878001e0090000000e800fc
:100ad800100798001e0090009e4090000148780082
:100ae8000080fa00000006000600fa00004f7800b7
:100af8001147980022479800230798002e0090007d
:100b08001e4878002e0090000000e800200798009a
:100b18002e0090009e409000014878002e00900022
:100b28000000e800200798002e009000ae409000da
:100b3800014878000080fa00000006000600fa006c
:100b4800004f7800114798002247980033479800d3
:100b5800240798002e0090001e4878002e00900070
:100b68000000e800200798002e0090009e409000aa
:100b7800014878002e0090000000e8002007980047
:100b88002e009000ae409000014878002e009000a2
:100b98000000e800200798002e009000be4090005a
:100ba800014878000080fa00000006000800fa00fa
:100bb800004f780011479800224798003347980063
:100bc80044479800350798003e0090001e4878007a
:100bd8003e0090000000e800300798003e009000ba
:100be8009e409000014878003e0090000000e80018
:100bf800300798003e009000ae4090000148780011
:100c08003e0090000000e800300798003e00900089
:100c1800be409000014878003e0090000000e800c7
:100c2800300798003e009000ce40900001487800c0
:100c38000080fa00000006000800fa00004f780063
:100c48001147980022479800334798004447980076
:100c580055479800360798003e0090001e487800d7
:100c68003e0090000000e800300798003e00900029
:100c78009e409000014878003e0090000000e80087
:100c8800300798003e009000ae4090000148780080
:100c98003e0090000000e800300798003e009000f9
:100ca800be409000014878003e0090000000e80037
:100cb800300798003e009000ce4090000148780030
:100cc8003e0090000000e800300798003e009000c9
:100cd800de409000014878000080fa00000006001d
:100ce8001200fa0040079800214f98006207980008
:100cf8000040eb00204798004e009000000f78005d
:100d08001e00e00003003d0010c0b300204798001b
:100d18001e0fea001e007800cf80de003223840018
:100d280043238400ccfd0700a2002000030020001c
:100d3800d9fd07008040780063004700014878002b
:100d48001e007800cf80de005223840063238400d5
:100d5800c1fd0700a200200003002000cefd07000f
:100d68008040780063004700114098002e489000aa
:100d7800e14f500013003a0063004700104078002c
:100d88000004e0000a0032006300470010407800c9
:100d98008080fb00204f28000080400090407800b1
:100da80000c4b30080c070000157980002003700eb
:100db800f1ceb300015798000e50900010579800dc
:100dc8001d0037002e489000e14f50000800360003
:100dd80063004700104078008080fb00204f280007
:100de8000080400010407800704f980010003700d5
:100df80063004700104078000004e000080032005b
:100e080063004700104078008080fb00204f2800d6
:100e18000080400010407800604f980002003700c2
:100e28008040eb00614f98006e489000704f98002a
:100e3800fe489000115798006e0090009e50900058
:100e4800014878006e0090000000e80060079800f4
:100e580063004700104090008080fb00204f28006e
:100e680000804000904078006e00900001487800b3
:100e78000080fa00000006001a00fa0040079800f7
:100e8800214f9800620798000040eb002047980027
:100e98004e009000000f78001e00e00003003d00a7
:100ea80010c0b300204798001e0fea001e0078000b
:100eb800cf80de00122484002324840066fd07000e
:100ec800a20020000300200073fd07008040780086
:100ed80063004700014878001e007800cf80de00dc
:100ee80032248400432484005bfd0700a200200014
:100ef8000300200068fd0700804078006300470079
:100f0800114098001e007800cf80de005224840033
:100f18006324840050fd0700a20020000300200085
:100f28005dfd07008040780063004700214098007d
:100f38002e4090000004e0003a003a002e4890004d
:100f4800e24f500013003a00630047001040780059
:100f58000004e0000a0032006300470010407800f7
:100f68008080fb00204f28000080400090407800df
:100f780000c4b30080c07000015f98000200370011
:100f8800f1ceb300015f98000e589000105f9800f2
:100f98001d0037002e489000e24f50000800360030
:100fa80063004700104078008080fb00204f280035
:100fb80000804000104078007057980010003700fb
:100fc80063004700104078000004e0000800320089
:100fd80063004700104078008080fb00204f280005
:100fe80000804000104078006057980002003700e9
:100ff8008040eb00615798006e5090007057980041
:10100800fe509000115f98006e0090009e5890006e
:10101800014878006e0090000000e8006007980022
:101028003b0037002e489000e24f500013003a0072
:1010380063004700104078000004e0000a00320016
:1010480063004700104078008080fb00204f280094
:10105800008040009040780000c5b30080c0700058
:10106800415798000200370000c5b3004057980068
:10107800ce509000515798001f0037002e4890001e
:10108800e24f500008003600630047001040780027
:101098008080fb00204f280000804000104078002e
:1010a800305798001200370063004700104078005e
:1010b8000004e0000a003200630047001040780096
:1010c8008080fb00204f28000080400010407800fe
:1010d800804078000144a0002157980002003700a2
:1010e80000c1b30020579800ae50900031579800c7
:1010f8003e509000505798006e009000de509000cf
:10110800014878006e0090000000e8006007980031
:101118002e489000e14f500013003a00630047004a
:10112800104090000004e0000a003200630047000d
:10113800104090008080fb00204f28000080400075
:101148009040780000c4b30080c070000157980038
:1011580002003700f0ceb300005798008e50900080
:1011680011579800210037002e489000e14f500099
:101178000800360063004700204090008080fb0094
:10118800204f28000080400010407800704f9800e1
:101198001400370063004700104078000004e000a6
:1011a80004003a0063004700104090000004e0008b
:1011b8000800320063004700104090008080fb0068
:1011c800204f28000080400010407800604f9800b1
:1011d800020037000040eb00604f9800ee48900096
:1011e800714f98007e489000105798006e0090004c
:1011f8009e509000014878006e0090000000e800c2
:101208006007980063004700204090008080fb0042
:10121800204f280000804000904078006e00900029
:10122800014878000080fa00000006001e00fa005d
:1012380040079800214f9800620798000040eb0093
:10124800204798004e009000000f78001e00e00034
:1012580003003d0010c0b300204798001e0fea00ad
:101268001e007800cf80de00f2248400032584006d
:1012780079fc0700a20020000300200086fc07007c
:101288008040780063004700014878001e0078001d
:10129800cf80de0012258400232584006efc070021
:1012a800a2002000030020007bfc0700804078009b
:1012b80063004700114098001e007800cf80de00d0
:1012c800322584004325840063fc0700a200200027
:1012d8000300200070fc070080407800630047008e
:1012e800214098001e007800cf80de00522584003f
:1012f8006325840058fc0700a2002000030020009a
:1013080065fc070080407800630047003140980082
:101318002e4090000004e0003a003a002e48900069
:10132800e34f500013003a00630047001040780074
:101338000004e0000a003200630047001040780013
:101348008080fb00204f28000080400090407800fb
:1013580000c4b30080c07000415f980002003700ed
:10136800f1ceb300415f98004e589000505f98004e
:101378001d0037002e489000e34f5000080036004b
:1013880063004700104078008080fb00204f280051
:101398000080400010407800305f9800100037004f
:1013a80063004700104078000004e00008003200a5
:1013b80063004700104078008080fb00204f280021
:1013c8000080400010407800205f9800020037003d
:1013d8008040eb00215f98002e589000305f980005
:1013e800be589000515f98006e009000de58900043
:1013f800014878006e0090000000e800600798003f
:101408003b0037002e489000e34f500013003a008d
:1014180063004700104078000004e0000a00320032
:1014280063004700104078008080fb00204f2800b0
:10143800008040009040780000c5b30080c0700074
:10144800015f98000200370000c5b300005f9800f4
:101458008e589000115f98001f0037002e489000aa
:10146800e34f500008003600630047001040780042
:101478008080fb00204f280000804000104078004a
:10148800705798001200370063004700104078003a
:101498000004e0000a0032006300470010407800b2
:1014a8008080fb00204f280000804000104078001a
:1014b800804078000144a00061579800020037007e
:1014c80000c1b30060579800ee5090007157980023
:1014d8007e509000105f98006e0090009e5890001b
:1014e800014878006e0090000000e800600798004e
:1014f8002e489000e24f500013003a006300470066
:10150800104090000004e0000a0032006300470029
:10151800104090008080fb00204f28000080400091
:101528009040780000c4b30080c070004157980014
:1015380002003700f0ceb30040579800ce5090001c
:1015480051579800210037002e489000e24f500074
:101558000800360063004700104090008080fb00c0
:10156800204f280000804000104078003057980035
:101578001400370063004700104078000004e000c2
:1015880004003a0063004700104090000004e000a7
:101598000800320063004700104090008080fb0084
:1015a800204f280000804000104078002057980005
:1015b800020037000040eb0020579800ae50900022
:1015c800315798003e509000505798006e00900098
:1015d800de509000014878006e0090000000e8009e
:1015e800600798002e489000e14f500013003a0021
:1015f80063004700204090000004e0000a00320029
:1016080063004700204090008080fb00204f2800a6
:10161800008040009040780000c4b30080c0700093
:101628000157980002003700f0ceb3000057980029
:101638008e50900011579800250037002e489000d2
:10164800e14f50000800360063004700204090003a
:101658008080fb00204f2800008040001040780068
:10166800704f98001800370063004700104078005a
:101678000004e00008003a006300470010409000b2
:101688000004e00004003a00630047002040900096
:101698000004e0000800320063004700204090008a
:1016a8008080fb00204f2800008040001040780018
:1016b800604f9800020037000040eb00604f980030
:1016c800ee489000714f98007e489000105798009f
:1016d8006e0090009e509000014878006e009000c7
:1016e8000000e80060079800630047003040900061
:1016f8008080fb00204f2800008040009040780048
:101708006e009000014878000080fa000000060092
:101718002800fa006007980071079800025798009f
:10172800130f98000040eb00404798006e009000af
:10173800fe009000008fbe001e00be00e00f5000ab
:10174800e08f580006003d0010c0b30040479800e5
:101758001e00be0060001000e0801800008fbe0070
:101768001e00be00d2258400e32584003afb070052
:10177800a20020000300200047fb070080407800fb
:1017880065004700014878001e00be00f22584006d
:101798000326840030fb0700a2002000030020007d
:1017a8003dfb070080407800650047001140980025
:1017b8001e00be00122684002326840026fb070094
:1017c800a20020000300200033fb070080407800bf
:1017d80065004700214098001e00be0032268400a4
:1017e800432684001cfb0700a20020000300200001
:1017f80029fb0700804078006500470031409800c9
:101808001e00be00522684006326840012fb0700d7
:10181800a2002000030020001ffb07008040780082
:1018280065004700414098004e4090000004e000e9
:101838003a003a000e509000e44f500013003a006e
:1018480065004700104078000004e0000a003200fc
:1018580065004700104078008080fb00204f28007a
:10186800008040009040780000c4b30080c0700041
:101878006167980002003700f1ceb30061679800f5
:101888006e609000706798001d0037000e50900041
:10189800e44f50000800360065004700104078000b
:1018a8008080fb00204f2800008040001040780016
:1018b8005067980010003700650047001040780016
:1018c8000004e0000800320065004700104078007e
:1018d8008080fb00204f28000080400010407800e6
:1018e80040679800020037008040eb00416798008d
:1018f8004e60900050679800de6090007167980015
:101908001e089000fe609000014878001e089000b4
:101918000000e800100f98003d0037000e509000be
:10192800e44f500013003a0065004700104078006b
:101938000004e0000a00320065004700104078000b
:101948008080fb00204f28000080400090407800f5
:1019580000c5b30080c070002167980002003700fe
:1019680000c5b30020679800ae609000316798000a
:10197800210037000e509000e44f50000a00360056
:1019880065004700104078008080fb00204f280049
:101998000080400010407800804078000144a0009a
:1019a8001167980012003700650047001040780062
:1019b8000004e0000a00320065004700104078008b
:1019c8008080fb00204f28000080400010407800f5
:1019d800804078000144a0000167980002003700a9
:1019e80000c1b300006798008e60900011679800ee
:1019f8001e609000306798001e089000be6090003e
:101a0800014878001e0890000000e800100f9800b8
:101a18000e509000e34f500013003a006500470055
:101a2800104090000004e0000a0032006500470002
:101a3800104090008080fb00204f2800008040006c
:101a48009040780000c4b30080c07000615f9800c7
:101a580002003700f0ceb300605f9800ee589000a7
:101a6800715f9800210037000e509000e34f50003e
:101a78000800360065004700104090008080fb0099
:101a8800204f28000080400010407800505f9800e8
:101a98001400370065004700104078000004e0009b
:101aa80004003a0065004700104090000004e00080
:101ab8000800320065004700104090008080fb005d
:101ac800204f28000080400010407800405f9800b8
:101ad800020037000040eb00405f9800ce589000ad
:101ae800515f98005e589000705f98001e08900043
:101af800fe589000014878001e0890000000e80099
:101b0800100f98000e509000e24f500013003a005a
:101b180065004700204090000004e0000a00320001
:101b280065004700204090008080fb00204f28007f
:101b3800008040009040780000c4b30080c070006e
:101b4800215f980002003700f0ceb300205f9800b4
:101b5800ae589000315f9800250037000e50900075
:101b6800e24f500008003600650047002040900012
:101b78008080fb00204f2800008040001040780043
:101b8800105f980018003700650047001040780083
:101b98000004e00008003a0065004700104090008b
:101ba8000004e00004003a0065004700204090006f
:101bb8000004e00008003200650047002040900063
:101bc8008080fb00204f28000080400010407800f3
:101bd800005f9800020037000040eb00005f9800ab
:101be8008e589000115f98001e589000305f980042
:101bf8001e089000be589000014878001e0890000a
:101c08000000e800100f98000e509000e14f5000bf
:101c180013003a0065004700304090000004e000df
:101c28000a00320065004700304090008080fb00c9
:101c3800204f2800008040009040780000c4b30086
:101c480080c070006157980002003700f0ceb300e2
:101c580060579800ee50900071579800290037009f
:101c68000e509000e14f5000080036006500470014
:101c7800304090008080fb00204f2800008040000a
:101c880010407800505798001c0037006500470046
:101c9800104078000004e0000c003a00650047009e
:101ca800104090000004e00008003a00650047007a
:101cb800204090000004e00004003a00650047005e
:101cc800304090000004e000080032006500470042
:101cd800304090008080fb00204f280000804000aa
:101ce8001040780040579800020037000040eb0091
:101cf80040579800ce509000515798005e50900081
:101d0800705798001e089000fe5090000148780017
:101d18001e0890000000e800100f980065004700ba
:101d2800404090008080fb00204f28000080400049
:101d3800904078001e089000014878000080fa0062
:101d4800000006002c00fa00600798007107980050
:101d580002579800130f98000040eb004047980086
:101d68006e009000fe009000008fbe001e00be00b6
:101d7800e00f5000e08f580006003d0010c0b3008f
:101d8800404798001e00be0060001000e080180068
:101d9800008fbe001e00be00b2268400c326840049
:101da800adf90700a200200003002000baf90700df
:101db8008040780065004700014878001e00be009a
:101dc800d2268400e3268400a3f90700a20020009d
:101dd80003002000b0f90700804078006500470044
:101de800114098001e00be00f226840003278400dc
:101df80099f90700a200200003002000a6f90700b7
:101e08008040780065004700214098001e00be0011
:101e180012278400232784008ff90700a2002000de
:101e2800030020009cf90700804078006500470007
:101e3800314098001e00be003227840043278400ea
:101e480085f90700a20020000300200092f907008e
:101e58008040780065004700414098001e00be00a1
:101e680052278400632784007bf90700a200200022
:101e78000300200088f907008040780065004700cb
:101e8800514098004e4090000004e0003a003a00ab
:101e98000e509000e54f500013003a0065004700cf
:101ea800104078000004e0000a0032006500470096
:101eb800104078008080fb00204f28000080400000
:101ec8009040780000c4b30080c07000216f980073
:101ed80002003700f1ceb300216f98002e68900001
:101ee800306f98001d0037000e509000e54f5000ed
:101ef8000800360065004700104078008080fb002d
:101f0800204f28000080400010407800106f980093
:101f18001000370065004700104078000004e0001a
:101f28000800320065004700104078008080fb0000
:101f3800204f28000080400010407800006f980073
:101f4800020037008040eb00016f98000e68900097
:101f5800106f98009e689000316f98001e089000de
:101f6800be689000014878001e0890000000e80054
:101f7800100f98003d0037000e509000e54f5000bc
:101f880013003a0065004700104078000004e000a4
:101f98000a00320065004700104078008080fb008e
:101fa800204f2800008040009040780000c5b30012
:101fb80080c07000616798000200370000c5b30058
:101fc80060679800ee609000716798002100370004
:101fd8000e509000e54f50000a003600650047009b
:101fe800104078008080fb00204f280000804000cf
:101ff80010407800804078000144a00051679800a4
:102008001200370065004700104078000004e00027
:102018000a00320065004700104078008080fb000d
:10202800204f280000804000104078008040780051
:102038000144a000416798000200370000c1b300c6
:1020480040679800ce609000516798005e609000ed
:10205800706798001e089000fe60900001487800a4
:102068001e0890000000e800100f98000e50900025
:10207800e44f500013003a006500470010409000fc
:102088000004e0000a00320065004700104090009c
:102098008080fb00204f280000804000904078009e
:1020a80000c4b30080c070002167980002003700a8
:1020b800f0ceb30020679800ae60900031679800ba
:1020c800210037000e509000e44f50000800360001
:1020d80065004700104090008080fb00204f2800da
:1020e8000080400010407800106798001400370006
:1020f80065004700104078000004e00004003a0042
:1021080065004700104090000004e000080032001d
:1021180065004700104090008080fb00204f280099
:1021280000804000104078000067980002003700e7
:102138000040eb00006798008e60900011679800df
:102148001e609000306798001e089000be609000e6
:10215800014878001e0890000000e800100f980061
:102168000e509000e34f500013003a0065004700fe
:10217800204090000004e0000a003200650047009b
:10218800204090008080fb00204f28000080400005
:102198009040780000c4b30080c07000615f980070
:1021a80002003700f0ceb300605f9800ee58900050
:1021b800715f9800250037000e509000e34f5000e3
:1021c8000800360065004700204090008080fb0032
:1021d800204f28000080400010407800505f980091
:1021e8001800370065004700104078000004e00040
:1021f80008003a0065004700104090000004e00025
:1022080004003a0065004700204090000004e00008
:102218000800320065004700204090008080fb00e5
:10222800204f28000080400010407800405f980050
:10223800020037000040eb00405f9800ce58900045
:10224800515f98005e589000705f98001e089000db
:10225800fe589000014878001e0890000000e80031
:10226800100f98000e509000e24f500013003a00f3
:1022780065004700304090000004e0000a0032008a
:1022880065004700304090008080fb00204f280008
:10229800008040009040780000c4b30080c0700007
:1022a800215f980002003700f0ceb300205f98004d
:1022b800ae589000315f9800290037000e5090000a
:1022c800e24f50000800360065004700304090009b
:1022d8008080fb00204f28000080400010407800dc
:1022e800105f98001c003700650047001040780018
:1022f8000004e0000c003a00650047001040900020
:102308000004e00008003a00650047002040900003
:102318000004e00004003a006500470030409000e7
:102328000004e000080032006500470030409000db
:102338008080fb00204f280000804000104078007b
:10234800005f9800020037000040eb00005f980033
:102358008e589000115f98001e589000305f9800ca
:102368001e089000be589000014878001e08900092
:102378000000e800100f98000e509000e14f500048
:1023880013003a0065004700404090000004e00058
:102398000a00320065004700404090008080fb0042
:1023a800204f2800008040009040780000c4b3000f
:1023b80080c070006157980002003700f0ceb3006b
:1023c80060579800ee509000715798002d00370024
:1023d8000e509000e14f500008003600650047009d
:1023e800404090008080fb00204f28000080400083
:1023f80010407800505798002000370065004700cb
:10240800104078000004e00010003a006500470022
:10241800104090000004e0000c003a0065004700fe
:10242800204090000004e00008003a0065004700e2
:10243800304090000004e00004003a0065004700c6
:10244800404090000004e0000800320065004700aa
:10245800404090008080fb00204f28000080400012
:102468001040780040579800020037000040eb0009
:1024780040579800ce509000515798005e509000f9
:10248800705798001e089000fe5090000148780090
:102498001e0890000000e800100f98006500470033
:1024a800504090008080fb00204f280000804000b2
:1024b800904078001e089000014878000080fa00db
:1024c800000006001400fa00404f980071079800b9
:1024d80082cbbf000080fb004700de004047980029
:1024e800c1882000914078006500470001487800c5
:1024f800d18820009140780065004700114098007d
:102508004e489000e14f500013003a006500470024
:10251800104078000004e0000a003200650047001f
:10252800104078008080fb00204f28000080400089
:102538009040780000c4b30080c070002157980014
:1025480002003700f0ceb30020579800ae5090003c
:10255800315798001d0037004e489000e14f500059
:102568000800360065004700104078008080fb00b6
:10257800204f280000804000104078001057980035
:102588001000370065004700104078000004e000a4
:102598000800320065004700104078008080fb008a
:1025a800204f280000804000104078000057980015
:1025b800020037000040eb00005798008e50900052
:1025c800115798001e509000305798007e009000d8
:1025d800be509000014878007e0090000000e8009e
:1025e8007007980065004700104090008080fb004d
:1025f800204f280000804000904078007e00900026
:10260800014878000080fa00000006001c00fa006b
:10261800404f98007107980082cbbf000080fb00f4
:102628004700de0040479800c188200091407800ac
:102638006500470001487800d18820009140780063
:102648006500470011409800e1882000914078001b
:1026580065004700214098004e4090000004e000cb
:102668003a003a004e489000e24f500013003a00fa
:1026780065004700104078000004e0000a003200be
:1026880065004700104078008080fb00204f28003c
:10269800008040009040780000c4b30080c0700003
:1026a800215f980002003700f0ceb300205f980049
:1026b800ae589000315f98001d0037004e489000da
:1026c800e24f5000080036006500470010407800cf
:1026d8008080fb00204f28000080400010407800d8
:1026e800105f980010003700650047001040780020
:1026f8000004e00008003200650047001040780040
:102708008080fb00204f28000080400010407800a7
:10271800005f9800020037000040eb00005f98005f
:102728008e589000115f98001e589000305f9800f6
:102738007e009000be589000014878007e0090000e
:102748000000e800700798003d0037004e489000f0
:10275800e24f500013003a0065004700104078002f
:102768000004e0000a0032006500470010407800cd
:102778008080fb00204f28000080400090407800b7
:1027880000c5b30080c07000615798000200370090
:1027980000c5b30060579800ee509000715798003c
:1027a800210037004e489000e24f50000a003600e2
:1027b80065004700104078008080fb00204f28000b
:1027c8000080400010407800804078000144a0005c
:1027d80051579800120037006500470010407800f4
:1027e8000004e0000a00320065004700104078004d
:1027f8008080fb00204f28000080400010407800b7
:10280800804078000144a00041579800020037003a
:1028180000c1b30040579800ce509000515798001f
:102828005e509000705798007e009000fe50900017
:10283800014878007e0090000000e80070079800ca
:102848004e489000e14f500013003a0065004700e1
:10285800104090000004e0000a00320065004700c4
:10286800104090008080fb00204f2800008040002e
:102878009040780000c4b30080c0700021579800d1
:1028880002003700f0ceb30020579800ae509000f9
:1028980031579800210037004e489000e14f500012
:1028a8000800360065004700104090008080fb005b
:1028b800204f2800008040001040780010579800f2
:1028c8001400370065004700104078000004e0005d
:1028d80004003a0065004700104090000004e00042
:1028e8000800320065004700104090008080fb001f
:1028f800204f2800008040001040780000579800c2
:10290800020037000040eb00005798008e509000fe
:10291800115798001e509000305798007e00900084
:10292800be509000014878007e0090000000e8004a
:102938007007980065004700304090008080fb00d9
:10294800204f280000804000904078007e009000d2
:10295800014878000080fa00000006002000fa0014
:10296800404f98007107980082cbbf000080fb00a1
:102978004700de0040479800c18820009140780059
:102988006500470001487800d18820009140780010
:102998006500470011409800e188200091407800c8
:1029a8006500470021409800f18820009140780098
:1029b80065004700314098004e4090000004e00058
:1029c8003a003a004e489000e34f500013003a0096
:1029d80065004700104078000004e0000a0032005b
:1029e80065004700104078008080fb00204f2800d9
:1029f800008040009040780000c4b30080c07000a0
:102a0800615f980002003700f0ceb300605f980065
:102a1800ee589000715f98001d0037004e489000f6
:102a2800e34f50000800360065004700104078006a
:102a38008080fb00204f2800008040001040780074
:102a4800505f98001000370065004700104078007c
:102a58000004e000080032006500470010407800dc
:102a68008080fb00204f2800008040001040780044
:102a7800405f9800020037000040eb00405f98007c
:102a8800ce589000515f98005e589000705f980093
:102a98007e009000fe589000014878007e0090006b
:102aa8000000e800700798003d0037004e4890008d
:102ab800e34f500013003a006500470010407800cb
:102ac8000004e0000a00320065004700104078006a
:102ad8008080fb00204f2800008040009040780054
:102ae80000c5b30080c07000215f98000200370065
:102af80000c5b300205f9800ae589000315f980081
:102b0800210037004e489000e34f50000a0036007d
:102b180065004700104078008080fb00204f2800a7
:102b28000080400010407800804078000144a000f8
:102b3800115f9800120037006500470010407800c8
:102b48000004e0000a0032006500470010407800e9
:102b58008080fb00204f2800008040001040780053
:102b6800804078000144a000015f9800020037000f
:102b780000c1b300005f98008e589000115f980064
:102b88001e589000305f98007e009000be5890005c
:102b9800014878007e0090000000e8007007980067
:102ba8004e489000e24f500013003a00650047007d
:102bb800104090000004e0000a0032006500470061
:102bc800104090008080fb00204f280000804000cb
:102bd8009040780000c4b30080c07000615798002e
:102be80002003700f0ceb30060579800ee50900016
:102bf80071579800210037004e489000e24f50006e
:102c08000800360065004700104090008080fb00f7
:102c1800204f28000080400010407800505798004e
:102c28001400370065004700104078000004e000f9
:102c380004003a0065004700104090000004e000de
:102c48000800320065004700104090008080fb00bb
:102c5800204f28000080400010407800405798001e
:102c6800020037000040eb0040579800ce5090001b
:102c7800515798005e509000705798007e00900061
:102c8800fe509000014878007e0090000000e800a7
:102c9800700798004e489000e14f500013003a002a
:102ca80065004700204090000004e0000a00320060
:102cb80065004700204090008080fb00204f2800de
:102cc800008040009040780000c4b30080c07000cd
:102cd8002157980002003700f0ceb3002057980023
:102ce800ae50900031579800250037004e489000ac
:102cf800e14f500008003600650047002040900072
:102d08008080fb00204f28000080400010407800a1
:102d180010579800180037006500470010407800e9
:102d28000004e00008003a006500470010409000e9
:102d38000004e00004003a006500470020409000cd
:102d48000004e000080032006500470020409000c1
:102d58008080fb00204f2800008040001040780051
:102d680000579800020037000040eb000057980019
:102d78008e509000115798001e50900030579800c0
:102d88007e009000be509000014878007e009000c0
:102d98000000e80070079800650047003040900088
:102da8008080fb00204f2800008040009040780081
:102db8007e009000014878000080fa0000000600bc
:102dc8002400fa00404f98007107980082cbbf009a
:102dd8000080fb004700de0040479800c1882000c3
:102de800914078006500470001487800d1882000ac
:102df800914078006500470011409800e188200064
:102e0800914078006500470021409800f188200033
:102e18009140780065004700314098000189200002
:102e28009140780065004700414098004e4090006e
:102e38000004e0003a003a004e489000e44f500089
:102e480013003a0065004700104078000004e000d5
:102e58000a00320065004700104078008080fb00bf
:102e6800204f2800008040009040780000c4b30044
:102e780080c070002167980002003700f0ceb300d0
:102e880020679800ae609000316798001d003700f9
:102e98004e489000e44f5000080036006500470097
:102ea800104078008080fb00204f28000080400000
:102eb8001040780010679800100037006500470040
:102ec800104078000004e000080032006500470068
:102ed800104078008080fb00204f280000804000d0
:102ee8001040780000679800020037000040eb00af
:102ef800006798008e609000116798001e6090002f
:102f0800306798007e009000be609000014878000d
:102f18007e0090000000e800700798003d00370030
:102f28004e489000e44f500013003a0065004700f7
:102f3800104078000004e0000a00320065004700f5
:102f4800104078008080fb00204f2800008040005f
:102f58009040780000c5b30080c07000615f9800a1
:102f68000200370000c5b300605f9800ee5890007b
:102f7800715f9800210037004e489000e44f5000e0
:102f88000a00360065004700104078008080fb008a
:102f9800204f2800008040001040780080407800d2
:102fa8000144a000515f98001200370065004700f7
:102fb800104078000004e0000a0032006500470075
:102fc800104078008080fb00204f280000804000df
:102fd80010407800804078000144a000415f9800cc
:102fe8000200370000c1b300405f9800ce5890003f
:102ff800515f98005e589000705f98007e009000c6
:10300800fe589000014878007e0090000000e8001b
:10301800700798004e489000e34f500013003a00a4
:1030280065004700104090000004e0000a003200ec
:1030380065004700104090008080fb00204f28006a
:10304800008040009040780000c4b30080c0700049
:10305800215f980002003700f0ceb300205f98008f
:10306800ae589000315f9800210037004e4890001c
:10307800e34f5000080036006500470010409000fc
:103088008080fb00204f280000804000104078001e
:10309800105f980014003700650047001040780062
:1030a8000004e00004003a0065004700104090006a
:1030b8000004e0000800320065004700104090005e
:1030c8008080fb00204f28000080400010407800de
:1030d800005f9800020037000040eb00005f980096
:1030e8008e589000115f98001e589000305f98002d
:1030f8007e009000be589000014878007e00900045
:103108000000e800700798004e489000e24f500019
:1031180013003a0065004700204090000004e000da
:103128000a00320065004700204090008080fb00c4
:10313800204f2800008040009040780000c4b30071
:1031480080c070006157980002003700f0ceb300cd
:1031580060579800ee50900071579800250037008e
:103168004e489000e24f50000800360065004700c6
:10317800204090008080fb00204f28000080400005
:103188001040780050579800180037006500470035
:10319800104078000004e00008003a00650047008d
:1031a800104090000004e00004003a006500470069
:1031b800204090000004e00008003200650047004d
:1031c800204090008080fb00204f280000804000b5
:1031d8001040780040579800020037000040eb008c
:1031e80040579800ce509000515798005e5090007c
:1031f800705798007e009000fe50900001487800bb
:103208007e0090000000e800700798004e4890008b
:10321800e14f500013003a0065004700304090002d
:103228000004e0000a0032006500470030409000ca
:103238008080fb00204f28000080400090407800ec
:1032480000c4b30080c07000215798000200370006
:10325800f0ceb30020579800ae5090003157980038
:10326800290037004e489000e14f50000800360012
:1032780065004700304090008080fb00204f280008
:103288000080400010407800105798001c0037005c
:1032980065004700104078000004e0000c003a0088
:1032a80065004700104090000004e00008003a0064
:1032b80065004700204090000004e00004003a0048
:1032c80065004700304090000004e000080032002c
:1032d80065004700304090008080fb00204f2800a8
:1032e8000080400010407800005798000200370026
:1032f8000040eb00005798008e509000115798003e
:103308001e509000305798007e009000be509000ec
:10331800014878007e0090000000e80070079800df
:1033280065004700404090008080fb00204f280047
:1033380000804000904078007e00900001487800ae
:103348000080fa00000006002800fa00404f9800ac
:103358007107980082cbbf000080fb004700de00a9
:1033680040479800c18820009140780065004700d8
:1033780001487800d1882000914078006500470016
:1033880011409800e18820009140780065004700ce
:1033980021409800f188200091407800650047009e
:1033a800314098000189200091407800650047006d
:1033b800414098001189200091407800650047003d
:1033c800514098004e4090000004e0003a003a0056
:1033d8004e489000e54f500013003a006500470042
:1033e800104078000004e0000a0032006500470041
:1033f800104078008080fb00204f280000804000ab
:103408009040780000c4b30080c0700061679800e5
:1034180002003700f0ceb30060679800ee609000bd
:10342800716798001d0037004e489000e54f500026
:103438000800360065004700104078008080fb00d7
:10344800204f280000804000104078005067980006
:103458001000370065004700104078000004e000c5
:103468000800320065004700104078008080fb00ab
:10347800204f2800008040001040780040679800e6
:10348800020037000040eb0040679800ce609000d3
:10349800516798005e609000706798007e00900009
:1034a800fe609000014878007e0090000000e8006f
:1034b800700798003d0037004e489000e54f5000d7
:1034c80013003a0065004700104078000004e0004f
:1034d8000a00320065004700104078008080fb0039
:1034e800204f2800008040009040780000c5b300bd
:1034f80080c07000216798000200370000c5b30043
:1035080020679800ae60900031679800210037006e
:103518004e489000e54f50000a003600650047000d
:10352800104078008080fb00204f28000080400079
:1035380010407800804078000144a000116798008e
:103548001200370065004700104078000004e000d2
:103558000a00320065004700104078008080fb00b8
:10356800204f2800008040001040780080407800fc
:103578000144a000016798000200370000c1b300b1
:10358800006798008e609000116798001e60900098
:10359800306798007e009000be6090000148780077
:1035a8007e0090000000e800700798004e489000e8
:1035b800e44f500013003a006500470010409000a7
:1035c8000004e0000a003200650047001040900047
:1035d8008080fb00204f2800008040009040780049
:1035e80000c4b30080c07000615f9800020037001b
:1035f800f0ceb300605f9800ee589000715f9800bd
:10360800210037004e489000e44f50000800360073
:1036180065004700104090008080fb00204f280084
:103628000080400010407800505f98001400370078
:1036380065004700104078000004e00004003a00ec
:1036480065004700104090000004e00008003200c8
:1036580065004700104090008080fb00204f280044
:103668000080400010407800405f9800020037005a
:103678000040eb00405f9800ce589000515f9800e2
:103688005e589000705f98007e009000fe58900091
:10369800014878007e0090000000e800700798005c
:1036a8004e489000e34f500013003a006500470071
:1036b800204090000004e0000a0032006500470046
:1036c800204090008080fb00204f280000804000b0
:1036d8009040780000c4b30080c07000215f98005b
:1036e80002003700f0ceb300205f9800ae5890007b
:1036f800315f9800250037004e489000e34f500096
:103708000800360065004700204090008080fb00dc
:10371800204f28000080400010407800105f98007b
:103728001800370065004700104078000004e000ea
:1037380008003a0065004700104090000004e000cf
:1037480004003a0065004700204090000004e000b3
:103758000800320065004700204090008080fb0090
:10376800204f28000080400010407800005f98003b
:10377800020037000040eb00005f98008e58900070
:10378800115f98001e589000305f98007e009000ee
:10379800be589000014878007e0090000000e800c4
:1037a800700798004e489000e24f500013003a000e
:1037b80065004700304090000004e0000a00320035
:1037c80065004700304090008080fb00204f2800b3
:1037d800008040009040780000c4b30080c07000b2
:1037e8006157980002003700f0ceb3006057980088
:1037f800ee50900071579800290037004e4890000d
:10380800e24f500008003600650047003040900045
:103818008080fb00204f2800008040001040780086
:10382800505798001c00370065004700104078008a
:103838000004e0000c003a006500470010409000ca
:103848000004e00008003a006500470020409000ae
:103858000004e00004003a00650047003040900092
:103868000004e00008003200650047003040900086
:103878008080fb00204f2800008040001040780026
:1038880040579800020037000040eb00405798006e
:10389800ce509000515798005e5090007057980095
:1038a8007e009000fe509000014878007e00900055
:1038b8000000e800700798004e489000e14f500063
:1038c80013003a0065004700404090000004e00003
:1038d8000a00320065004700404090008080fb00ed
:1038e800204f2800008040009040780000c4b300ba
:1038f80080c070002157980002003700f0ceb30056
:1039080020579800ae509000315798002d0037008e
:103918004e489000e14f500008003600650047000f
:10392800404090008080fb00204f2800008040002d
:1039380010407800105798002000370065004700b5
:10394800104078000004e00010003a0065004700cd
:10395800104090000004e0000c003a0065004700a9
:10396800204090000004e00008003a00650047008d
:10397800304090000004e00004003a006500470071
:10398800404090000004e000080032006500470055
:10399800404090008080fb00204f280000804000bd
:1039a8001040780000579800020037000040eb00f4
:1039b800005798008e509000115798001e509000a4
:1039c800305798007e009000be5090000148780063
:1039d8007e0090000000e80070079800650047002e
:1039e800504090008080fb00204f2800008040005d
:1039f800904078007e009000014878000080fa002e
:103a0800000006000400fa000df4070086cbbf0092
:103a18000080fb000000d1006f4060000080fb00c8
:103a2800100798001e009000e10f500013003200ac
:103a38001e009000e10f500004003c001e009000a2
:103a48000000e000080032003e0037001e00900031
:103a5800e20f50000e0032001e009000e30f5000ed
:103a68001000320037003700a288200080c0eb0029
:103a780000c0eb000ef4070032003700a2882000d7
:103a88008040eb000040eb0009f407002d003700f0
:103a9800a2882000f1c1b30080c2b30004f407007b
:103aa8002800370040468000a200200011000900cd
:103ab8000200d8008000fd0080007800204f280018
:103ac8000080400010407800104798004046800071
:103ad800a2002000110009000200d800a200200066
:103ae800110009000200d8008000fd000000e0007d
:103af8000e00320040468000a2002000110009009c
:103b08000200d800a2002000110009000200d8001d
:103b18008000fd0080007800204f280000804000d1
:103b280010407800004f7800020037000040eb009a
:103b3800004f7800a28820009e4090001e40780028
:103b4800dbf307000080fa00000006000200fa001c
:103b580085cbbf00644060000004e00013003a0019
:103b6800a28820008040eb000040eb00d0f3070063
:103b780085cbbf00614060000004e00037003200e0
:103b8800104080000000e8001040880011408000cc
:103b980010032000808f5000300036000000eb003a
:103ba80010408800854ba8002c0037007046800024
:103bb800e10f500010003a0080468000a20020006b
:103bc800110009000200d800a2002000110009001d
:103bd8000200d8008000fd0080007800204f2800f7
:103be800008040009040780000c4b30080c070009e
:103bf800014f78000d00370080468000a2002000a9
:103c0800110009000200d800a200200011000900dc
:103c18000200d8008000fd0080007800204f2800b6
:103c28000080400010407800004f78001e40780067
:103c38008ae8b70080468000a20020001100090031
:103c48000200d8008000fd0080007800204f280086
:103c580000804000104078008be8b7000080fa0030
:103c6800000006000000fa000080fa0000000600cc
:103c78000000fa000080fa00000006000000fa00c8
:103c88000080fa00000006000000fa000080fa0038
:103c9800000006000000fa000080fa00000006009c
:103ca8000000fa0066f3070085cbbf00644060009f
:103cb8000004e00005003a00a2882000f1c1b3002a
:103cc800b0cbb3007af3070003003700a1882000c7
:103cd8000040eb00fbf9070083cbbf0061406000a8
:103ce8000004e00004003200a28820008040eb00bd
:103cf8000040eb006ef307000080fa0000000600a9
:103d08000000fa004ef3070085cbbf006440600056
:103d18000004e00005003a00a288200061cbb3004f
:103d2800e0c3b30062f3070003003700a188200056
:103d38000040eb00e3f9070083cbbf00614060005f
:103d48000004e00004003200a28820008040eb005c
:103d58000040eb0056f307000080fa000000060060
:103d68000000fa0036f3070085cbbf00644060000e
:103d78000004e00005003a00a2882000a1c8b300b2
:103d8800c0cab3004af3070003003700a188200027
:103d98000040eb00cbf9070083cbbf006140600017
:103da8000004e00004003200a28820008040eb00fc
:103db8000040eb003ef307000080fa000000060018
:103dc8000000fa000080fa00000006000000fa0077
:103dd8000080fa00000006000000fa000080fa00e7
:103de800000006000000fa00a288200001c1b3000c
:103df8000040eb002ef307000080fa0000000600e8
:103e08000000fa000ef3070070468000a188200029
:103e1800acf9070083cbbf00614060000004e000fc
:103e280004003200a28820008040eb000040eb0034
:103e38001ff307000080fa00000006000000fa00e7
:103e48000080fa00000006000000fa000080fa0076
:103e5800000006000000fa000080fa0000000600da
:103e68000000fa000080fa00000006000000fa00d6
:103e78000080fa00000006000000fa000080fa0046
:103e8800000006000000fa000080fa0000000600aa
:103e98000000fa000080fa00000006000000fa00a6
:103ea8000080fa00000006000000fa000080fa0016
:103eb800000006000000fa000080fa00000006007a
:103ec8000000fa000080fa00000006000000fa0076
:103ed8000080fa00000006000000fa000080fa00e6
:103ee800000006000000fa000080fa00000006004a
:103ef8000a00fa00004f78001e80fb006101b9003b
:103f08003207980043079800f001200001002000c4
:103f18003e019000ce019000800f5100818f590022
:103f280083003e003e009000ce009000006001003b
:103f38001f00370021003700230037002500370015
:103f480027003700290037002b0037002d003700e5
:103f58002f003700310037003300370035003700b5
:103f680037003700390037003b0037003d00370085
:103f78003f00370041003700430037004500370055
:103f880047003700490037004b0037004d00370025
:103f98004f003700510037005300370055003700f5
:103fa80057003700590037005b0037005d003700c5
:103fb80001102000110798005e0037002210200031
:103fc800120798005b003700431020001307980081
:103fd800580037006010200010079800550037007f
:103fe800811020001107980052003700a21020000d
:103ff800120798004f003700c310200013079800dd
:104008004c003700e01020001007980049003700e6
:1040180001112000110798004600370022112000e6
:104028001207980043003700431120001307980037
:104038004000370060112000100798003d0037004d
:1040480081112000110798003a003700a2112000c2
:104058001207980037003700c31120001307980093
:1040680034003700e01120001007980031003700b5
:1040780001122000110798002e003700221220009c
:10408800120798002b0037004312200013079800ee
:10409800280037006012200010079800250037001c
:1040a800811220001107980022003700a212200078
:1040b800120798001f003700c3122000130798004a
:1040c8001c003700e0122000100798001900370084
:1040d8000113200011079800160037002213200052
:1040e80012079800130037004313200013079800a5
:1040f8001000370060132000100798000d003700eb
:1041080081132000110798000a003700a21320002d
:104118001207980007003700c31320001307980000
:1041280004003700e0132000100798000100370052
:10413800020037009e009000210798002e00900092
:104148000080fa00000006000a00fa00004f78001c
:104158001e80fb006101b9003207980043079800f0
:10416800f0012000010020003e019000ce019000e7
:10417800800f5100818f590083003e003e0090005f
:10418800ce009000006001001f00370021003700ba
:1041980023003700250037002700370029003700a3
:1041a8002b0037002d0037002f0037003100370073
:1041b8003300370035003700370037003900370043
:1041c8003b0037003d0037003f0037004100370013
:1041d80043003700450037004700370049003700e3
:1041e8004b0037004d0037004f00370051003700b3
:1041f8005300370055003700570037005900370083
:104208005b0037005d00370001142000110798009b
:104218005e00370022142000120798005b00370068
:10422800431420001307980058003700601420003a
:1042380010079800550037008114200011079800d6
:1042480052003700a2142000120798004f003700d0
:10425800c3142000130798004c003700e014200016
:104268001007980049003700011520001107980031
:104278004600370022152000120798004300370037
:1042880043152000130798004000370060152000f0
:10429800100798003d00370081152000110798008d
:1042a8003a003700a215200012079800370037009f
:1042b800c31520001307980034003700e0152000cc
:1042c80010079800310037000116200011079800e8
:1042d8002e00370022162000120798002b00370006
:1042e80043162000130798002800370060162000a6
:1042f8001007980025003700811620001107980044
:1043080022003700a2162000120798001f0037006d
:10431800c3162000130798001c003700e016200081
:10432800100798001900370001172000110798009e
:1043380016003700221720001207980013003700d4
:10434800431720001307980010003700601720005b
:10435800100798000d0037008117200011079800fa
:104368000a003700a217200012079800070037003c
:10437800c31720001307980004003700e017200037
:104388001007980001003700020037009e009000d7
:10439800210798002e0090000080fa000000060017
:1043a8000200fa000040eb00004f78000a003700d6
:1043b8001e01fb001e00fb008000e800c0882000f2
:1043c8000080400090407800c08820000000410034
:1043d800014878001e4fe80010c0b3009e4f10003f
:1043e800f3ff34000080fa00000006000200fa0023
:1043f8000040eb00004f78000a0037001e01fb0068
:104408001e00fb008000e800c088200000804000fb
:1044180090407800c08820000000410001487800e2
:104428001e4fe80030c0b3009e4f1000f3ff340069
:104438000080fa00000006000200fa000040eb00cd
:10444800004f78000a0037001e01fb001e00fb0029
:104458008000e800c088200000804000904078007c
:10446800c088200000004100014878001e4fe80085
:1044780040c0b3009e4f1000f3ff34000080fa00e4
:10448800000006000600fa00881f78001007980050
:104498002107980082eba9001e009000ae00900052
:1044a800e00f5000e08f580007003d001e0090000c
:1044b800ae00900060001000e0801800100798001f
:1044c8002107980082eba80010c0b300004f7800c5
:1044d8000040eb0010479800160037001e4090007f
:1044e8000084fb001e029000ae0290001e80fb00bc
:1044f800c200dd00e0c22000008040001001be00c4
:104508000400be00d4ef0700a20020000300200032
:10451800e1ef070080407800c088200000004400d8
:10452800014878001e4090000040e80010479800bd
:104538001e4fe9001e409000e14f5000e7ff360093
:104548004f0478000080fa00000006000a00fa0014
:10455800889fbe008a1f780010c0b300004f780003
:104568006000b80010079800210798000040eb0091
:10457800104798002f0037001e4090000085fb0070
:104588001e4090008080fb00c08820000080400012
:10459800104078000084fb00090020001e80fb000a
:1045a800c200dd00e0c22000008040001003be0011
:1045b8008800780006007800000ab80007c0b90033
:1045c800050178000001410009b0b900000141006f
:1045d800820278000401be004250dd000e00400057
:1045e80012009800230098001e4fe9001e4090001a
:1045f8000004e0000c0032001e019000ae019000a3
:104608001e4090000080fb004200dd000e004000cc
:10461800a000900010009000020040008380480035
:1046280010079800210798001e4090000040e800fd
:10463800104798001e409000e14f5000ceff360012
:1046480082cbbf0001c8b300014060000004e00055
:10465800060032001e009000ae00900060001000be
:10466800e080180010079800210798001e009000ad
:10467800ae0090004f0578004f04be000080fa009d
:10468800000006000400fa00000f78000040eb006c
:10469800204798001e00e00002003d0010c0b30053
:1046a800204798002e409000c700dd0082cbbf0055
:1046b8000074a1000140700082ebb70021b820000f
:1046c8009140780000c8b30000c060000004e0001a
:1046d800010032001e0fea001e007800823e200012
:1046e800110009000200d800a200200011000900f2
:1046f8000200d8008000fd008ce8b7001e0078009a
:1047080042062000110009000200d800a200200083
:10471800110009000200d8008000fd008de8b700f4
:104728001e007800a2002000110009000200d80035
:10473800a2002000110009000200d8008000fd003e
:104748008ee8b7001e007800a200200011000900c2
:104758000200d8008000fd008fe8b7000080fa0052
:10476800000006000a00fa008cc8bf000080fb00a9
:10477800000f78008dc8bf000080fb00100798006c
:104788008ec8bf000080fb00200798008fc8bf00bc
:104798000080fb00300798009e007800803e2000d3
:1047a8000088b900000f78009e00900040062000a5
:1047b8000088b900100798002e0090006a00b90020
:1047c800200798003e009000300798009e0078006f
:1047d8001e009000808040002e00900080804000e5
:1047e8003e00900000804000000f780021b82000b3
:1047f8009140780000c8b30000c060000004e000e9
:10480800030032001e0078000000ea00000f780064
:104818001e0078000080fa00000006000400fa007c
:10482800000f78000040eb00204798001e00e000d1
:1048380002003d0010c0b300204798002e409000b1
:10484800c700dd0082cbbf000074a10001407000ea
:1048580082ebb70021b820009140780000c8b3006f
:1048680000c060000004e000010032001e0fea00f2
:104878001e00780042062000110009000200d8003e
:10488800a2002000110009000200d8008000fd00ed
:104898008ce8b7001e007800a20020001100090073
:1048a8000200d800a2002000110009000200d80070
:1048b8008000fd008de8b7001e007800a2002000ef
:1048c800110009000200d8008000fd008ee8b70042
:1048d8000080fa00000006000a00fa008cc8bf0039
:1048e8000080fb00000f78008dc8bf000080fb002f
:1048f800100798008ec8bf000080fb0020079800b2
:10490800ae009000400620000088b900000f780033
:104918003e0090006a00b900100798004e00900011
:10492800200798009e0078001e00900080804000bc
:104938002e00900000804000000f780021b8200071
:104948009140780000c8b30000c060000004e00097
:10495800030032001e0078000000ea00000f780013
:104968001e0078000080fa00000006000000fa002f
:1049780010c0b30090e8b7000040eb008ce8b70027
:104988000040eb008de8b7000040eb008ee8b70070
:104998000040eb008fe8b7000040eb0090e8b7005c
:1049a8000080fa00000006000000fa0010c0b30002
:1049b8009ce8b700854ba900850ba8000040eb00d8
:1049c80090e8b7006000b800aefe070085aba9000c
:1049d8000080fa00000006000000fa0070c0b30072
:1049e8009ce8b700854ba90010c0b30090e8b70059
:1049f80040468000904d8800904d8000cf80de00ba
:104a0800a0fe07000080fa00000006000000fa007f
:104a180080c0b3009ce8b700854ba90010c0b30064
:104a280090e8b70060468000904d8800904d800067
:104a3800cf80de0093fe07000080fa000000060029
:104a48000000fa0090c0b3009ce8b700854ba900ad
:104a580010c0b30090e8b70050468000904d880021
:104a6800904d8000cf80de0086fe07000080fa00af
:104a7800000006000000fa00a0c0b3009ce8b700e0
:104a8800854ba900f04d8000cf80de00204e8800c5
:104a9800314e8800f04d8000cf80de0079fe07009f
:104aa8000080fa00000006000000fa00b0c0b30061
:104ab8009ce8b700854ba900e04d8000cf80de0060
:104ac800204e8800314e8800e04d8000cf80de0007
:104ad8006cfe07000080fa00000006000000fa00e3
:104ae800c0c0b3009ce8b70085aba800854ba900ff
:104af80085cba9000080fa00000006000000fa003b
:104b0800d0c0b3009ce8b700830ba900850ba800b0
:104b18000080fa00000006000000fa0060c0b30040
:104b28009ce8b700854ba80010c0b30090e8b70018
:104b3800850ba800830ba900304c8000904d88009d
:104b4800304c8000010020004efe07000080fa0073
:104b5800000006000200fa0030c0b3009ce8b7006d
:104b6800854ba80010c0b30090e8b700850ba800db
:104b7800830ba900a0468000000f78001e00780073
:104b8800e10f5000110032001e007800e10f5000c4
:104b980004003c001e0078000000e000080032001d
:104ba800120037001e007800e20f50000a003200a1
:104bb8001e007800e30f50000a0032000b00370097
:104bc800b04c8000904d880008003700a04c800051
:104bd800904d880005003700904c8000904d88006b
:104be80002003700804c8000904d8800904d800076
:104bf800cf80de0023fe07000080fa0000000600d8
:104c08000200fa0040c0b3009ce8b700854ba8003a
:104c180010c0b30090e8b700850ba800830ba9006b
:104c2800a0468000000f78001e007800e10f5000b9
:104c3800110032001e007800e10f500004003c0013
:104c48001e0078000000e000080032001200370063
:104c58001e007800e20f50000a0032001e007800a3
:104c6800e30f50000a0032000b003700704c800040
:104c7800904d880008003700604c8000904d8800f7
:104c880005003700504c8000904d88000200370026
:104c9800404c8000904d8800904d8000cf80de0011
:104ca800f8fd07000080fa00000006000000fa0086
:104cb800e0c0b3009ce8b700854ba80010c0b30063
:104cc80090e8b700850ba800830ba90080468000f8
:104cd800cf80de00a04d8800b14d8800a04d800037
:104ce800b14d8000e7fd07000080fa0000000600d3
:104cf8000000fa00f0c0b3009ce8b700854ba8009c
:104d080010c0b30090e8b700850ba800830ba9007a
:104d1800004d8000114d8000a04d8800b14d8800e5
:104d2800a04d8000b14d8000d6fd07000080fa003c
:104d3800000006000000fa0000c1b3009ce8b700bc
:104d4800854ba80010c0b30090e8b700850ba800f9
:104d5800830ba900e04c8000f14c8000a04d880036
:104d6800b14d8800a04d8000b14d8000c5fd070001
:104d78000080fa00000006000000fa0010c1b3002d
:104d88009ce8b700854ba80010c0b30090e8b700b6
:104d9800850ba800830ba900c04c8000d14c800073
:104da800a04d8800b14d8800a04d8000b14d800015
:104db800b4fd07000080fa00000006000000fa00b9
:104dc80000c1b3009ce8b700854ba80010c0b30031
:104dd80090e8b700850ba800830ba900204d800040
:104de800314d8000a04d8800b14d8800a04d800055
:104df800b14d8000a3fd07000080fa000000060006
:104e08000000fa0010c1b3009ce8b700854ba80069
:104e180010c0b30090e8b700850ba800830ba90069
:104e2800504d8000614d8000a04d8800b14d880034
:104e3800a04d8000b14d800092fd07000080fa006f
:104e4800000006000000fa0080c1b3009ce8b7002b
:104e5800854ba9000040eb0090e8b700850ba8003f
:104e6800830ba900c04a8000d14a8000a04d880069
:104e7800b14d8800a04d8000b14d800081fd070034
:104e88000080fa00000006000000fa0020c1b3000c
:104e98009ce8b700854ba80010c0b30090e8b700a5
:104ea800850ba800830ba9000000eb00a046880032
:104eb800804b8000914b8000a04d8800b14d880048
:104ec800a04d8000b14d80006efd07000080fa0003
:104ed800000006000000fa0020c1b3009ce8b700fb
:104ee800854ba80010c0b30090e8b700850ba80058
:104ef800830ba90010002000a0468800804b80008a
:104f0800914b8000a04d8800b14d8800a04d8000d5
:104f1800b14d80005bfd07000080fa00000006002c
:104f28000000fa00d0c1b3009ce8b700854ba80088
:104f380010c0b30090e8b700850ba800830ba90048
:104f48000000eb00a0468800004b8000114b800059
:104f5800a04d8800b14d8800a04d8000b14d800063
:104f680048fd07000080fa00000006000000fa0073
:104f7800d0c1b3009ce8b700854ba80010c0b300af
:104f880090e8b700850ba800830ba900100020004b
:104f9800a0468800e04a8000f14a8000a04d8800c1
:104fa800b14d8800a04d8000b14d800035fd07004f
:104fb8000080fa00000006000000fa0040c1b300bb
:104fc8009ce8b700854ba80010c0b30090e8b70074
:104fd800850ba800e0c9bf000080fb00a2002000ec
:104fe800110009000280d8008ce8b700e0c9bf00b2
:104ff8000080fb00a2002000110009000280d800f8
:105008008000fd008de8b700dfc9bf000080fb000d
:10501800a2002000110009000280d8008ee8b70025
:10502800dfc9bf000080fb00a200200011000900ba
:105038000280d8008000fd008fe8b7000080fa00e9
:10504800000006000000fa0040c1b3009ce8b70069
:10505800854ba8000040eb0090e8b700850ba8003e
:10506800e1c9bf000080fb00a20020001100090078
:105078000280d8008ce8b700e1c9bf000080fb00bf
:10508800a2002000110009000280d8008000fd0065
:105098008de8b700e2c9bf000080fb00a200200035
:1050a800110009000280d8008ee8b700e2c9bf00ed
:1050b8000080fb00a2002000110009000280d80037
:1050c8008000fd008fe8b7000080fa0000000600ad
:1050d8000400fa000040eb00204798008cc8bf008d
:1050e8000080fb004400dd00804078008dc8bf00d0
:1050f80000c04000004f780000c8b3001e4f700089
:105108008ec8bf000080fb004400dd0080407800ae
:105118008fc8bf0000c0400010479800ae40900004
:105128000040eb00c21e07009e40900010c0b30074
:10513800bf1e07009e40780020c0b300bc1e0700b9
:105148000080fa00000006000400fa008cc8bf00c6
:105158000080fb004400dd00804078008dc8bf005f
:1051680000c04000204798008ec8bf000080fb00a8
:105178004400dd00804078008fc8bf0000c04000b8
:105188001047980020c1b300004f7800ae4090004f
:1051980030c0b300a61e07009e40900040c0b30078
:1051a800a31e07009e40780050c0b300a01e070051
:1051b8000080fa00000006000000fa0070c1b30089
:1051c8009ce8b700854ba9000040eb0090e8b700c9
:1051d800850ba8000080fa00000006000200fa0013
:1051e800004f780060c1b3009ce8b700854ba90068
:1051f8000040eb0090e8b700850ba8001e80fb007c
:1052080000004000ee004000808c2000008040003c
:105218001000780002a02000110009000280d800c8
:105228008ce8b7001e80fb0000004000ee00400044
:10523800808c200000804000100078004800de00cc
:10524800a2002000110009000280d8008000fd00a3
:105258008de8b7001e80fb0000004000ee00400013
:10526800808c20000080400090007800f00f200023
:1052780000806000a2002000110009000280d80010
:105288008ee8b7001e80fb0000004000ee004000e2
:10529800808c20000080400090007800f00f2000f3
:1052a80000806000a2002000110009000280d800e0
:1052b8008000fd008fe8b7000080fa0000000600bb
:1052c8000200fa00004f780050c1b3009ce8b70014
:1052d800854ba9000040eb0090e8b700850ba800bb
:1052e8001e80fb0000004000c104200080804000b8
:1052f800808c2000008040001000780002a0200070
:10530800110009000280d8008ce8b7001e80fb005d
:1053180000004000c104200080804000808c2000f4
:1053280000804000100078004800de00a200200045
:10533800110009000280d8008000fd008de8b70048
:105348001e80fb0000004000c10420008080400057
:10535800808c20000080400090007800f00f200032
:1053680000806000a2002000110009000280d8001f
:105378008ee8b7001e80fb0000004000c10420003a
:1053880080804000808c20000080400090007800e1
:10539800f00f200000806000a2002000110009002a
:1053a8000280d8008000fd008fe8b7000080fa0076
:1053b800000006000000fa0030c1b3009ce8b70006
:1053c800854ba9000040eb0090e8b700850ba800ca
:1053d800904a800002a02000110009000280d80035
:1053e8008ce8b700904a80004800de00a200200048
:1053f800110009000280d8008000fd008de8b70088
:10540800914a8000f00f200000806000a200200078
:10541800110009000280d8008ee8b700914a800088
:10542800f00f200000806000a20020001100090099
:105438000280d8008000fd008fe8b7000080fa00e5
:10544800000006000200fa00881f7800004f78006c
:105458009e81fb008ec8bf000080fb006a00b90077
:10546800000178008cc8bf000080fb006a00b9000a
:10547800800078008dc8bf000080fb0000804000dd
:105488004800dd00800041008fc8bf000080fb009d
:10549800008040000001780003804100ee004000d9
:1054a800808c200000804000020878001e80fb00ed
:1054b80000004000ee004000808c2000008040008a
:1054c800100478001e40780089fa070001002000c7
:1054d80008017800c22307004f0478000080fa0012
:1054e800000006000200fa00881f7800004f7800cc
:1054f8009e81fb008ec8bf000080fb006a00b900d7
:10550800000178008cc8bf000080fb006a00b90069
:10551800800078008dc8bf000080fb00008040003c
:105528004800dd00800041008fc8bf000080fb00fc
:10553800008040000001780003804100c104200081
:1055480080804000808c20000080400002087800a5
:105558001e80fb0000004000c10420008080400045
:10556800808c200000804000100478001e407800e5
:10557800f5fa0700010020000801780098230700c9
:105588004f0478000080fa00000006000000fa00ce
:105598008ec8bf000080fb006a00b90000017800d7
:1055a8008cc8bf000080fb006a00b900800078004a
:1055b8008dc8bf000080fb00008040004800dd006f
:1055c800800041008fc8bf000080fb0000804000c1
:1055d800904a8800924a80000018200001002000ac
:1055e8007f230700a24a8000201820000100200025
:1055f8007b2307000080fa00000006000000fa0084
:105608009cc8bf00e14f50001b003a0085cbbf008b
:105618000042b2000004e00017003a0090c8bf0042
:105628000004e00014003200c8c9bf000040e800d0
:10563800c8e9b700819c20009140780020c3b300de
:1056480080cf50000c00360010c0b3008ce8b700c3
:105658008dc8bf00e64f500007003a008ec8bf0053
:10566800e34f500004003a008fc8bf00e44f5000d9
:1056780001003a0019fd07000080fa00000006004a
:105688000800fa009cc8bf000080fb006101b90057
:10569800d0ff2f00f1ff2f00020140008381480056
:1056a8002207980033079800a0012000010020007d
:1056b8002e019000be019000800f5100818f59008b
:1056c80075013e002e009000be00900000600100b1
:1056d80088003700c20037006f013700fb00370031
:1056e800160037001f003700280037006a0137000e
:1056f8006901370068013700670137002d0037005e
:105708003a00370057003700680037002b01370090
:1057180061013700600137005f0137005e01370023
:105728005d0137004f0137005b0137005a01370030
:105738005901370058013700ee003700914d8000bd
:1057480040468000808f5000530132004046800060
:1057580000017800a001200001002000202307009c
:105768004d013700914d800060468000808f5000c9
:10577800490132006046800000017800c001200025
:10578800010020001623070043013700914d8000d7
:1057980050468000808f50003f0132005046800004
:1057a80000017800e0012000010020000c23070020
:1057b80039013700914d800080468000808f50006d
:1057c80035013200018d200042c0b30000c1b30092
:1057d800682207008046800000017800a0022000af
:1057e80001002000fe2207002b013700904d8000a9
:1057f8006101b900004d8000114d8000800f5100fb
:10580800818f590024013200019a200042c0b30060
:1058180040c1b30057220700004d8000114d8000a1
:1058280000017800e002200001002000ec220700bf
:10583800004d8000114d8000e00f5000e08f5800af
:1058480015013a006000b800c04c8800d14c8800af
:105858008199200042c0b300c0c1b30045220700af
:105868000d013700904d80006101b900e04c8000c7
:10587800f14c8000800f5100818f590006013200e1
:10588800c199200042c0b30080c1b300392207008b
:10589800e04c8000f14c80000001780000032000fb
:1058a80001002000ce220700fb003700904d800049
:1058b8006101b900c04c8000d14c8000800f5100bc
:1058c800818f5900f40032008199200042c0b30052
:1058d800c0c1b30027220700c04c8000d14c800013
:1058e800000178002003200001002000bc220700ee
:1058f800e9003700a1468000110798001e019000ba
:10590800e10f5100180032009e019000e18f510014
:1059180004003c001e0090000000e0000800320077
:10592800dd0037009e009000e28f50001800320022
:105938001e019000e30f51001f003200d60037000f
:10594800914d8000b04c8000808f5000d200320012
:10595800b04c8000000178004003200001002000c6
:105968009f220700cc003700914d8000a04c80009a
:10597800808f5000c8003200a04c800000017800e1
:10598800600320000100200095220700c2003700b4
:10599800914d8000904c8000808f5000be003200f6
:1059a800904c800000017800800320000100200056
:1059b8008b220700b8003700914d8000804c800092
:1059c800808f5000b4003200804c800000017800c5
:1059d800a00320000100200081220700ae0037004c
:1059e800a3468000030f78001e007800e10f5000e6
:1059f800180032009e007800e18f500004003c003f
:105a08001e0178000200e00008003200a200370002
:105a18009e017800e28f5100180032001e007800c5
:105a2800e30f50001f0032009b003700914d8000ab
:105a3800704c8000808f500097003200704c8000be
:105a480000017800400420000100200064220700c3
:105a580091003700914d8000604c8000808f50008d
:105a68008d003200604c8000000178006004200046
:105a7800010020005a22070087003700914d80005e
