:020000040000fa
:080000000001040000000000f3
:020000040000fa
:10020000cfbd200000ff200000018800000000009a
:100210000c000700209126000100200011000700bb
:10022000000020000000e000020032000000020098
:100230000000000010630200000000000040da002f
:100240000000fe004440a900a02520000000e000be
:100250000300320000002000a00188004440a800f4
:100260000000060091018800800078000000eb008b
:1002700015003700e280400032a0b4009101ba00be
:10028000e280400032a0b4009102ba00e280400057
:1002900032a0b4000002eb00472bde00f507b200ed
:1002a000602ce10004003a000059eb008301e900f2
:1002b000fdff3e00040037006128e100010032002c
:1002c0000082eb00040007001101ba000200e00008
:1002d000e8ff3a00000006003159ba008301e90046
:1002e0000c0032002159ba008301e90008003200f5
:1002f0000400e00003003a00e280400032a0b400b5
:10030000f5ff370011d9ba008301e900faff3a007e
:100310008100e800e180400032a0b4000000060047
:1003200000000000000000000000000000000000cd
:1003300000000000000000000000000000000000bd
:1003400000000000000000000000000000000000ad
:10035000000000000000000000000000000000009d
:10036000000000000000000000000000000000008d
:10037000000000000000000000000000000000007d
:10038000000000000000000000000000000000006d
:10039000000000000000000000000000000000005d
:1003a000000000000000000000000000000000004d
:1003b000000000000000000000000000000000003d
:1003c000000000000000000000000000000000002d
:1003d000000000000000000000000000000000001d
:1003e000000000000000000000000000000000000d
:1003f0006022b800060220000000d0008180d200f8
:100400000482d2008582d2000000a00002025200c5
:1004100083825a00030031000202420083824a00b4
:100420000000a1000603e900f3ff3a000000060007
:10043000efff07000400be0000000600839f680075
:100440000100e00002003d0060001000e0801800a4
:100450000300e00002003d0060011100e08119008e
:10046000e3ff07004f00e00002003b0060001000c7
:10047000e080180000000600811f78000100e00005
:1004800002003d0060001000e08018000300e00062
:1004900002003d0060011100e0811900e4ff070047
:1004a0004f00e00002003b0060001000e0801800f8
:1004b00000000600889fbe008a9fbe0001057800ec
:1004c0000100e0000400350008003c000000e000ee
:1004d000200032000500370060001000e0801800a6
:1004e00002003b0001f02c001a0037000004be009f
:1004f0006011b8006b0920000982cf0002003900aa
:100500000882cf000441b000694252000e00320060
:1005100008003b0082817100610164008904d10000
:100520000884d3008b05e8000442e800f9ff3a0094
:10053000050037000804440089844c008b05e9005d
:100540000442e900fbff3a00fa0007000af0a700a6
:1005500001f0a0004f05be004f04be0000000600e1
:1005600003f0a200889fbe008a9fbe008c1f780007
:10057000160107001d0133006450e1004f003200f6
:100580006420e1005200320003826c0007003b004f
:100590000905d0000306d000820f54000c065d0050
:1005a0000200390002003200890178000306780059
:1005b0008582550004003d000003fd008103fd001d
:1005c0008502ea008b854200840f720002003b0026
:1005d00060001000e08018006011b8000005eb001a
:1005e0007a28e1000a00390006007800c75ddd00c6
:1005f000f707b200878075002d00370082817100f7
:100600000a017800610560008180d1000080d3007c
:100610008502e900f9ff3b0006044000878448009a
:1006200002003b0060041400e0841c000988a30061
:10063000070032008a8171008281710061016400cb
:100640008904d1000884d3008b05e8001700370027
:100650000978a30013003a000b00e00013003400f7
:100660008b05e9000804440089844c000a447400a6
:100670000978a3000d003a000b00e00007003400e9
:100680008b05e9000804440089844c0001003a000d
:100690000b0020000978a300f7ff32000001eb00f7
:1006a00002003700828171000a017800a100070072
:1006b0000cf0a70001f0a000d50037006420e10095
:1006c00002003a00838f6c00d50033000801be00a1
:1006d0000200be00ce003700889fbe008a9fbe0089
:1006e0008c1f7800b9000700c000330003866c003f
:1006f0006450e1002e0032006420e100330032003b
:100700006150e1002f0032006120e1003100320031
:1007100085855500eb07b000090020000804200083
:10072000050037000804440089844c000a003100a9
:100730000603430087834b000001530081815b0067
:10074000f8ff33000203be000800a00008044400c4
:1007500089844c00f6ff3900c639dd00830173003f
:1007600001003200130020008904d1000884d30066
:100770000998a300050032000800a7000300a000ac
:100780008904d1000884d3008b05e8008904d100d6
:100790000884d3000001eb000281d200650007004d
:1007a00001f0a1000cf0a70001f0a00098003700b4
:1007b0006420e1009a0032000801be000200be0081
:1007c000f7ff37006120e100950032006000b800bb
:1007d000f3ff37000000200001f82700f0ff37008a
:1007e000889fbe008a9fbe008c1f7800770007009c
:1007f0007e00330003866c006450e1002400320068
:100800006420e100270032006150e1002200320044
:100810006120e100210032008b854200eb07b1002e
:100820000134b800003ab8000804420089844a0044
:10083000013ab8000030b8008880400009014a0041
:10084000040033000000400081804800020149009c
:100850008b05e900c909dd00830170000100320049
:1008600013002000c814de004814dd004709de0034
:100870001200b200c808de00088470002d000700d6
:1008800001f0a1000cf0a70001f0a000600037000b
:100890006120e100620032000801be000200be00db
:1008a000f7ff37006150e100fcff3a005c003700c1
:1008b0000001be005d0007000470a70003f0a10066
:1008c0006509b100160032000d0035006828e1000e
:1008d00006003500f0ff2f00f1ff27000300e000c5
:1008e00013003b000100280000000500000040004c
:1008f000818048008502e900fcff3a0008003700cb
:10090000f88f420002003c008000eb000000050070
:100910008100d1000080d3008502e800fcff3a008e
:100920000300e00002003b0060001000e0801800bf
:100930000000060081002000618055000b003d0092
:100940000b00200061fe2f000100e1001d003400bb
:1009500082817100610164008904d1000884d300a0
:100960000000e800faff3a00710020006100640016
:1009700003007000020060000900320061044400be
:10098000e0844c000988a500050032008b05e800d2
:100990006808e10002003a008904d1000884d3000d
:1009a000f20f20000258e10005003d00c75ddd00a8
:1009b000f907b20089807500080078000000060081
:1009c0000bf827008b007800000005000004be0033
:1009d000160007000003be000405be000200be00b2
:1009e00012000700844f7500000006000200be00e0
:1009f0006450e100050036006420e100020036008a
:100a00000968a30001003a000800be000160a000d0
:100a10004f0678004f05be004f04be0000000600e0
:100a2000f0ff2f00f1ff2700f9ff3700c70ade00b3
:100a3000f107b200f50fb20008003200e1cf42002a
:100a4000020032000170a00024000500810f700038
:100a5000010032000408050044000500810f700009
:100a600002003a00140005008502e9000000400081
:100a700081c04800fcff3b000170a000240005007d
:020000040000fa
:0200000401f009
:04000000f6ff000007
:020000040000fa
:0200000401f009
:04000400ff7f00007a
:020000040000fa
:0200000401f009
:04000800ec7f000089
:020000040000fa
:100008005c6900005c6900005c6900005c690000d4
:100018005c6900005c6900005c6900005c690000c4
:10002800a26400005c6900005c6900006e65000065
:100038005c6900005c690000b86500003e6600006d
:100048005c6900005c6900005c6900005c69000094
:100058005c6900005c6900005c6900005c69000084
:100068005c6900005c6900005c6900005c69000074
:100078005c690000246500005c6900005c690000a0
:10008800e2640000f46500005c6900005c6900003f
:100098005c6900005c6900005c6900005c69000044
:1000a8005c6900005c6900005c6900005c69000034
:1000b8005c6900005c6900005c6900005c69000024
:1000c8005c6900005c6900005c6900005c69000014
:1000d8005c6900005c6900005c6900005c69000004
:1000e8005c6900005c6900005c6900005c690000f4
:0800f8005c6900005c69000076
:020000040000fa
:100108005c6900005c6900005c6900005c690000d3
:100118005c6900005c6900005c6900005c690000c3
:10012800a26400005c6900005c6900006e65000064
:100138005c6900005c690000b86500003e6600006c
:100148005c6900005c6900005c6900005c69000093
:100158005c6900005c6900005c6900005c69000083
:100168005c6900005c6900005c6900005c69000073
:100178005c690000246500005c6900005c6900009f
:10018800e2640000f46500005c6900005c6900003e
:100198005c6900005c6900005c6900005c69000043
:1001a8005c6900005c6900005c6900005c69000033
:1001b8005c6900005c6900005c6900005c69000023
:1001c8005c6900005c6900005c6900005c69000013
:1001d8005c6900005c6900005c6900005c69000003
:1001e8005c6900005c6900005c6900005c690000f3
:0801f8005c6900005c69000075
:020000040000fa
:100a800000c100008140000001c000008041000062
:100a900001c000008041000000c100008140000052
:100aa00001c000008041000000c100008140000042
:100ab00000c100008140000001c000008041000032
:100ac00001c000008041000000c100008140000022
:100ad00000c100008140000001c000008041000012
:100ae00000c100008140000001c000008041000002
:100af00001c000008041000000c1000081400000f2
:100b000001c000008041000000c1000081400000e1
:100b100000c100008140000001c0000080410000d1
:100b200000c100008140000001c0000080410000c1
:100b300001c000008041000000c1000081400000b1
:100b400000c100008140000001c0000080410000a1
:100b500001c000008041000000c100008140000091
:100b600001c000008041000000c100008140000081
:100b700000c100008140000001c000008041000071
:100b800001c000008041000000c100008140000061
:100b900000c100008140000001c000008041000051
:100ba00000c100008140000001c000008041000041
:100bb00001c000008041000000c100008140000031
:100bc00000c100008140000001c000008041000021
:100bd00001c000008041000000c100008140000011
:100be00001c000008041000000c100008140000001
:100bf00000c100008140000001c0000080410000f1
:100c000000c100008140000001c0000080410000e0
:100c100001c000008041000000c1000081400000d0
:100c200001c000008041000000c1000081400000c0
:100c300000c100008140000001c0000080410000b0
:100c400001c000008041000000c1000081400000a0
:100c500000c100008140000001c000008041000090
:100c600000c100008140000001c000008041000080
:100c700001c000008041000000c100008140000070
:100c800000c00000c1010000c303000002c2000058
:100c9000c606000007c7000005c50000c404000028
:100ca000cc0c00000dcd00000fcf0000ce0e0000d8
:100cb0000aca0000cb0b0000c909000008c80000e8
:100cc000d818000019d900001bdb0000da1a000058
:100cd0001ede0000df1f0000dd1d00001cdc000028
:100ce00014d40000d5150000d717000016d6000058
:100cf000d212000013d3000011d10000d010000068
:100d0000f030000031f1000033f30000f232000057
:100d100036f60000f7370000f535000034f4000027
:100d20003cfc0000fd3d0000ff3f00003efe0000d7
:100d3000fa3a00003bfb000039f90000f8380000e7
:100d400028e80000e9290000eb2b00002aea000057
:100d5000ee2e00002fef00002ded0000ec2c000027
:100d6000e424000025e5000027e70000e626000057
:100d700022e20000e3230000e121000020e0000067
:100d8000a060000061a1000063a30000a262000057
:100d900066a60000a7670000a565000064a4000027
:100da0006cac0000ad6d0000af6f00006eae0000d7
:100db000aa6a00006bab000069a90000a8680000e7
:100dc00078b80000b9790000bb7b00007aba000057
:100dd000be7e00007fbf00007dbd0000bc7c000027
:100de000b474000075b5000077b70000b676000057
:100df00072b20000b3730000b171000070b0000067
:100e00005090000091510000935300005292000056
:100e10009656000057970000559500009454000026
:100e20009c5c00005d9d00005f9f00009e5e0000d6
:100e30005a9a00009b5b00009959000058980000e6
:100e400088480000498900004b8b00008a4a000056
:100e50004e8e00008f4f00008d4d00004c8c000026
:100e60004484000085450000874700004686000056
:100e70008242000043830000418100008040000066
:100e8000e803000000000000640000000000000013
:100e90000a00000000000000010000000000000047
:100ea000a0860000010000001027000000000000e4
:100eb000e8030000000000006400000000000000e3
:100ec0000a00000000000000010000000000000017
:100ed000af0300009d97000033b60000be83000002
:100ee000bfb70000bb3e0000ac1f0000bcb8000054
:100ef00010af000082cd0000cbe200006b6f00005d
:100f000083ef0000ebe700006e2d0000ce6d0000c7
:100f100065400000303100003233000034350000fd
:100f200036370000383900004142000043440000d9
:040f30004546000032
:020000040000fa
:100f34000000fa00cbcabf00614060000004e0007a
:100f44001900320002c8bf000040e80002e8b70000
:100f5400218020009140780010c3b30080cf50005e
:100f6400110036000040eb0002e8b700cacabf0017
:100f74000080fb004600de000004a2006140600027
:100f84006140600061406000614060004601dd0036
:100f9400a1ac200091407800f0cbb30000c0600009
:100fa40002407000caeab7000080fa0000000600a0
:100fb4000400fa00000f7800905e80000000e80052
:100fc400905e8800905e80009e0f50000b003900f8
:100fd4000000eb00905e8800d4cbbf008040eb00a3
:100fe400214798000004e00002003a0010c0b3005a
:100ff400204798002e409000d4ebb7000080fa0000
:10100400000006000200fa000040eb00004f7800e8
:10101400060037009e80fb00408020008080400056
:101024000040eb00804878001e4fe80020c0b30069
:101034009e4f1000f7ff36000080fa000000060003
:101044000400fa00000f7800110798009e00780051
:101054008076280000804000904078001e009000b8
:10106400014878000080fa00000006000800fa0039
:10107400000f7800110798001e007800cf80de0072
:10108400023a8400133a8400d8fc0700e00f5000b1
:10109400e08f58000e0032001e007800cf80de0082
:1010a400023a8400133a8400d0fc0700a200200016
:1010b40003002000ddfc0700800078008076280013
:1010c400008040001040780070479800020037000c
:1010d4000040eb00704798001e009000fe40900016
:1010e400014878001e0090000000e80010079800f6
:1010f4001e007800cf80de00223a8400333a840058
:10110400bafc0700e00f5000e08f58000e003200d8
:101114001e007800cf80de00223a8400333a840037
:10112400b2fc0700a200200003002000bffc07005f
:10113400800078008076280000804000104078000d
:1011440060479800020037000040eb0060479800b9
:101154001e009000ee409000014878001e009000b0
:101164000000e800100798001e007800cf80de0021
:10117400423a8400533a84009cfc0700e00f50007c
:10118400e08f58000e0032001e007800cf80de0091
:10119400423a8400533a840094fc0700a2002000e1
:1011a40003002000a1fc070080007800807628005e
:1011b400008040001040780050479800020037003b
:1011c4000040eb00504798001e009000de40900065
:1011d400014878001e0090000000e8001007980005
:1011e4001e007800cf80de00623a8400733a8400e7
:1011f4007efc0700e00f5000e08f58000e00320024
:101204001e007800cf80de00623a8400733a8400c6
:1012140076fc0700a20020000300200083fc0700e6
:10122400800078008076280000804000104078001c
:1012340040479800020037000040eb004047980008
:101244001e009000ce409000014878001e009000df
:101254000000e800100798000080fa000000060073
:101264000a00fa00000f7800110798001e007800a9
:10127400cf80de00823a8400933a84005bfc07004e
:10128400e00f5000e08f58000e0032001e0078007e
:10129400cf80de00823a8400933a840053fc070036
:1012a400a20020000300200060fc070080007800fa
:1012b400807628000080400010407800004f98009d
:1012c400020037000040eb00004f98001e00900021
:1012d4008e489000014878001e0090000000e8004d
:1012e400100798001e007800cf80de00a23a840028
:1012f400b33a84003dfc0700e00f5000e08f580033
:101304000e0032001e007800cf80de00a23a840076
:10131400b33a840035fc0700a2002000030020003b
:1013240042fc07008000780080762800008040009e
:101334001040780070479800020037000040eb002e
:10134400704798001e009000fe409000014878000d
:101354001e0090000000e800100798001e007800ae
:10136400cf80de00c23a8400d33a84001ffc070019
:10137400e00f5000e08f58000e0032001e0078008d
:10138400cf80de00c23a8400d33a840017fc070001
:10139400a20020000300200024fc07008000780045
:1013a4008076280000804000104078006047980054
:1013b400020037000040eb00604798001e009000d8
:1013c400ee409000014878001e0090000000e80004
:1013d400100798001e007800cf80de00e23a8400f7
:1013e400f33a840001fc0700e00f5000e08f58003e
:1013f4000e0032001e007800cf80de00e23a840046
:10140400f33a8400f9fb0700a20020000300200047
:1014140006fc0700800078008076280000804000e9
:101424001040780050479800020037000040eb005d
:10143400504798001e009000de409000014878005c
:101444001e0090000000e800100798001e007800bd
:10145400cf80de00023b8400133b8400e3fb0700e3
:10146400e00f5000e08f58000e0032001e0078009c
:10147400cf80de00023b8400133b8400dbfb0700cb
:10148400a200200003002000e8fb07008000780091
:101494008076280000804000104078004047980083
:1014a400020037000040eb00404798001e00900007
:1014b400ce409000014878001e0090000000e80033
:1014c400100798001e007800cf80de00a23a840046
:1014d400b33a8400c5fb0700a200200003002000eb
:1014e400d2fb07008000780080762800008040004e
:1014f400904078001e009000014878000080fa00b7
:10150400000006000800fa00004f78001147980018
:1015140022479800334798004447980035079800bd
:101524009e4078003e009000014878003e00900004
:101534000000e800300798009e4090003e009000b4
:10154400014878003e0090000000e8003007980051
:10155400ae4090003e009000014878003e009000ac
:101564000000e80030079800be4090003e00900064
:10157400014878003e0090000000e8003007980021
:10158400ce4090003e009000014878000080fa00b0
:10159400000006000400fa00004f780011079800cc
:1015a4009e4078001e009000014878000080fa00f8
:1015b400000006000400fa00004f7800114798006c
:1015c400120798009e4078001e00900001487800a1
:1015d4001e0090000000e800100798009e40900054
:1015e4001e009000014878000080fa000000060008
:1015f4000600fa00004f780011479800224798002f
:10160400230798009e4078002e009000014878003f
:101614002e0090000000e800200798009e409000f3
:101624002e009000014878002e0090000000e80091
:1016340020079800ae4090002e00900001487800ea
:101644000080fa00000006000600fa00004f78004f
:1016540011479800224798003347980024079800c0
:101664009e4078002e009000014878002e009000e3
:101674000000e800200798009e4090002e00900093
:10168400014878002e0090000000e8002007980030
:10169400ae4090002e009000014878002e0090008b
:1016a4000000e80020079800be4090002e00900043
:1016b400014878000080fa00000006000800fa00e3
:1016c400004f78001147980022479800334798004c
:1016d40044479800350798009e4078003e009000eb
:1016e400014878003e0090000000e80030079800b0
:1016f4009e4090003e009000014878003e0090001b
:101704000000e80030079800ae4090003e009000d2
:10171400014878003e0090000000e800300798007f
:10172400be4090003e009000014878003e009000ca
:101734000000e80030079800ce4090003e00900082
:10174400014878000080fa00000006000800fa0052
:10175400004f7800114798002247980033479800bb
:101764004447980055479800360798009e407800f3
:101774003e009000014878003e0090000000e80020
:10178400300798009e4090003e0090000148780089
:101794003e0090000000e80030079800ae40900042
:1017a4003e009000014878003e0090000000e800f0
:1017b40030079800be4090003e0090000148780039
:1017c4003e0090000000e80030079800ce409000f2
:1017d4003e009000014878003e0090000000e800c0
:1017e40030079800de4090003e00900001487800e9
:1017f4000080fa00000006004800fa00008fbe00d6
:101804001e00be0020079800310798002e009000ab
:10181400be009000e00f5000e08f580008003d002b
:10182400f0ff2f00f10020002e019000be01900077
:101834000201400083814800220798003307980082
:101844002e029000be02900044a8de00cf80de008d
:10185400f2002000030028000002780081027800d2
:1018640002007800830078000001620001806200b9
:101874006102b80064079800750798006e00900034
:10188400fe009000c000dd0000002000600798000a
:10189400710798006e029000fe02900044079800c1
:1018a400550798006110b800600798007107980008
:1018b4004e019000de0190006e029000fe02900046
:1018c4000401710085817100420798005307980054
:1018d4004e009000de009000e00f5000e08f5800b2
:1018e40014003d004e019000de01900061015100a2
:1018f400e0815900420798005307980000ff2f0029
:10190400f1ff2f004e029000de02900000027200f0
:101914008182720044079800550798004e00900099
:10192400de00900061004000e0804800400798001d
:10193400510798004e009000de009000800078006f
:1019440080762800008040001040780004e8b7004a
:101954001e00be00000f9800110f98000e099000a1
:101964009e099000e00f5100e08f590008003d00ef
:10197400f0ff2f00010020000e0a90009e0a900044
:101984000402400085824800040f9800150f980057
:101994000e0990009e0990004098de00cf80de0082
:1019a400f200200003002800000278008102780081
:1019b4000200780083007800000162000180620068
:1019c4006102b800440f9800550f98004e0890002b
:1019d400de089000c000dd0000002000400f9800e9
:1019e400510f98004e0a9000de0a9000240f9800d0
:1019f400350f98006110b800400f9800510f9800ff
:101a04002e099000be0990004e0a9000de0a900054
:101a14000401710085817100220f9800330f980032
:101a24002e089000be089000e00f5000e08f580090
:101a340014003d002e099000be0990006101510080
:101a4400e0815900220f9800330f980000ff2f0007
:101a5400f1ff2f002e0a9000be0a900000027200cf
:101a640081827200240f9800350f98002e08900090
:101a7400be08900061004000e0804800200f9800fc
:101a8400310f98002e089000be0890008000780066
:101a940080762800008040001040780005e8b700f8
:101aa4001e00be00600f9800710f98006e09900030
:101ab400fe099000e00f5100e08f590008003d003e
:101ac400f0ff2000010020006e0a9000fe0a900042
:101ad4000402400085824800640f9800750f980046
:101ae4006e099000fe099000441add004c10de00df
:101af40000007200cc98de00f200200003002800f1
:101b040000027800810278000200780083007800e7
:101b140000016200018062006102b800241798008d
:101b2400351798002e109000be109000c000dd0004
:101b34000000200020179800311798002e12900002
:101b4400be12900004179800151798006110b80091
:101b540020179800311798000e1190009e119000e4
:101b64002e129000be129000040171008581710054
:101b740002179800131798000e1090009e10900002
:101b8400e00f5000e08f580014003d000e1190004b
:101b94009e11900061015100e081590002179800e4
:101ba4001317980000ff2f00f1ff2f000e12900072
:101bb4009e12900000027200818272000417980045
:101bc400151798000e1090009e10900061004000c0
:101bd400e080480000179800111798000e1090003c
:101be4009e109000800078008076280000804000dd
:101bf4001040780006e8b7001e00be0040179800a9
:101c0400511798004e119000de119000e00f510022
:101c1400e08f590006003d004e129000de12900045
:101c2400f40fb0000580b0004417980055179800d1
:101c34004e119000de119000481add004810de00bd
:101c440000007200c898de00f200200003002800a3
:101c54000002780081027800020078008300780096
:101c640000016200018062006102b800041f980054
:101c7400151f98000e1890009e189000c000dd00fb
:101c840000002000001f9800111f98000e1a9000f9
:101c94009e1a900064179800751798006110b80098
:101ca400001f9800111f98006e119000fe11900003
:101cb4000e1a90009e1a9000040171008581710033
:101cc40062179800731798006e109000fe10900031
:101cd400e00f5000e08f580014003d006e1190009a
:101ce400fe11900061015100e081590062179800d3
:101cf4007317980000ff2f00f1ff2f006e12900061
:101d0400fe12900000027200818272006417980033
:101d1400751798006e109000fe109000610040004e
:101d2400e080480060179800711798006e109000ca
:101d3400fe1090008000780080762800008040002b
:101d44001040780007e8b7001e00be00201f98006e
:101d5400311f98002e199000be199000e00f510019
:101d6400e08f590006003d002e1a9000be1a900024
:101d74006f024200e0824a00241f9800351f980039
:101d84002e199000be1990004c1add004410de009c
:101d940000007200c498de00f20020000300280056
:101da4000002780081027800020078008300780045
:101db40000016200018062006102b800641f9800a3
:101dc400751f98006e189000fe189000c000dd008a
:101dd40000002000601f9800711f98006e1a900088
:101de400fe1a9000441f9800551f98006110b80017
:101df400601f9800711f98004e199000de19900022
:101e04006e1a9000fe1a9000040171008581710021
:101e1400421f9800531f98004e189000de1890003f
:101e2400e00f5000e08f580014003d004e19900060
:101e3400de19900061015100e0815900421f9800b1
:101e4400531f980000ff2f00f1ff2f004e1a90003f
:101e5400de1a90000002720081827200441f980012
:101e6400551f98004e189000de1890006100400045
:101e7400e0804800401f9800511f98004e189000c1
:101e8400de189000800078008076280000804000f2
:101e94001040780008e8b7001e00be00f2002000e1
:101ea4000300280000027800810278000200780014
:101eb4008300780000016200018062006102b800c2
:101ec40024279800352798002e209000be209000eb
:101ed400c000dd0000002000202798003127980072
:101ee4002e229000be229000042798001527980007
:101ef4006110b80020279800312798000e21900027
:101f04009e2190002e229000be22900004017100b8
:101f14008581710002279800132798000e209000f5
:101f24009e209000e00f5000e08f580014003d0008
:101f34000e2190009e21900061015100e081590022
:101f4400022798001327980000ff2f00f1ff2f00ad
:101f54000e2290009e229000000272008182720084
:101f640004279800152798000e2090009e209000ca
:101f740061004000e0804800002798001127980085
:101f84000e2090009e20900080007800807628002b
:101f9400008040001040780009e8b7000080fa0093
:101fa400000006003200fa00008fbe0022079800ed
:101fb4001e00be0030079800410798003e009000c4
:101fc400ce009000e00f5000e08f580008003d0064
:101fd400f0ff2000010020003e019000ce0190009f
:101fe40002014000838148003207980043079800ab
:101ff4003e029000ce0290004429dd004c20de0019
:1020040000007100cca8de00f200200003002800cc
:1020140000027800810278000200780083007800d2
:1020240000016200018062006102b8007407980038
:10203400050f98007e0090008e089000c000dd001f
:102044000000200070079800010f98007e029000a5
:102054008e0a900054079800650798006110b80034
:1020640070079800010f98005e019000ee01900047
:102074007e0290008e0a9000040171008581710037
:1020840052079800630798005e009000ee009000ed
:10209400e00f5000e08f580014003d005e019000f6
:1020a400ee01900061015100e0815900520798004f
:1020b4006307980000ff2f00f1ff2f005e029000dd
:1020c400ee029000000272008182720054079800b0
:1020d400650798005e009000ee00900061004000eb
:1020e400e080480050079800610798005e00900067
:1020f400ee00900080007800807628000080400088
:10210400904078002e009000014878002e00900046
:102114000000e800200798001e00be00100f980081
:10212400210f98001e099000ae099000e00f5100a5
:10213400e08f590006003d001e0a9000ae0a900090
:10214400f40fb0000580b000140f9800250f98001c
:102154001e099000ae099000481add004810de0008
:1021640000007200c898de00f2002000030028007e
:102174000002780081027800020078008300780071
:1021840000016200018062006102b800540f9800ef
:10219400650f98005e089000ee089000c000dd0016
:1021a40000002000500f9800610f98005e0a900014
:1021b400ee0a9000340f9800450f98006110b800a3
:1021c400500f9800610f98003e099000ce099000ce
:1021d4005e0a9000ee0a900004017100858171008e
:1021e400320f9800430f98003e089000ce089000ec
:1021f400e00f5000e08f580014003d003e099000ad
:10220400ce09900061015100e0815900320f98001d
:10221400430f980000ff2f00f1ff2f003e0a9000ab
:10222400ce0a90000002720081827200340f98007e
:10223400450f98003e089000ce08900061004000d1
:10224400e0804800300f9800410f98003e0890004d
:10225400ce0890008000780080762800008040003e
:10226400904078002e009000014878002e009000e5
:102274000000e800200798001e00be00700f9800c0
:10228400011798007e0990008e119000e00f510014
:10229400e08f590006003d007e0a90008e129000e7
:1022a4006f024200e0824a00740f980005179800fc
:1022b4007e0990008e1190004c1add004410de005f
:1022c40000007200c498de00f20020000300280021
:1022d4000002780081027800020078008300780010
:1022e40000016200018062006102b80034179800a6
:1022f400451798003e109000ce109000c000dd00fd
:102304000000200030179800411798003e129000fa
:10231400ce12900014179800251798006110b80089
:1023240030179800411798001e119000ae119000cc
:102334003e129000ce12900004017100858171005c
:1023440012179800231798001e109000ae109000ea
:10235400e00f5000e08f580014003d001e11900063
:10236400ae11900061015100e081590012179800ec
:102374002317980000ff2f00f1ff2f001e1290007a
:10238400ae1290000002720081827200141798004d
:10239400251798001e109000ae10900061004000b8
:1023a400e080480010179800211798001e10900034
:1023b400ae109000800078008076280000804000f5
:1023c400904078002e009000014878002e00900084
:1023d4000000e800200798001e00be00f200200064
:1023e40003002800000278008102780002007800cf
:1023f4008300780000016200018062006102b8007d
:1024040074179800051f98007e1090008e18900095
:10241400c000dd000000200070179800011f980024
:102424007e1290008e1a9000541798006517980039
:102434006110b80070179800011f98005e11900099
:10244400ee1190007e1290008e1a9000040171002b
:102454008581710052179800631798005e109000f0
:10246400ee109000e00f5000e08f580014003d0083
:102474005e119000ee11900061015100e08159005d
:10248400521798006317980000ff2f00f1ff2f00e8
:102494005e129000ee1290000002720081827200bf
:1024a40054179800651798005e109000ee10900085
:1024b40061004000e08048005017980061179800c0
:1024c4005e109000ee109000800078008076280066
:1024d40000804000904078002e0090000148780071
:1024e4000080fa00000006003800fa00008fbe00e9
:1024f4001e00be0020079800310798002e009000af
:10250400be009000e00f5000e08f580008003d002e
:10251400f0ff2f00010020002e019000be0190006a
:102524000201400083814800220798003307980085
:102534002e029000be02900040a8de00cf80de0094
:10254400f2002000030028000002780081027800d5
:1025540002007800830078000001620001806200bc
:102564006102b80064079800750798006e00900037
:10257400fe009000c000dd0000002000600798000d
:10258400710798006e029000fe02900044079800c4
:10259400550798006110b80060079800710798000b
:1025a4004e019000de0190006e029000fe02900049
:1025b4000401710085817100420798005307980057
:1025c4004e009000de009000e00f5000e08f5800b5
:1025d40014003d004e019000de01900061015100a5
:1025e400e0815900420798005307980000ff2f002c
:1025f400f1ff2f004e029000de02900000027200f4
:102604008182720044079800550798004e0090009c
:10261400de00900061004000e08048004007980020
:10262400510798004e009000de0090008000780072
:102634008076280000804000104078000ee8b70043
:102644001e00be00000f9800110f98000e099000a4
:102654009e099000e00f5100e08f590008003d00f2
:10266400f0ff2000010020000e0a90009e0a900056
:102674000402400085824800040f9800150f98005a
:102684000e0990009e099000441add004c10de00f3
:1026940000007200cc98de00f20020000300280045
:1026a400000278008102780002007800830078003c
:1026b40000016200018062006102b800440f9800ca
:1026c400550f98004e089000de089000c000dd0011
:1026d40000002000400f9800510f98004e0a90000f
:1026e400de0a9000240f9800350f98006110b8009e
:1026f400400f9800510f98002e099000be099000d9
:102704004e0a9000de0a9000040171008581710078
:10271400220f9800330f98002e089000be089000f6
:10272400e00f5000e08f580014003d002e09900087
:10273400be09900061015100e0815900220f980008
:10274400330f980000ff2f00f1ff2f002e0a900096
:10275400be0a90000002720081827200240f980069
:10276400350f98002e089000be08900061004000cc
:10277400e0804800200f9800310f98002e08900048
:10278400be08900080007800807628000080400019
:10279400104078000fe8b7001e00be00600f9800dc
:1027a400710f98006e099000fe099000e00f51002f
:1027b400e08f590006003d006e0a9000fe0a90006a
:1027c400f40fb0000580b000640f9800750f9800f6
:1027d4006e099000fe099000481add004810de00e2
:1027e40000007200c898de00f200200003002800f8
:1027f40000027800810278000200780083007800eb
:1028040000016200018062006102b8002417980090
:10281400351798002e109000be109000c000dd0007
:102824000000200020179800311798002e12900005
:10283400be12900004179800151798006110b80094
:1028440020179800311798000e1190009e119000e7
:102854002e129000be129000040171008581710057
:1028640002179800131798000e1090009e10900005
:10287400e00f5000e08f580014003d000e1190004e
:102884009e11900061015100e081590002179800e7
:102894001317980000ff2f00f1ff2f000e12900075
:1028a4009e12900000027200818272000417980048
:1028b400151798000e1090009e10900061004000c3
:1028c400e080480000179800111798000e1090003f
:1028d4009e109000800078008076280000804000e0
:1028e4001040780010e8b7001e00be00a2002000cf
:1028f40003002000d0f60700f200200003002800a7
:1029040000027800810278000200780083007800d9
:1029140000016200018062006102b800641798003f
:10292400751798006e109000fe109000c000dd0036
:102934000000200060179800711798006e12900034
:10294400fe12900044179800551798006110b800c3
:1029540060179800711798004e119000de119000d6
:102964006e129000fe1290000401710085817100c6
:1029740042179800531798004e109000de109000f4
:10298400e00f5000e08f580014003d004e119000fd
:10299400de11900061015100e08159004217980056
:1029a4005317980000ff2f00f1ff2f004e129000e4
:1029b400de129000000272008182720044179800b7
:1029c400551798004e109000de10900061004000f2
:1029d400e080480040179800511798004e1090006e
:1029e400de1090008000780080762800008040008f
:1029f4001040780011e8b7001e00be00f20020006d
:102a040003002800000278008102780002007800a8
:102a14008300780000016200018062006102b80056
:102a2400241f9800351f98002e189000be1890009f
:102a3400c000dd0000002000201f9800311f980016
:102a44002e1a9000be1a9000041f9800151f9800bb
:102a54006110b800201f9800311f98000e199000d3
:102a64009e1990002e1a9000be1a90000401710065
:102a740085817100021f9800131f98000e189000a2
:102a84009e189000e00f5000e08f580014003d00a5
:102a94000e1990009e19900061015100e0815900c7
:102aa400021f9800131f980000ff2f00f1ff2f0052
:102ab4000e1a90009e1a9000000272008182720029
:102ac400041f9800151f98000e1890009e1890007f
:102ad40061004000e0804800001f9800111f98002a
:102ae4000e1890009e1890008000780080762800d0
:102af400008040001040780012e8b7000080fa001f
:102b0400000006000a00fa00008fbe0022079800a9
:102b14001e00be00023a8400133a840033f6070014
:102b2400e00f5000e08f58000d0032001e00be0080
:102b3400023a8400133a84002cf60700a200200015
:102b44000300200039f60700800078008076280012
:102b54000080400010407800004f980002003700c9
:102b64000040eb00004f98002e0090008e4890002b
:102b7400014878002e0090000000e800200798002b
:102b84001e00be00223a8400333a840017f6070080
:102b9400e00f5000e08f58000d0032001e00be0010
:102ba400223a8400333a840010f60700a200200081
:102bb400030020001df607008000780080762800be
:102bc40000804000104078007047980002003700f1
:102bd4000040eb00704798002e009000fe409000eb
:102be400014878002e0090000000e80020079800bb
:102bf4001e00be00423a8400533a8400fbf50700ed
:102c0400e00f5000e08f58000d0032001e00be009f
:102c1400423a8400533a8400f4f50700a2002000ed
:102c24000300200001f60700800078009077280058
:102c34000080400010407800604798000200370090
:102c44000040eb00604798002e009000ee4090009a
:102c5400014878002e0090000000e800200798004a
:102c64001e00be00623a8400733a8400dff5070058
:102c7400a200200003002000ecf50700800078008b
:102c84008076280000804000904078002e0090005c
:102c9400014878000080fa00000006000a00fa00eb
:102ca400008fbe00220798001e00be00023a840076
:102cb400133a8400cdf50700e00f5000e08f580070
:102cc4000d0032001e00be00023a8400133a840054
:102cd400c6f50700a200200003002000d3f507007a
:102ce4008000780080762800008040001040780042
:102cf400004f9800020037000040eb00004f98009e
:102d04002e0090008e489000014878002e0090001c
:102d14000000e800200798001e00be00223a84004c
:102d2400333a8400b1f50700e00f5000e08f5800fb
:102d34000d0032001e00be00223a8400333a8400a3
:102d4400aaf50700a200200003002000b7f5070041
:102d540080007800807628000080400010407800d1
:102d640070479800020037000040eb00704798005d
:102d74002e009000fe409000014878002e00900044
:102d84000000e800200798001e00be00423a8400bc
:102d9400533a840095f50700e00f5000e08f580087
:102da4000d0032001e00be00423a8400533a8400f3
:102db4008ef50700a2002000030020009bf5070009
:102dc4008000780080762800008040001040780061
:102dd40060479800020037000040eb00604798000d
:102de4002e009000ee409000014878002e009000e4
:102df4000000e800200798001e00be00623a84002c
:102e0400733a840079f50700a20020000300200033
:102e140086f5070080007800807628000080400056
:102e2400904078002e009000014878000080fa005d
:102e3400000006000a00fa00000f7800cacabf00aa
:102e44000044b2000004e0000f003a0007c8bf00cd
:102e54000004e0000700320007c8bf008080fb00c8
:102e64008076280000804000104078007047980069
:102e7400020037000040eb0070479800fe409000cd
:102e8400014f9800020037000040eb00004f98000b
:102e94001e0078008e489000014878001e0fe8005c
:102ea400cacabf000044b2000004e00012003a00a5
:102eb40007c8bf000004e00003003a0008c8bf00d0
:102ec4000004e0000700320008c8bf008080fb0057
:102ed4008076280000804000104078005047980019
:102ee400020037000040eb0050479800de4090009d
:102ef40061479800020037000040eb0060479800eb
:102f04001e007800ee409000014878001e0fe80093
:102f1400cacabf000044b2000004e00015003a0031
:102f240007c8bf000004e00006003a0008c8bf005c
:102f34000004e00003003a0009c8bf000004e000f8
:102f44000700320009c8bf008080fb00907728008a
:102f5400008040001040780030479800020037009d
:102f64000040eb0030479800be4090004147980075
:102f7400020037000040eb00404798001e00780034
:102f8400ce409000014878001e0fe800cacabf0076
:102f94000044b2000004e00007003a000ac8bf0081
:102fa4008080fb008076280000804000104078007c
:102fb40020479800020037000040eb0020479800ab
:102fc4001e007800ae409000014878000080fa00ae
:102fd400000006000a00fa00000f7800cacabf0009
:102fe4000044b2000004e0000f003a0007c8bf002c
:102ff4000004e0000700320007c8bf008080fb0027
:1030040080762800008040001040780070479800c7
:10301400020037000040eb0070479800fe4090002b
:10302400014f9800020037000040eb00004f980069
:103034001e0078008e489000014878001e0fe800ba
:10304400cacabf000044b2000004e00012003a0003
:1030540007c8bf000004e00003003a0008c8bf002e
:103064000004e0000700320008c8bf008080fb00b5
:103074008076280000804000104078005047980077
:10308400020037000040eb0050479800de409000fb
:1030940061479800020037000040eb006047980049
:1030a4001e007800ee409000014878001e0fe800f2
:1030b400cacabf000044b2000004e00015003a0090
:1030c40007c8bf000004e00006003a0008c8bf00bb
:1030d4000004e00003003a0009c8bf000004e00057
:1030e4000700320009c8bf008080fb0080762800fa
:1030f40000804000104078003047980002003700fc
:103104000040eb0030479800be40900041479800d3
:10311400020037000040eb00404798001e00780092
:10312400ce409000014878001e0fe800cacabf00d4
:103134000044b2000004e00007003a000ac8bf00df
:103144008080fb00807628000080400010407800da
:1031540020479800020037000040eb002047980009
:103164001e007800ae409000014878000080fa000c
:10317400000006000a00fa00000f78000cc8bf0027
:10318400e14f500010003a00cacabf000044b20028
:103194000004e00007003a0007c8bf008080fb007d
:1031a400807628000080400010407800004f98008e
:1031b400020037000040eb00004f98008e4890005a
:1031c400114f98000600370007c8bf008080fb003d
:1031d400807628000080400010407800104f98004e
:1031e4001e0078009e489000014878001e0fe800f9
:1031f4000cc8bf00e24f500013003a00cacabf0017
:103204000044b2000004e0000a003a0008c8bf000d
:103214008080fb0080762800008040001040780009
:103224008040780000c4b30000c07000604798007c
:103234000200370000c4b30060479800ee409000dd
:10324400714798000800370008c8bf008080fb0061
:1032540080762800008040009040780000c4b300cd
:1032640080c07000714798001e007800fe409000f6
:10327400014878001e0fe8000cc8bf00e34f50005f
:1032840011003a00cacabf000044b2000004e000c2
:1032940008003a0009c8bf008080fb00907728002e
:1032a40000804000104078000044a000404798008f
:1032b4000200370000c1b30040479800ce409000a0
:1032c400514798000800370009c8bf008080fb0000
:1032d40090772800008040001040780080407800fb
:1032e4000144a000514798001e007800de40900081
:1032f400014878001e0fe8000cc8bf00e44f5000de
:1033040010003a00cacabf000044b2000004e00042
:1033140007003a000ac8bf008080fb0080762800be
:1033240000804000104078002047980002003700d9
:103334000040eb0020479800ae40900031479800d1
:10334400060037000ac8bf008080fb008076280092
:103354000080400010407800304798001e0078003c
:10336400be409000014878000080fa00000006008a
:103374000200fa00004f7800114798001e80fb00fd
:10338400a2002000110009000280d8008080fb0008
:1033940080762800008040001040780004e8b700e0
:1033a4001e80fb00a2002000110009000280d8004a
:1033b4008000fd008080fb008076280000804000b3
:1033c4009040780000c4b30000c0700005e8b70066
:1033d4001e4090000080fb00a200200011000900a4
:1033e4000280d8008080fb00907728000080400095
:1033f400104078000044a00006e8b7001e4090008a
:103404000080fb00a2002000110009000280d80007
:103414008000fd008080fb00807628000080400052
:103424001040780007e8b7000080fa0000000600aa
:103434000a00fa00000f7800cacabf000042b200b6
:103444000004e00046003a00804380000000400091
:10345400010520008080400000842000008040009e
:1034640010007800e10f500011003a0008c8bf00b6
:103474000004e0000900320008c8bf008080fb009f
:1034840080762800008040009040780000c4b3009b
:1034940080c07000014f980002003700f0ceb300e6
:1034a400004f98008e489000114f9800200037007c
:1034b400804380000000400001052000808040001f
:1034c400008420000080400010007800e10f5000cc
:1034d4000700360008c8bf008080fb008076280003
:1034e4000080400010407800704798000e003700bc
:1034f40008c8bf000004e0000700320008c8bf008d
:103504008080fb0080762800008040001040780016
:1035140060479800020037000040eb0060479800c5
:10352400ee409000714798007e409000104f980044
:103534001e0078009e489000014878001e0fe800a5
:1035440009c8bf008080fb0080762800008040000e
:10355400904078001e00780001487800450037004c
:10356400804380000000400001052000808040006e
:10357400008420000080400010007800e10f50001b
:1035840011003a0008c8bf000004e000090032003e
:1035940008c8bf008080fb008076280000804000bf
:1035a4009040780000c4b30080c070004147980088
:1035b40002003700f0ceb30040479800ce409000a0
:1035c40051479800200037008043800000004000ed
:1035d400010520008080400000842000008040001d
:1035e40010007800e10f50000700360008c8bf0043
:1035f4008080fb0080762800008040001040780026
:10360400304798000e00370008c8bf000004e000ef
:103614000700320008c8bf008080fb0080762800c5
:1036240000804000104078002047980002003700d6
:1036340000c1b30020479800ae4090003147980085
:103644003e409000504798001e007800de409000f5
:10365400014878001e0fe80009c8bf008080fb0005
:103664008076280000804000904078001e0078009a
:10367400014878000080fa00000006001000fa00fb
:10368400004f780011079800cacabf000042b20078
:103694000004e00035003a0020c0b3009e4f100043
:1036a40011003a0007c8bf000004e000090032001e
:1036b40007c8bf008080fb0080762800008040009f
:1036c4009040780000c4b30080c07000614f98003f
:1036d40002003700f1ceb300614f98006e489000ad
:1036e400704f98001a00370021c0b3009ecf10001d
:1036f4000700360007c8bf008080fb0080762800e2
:103704000080400010407800504f98000e003700b1
:1037140007c8bf000004e0000700320007c8bf006c
:103724008080fb00807628000080400010407800f4
:10373400404f9800020037000040eb00404f9800d3
:10374400ce489000514f98005e489000704f98000a
:103754001e009000fe489000014878001e00900072
:103764000000e800100798003600370020c0b300be
:103774009e4f100011003a0007c8bf000004e0008b
:103784000900320007c8bf008080fb008076280053
:10379400008040009040780000c5b30080c07000f5
:1037a400214f98000200370001c5b300214f980053
:1037b4002e489000304f98001c00370021c0b30001
:1037c4009ecf10000700360007c8bf008080fb00b2
:1037d400807628000080400010407800104f980048
:1037e4001000370007c8bf000004e00009003200e1
:1037f40007c8bf008080fb0080762800008040005e
:1038040010407800804078000144a000014f9800e7
:103814000200370000c1b300004f98008e489000aa
:10382400114f98001e489000304f98001e009000e1
:10383400be489000014878001e0090000000e80097
:103844001007980010c0b3009e4f100011003a00fa
:1038540008c8bf000004e0000900320008c8bf0027
:103864008080fb0080762800008040009040780033
:1038740000c4b30080c070006147980002003700a4
:10388400f1ceb300614798006e40900070479800f5
:103894001d00370011c0b3009ecf10000700360092
:1038a40008c8bf008080fb008076280000804000ac
:1038b40010407800504798001100370007c8bf0037
:1038c4000004e00003003a0008c8bf000004e00060
:1038d4000700320008c8bf008080fb008076280003
:1038e40000804000104078004047980002003700f4
:1038f4000040eb0040479800ce40900051479800ac
:103904005e409000704798001e009000fe409000ba
:10391400014878001e0090000000e800100798009d
:1039240009c8bf008080fb0080762800008040002a
:10393400904078001e009000014878000080fa0052
:10394400000006001400fa00004f780011079800e8
:10395400cacabf000042b2000004e00035003a00c9
:1039640030c0b3009e4f100011003a0007c8bf00da
:103974000004e0000900320007c8bf008080fb009b
:1039840080762800008040009040780000c4b30096
:1039940080c070002157980002003700f1ceb300b8
:1039a400215798002e509000305798001a00370085
:1039b40031c0b3009ecf10000700360007c8bf0017
:1039c4008080fb0080762800008040001040780052
:1039d400105798000e00370007c8bf000004e0002d
:1039e4000700320007c8bf008080fb0080762800f3
:1039f4000080400010407800005798000200370013
:103a04000040eb00005798008e509000115798002a
:103a14001e509000305798001e009000be50900039
:103a2400014878001e0090000000e800100798008c
:103a34003600370030c0b3009e4f100011003a002a
:103a440007c8bf000004e0000900320007c8bf0037
:103a54008080fb0080762800008040009040780041
:103a640000c5b30080c07000614f980002003700a9
:103a740001c5b300614f98006e489000704f9800e4
:103a84001c00370031c0b3009ecf10000700360081
:103a940007c8bf008080fb008076280000804000bb
:103aa40010407800504f98001000370007c8bf003e
:103ab4000004e0000900320007c8bf008080fb005a
:103ac4008076280000804000104078008040780014
:103ad4000144a000414f98000200370000c1b30028
:103ae400404f9800ce489000514f98005e48900097
:103af400704f98001e009000fe4890000148780026
:103b04001e0090000000e8001007980020c0b300d9
:103b14009e4f100011003a0008c8bf000004e000e6
:103b24000900320008c8bf008080fb0080762800ae
:103b3400008040009040780000c4b30080c0700052
:103b4400214f980002003700f1ceb300214f9800b6
:103b54002e489000304f98001d00370021c0b3005c
:103b64009ecf10000700360008c8bf008080fb000d
:103b7400807628000080400010407800104f9800a4
:103b84001100370007c8bf000004e00003003a003a
:103b940008c8bf000004e0000700320008c8bf00e6
:103ba4008080fb0080762800008040001040780070
:103bb400004f9800020037000040eb00004f9800cf
:103bc4008e489000114f98001e489000304f980086
:103bd4001e009000be489000014878001e0090002e
:103be4000000e8001007980010c0b3009e4f1000ba
:103bf40011003a0009c8bf000004e00009003200c7
:103c040009c8bf008080fb00807628000080400047
:103c14009040780000c4b30080c0700061479800f1
:103c240002003700f1ceb300614798006e40900067
:103c3400704798002000370011c0b3009ecf1000d9
:103c44000700360009c8bf008080fb00807628008a
:103c5400008040001040780050479800140037005e
:103c640007c8bf000004e00006003a0008c8bf000f
:103c74000004e00003003a0009c8bf000004e000ab
:103c84000700320009c8bf008080fb00807628004e
:103c94000080400010407800404798000200370040
:103ca4000040eb0040479800ce40900051479800f8
:103cb4005e409000704798001e009000fe40900007
:103cc400014878001e0090000000e80010079800ea
:103cd4000ac8bf008080fb00807628000080400076
:103ce400904078001e009000014878000080fa009f
:103cf400000006001000fa00004f78001107980039
:103d04008bf40700cacabf000044b2000004e000fc
:103d140077003a001e0090007007980021c0b3009d
:103d24009ecf100011003a0007c8bf000004e00055
:103d34000900320007c8bf008080fb00807628009d
:103d4400008040009040780000c4b30080c0700040
:103d5400414f980002003700f0ceb300404f980066
:103d6400ce489000514f98001a00370020c0b3008d
:103d74009e4f10000700360007c8bf008080fb007c
:103d8400807628000080400010407800304f980072
:103d94000e00370007c8bf000004e000070032002f
:103da40007c8bf008080fb008076280000804000a8
:103db40010407800204f9800020037008040eb004c
:103dc400214f98002e489000304f9800be48900034
:103dd400514f9800de4890007e0090000148780022
:103de400fe0090000100e800100798001e009000fb
:103df4004007980011c0b3009ecf100011003a0094
:103e040008c8bf000004e0000900320008c8bf0071
:103e14008080fb008076280000804000904078007d
:103e240000c4b30080c070006147980002003700ee
:103e3400f0ceb30060479800ee40900071479800c0
:103e44001d00370010c0b3009e4f1000070036005d
:103e540008c8bf008080fb008076280000804000f6
:103e640010407800504798001100370007c8bf0081
:103e74000004e00003003a0008c8bf000004e000aa
:103e84000700320008c8bf008080fb00807628004d
:103e9400008040001040780040479800020037003e
:103ea4008040eb00414798004e40900050479800f6
:103eb400de40900071479800fe4090004e00900054
:103ec40001487800ce0090000100e8001007980037
:103ed4001e01900009c8bf008080fb008076280086
:103ee4000080400010407800004978000900370045
:103ef4000e80e800000378008042eb000042eb00f3
:103f04008041eb000041eb008040eb000040eb00ff
:103f14000ef607000080fa00000006000000fa0018
:103f240003f40700cbcabf00644060000004e00053
:103f340010003a00cacabf000044b2000004e00006
:103f440006003a004380200000c1eb0080c0eb0073
:103f540000c0eb00a6f507001500370043802000e1
:103f6400e2cbb300d1c9b30030c3b300a0f507005e
:103f74000f003700cacabf000044b2000004e000ca
:103f840006003a0043802000f2cab300e1c0b30047
:103f94000040eb0096f50700050037004380200041
:103fa4000041eb008040eb000040eb0090f507007f
:103fb4000080fa00000006002000fa00404f98003c
:103fc40072079800030f9800110f98007e0090006c
:103fd4008e08900010079800210798000040eb001d
:103fe400004f78001e009000ae009000e00f5000db
:103ff400e08f580008003d0010c0b300004f780067
:104004001e009000ae00900060001000e0801800d8
:1040140010079800210798001e009000ae00900041
:10402400420620000300200003f10700a200200044
:10403400030020000ff1070080407800660047006d
:10404400014878001e009000ae009000a2002000fd
:1040540003002000f8f00700a20020000300200065
:1040640004f1070080407800660047001140980082
:104074001e009000ae009000a2002000030020006b
:10408400fcf007008040780066004700214098005b
:104094001e04e0003a003a004e489000e24f5000ff
:1040a40013003a0066004700104078000004e00066
:1040b4000a00320066004700104078008080fb0050
:1040c40080762800008040009040780000c4b3004f
:1040d40080c07000615f980002003700f1ceb30029
:1040e400615f98006e589000705f98001d00370063
:1040f4004e489000e24f500008003600660047002a
:10410400104078008080fb0080762800008040000a
:1041140010407800505f9800100037006600470098
:10412400104078000004e0000800320066004700f8
:10413400104078008080fb008076280000804000da
:1041440010407800405f9800020037008040eb0088
:10415400415f98004e589000505f9800de589000e0
:10416400715f98001e089000fe5890000148780086
:104174001e0890000000e800100f98003b00370074
:104184004e489000e24f500013003a00660047008a
:10419400104078000004e0000a0032006600470086
:1041a400104078008080fb0080762800008040006a
:1041b4009040780000c5b30080c07000215f980073
:1041c4000200370000c5b300205f9800ae5890008d
:1041d400315f98001f0037004e489000e24f5000b6
:1041e4000800360066004700104078008080fb001d
:1041f400807628000080400010407800105f98000e
:104204001200370066004700104078000004e00008
:104214000a00320066004700104078008080fb00ee
:1042240080762800008040001040780080407800ac
:104234000144a000015f98000200370000c1b300f0
:10424400005f98008e589000115f98001e589000ef
:10425400305f98001e089000be5890000148780016
:104264001e0890000000e800100f98004e489000cf
:10427400e14f500013003a006600470010409000e0
:104284000004e0000a00320066004700104090007d
:104294008080fb00807628000080400090407800f9
:1042a40000c4b30080c0700061579800020037005a
:1042b400f0ceb30060579800ee509000715798000c
:1042c400210037004e489000e14f500008003600ae
:1042d40066004700104090008080fb008076280034
:1042e40000804000104078005057980014003700b8
:1042f40066004700104078000004e00004003a0023
:1043040066004700104090000004e00008003200fe
:1043140066004700104090008080fb0080762800f3
:104324000080400010407800405798000200370099
:104334000040eb0040579800ce5090005157980031
:104344005e509000705798001e089000fe50900038
:10435400014878001e0890000000e800100f980043
:1043640066004700204090008080fb008076280093
:1043740000804000904078001e08900001487800ba
:104384000080fa00000006000000fa00cbcabf005b
:10439400644060000004e0001a00320084c8bf00da
:1043a4000004e00006003a004380200082c2b3000b
:1043b400a1c5b30080c2b3008df407000500370027
:1043c40043802000e2c0b300a1c5b30080c2b300a3
:1043d40087f4070002c8bf000040e80002e8b70005
:1043e400218020009140780030c6b30080cf500077
:1043f4001d0036000040eb0002e8b7007f0c070008
:1044040019003700cbcabf00704060000004e00010
:10441400060032004380200002c8b30001c8b30084
:1044240000c8b30072f407000f003700cbcabf0006
:10443400684060000004e000060032004380200071
:1044440042c0b30041c0b30040c0b30068f40700e9
:1044540005003700424380005343800080448000bd
:1044640041802000d4fe07000080fa00000006000e
:104474000000fa00aef20700cbcabf00644060003f
:104484000004e00006003a0043802000b2c7b300f5
:10449400e1c0b30090cbb30055f407000900370026
:1044a400804380000000400001052000808040001f
:1044b400008420000080400010007800418020002b
:1044c4006efc0700cacabf000044b2000004e0004a
:1044d40005003200438020000041eb008040eb00e7
:1044e4000040eb0042f407000080fa0000000600e0
:1044f4000000fa008ef20700cbcabf0064406000df
:104504000004e00006003a0043802000c2c6b30065
:10451400e1c0b30090cbb30035f4070009003700c5
:10452400804380000000400001052000808040009e
:1045340000842000008040001000780041802000aa
:104544004efc0700cacabf000044b2000004e000e9
:1045540005003200438020000041eb008040eb0066
:104564000040eb0022f407000080fa00000006007f
:104574000000fa006ef20700cbcabf00644060007e
:104584000004e00006003a004380200092cfb3000c
:10459400f1c1b3000040eb0015f40700040037003c
:1045a40009c8bf00418020006011b80082fe0700e6
:1045b400cacabf000044b2000004e0000500320093
:1045c400438020000041eb008040eb000040eb0002
:1045d40007f407000080fa00000006000000fa005b
:1045e40053f2070044802000f3c1b300f2c1b300ca
:1045f400b1cbb3000040eb0013f40700818020002e
:104604000040eb00cffc0700cbcabf006440600051
:104614000004e0000b003200cacabf000044b2002c
:104624000004e000070032008080200000027800cf
:104634008041eb000041eb008040eb000040eb00c8
:1046440001f407000080fa00000006000200fa00ee
:1046540037f207004480200063cbb30092cbb30051
:10466400e1c3b3000040eb00f7f3070009c8bf0043
:104674000080fb00000f78001e007800e20f50005d
:10468400240032001e007800e20f500007003c00b6
:104694001e0078000000e0000e0032001e007800ca
:1046a400e10f500013003200390037001e0078007b
:1046b400e40f5000270032001e007800e40f500081
:1046c4001c0035001e007800e50f50002900320060
:1046d4002f0037008080200000027800f3cbb30065
:1046e40032c7b3008040eb000040eb00d6f3070074
:1046f400270037008080200000027800e3cbb3005d
:1047040072cfb3008040eb000040eb00cef3070013
:104714001f0037008080200000027800d3c9b30056
:1047240072cfb30031c0b3000040eb00c6f3070002
:1047340017003700808020000002780033c3b300e4
:1047440000c1eb0071c9b3000040eb00bef30700e9
:104754000f0037008080200000027800e3cbb30014
:1047640032ccb30061cbb3000040eb00b6f30700da
:10477400070037008080200000027800d3c9b3000e
:1047840062cfb30031c0b30030c0b300aef3070052
:10479400cbcabf00644060000004e0000b0032009c
:1047a400cacabf000044b2000004e000070032009f
:1047b40080802000000278008041eb000041eb0083
:1047c4008040eb000040eb009ff307000080fa00fc
:1047d400000006000200fa00d5f107004480200022
:1047e400a3c8b300a2c8b300e1c1b300c0cab300f8
:1047f40095f3070009c8bf000080fb00000f780094
:104804001e007800e10f5000170032001e007800ef
:10481400e20f50000c0032001e0078000000e0009f
:104824000100320017003700808020000002780069
:1048340033c0b300a2c1b300f1cbb300e0c3b300f3
:1048440081f307000f003700808020000002780009
:1048540033c0b300c2cbb300f1cbb300e0c3b300a9
:1048640079f30700070037008080200000027800f9
:1048740033c0b300e2c1b300f1cbb300e0c3b30073
:1048840071f30700cbcabf00644060000004e0007d
:104894000b003200cacabf000044b2000004e000aa
:1048a4000700320080802000000278008041eb0085
:1048b4000041eb008040eb000040eb0062f3070096
:1048c4000080fa00000006000000fa000080fa00f0
:1048d400000006000000fa000080fa000000060054
:1048e4000000fa00cbcabf00644060000004e0008e
:1048f4002a003a00cccabf00704060000004e00007
:1049040013003a00804380000000e00005003a00f4
:1049140043802000e2c0b300f1ceb3000040eb00be
:1049240033f30700b05e80000000e800b05e88004a
:10493400b15e8000700c2000808f5000250036008e
:104944000000eb00b05e8800cb4aa80021003700cd
:10495400804380000000e00005003a00438020000e
:10496400e2c0b300f1ceb30030c0b30020f30700bf
:10497400b05e80000000e800b05e8800b15e800098
:10498400700c2000808f5000120036000000eb00f5
:10499400b05e8800cb4aa8000e0037008043800038
:1049a4000000e00004003a00705880008158800044
:1049b400428020007bf5070080438000e10f500017
:1049c40004003a0090588000a158800042802000e2
:1049d40074f507000080fa00000006000000fa00e9
:1049e4004380200002c1b3008040eb000040eb0094
:1049f400fff207000080fa00000006000000fa0041
:104a04000080fa00000006000000fa000080fa00ae
:104a1400000006000000fa004380200000c1eb0003
:104a240080c0eb0000c0eb00f1f207000080fa0048
:104a3400000006000000fa000080fa0000000600f2
:104a44000000fa003af10700cbcabf0064406000de
:104a54000004e00006003a0043802000c2ceb30008
:104a6400e1c0b30090cbb300e1f2070009003700c6
:104a74008043800000004000010520008080400049
:104a84000084200000804000100078004180200055
:104a9400fafa0700cacabf000044b2000004e000ea
:104aa40005003200438020000041eb008040eb0011
:104ab4000040eb00cef207000080fa000000060080
:104ac4000000fa001af10700804380008000e8002b
:104ad4008076280000804000104078004480200048
:104ae40080417800c2c6b300c1c2b300b0cbb300ea
:104af400d5f207008280200080438000000040003f
:104b040001052000808040000084200000804000d7
:104b140010007800820078008afb0700cbcabf002f
:104b2400644060000004e00007003a00cacabf0005
:104b34000044b2000004e0000e0032000040eb002c
:104b440007e8b7000b003700cacabf000044b20030
:104b54000004e0000700320080802000000278009a
:104b64008041eb000041eb008040eb000040eb0093
:104b7400b5f207000080fa00000006000000fa0009
:104b8400ebf00700804380008000e8008076280076
:104b9400008040001040780044802000804178006c
:104ba400b2c7b300c1c2b300b0cbb300a6f20700d2
:104bb4008280200080438000000040000105200026
:104bc40080804000008420000080400010007800b5
:104bd400820078005bfb0700cbcabf006440600022
:104be4000004e00007003a00cacabf000044b20053
:104bf4000004e0000e0032000040eb0007e8b700bc
:104c04000b003700cacabf000044b2000004e00031
:104c14000700320080802000000278008041eb0011
:104c24000041eb008040eb000040eb0086f20700ff
:104c34000080fa00000006000000fa00bcf0070043
:104c4400804380008000e8008076280000804000d7
:104c5400104078004480200080417800c2ceb30028
:104c6400c1c2b300b0cbb30077f20700828020004a
:104c74008043800000004000010520008080400047
:104c8400008420000080400010007800820078003a
:104c94002cfb0700cbcabf00644060000004e000a6
:104ca40007003a00cacabf000044b2000004e00092
:104cb4000e0032000040eb0007e8b7000b0037009d
:104cc400cacabf000044b2000004e000070032007a
:104cd40080802000000278008041eb000041eb005e
:104ce4008040eb000040eb0057f207000080fa0020
:104cf400000006000000fa008df0070080438000e9
:104d04008000e80080762800008040001040780091
:104d14004480200080417800f2c5b300e1c1b300b3
:104d2400a0c8b30048f20700818020000040eb00d7
:104d340004fb0700cbcabf00644060000004e0002d
:104d440007003a00cacabf000044b2000004e000f1
:104d54000e0032000040eb0007e8b7000b003700fc
:104d6400cacabf000044b2000004e00007003200d9
:104d740080802000000278008041eb000041eb00bd
:104d84008040eb000040eb002ff207000080fa00a7
:104d9400000006000000fa00804380000000e000ec
:104da40006003a0044802000b3cbb300a2c8b3008d
:104db4008040eb000040eb0023f207000080fa0083
:104dc400000006000000fa000080fa00000006005f
:104dd4000000fa000080fa00000006000000fa005b
:104de4000080fa00000006000000fa008043800002
:104df4000000e00006003a0044802000b3cbb3007a
:104e0400a2c8b3008040eb000040eb000ef20700a4
:104e14000080fa00000006000000fa000080fa009a
:104e2400000006000200fa0014c8bf000080fb0066
:104e3400000f78001e007800e10f500004003200db
:104e44001e007800ee0f5000040032000500370009
:104e5400e0c0b30014e8b7000200370010c0b3008c
:104e640014e8b7000080fa00000006000200fa000f
:104e740014c8bf000080fb00000f78001e007800fb
:104e8400e10f5000040032001e007800eb0f5000c8
:104e94000300320003003700e80a0700010037006e
:104ea400d60907000080fa00000006000200fa009c
:104eb40014c8bf000080fb00000f78001e007800bb
:104ec400e10f50000d0032001e007800f40f500076
:104ed4000100320009003700804380000000e00038
:104ee40003003a00100020008043880002003700cd
:104ef4000000eb0080438800a20907000080fa004c
:104f0400000006000000fa000080fa00000006001d
:104f14000000fa000080fa00000006000200fa0017
:104f240014c8bf000080fb00000f78001e0078004a
:104f3400e20f50002b0035009e007800e38f5000f4
:104f4400040034009e00780070805000e30f50008d
:104f540024003e00cbcabf00644060000004e000af
:104f640020003200cacabf000080fb004500de00fa
:104f74000004a20061406000614060006140600084
:104f8400614060004501dd00a1ac20009140780043
:104f9400f0cdb30000c0600002407000caeab70060
:104fa400cacabf000042b2000004e0000d00320093
:104fb40007c8bf00e14f50000a00360010c0b3001c
:104fc40007e8b70090c0b30008e8b70090c0b3008a
:104fd40009e8b70090c0b3000ae8b70090c0b30076
:104fe4000be8b7000080fa00000006000200fa0097
:104ff40014c8bf000080fb00000f78001e0078007a
:10500400e10f50000d0032001e007800f20f500036
:105014000100320009003700804380000000e000f6
:1050240003003a001000200080438800020037008b
:105034000000eb0080438800200907000080fa008c
:10504400000006000000fa0014c8bf000080fb0046
:10505400e10f500001003200030037000000eb00b4
:1050640080438800720907000080fa0000000600ef
:105074000000fa000080fa00000006000200fa00b6
:1050840014c8bf000080fb00000f78001e007800e9
:10509400e10f50000d0032001e007800f10f5000a7
:1050a4000100320009003700804380000000e00066
:1050b40003003a00100020008043880002003700fb
:1050c4000000eb0080438800e60807000080fa0037
:1050d400000006000000fa0014c8bf000080fb00b6
:1050e400e10f500001003200030037000000eb0024
:1050f40080438800690907000080fa000000060068
:105104000000fa000080fa00000006000200fa0025
:1051140014c8bf000080fb00000f78001e00780058
:10512400e10f50000d0032001e007800f30f500014
:105134000100320009003700804380000000e000d5
:1051440003003a001000200080438800020037006a
:105154000000eb0080438800ee0807000080fa009e
:10516400000006000400fa0014c8bf000080fb0021
:105174006101b900e0ff2f00f1ff2f0002014000a0
:1051840083814800028fbe0020012000010020001e
:105194001e01be00800f5100818f590019003e008e
:1051a4001e00be000060010012003700110037002d
:1051b4001200370011003700100037000f003700cd
:1051c4000e0037000d0037000e0037000d003700c9
:1051d40008003700070037000800370007003700d1
:1051e40004003700030037000200370001003700d5
:1051f400000037000109070003003700ff0807001b
:1052040001003700fd0807000080fa0000000600d6
:105214000400fa00881f780014c8bf000080fb0057
:105224006101b900e0ff2f00f1ff2f0002014000ef
:1052340083814800028fbe0020012000010020006d
:105244001e01be00800f5100818f5900ce013e0027
:105254001e00be000060010012003700410037004c
:1052640043013700850137009e013700b201370042
:10527400c5013700c401370051013700c2013700ae
:1052840068003700c0013700bf013700be01370096
:1052940080003700a3003700ce003700f900370044
:1052a4001b013700cbcabf00644060000004e0006b
:1052b40004003a00cb4aa80010c0b3000ce8b700c1
:1052c400b1013700110707000001be0080438000d0
:1052d4004200dd00810b200080804000008420001b
:1052e400008040001000be00800f5100818f5900e3
:1052f40019003400050707000001be00f070220009
:1053040001002000800f5100818f590012003c00e1
:10531400fe0607000001be0010832f00f1ff2f00de
:10532400800f5100818f59000b00350088438000a5
:10533400f60607000001be004240dd00810c20009b
:105344008080400000842000008040000288be006d
:105354004f0a0700a908070010c0b3000ce8b70003
:1053640089013700cbcabf00644060000004e0003c
:1053740004003a00cb4aa80010c0b3000ce8b70000
:1053840081013700e10607000001be008043800070
:105394004200dd00810c2000808040000084200059
:1053a400008040001000be00800f5100818f590022
:1053b40019003d00d50607000001be00f070220070
:1053c40001002000800f5100818f590012003c0021
:1053d400ce0607000001be0010832f00f1ff2f004e
:1053e400800f5100818f59000b00350088438000e5
:1053f400c60607000001be004240dd00810b20000c
:105404008080400000842000008040000288be00ac
:105414001f0a07007908070010c0b3000ce8b700a2
:1054240059013700cbcabf00644060000004e000ab
:1054340004003a00cb4aa80010c0b3000ce8b7003f
:1054440051013700b10607000001be00f02324001b
:10545400f1002000800f5100818f59000a003c00a8
:1054640088438000a90607000001be004240dd0019
:10547400e400400000842000008040000288be0058
:10548400030a07005d08070010c0b3000ce8b7006a
:105494003d013700cbcabf00644060000004e00057
:1054a40004003a00cb4aa80010c0b3000ce8b700cf
:1054b40035013700950607000001be00f070220098
:1054c40001002000800f5100818f590012003c0020
:1054d4008e0607000001be0010832f00f1ff2f008d
:1054e400800f5100818f59000b00350088438000e4
:1054f400860607000001be004240dd0001022000d4
:105504008080400000842000008040000288be00ab
:10551400df0907003908070010c0b3000ce8b70022
:1055240019013700cbcabf00644060000004e000ea
:1055340004003a00cb4aa80010c0b3000ce8b7003e
:1055440011013700710607000001be00804380008e
:105554004200dd00f4004000008420000080400090
:105564001000be00800f5100818f590016003d00cd
:10557400660607000001be00804380004200dd0093
:10558400810b2000808040000084200000804000c7
:105594001000be00800f5100818f59000a003500b1
:1055a40088438000590607000001be004240dd0028
:1055b400ec00400000842000008040000288be000f
:1055c400b30907000d08070010c0b3000ce8b700ca
:1055d400ed003700cbcabf00644060000004e00067
:1055e40004003a00cb4aa80010c0b3000ce8b7008e
:1055f400e5003700450607000001be008043800037
:105604004200dd00ec0040000084200000804000e7
:105614001000be00800f5100818f59001600340025
:105624003a0607000001be00804380004200dd000e
:10563400810c200080804000008420000080400015
:105644001000be00800f5100818f59000a003c00f9
:10565400884380002d0607000001be004240dd00a3
:10566400f400400000842000008040000288be0056
:1056740087090700e107070010c0b3000ce8b70072
:10568400c1003700cbcabf00644060000004e000e2
:1056940004003a00cb4aa80010c0b3000ce8b700dd
:1056a400b9003700190607000001be00f07022009f
:1056b40001002000800f5100818f590011003c002f
:1056c400120607000001be0010832f00f1ff2f0017
:1056d400800f5100818f59000a00350088438000f3
:1056e4000a0607000001be004240dd00e40040005d
:1056f40000842000008040000288be006409070086
:10570400be07070010c0b3000ce8b7009e003700c6
:10571400cbcabf00644060000004e00004003a000b
:10572400cb4aa80010c0b3000ce8b70096003700bd
:1057340009c8bf00e54f50000a003e0088438000be
:10574400f20507000001780008004400fc00400056
:105754000084200000804000020878004c09070003
:10576400a607070010c0b3000ce8b7008600370096
:10577400cbcabf00644060000004e00004003a00ab
:10578400cb4aa80010c0b3000ce8b7007e00370075
:1057940088438000dd05070000017800080044000c
:1057a400010520008080400000842000008040002b
:1057b40002087800360907009007070072003700d6
:1057c400cbcabf00644060000004e00007003a0058
:1057d400cccabf00704060000004e00003003a003f
:1057e400cb4aa800cc8aa90067003700cbcabf0007
:1057f400644060000004e00008003200cccabf002e
:10580400704060000004e00004003a002009070032
:10581400cb4aa900cc8aa8005b003700cbcabf00e2
:10582400644060000004e00007003a00cccabf00f6
:10583400704060000004e00003003200cb4aa8007e
:10584400cc8aa80050003700cbcabf006440600077
:105854000004e0004c003200cccabf00704060007d
:105864000004e0004800320009090700cb4aa900ff
:10587400cc8aa9006107070043003700cbcabf00e8
:10588400644060000004e00004003a00cb4aa80031
:1058940010c0b3000ce8b7003b0037009b050700bd
:1058a400e00f5000e08f58000b003400970507000c
:1058b4000001be00f00f200001002000800f510005
:1058c400818f590004003c00900507007044880053
:1058d400ef0807004907070010c0b3000ce8b70041
:1058e40029003700cbcabf00644060000004e00018
:1058f40004003a00cb4aa80010c0b3000ce8b7007b
:1059040021003700810507000001be00400020008f
:1059140001002000800f5100818f59001a003c00c3
:105924007a05070060448800d90807002f1907008a
:105934003207070014003700cbcabf006440600080
:105944000004e00004003a00cb4aa80010c0b300f1
:105954000ce8b7000c0037006c0507000001be001e
:105964002000200001002000800f5100818f590089
:1059740005003c006505070050448800c408070082
:105984001a1907001d0707004f0478000080fa0069
:10599400000006000000fa0014c8bf000080fb00ed
:1059a400e10f500001003200030037000000eb005b
:1059b40080438800930607000080fa000000060078
:1059c4000600fa0014c8bf000080fb0020079800fe
:1059d4002e009000e60f50001c003200ae00900034
:1059e400e68f500001003c001b0037002e009000a1
:1059f400e70f500017003200ae009000eb8f50000c
:105a04000100320014003700904380001007980012
:105a14008040eb00014f78001e009000e50f50001d
:105a24000200340011c0b300014f78009e009000c2
:105a34000100e800904388001e4078000004e00064
:105a440005003200f2070700030037006b07070068
:105a540001003700580707000080fa000000060024
:105a64000000fa0014c8bf000080fb00e10f5000e2
:105a740001003200030037000000eb00804388007f
