:020000040000fa
:080000000001040000000000f3
:020000040000fa
:10020000cfc8200080ff200000018800000000000f
:10021000050007000c000700de450200000000009a
:100220000040da000000fe004440a900c052200057
:100230000000e0000300320000002000a001880060
:100240004440a80000000600808b27000100200029
:100250001600370062004000e080480091018800ed
:100260009001ba0062004000e080480091018800df
:100270009002ba0062004000e08048000002eb00fb
:100280006028e10005003a008301e900070033001f
:10029000038009000059eb00040037006128e100e9
:1002a000010032000082eb00050007009101880088
:1002b0001001ba000200e000e6ff3a00000005006d
:1002c000910188008002780062004000e0804800d0
:1002d0003559ba008301e900080032002559ba00f7
:1002e0008301e900050032000400e000f4ff320061
:1002f00015d9ba008301e900f1ff3a0000000600b9
:1003000000000000000000000000000000000000ed
:1003100000000000000000000000000000000000dd
:1003200000000000000000000000000000000000cd
:1003300000000000000000000000000000000000bd
:1003400000000000000000000000000000000000ad
:10035000000000000000000000000000000000009d
:10036000000000000000000000000000000000008d
:10037000000000000000000000000000000000007d
:10038000000000000000000000000000000000006d
:10039000000000000000000000000000000000005d
:1003a000000000000000000000000000000000004d
:1003b000000000000000000000000000000000003d
:1003c000000000000000000000000000000000002d
:1003d000000000000000000000000000000000001d
:1003e000000000000000000000000000000000000d
:1003f00000000000000000000000000000000000fd
:1004000000000000000000000000000000000000ec
:1004100000000000000000000000000000000000dc
:1004200000000000000000000000000000000000cc
:1004300000000000000000000000000000000000bc
:100440006022b800060220000000d0008180d200a7
:100450000482d2008582d2000000a0000202520075
:1004600083825a00030031000202420083824a0064
:100470000000a1000603e900f3ff3a0000000600b7
:10048000efff07000400be0000000600839f680025
:100490000100e00002003d0060001000e080180054
:1004a0000300e00002003d0060011100e08119003e
:1004b000e3ff07004f00e00002003b006000100077
:1004c000e080180000000600811f78000100e000b5
:1004d00002003d0060001000e08018000300e00012
:1004e00002003d0060011100e0811900e4ff0700f7
:1004f0004f00e00002003b0060001000e0801800a8
:10050000000006000000fa00a1cbbf0061406000bf
:100510000004e00015003200104080000000e800f8
:10052000104088001140800010032000808f500090
:100530000e0036000000eb00104088009fcbbf008b
:100540000004a20061406000614060006140600002
:1005500061416000f1b9200091407800e0cfb30024
:1005600000c06000024070009febb7000080fa00fe
:10057000000006000600fa00100798002107980006
:100580000040eb00004f78000c0037001e80fb009d
:10059000800078001e00900000804000104078002d
:1005a000804078002e009000014878002e009000d6
:1005b0000000e800200798001e4fe8001e80fb00a6
:1005c000800078001e0090000080400010407800fd
:1005d0000004e000edff3a000080fa000000060091
:1005e0000800fa00004f7800114798002247980051
:1005f00033479800444798005547980036079800bd
:100600003e0090001e4878003e0090000000e80088
:10061000300798003e0090009e409000014878000e
:100620003e0090000000e800300798003e00900077
:10063000ae409000014878003e0090000000e800c5
:10064000300798003e009000be40900001487800be
:100650003e0090000000e800300798003e00900047
:10066000ce409000014878003e0090000000e80075
:10067000300798003e009000de409000014878006e
:100680000080fa00000006000600fa00004f780023
:100690001147980022479800334798002407980094
:1006a0002e0090001e4878002e0090000000e80008
:1006b000200798002e0090009e409000014878008e
:1006c0002e0090000000e800200798002e00900007
:1006d000ae409000014878002e0090000000e80035
:1006e000200798002e009000be409000014878003e
:1006f0000080fa00000006000600fa00004f7800b3
:100700001147980022479800334798002407980023
:100710002e0090001e4878002e0090000000e80097
:10072000200798002e0090009e409000014878001d
:100730002e0090000000e800200798002e00900096
:10074000ae409000014878002e0090000000e800c4
:10075000200798002e009000be40900001487800cd
:100760000080fa00000006000800fa00004f780040
:100770001147980022479800334798004447980053
:10078000350798003e0090001e4878003e0090001b
:100790000000e800300798003e0090009e40900066
:1007a000014878003e0090000000e8003007980003
:1007b0003e009000ae409000014878003e0090005e
:1007c0000000e800300798003e009000be40900016
:1007d000014878003e0090000000e80030079800d3
:1007e0003e009000ce409000014878000080fa0062
:1007f000000006000800fa00004f7800114798003a
:10080000224798003347980044479800554798007e
:10081000360798003e0090001e4878003e00900089
:100820000000e800300798003e0090009e409000d5
:10083000014878003e0090000000e8003007980072
:100840003e009000ae409000014878003e009000cd
:100850000000e800300798003e009000be40900085
:10086000014878003e0090000000e8003007980042
:100870003e009000ce409000014878003e0090007d
:100880000000e800300798003e009000de40900035
:10089000014878000080fa00000006000a00fa0013
:1008a00020079800310798002e0090004206200093
:1008b000110009000280d800a200200011000900e8
:1008c0000280d8008000fd00004f78002e009000cc
:1008d000a2002000110009000280d800a200200020
:1008e000110009000280d8008000fd001047980028
:1008f0002e009000a2002000110009000280d80004
:100900008000fd00204798001e4078000004e000b1
:10091000050032009e40780000c3b30080c0700024
:10092000114f98000200370000c2b300104f98002a
:100930003e0090009e489000014878003e009000e4
:100940000000e800300798001e4078000004e00036
:1009500003003a001e4090000004e0000500320051
:100960009e40900000c3b30080c07000014f98000b
:100970000200370000c2b300004f98003e00900014
:100980008e489000014878003e0090000000e8008a
:1009900030079800ae40900000c3b30080c07000e4
:1009a0003e009000014878000080fa000000060038
:1009b0000c00fa0020079800310798002e009000e4
:1009c0006102b80020622f001001be000400be00ca
:1009d0009bfe0700a200200003002000a8fe0700e5
:1009e000004f78002e0090006102b80020622f00b6
:1009f00020019000b00190000400be0090fe0700ae
:100a0000a2002000030020009dfe07001047980070
:100a10002e0090006102b80020622f00400190007b
:100a2000d00190000400be0085fe0700a200200057
:100a30000300200092fe0700204798002e0090003f
:100a40006102b80020622f0060019000f001900068
:100a50000400be007afe0700a20020000300200070
:100a600087fe0700304798001e4078000004e00031
:100a7000050032009e40780000c3b30080c07000c3
:100a8000214f98000200370000c2b300204f9800a9
:100a90003e009000ae489000014878003e00900073
:100aa0000000e800300798001e4078000004e000d5
:100ab00003003a001e4090000004e00005003200f0
:100ac0009e40900000c3b30080c07000114f98009a
:100ad0000200370000c2b300104f98003e009000a3
:100ae0009e489000014878003e0090000000e80019
:100af000300798001e4078000004e00006003a002d
:100b00001e4090000004e00003003a002e409000d8
:100b10000004e00005003200ae40900000c3b300c6
:100b200080c07000014f98000200370000c2b3007f
:100b3000004f98003e0090008e48900001487800d9
:100b40003e0090000000e80030079800be40900092
:100b500000c3b30080c070003e00900001487800e0
:100b60000080fa00000006000e00fa00300798002e
:100b7000410798003e0090006102b800e0632f003a
:100b80001001be000400be002dfe0700a2002000e0
:100b9000030020003afe0700004f78003e0090005e
:100ba0006102b800e0632f0020019000b0019000c6
:100bb0000400be0022fe0700a20020000300200067
:100bc0002ffe0700104798003e0090006102b80019
:100bd000e0632f0040019000d00190000400be00af
:100be00017fe0700a20020000300200024fe0700db
:100bf000204798003e0090006102b800e0632f009b
:100c000060019000f00190000400be000cfe07009f
:100c1000a20020000300200019fe070030479800c2
:100c20003e0090006102b800e0632f0000099000d0
:100c3000900990000400be0001fe0700a200200001
:100c4000030020000efe0700404798001e40780079
:100c50000004e000050032009e40780000c3b300ad
:100c600080c07000514f98000200370000c2b300ee
:100c7000504f98004e009000de48900001487800e8
:100c80004e0090000000e800400798001e407800e9
:100c90000004e00003003a001e4090000004e00061
:100ca000050032009e40900000c3b30080c0700079
:100cb000414f98000200370000c2b300404f980037
:100cc0004e009000ce489000014878004e00900001
:100cd0000000e800400798001e4078000004e00093
:100ce00006003a001e4090000004e00003003a00b5
:100cf0002e4090000004e00005003200ae4090005d
:100d000000c3b30080c07000314f9800020037006c
:100d100000c2b300304f98004e009000be489000d3
:100d2000014878004e0090000000e800400798005d
:100d30001e4078000004e00009003a001e409000c8
:100d40000004e00006003a002e4090000004e0009d
:100d500003003a003e4090000004e000050032002d
:100d6000be40900000c3b30080c07000214f9800c7
:100d70000200370000c2b300204f98004e009000e0
:100d8000ae489000014878004e0090000000e80056
:100d900040079800ce40900000c3b30080c07000b0
:100da0004e009000014878000080fa000000060024
:100db0001200fa0030079800410798005207980087
:100dc000a0652f001001be003e009000ce009000f4
:100dd0009bfd0700a200200003002000a8fd0700e3
:100de000004f7800a0652f0020019000b001900016
:100df0003e009000ce00900091fd0700a200200070
:100e0000030020009efd070010479800a0652f00fa
:100e100040019000d00190003e009000ce00900074
:100e200087fd0700a20020000300200094fd0700ba
:100e300020479800a0652f0060019000f00190000d
:100e40003e009000ce0090007dfd0700a200200033
:100e5000030020008afd070030479800a0652f009e
:100e600000099000900990003e009000ce00900094
:100e700073fd0700a20020000300200080fd070092
:100e800040479800a0652f0020099000b00990000d
:100e90003e009000ce00900069fd0700a2002000f7
:100ea0000300200076fd0700504798001e407800a0
:100eb0000004e000050032009e40780000c3b3004b
:100ec00080c07000015798000200370000c2b300d4
:100ed000005798005e0090008e5090000148780006
:100ee0005e0090000000e800500798001e40780067
:100ef0000004e00003003a001e4090000004e000ff
:100f0000050032009e40900000c3b30080c0700016
:100f1000714f98000200370000c2b300704f980074
:100f20005e009000fe489000014878005e0090004e
:100f30000000e800500798001e4078000004e00020
:100f400006003a001e4090000004e00003003a0052
:100f50002e4090000004e00005003200ae409000fa
:100f600000c3b30080c07000614f980002003700da
:100f700000c2b300604f98005e009000ee48900001
:100f8000014878005e0090000000e80050079800db
:100f90001e4078000004e00009003a001e40900066
:100fa0000004e00006003a002e4090000004e0003b
:100fb00003003a003e4090000004e00005003200cb
:100fc000be40900000c3b30080c07000514f980035
:100fd0000200370000c2b300504f98005e0090003e
:100fe000de489000014878005e0090000000e800b4
:100ff000500798001e4078000004e0000c003a0002
:101000001e4090000004e00009003a002e409000cd
:101010000004e00006003a003e4090000004e000ba
:1010200003003a004e4090000004e000050032004a
:10103000ce40900000c3b30080c07000414f9800c4
:101040000200370000c2b300404f98005e009000dd
:10105000ce489000014878005e0090000000e80053
:1010600050079800de40900000c3b30080c07000bd
:101070005e009000014878000080fa000000060041
:101080002600fa0040079800214f98006207980058
:101090000040eb00204798004e009000000f7800c1
:1010a0001e00e00003003d0010c0b3002047980080
:1010b0001e0fea001e0078006102b90020622f00b6
:1010c0001001be000400be00ddfc0700a2002000ed
:1010d00003002000eafc070080407800630047001e
:1010e000014878001e0078006102b90020622f00dc
:1010f00020019000b00190000400be00d0fc070069
:10110000a200200003002000ddfc070080407800e2
:1011100063004700114098001e0078006102b9008a
:1011200020622f0040019000d00190000400be001a
:10113000c3fc0700a200200003002000d0fc070031
:101140008040780063004700214098001e0078002e
:101150006102b90020622f0060019000f001900050
:101160000400be00b6fc0700a2002000030020001f
:10117000c3fc0700804078006300470031409800be
:101180002e4090000004e000b6003a002e48900087
:10119000e34f500012003a0063004700104078000f
:1011a0000004e000090032006300470010407800ae
:1011b0008080fb0060672f00e140780000c4b3002e
:1011c00080c070004167980002003700f1ceb30084
:1011d000416798004e609000506798001b003700f0
:1011e0002e489000e34f5000070036006300470090
:1011f000104078008080fb0060672f00e14078009d
:10120000316798000f0037006300470010407800f6
:101210000004e0000700320063004700104078003f
:101220008080fb0060672f00e14078002167980014
:10123000020037008040eb00216798002e6090008c
:1012400030679800be609000516798006e00900073
:10125000de609000014878006e0090000000e80019
:10126000600798002e489000e24f500012003a00ac
:1012700063004700104090000004e00009003200c5
:1012800063004700104090008080fb0060672f00e3
:10129000e140780000c4b30080c07000016798008e
:1012a00002003700f0ceb300006798008e60900017
:1012b000116798001f0037002e489000e24f500041
:1012c0000700360063004700104090008080fb005c
:1012d00060672f00e1407800715f980013003700cd
:1012e00063004700104078000004e00004003a006a
:1012f00063004700104090000004e0000700320047
:1013000063004700104090008080fb0060672f0062
:10131000e1407800615f9800020037000040eb0078
:10132000605f9800ee589000715f98007e589000c2
:10133000106798006e0090009e6090000148780051
:101340006e0090000000e800600798002e489000b2
:10135000e14f500012003a00630047002040900027
:101360000004e000090032006300470020409000c4
:101370008080fb0060672f00e140780000c4b3006c
:1013800080c07000415f980002003700f0ceb300cb
:10139000405f9800ce589000515f980023003700be
:1013a0002e489000e14f50000700360063004700d0
:1013b000204090008080fb0060672f00e1407800b3
:1013c000315f980017003700630047001040780035
:1013d0000004e00008003a0063004700104090005d
:1013e0000004e00004003a00630047002040900041
:1013f0000004e00007003200630047002040900036
:101400008080fb0060672f00e1407800215f98003a
:10141000020037000040eb00205f9800ae589000bb
:10142000315f98003e589000505f98006e00900029
:10143000de589000014878006e0090000000e8003f
:101440006007980063004700304090008080fb00f8
:1014500060672f00e14078006e009000014878003e
:10146000b70037002e489000e34f500012003a00ba
:1014700063004700104078000004e00009003200db
:1014800063004700104078008080fb0060672f00f9
:10149000e140780000c5b30080c07000015f980093
:1014a0000200370000c5b300005f98008e5890001e
:1014b000115f98001d0037002e489000e34f500048
:1014c0000700360063004700104078008080fb0072
:1014d00060672f00e14078007157980011003700d5
:1014e00063004700104078000004e000090032006b
:1014f00063004700104078008080fb0060672f0089
:1015000061407800804078000144a0006157980055
:101510000200370000c1b30060579800ee50900001
:10152000715798007e509000105f98006e009000f8
:101530009e589000014878006e0090000000e8007e
:10154000600798002e489000e24f500012003a00c9
:1015500063004700104090000004e00009003200e2
:1015600063004700104090008080fb0060672f0000
:10157000e140780000c4b30080c07000415798007b
:1015800002003700f0ceb30040579800ce509000d4
:10159000515798001f0037002e489000e24f50002e
:1015a0000700360063004700104090008080fb0079
:1015b00060672f00e1407800315798001300370032
:1015c00063004700104078000004e00004003a0087
:1015d00063004700104090000004e0000700320064
:1015e00063004700104090008080fb0060672f0080
:1015f000e140780021579800020037000040eb00de
:1016000020579800ae509000315798003e509000ff
:10161000505798006e009000de509000014878000e
:101620006e0090000000e800600798002e489000cf
:10163000e14f500012003a00630047002040900044
:101640000004e000090032006300470020409000e1
:101650008080fb0060672f00e140780000c4b30089
:1016600080c070000157980002003700f0ceb30030
:10167000005798008e5090001157980023003700b3
:101680002e489000e14f50000700360063004700ed
:10169000204090008080fb0060672f00e1407800d0
:1016a000714f980017003700630047001040780022
:1016b0000004e00008003a0063004700104090007a
:1016c0000004e00004003a0063004700204090005e
:1016d0000004e00007003200630047002040900053
:1016e0008080fb0060672f00e1407800614f980028
:1016f000020037000040eb00604f9800ee48900079
:10170000714f98007e489000105798006e0090002e
:101710009e509000014878006e0090000000e800a4
:101720006007980063004700304090008080fb0015
:1017300060672f00e14078006e009000014878005b
:101740000080fa00000006003400fa0060079800ec
:101750007107980002579800130f98000040eb00a3
:10176000404798006e009000fe009000008fbe0081
:101770001e00be00e00f5000e08f580006003d0044
:1017800010c0b300404798001e00be00600010006b
:10179000e0801800008fbe001e02be00e0632f0034
:1017a0001001be000400be0025fb0700a2002000bf
:1017b0000300200032fb07008040780065004700ee
:1017c000014878001e02be00e0632f002001900057
:1017d000b00190000400be0019fb0700a200200029
:1017e0000300200026fb07008040780065004700ca
:1017f000114098001e02be00e0632f0040019000df
:10180000d00190000400be000dfb0700a2002000e4
:10181000030020001afb07008040780065004700a5
:10182000214098001e02be00e0632f00600190007e
:10183000f00190000400be0001fb0700a2002000a0
:10184000030020000efb0700804078006500470081
:10185000314098001e02be00e0632f000009900096
:10186000900990000400be00f5fa0700a2002000d5
:101870000300200002fb070080407800650047005d
:10188000414098004e4090000004e000f8003a000b
:101890000e509000e44f500012003a0065004700df
:1018a000104078000004e0000900320065004700a5
:1018b000104078008080fb0060672f00e1407800d6
:1018c00000c4b30080c07000217798000200370088
:1018d000f1ceb300217798002e70900030779800f9
:1018e0001b0037000e509000e44f500007003600f8
:1018f00065004700104078008080fb0060672f0083
:10190000e1407800117798000f003700650047002c
:10191000104078000004e000070032006500470036
:10192000104078008080fb0060672f00e140780065
:1019300001779800020037008040eb0001779800a3
:101940000e709000107798009e709000317798008c
:101950001e089000be709000014878001e0890009c
:101960000000e800100f98000e509000e34f500068
:1019700012003a0065004700104090000004e000ab
:101980000900320065004700104090008080fb0095
:1019900060672f00e140780000c4b30080c0700091
:1019a000616f980002003700f0ceb300606f9800be
:1019b000ee689000716f98001f0037000e50900085
:1019c000e34f5000070036006500470010409000cc
:1019d0008080fb0060672f00e1407800516f980025
:1019e0001300370065004700104078000004e00055
:1019f00004003a0065004700104090000004e00039
:101a00000700320065004700104090008080fb0016
:101a100060672f00e1407800416f980002003700b6
:101a20000040eb00406f9800ce689000516f980026
:101a30005e689000706f98001e089000fe6890002d
:101a4000014878001e0890000000e800100f980080
:101a50000e509000e24f500012003a00650047001f
:101a6000204090000004e0000900320065004700bb
:101a7000204090008080fb0060672f00e1407800ec
:101a800000c4b30080c07000216f980002003700ce
:101a9000f0ceb300206f9800ae689000316f9800d0
:101aa000230037000e509000e24f50000700360030
:101ab00065004700204090008080fb0060672f0099
:101ac000e1407800116f980017003700650047006b
:101ad000104078000004e00008003a00650047006c
:101ae000104090000004e00004003a006500470048
:101af000204090000004e00007003200650047002d
:101b0000204090008080fb0060672f00e14078005b
:101b1000016f9800020037000040eb00006f980052
:101b20008e689000116f98001e689000306f9800ca
:101b30001e089000be689000014878001e089000c2
:101b40000000e800100f98000e509000e14f500088
:101b500012003a0065004700304090000004e000a9
:101b60000900320065004700304090008080fb0093
:101b700060672f00e140780000c4b30080c07000af
:101b80006167980002003700f0ceb30060679800ec
:101b9000ee60900071679800270037000e509000ab
:101ba000e14f5000070036006500470030409000cc
:101bb0008080fb0060672f00e1407800516798004b
:101bc0001b00370065004700104078000004e0006b
:101bd0000c003a0065004700104090000004e0004f
:101be00008003a0065004700204090000004e00033
:101bf00004003a0065004700304090000004e00017
:101c00000700320065004700304090008080fb00f4
:101c100060672f00e14078004167980002003700bc
:101c20000040eb0040679800ce609000516798003c
:101c30005e609000706798001e089000fe60900043
:101c4000014878001e0890000000e800100f98007e
:101c500065004700404090008080fb0060672f00d7
:101c6000e14078001e08900001487800fb00370032
:101c70000e509000e44f500012003a0065004700fb
:101c8000104078000004e0000900320065004700c1
:101c9000104078008080fb0060672f00e1407800f2
:101ca00000c5b30080c070002167980002003700b3
:101cb00000c5b30020679800ae60900031679800bf
:101cc0001f0037000e509000e44f5000090036000e
:101cd00065004700104078008080fb0060672f009f
:101ce00061407800804078000144a00011679800ae
:101cf0001100370065004700104078000004e00044
:101d00000900320065004700104078008080fb0029
:101d100060672f0061407800804078000144a00097
:101d2000016798000200370000c1b3000067980007
:101d30008e609000116798001e60900030679800d8
:101d40001e089000be609000014878001e089000b8
:101d50000000e800100f98000e509000e34f500074
:101d600012003a0065004700104090000004e000b7
:101d70000900320065004700104090008080fb00a1
:101d800060672f00e140780000c4b30080c070009d
:101d9000615f980002003700f0ceb300605f9800ea
:101da000ee589000715f98001f0037000e509000b1
:101db000e34f5000070036006500470010409000d8
:101dc0008080fb0060672f00e1407800515f980041
:101dd0001300370065004700104078000004e00061
:101de00004003a0065004700104090000004e00045
:101df0000700320065004700104090008080fb0023
:101e000060672f00e1407800415f980002003700d2
:101e10000040eb00405f9800ce589000515f980062
:101e20005e589000705f98001e089000fe58900069
:101e3000014878001e0890000000e800100f98008c
:101e40000e509000e24f500012003a00650047002b
:101e5000204090000004e0000900320065004700c7
:101e6000204090008080fb0060672f00e1407800f8
:101e700000c4b30080c07000215f980002003700ea
:101e8000f0ceb300205f9800ae589000315f98000c
:101e9000230037000e509000e24f5000070036003c
:101ea00065004700204090008080fb0060672f00a5
:101eb000e1407800115f9800170037006500470087
:101ec000104078000004e00008003a006500470078
:101ed000104090000004e00004003a006500470054
:101ee000204090000004e000070032006500470039
:101ef000204090008080fb0060672f00e140780068
:101f0000015f9800020037000040eb00005f98007e
:101f10008e589000115f98001e589000305f980016
:101f20001e089000be589000014878001e089000de
:101f30000000e800100f98000e509000e14f500094
:101f400012003a0065004700304090000004e000b5
:101f50000900320065004700304090008080fb009f
:101f600060672f00e140780000c4b30080c07000bb
:101f70006157980002003700f0ceb3006057980018
:101f8000ee50900071579800270037000e509000d7
:101f9000e14f5000070036006500470030409000d8
:101fa0008080fb0060672f00e14078005157980067
:101fb0001b00370065004700104078000004e00077
:101fc0000c003a0065004700104090000004e0005b
:101fd00008003a0065004700204090000004e0003f
:101fe00004003a0065004700304090000004e00023
:101ff0000700320065004700304090008080fb0001
:1020000060672f00e14078004157980002003700d8
:102010000040eb0040579800ce5090005157980078
:102020005e509000705798001e089000fe5090007f
:10203000014878001e0890000000e800100f98008a
:1020400065004700404090008080fb0060672f00e3
:10205000e14078001e089000014878000080fa00f6
:10206000000006003c00fa00600798007107980025
:1020700002579800130f98000040eb00404798006b
:102080006e009000fe009000008fbe001e00be009b
:10209000e00f5000e08f580006003d0010c0b30074
:1020a000404798001e00be0060001000e08018004d
:1020b000008fbe001e02be00a0652f001001be00f2
:1020c0000400be00def80700a2002000030020008c
:1020d000ebf8070080407800650047000148780071
:1020e0001e02be00a0652f0020019000b0019000ec
:1020f0000400be00d2f80700a20020000300200068
:10210000dff8070080407800650047001140980024
:102110001e02be00a0652f0040019000d00190007b
:102120000400be00c6f80700a20020000300200043
:10213000d3f80700804078006500470021409800f0
:102140001e02be00a0652f0060019000f00190000b
:102150000400be00baf80700a2002000030020001f
:10216000c7f80700804078006500470031409800bc
:102170001e02be00a0652f0000099000900990008b
:102180000400be00aef80700a200200003002000fb
:10219000bbf8070080407800650047004140980088
:1021a0001e02be00a0652f0020099000b00990001b
:1021b0000400be00a2f80700a200200003002000d7
:1021c000aff8070080407800650047005140980054
:1021d0004e4090000004e0003e013a000e50900096
:1021e000e54f500012003a006500470010407800ab
:1021f0000004e0000900320065004700104078004c
:102200008080fb0060672f00e140780000c4b300cd
:1022100080c07000217f980002003700f1ceb3002b
:10222000217f98002e789000307f98001b003700a7
:102230000e509000e54f5000070036006500470043
:10224000104078008080fb0060672f00e14078003c
:10225000117f98000f00370065004700104078009c
:102260000004e000070032006500470010407800dd
:102270008080fb0060672f00e1407800017f9800bc
:10228000020037008040eb00017f98000e7890003c
:10229000107f98009e789000317f98001e08900073
:1022a000be789000014878001e0890000000e80009
:1022b000100f98000e509000e44f500012003a00aa
:1022c00065004700104090000004e0000900320063
:1022d00065004700104090008080fb0060672f0081
:1022e000e140780000c4b30080c0700061779800be
:1022f00002003700f0ceb30060779800ee709000d7
:10230000717798001f0037000e509000e44f500086
:102310000700360065004700104090008080fb00f9
:1023200060672f00e1407800517798001300370074
:1023300065004700104078000004e00004003a0007
:1023400065004700104090000004e00007003200e4
:1023500065004700104090008080fb0060672f0000
:10236000e140780041779800020037000040eb0020
:1023700040779800ce709000517798005e70900082
:10238000707798001e089000fe7090000148780059
:102390001e0890000000e800100f98000e509000fa
:1023a000e34f500012003a006500470020409000c3
:1023b0000004e00009003200650047002040900062
:1023c0008080fb0060672f00e140780000c4b3000c
:1023d00080c070002177980002003700f0ceb30073
:1023e00020779800ae709000317798002300370076
:1023f0000e509000e34f5000070036006500470084
:10240000204090008080fb0060672f00e140780052
:1024100011779800170037006500470010407800da
:102420000004e00008003a006500470010409000fa
:102430000004e00004003a006500470020409000de
:102440000004e000070032006500470020409000d3
:102450008080fb0060672f00e140780001779800e2
:10246000020037000040eb00007798008e7090006b
:10247000117798001e709000307798001e08900029
:10248000be709000014878001e0890000000e8002f
:10249000100f98000e509000e24f500012003a00ca
:1024a00065004700304090000004e0000900320061
:1024b00065004700304090008080fb0060672f007f
:1024c000e140780000c4b30080c07000616f9800e4
:1024d00002003700f0ceb300606f9800ee68900005
:1024e000716f9800270037000e509000e24f5000a7
:1024f0000700360065004700304090008080fb00f8
:1025000060672f00e1407800516f98001b00370092
:1025100065004700104078000004e0000c003a001d
:1025200065004700104090000004e00008003a00f9
:1025300065004700204090000004e00004003a00dd
:1025400065004700304090000004e00007003200c2
:1025500065004700304090008080fb0060672f00de
:10256000e1407800416f9800020037000040eb0026
:10257000406f9800ce689000516f98005e689000a0
:10258000706f98001e089000fe6890000148780067
:102590001e0890000000e800100f98000e509000f8
:1025a000e14f500012003a006500470040409000a3
:1025b0000004e00009003200650047004040900040
:1025c0008080fb0060672f00e140780000c4b3000a
:1025d00080c07000216f980002003700f0ceb30079
:1025e000206f9800ae689000316f98002b00370084
:1025f0000e509000e14f5000070036006500470084
:10260000404090008080fb0060672f00e140780030
:10261000116f98001f0037006500470010407800d8
:102620000004e00010003a006500470010409000f0
:102630000004e0000c003a006500470020409000d4
:102640000004e00008003a006500470030409000b8
:102650000004e00004003a0065004700404090009c
:102660000004e00007003200650047004040900091
:102670008080fb0060672f00e1407800016f9800c8
:10268000020037000040eb00006f98008e68900059
:10269000116f98001e689000306f98001e0890001f
:1026a000be689000014878001e0890000000e80015
:1026b000100f980065004700504090008080fb009c
:1026c00060672f00e14078001e0890000148780004
:1026d000410137000e509000e54f500012003a00c3
:1026e00065004700104078000004e0000900320057
:1026f00065004700104078008080fb0060672f0075
:10270000e140780000c5b30080c0700061679800a8
:102710000200370000c5b30060679800ee609000cb
:10272000716798001f0037000e509000e54f500071
:102730000900360065004700104078008080fb00eb
:1027400060672f0061407800804078000144a0005d
:10275000516798001100370065004700104078006d
:102760000004e000090032006500470010407800d6
:102770008080fb0060672f00614078008040780017
:102780000144a000416798000200370000c1b30077
:1027900040679800ce609000516798005e6090009e
:1027a000706798001e089000fe6090000148780055
:1027b0001e0890000000e800100f98000e509000d6
:1027c000e44f500012003a006500470010409000ae
:1027d0000004e0000900320065004700104090004e
:1027e0008080fb0060672f00e140780000c4b300e8
:1027f00080c070002167980002003700f0ceb3005f
:1028000020679800ae609000316798001f00370085
:102810000e509000e44f500007003600650047005e
:10282000104090008080fb0060672f00e14078003e
:1028300011679800130037006500470010407800ca
:102840000004e00004003a006500470010409000da
:102850000004e000070032006500470010409000cf
:102860008080fb0060672f00e140780001679800de
:10287000020037000040eb00006798008e60900077
:10288000116798001e609000306798001e08900045
:10289000be609000014878001e0890000000e8002b
:1028a000100f98000e509000e34f500012003a00b5
:1028b00065004700204090000004e000090032005d
:1028c00065004700204090008080fb0060672f007b
:1028d000e140780000c4b30080c07000615f9800e0
:1028e00002003700f0ceb300605f9800ee58900011
:1028f000715f9800230037000e509000e34f5000a6
:102900000700360065004700204090008080fb00f3
:1029100060672f00e1407800515f98001700370092
:1029200065004700104078000004e00008003a000d
:1029300065004700104090000004e00004003a00e9
:1029400065004700204090000004e00007003200ce
:1029500065004700204090008080fb0060672f00ea
:10296000e1407800415f9800020037000040eb0032
:10297000405f9800ce589000515f98005e589000dc
:10298000705f98001e089000fe5890000148780083
:102990001e0890000000e800100f98000e509000f4
:1029a000e24f500012003a006500470030409000ae
:1029b0000004e0000900320065004700304090004c
:1029c0008080fb0060672f00e140780000c4b30006
:1029d00080c07000215f980002003700f0ceb30085
:1029e000205f9800ae589000315f980027003700b4
:1029f0000e509000e24f500007003600650047007f
:102a0000304090008080fb0060672f00e14078003c
:102a1000115f98001b0037006500470010407800e8
:102a20000004e0000c003a006500470010409000f0
:102a30000004e00008003a006500470020409000d4
:102a40000004e00004003a006500470030409000b8
:102a50000004e000070032006500470030409000ad
:102a60008080fb0060672f00e1407800015f9800e4
:102a7000020037000040eb00005f98008e58900085
:102a8000115f98001e589000305f98001e0890005b
:102a9000be589000014878001e0890000000e80031
:102aa000100f98000e509000e14f500012003a00b5
:102ab00065004700404090000004e000090032003b
:102ac00065004700404090008080fb0060672f0059
:102ad000e140780000c4b30080c0700061579800e6
:102ae00002003700f0ceb30060579800ee5090001f
:102af000715798002b0037000e509000e14f5000a6
:102b00000700360065004700404090008080fb00d1
:102b100060672f00e1407800515798001f00370090
:102b200065004700104078000004e00010003a0003
:102b300065004700104090000004e0000c003a00df
:102b400065004700204090000004e00008003a00c3
:102b500065004700304090000004e00004003a00a7
:102b600065004700404090000004e000070032008c
:102b700065004700404090008080fb0060672f00a8
:102b8000e140780041579800020037000040eb0018
:102b900040579800ce509000515798005e509000da
:102ba000705798001e089000fe5090000148780071
:102bb0001e0890000000e800100f98006500470014
:102bc000504090008080fb0060672f00e14078005b
:102bd0001e089000014878000080fa0000000600fe
:102be0001e00fa0020479800210798009ecbbf00e6
:102bf0000080fb004700de00004f78001e04e0006c
:102c0000a3003a002e409000e34f500010003a001d
:102c1000cdc8bf000004e00008003200cdc8bf00ee
:102c20008080fb0060672f00e140780000c4b300a3
:102c300080c07000415f980002003700f0ceb30002
:102c4000405f9800ce589000515f98001800370000
:102c50002e409000e34f500006003600cdc8bf0064
:102c60008080fb0060672f00e1407800315f9800b2
:102c70000d003700cdc8bf000004e00006003200a0
:102c8000cdc8bf008080fb0060672f00e140780066
:102c9000215f9800020037000040eb00205f9800a1
:102ca000ae589000315f98003e589000505f9800f9
:102cb0002e009000de589000014878002e00900011
:102cc0000000e800200798002e409000e24f5000de
:102cd00010003a00cec8bf000004e0000800320037
:102ce000cec8bf008080fb0060672f00e140780005
:102cf00000c4b30080c07000015f9800020037007c
:102d0000f0ceb300005f98008e589000115f9800dd
:102d10001b0037002e409000e24f500006003600a6
:102d2000cec8bf008080fb0060672f00e1407800c4
:102d30007157980010003700cdc8bf000004e000b4
:102d400003003a00cec8bf000004e00006003200d5
:102d5000cec8bf008080fb0060672f00e140780094
:102d600061579800020037000040eb006057980060
:102d7000ee509000715798007e509000105f9800c0
:102d80002e0090009e589000014878002e00900080
:102d90000000e800200798002e409000e14f50000e
:102da00010003a00cfc8bf000004e0000800320065
:102db000cfc8bf008080fb0060672f00e140780033
:102dc00000c4b30080c07000415798000200370073
:102dd000f0ceb30040579800ce5090005157980065
:102de0001e0037002e409000e14f500006003600d4
:102df000cfc8bf008080fb0060672f00e1407800f3
:102e00003157980013003700cdc8bf000004e00020
:102e100006003a00cec8bf000004e00003003a00fc
:102e2000cfc8bf000004e00006003200cfc8bf00da
:102e30008080fb0060672f00e140780021579800f8
:102e4000020037000040eb0020579800ae50900081
:102e5000315798003e509000505798002e00900037
:102e6000de509000014878002e0090000000e8003d
:102e700020079800d0c8bf008080fb0060672f004b
:102e8000e14078002e00900001487800a40037004f
:102e90002e409000e34f500010003a00cdc8bf0014
:102ea0000004e00008003200cdc8bf008080fb00b5
:102eb00060672f00e140780000c5b30080c070005b
:102ec000015798000200370000c5b3000057980072
:102ed0008e509000115798001a0037002e40900035
:102ee000e34f500006003600cdc8bf008080fb00d5
:102ef00060672f00e1407800714f98000f003700a5
:102f0000cdc8bf000004e00008003200cdc8bf00fb
:102f10008080fb0060672f0061407800804078006f
:102f20000144a000614f98000200370000c1b300c7
:102f3000604f9800ee489000714f98007e489000d6
:102f4000105798002e0090009e5090000148780085
:102f50002e0090000000e800200798002e4090000e
:102f6000e24f500010003a00cec8bf000004e0005d
:102f700008003200cec8bf008080fb0060672f00d1
:102f8000e140780000c4b30080c07000414f980059
:102f900002003700f0ceb300404f9800ce489000ba
:102fa000514f98001b0037002e409000e24f500018
:102fb00006003600cec8bf008080fb0060672f008f
:102fc000e1407800314f980010003700cdc8bf00b5
:102fd0000004e00003003a00cec8bf000004e00097
:102fe00006003200cec8bf008080fb0060672f0063
:102ff000e1407800214f9800020037000040eb00cc
:10300000204f9800ae489000314f98003e48900005
:10301000504f98002e009000de4890000148780044
:103020002e0090000000e800200798002e4090003d
:10303000e14f500010003a00cfc8bf000004e0008c
:1030400008003200cfc8bf008080fb0060672f00ff
:10305000e140780000c4b30080c07000014f9800c8
:1030600002003700f0ceb300004f98008e48900069
:10307000114f98001e0037002e409000e14f500085
:1030800006003600cfc8bf008080fb0060672f00bd
:10309000e14078007147980013003700cdc8bf00a9
:1030a0000004e00006003a00cec8bf000004e000c3
:1030b00003003a00cfc8bf000004e0000600320061
:1030c000cfc8bf008080fb0060672f00e140780020
:1030d00061479800020037000040eb00604798000d
:1030e000ee409000714798007e409000104f98008d
:1030f0002e0090009e489000014878002e0090001d
:103100000000e80020079800d0c8bf008080fb00c6
:1031100060672f00e14078002e00900001487800a1
:103120000080fa00000006002600fa002047980000
:10313000210798009ecbbf000080fb004700de0007
:10314000004f78001e04e000dd003a002e409000a1
:10315000e44f500010003a00cec8bf000004e00069
:1031600008003200cec8bf008080fb0060672f00df
:10317000e140780000c4b30080c07000416798004f
:1031800002003700f0ceb30040679800ce60900098
:1031900051679800180037002e409000e44f50000f
:1031a00006003600cec8bf008080fb0060672f009d
:1031b000e1407800316798000d003700cec8bf00ad
:1031c0000004e00006003200cec8bf008080fb0093
:1031d00060672f00e1407800216798000200370007
:1031e0000040eb0020679800ae60900031679800c7
:1031f0003e609000506798002e009000de609000c6
:10320000014878002e0090000000e8002007980098
:103210002e409000e34f500010003a00cfc8bf008e
:103220000004e00008003200cfc8bf008080fb002f
:1032300060672f00e140780000c4b30080c07000d8
:103240000167980002003700f0ceb30000679800d5
:103250008e609000116798001b0037002e40900090
:10326000e34f500006003600cfc8bf008080fb004f
:1032700060672f00e1407800715f98001000370010
:10328000cec8bf000004e00003003a00cfc8bf0072
:103290000004e00006003200cfc8bf008080fb00c1
:1032a00060672f00e1407800615f980002003700fe
:1032b0000040eb00605f9800ee589000715f98004e
:1032c0007e589000106798002e0090009e6090003d
:1032d000014878002e0090000000e80020079800c8
:1032e0002e409000e24f500010003a00d0c8bf00be
:1032f0000004e00008003200d0c8bf008080fb005e
:1033000060672f00e140780000c4b30080c0700007
:10331000415f980002003700f0ceb300405f980094
:10332000ce589000515f98001e0037002e4090004c
:10333000e24f500006003600d0c8bf008080fb007e
:1033400060672f00e1407800315f9800130037007c
:10335000cec8bf000004e00006003a00cfc8bf009e
:103360000004e00003003a00d0c8bf000004e00001
:1033700006003200d0c8bf008080fb0060672f00cd
:10338000e1407800215f9800020037000040eb0028
:10339000205f9800ae589000315f98003e58900032
:1033a000505f98002e009000de5890000148780091
:1033b0002e0090000000e800200798002e409000aa
:1033c000e14f500010003a00d1c8bf000004e000f7
:1033d00008003200d1c8bf008080fb0060672f006a
:1033e000e140780000c4b30080c07000015f980025
:1033f00002003700f0ceb300005f98008e589000b6
:10340000115f9800210037002e409000e14f5000de
:1034100006003600d1c8bf008080fb0060672f0027
:10342000e14078007157980016003700cec8bf0001
:103430000004e00009003a00cfc8bf000004e0002b
:1034400006003a00d0c8bf000004e00003003a00c4
:10345000d1c8bf000004e00006003200d1c8bf00a0
:103460008080fb0060672f00e14078006157980082
:10347000020037000040eb0060579800ee509000cb
:10348000715798007e509000105f98002e009000b9
:103490009e589000014878002e0090000000e8003f
:1034a00020079800d2c8bf008080fb0060672f0013
:1034b000e14078002e00900001487800e0003700dd
:1034c0002e409000e44f500010003a00cec8bf00dc
:1034d0000004e00008003200cec8bf008080fb007e
:1034e00060672f00e140780000c5b30080c0700025
:1034f000415798000200370000c5b30040579800bc
:10350000ce509000515798001c0037002e4090007c
:10351000e44f500008003600cec8bf008080fb009a
:1035200060672f0061407800804078000144a0006f
:10353000315798000f003700cec8bf000004e000ec
:1035400008003200cec8bf008080fb0060672f00fb
:1035500061407800804078000144a0002157980025
:103560000200370000c1b30020579800ae50900011
:10357000315798003e509000505798002e00900010
:10358000de509000014878002e0090000000e80016
:10359000200798002e409000e34f500010003a00a2
:1035a000cfc8bf000004e00008003200cfc8bf0051
:1035b0008080fb0060672f00e140780000c4b3000a
:1035c00080c070000157980002003700f0ceb300b1
:1035d000005798008e509000115798001b0037003c
:1035e0002e409000e34f500006003600cfc8bf00c9
:1035f0008080fb0060672f00e1407800714f9800e9
:1036000010003700cec8bf000004e00003003a00fd
:10361000cfc8bf000004e00006003200cfc8bf00e2
:103620008080fb0060672f00e1407800614f9800c8
:10363000020037000040eb00604f9800ee48900019
:10364000714f98007e489000105798002e0090000f
:103650009e509000014878002e0090000000e80085
:10366000200798002e409000e24f500010003a00d2
:10367000d0c8bf000004e00008003200d0c8bf007e
:103680008080fb0060672f00e140780000c4b30039
:1036900080c07000414f980002003700f0ceb300a8
:1036a000404f9800ce489000514f98001e003700c0
:1036b0002e409000e24f500006003600d0c8bf00f8
:1036c0008080fb0060672f00e1407800314f980058
:1036d00013003700cec8bf000004e00006003a0027
:1036e000cfc8bf000004e00003003a00d0c8bf000c
:1036f0000004e00006003200d0c8bf008080fb005c
:1037000060672f00e1407800214f980002003700e9
:103710000040eb00204f9800ae489000314f9800d9
:103720003e489000504f98002e009000de489000d8
:10373000014878002e0090000000e8002007980063
:103740002e409000e14f500010003a00d1c8bf0059
:103750000004e00008003200d1c8bf008080fb00f8
:1037600060672f00e140780000c4b30080c07000a3
:10377000014f980002003700f0ceb300004f9800d0
:103780008e489000114f9800210037002e40900085
:10379000e14f500006003600d1c8bf008080fb001a
:1037a00060672f00e14078007147980016003700ed
:1037b000cec8bf000004e00009003a00cfc8bf0037
:1037c0000004e00006003a00d0c8bf000004e0009a
:1037d00003003a00d1c8bf000004e0000600320038
:1037e000d1c8bf008080fb0060672f00e1407800f7
:1037f00061479800020037000040eb0060479800e6
:10380000ee409000714798007e409000104f980065
:103810002e0090009e489000014878002e009000f5
:103820000000e80020079800d2c8bf008080fb009d
:1038300060672f00e14078002e009000014878007a
:103840000080fa00000006002e00fa0020479800d1
:10385000210798009ecbbf000080fb004700de00e0
:10386000004f78001e04e0001a013a002e4090003c
:10387000e54f500010003a00cdc8bf000004e00042
:1038800008003200cdc8bf008080fb0060672f00b9
:10389000e140780000c4b30080c07000416f980020
:1038a00002003700f0ceb300406f9800ce68900061
:1038b000516f9800180037002e409000e54f5000df
:1038c00006003600cdc8bf008080fb0060672f0077
:1038d000e1407800316f98000d003700cdc8bf007f
:1038e0000004e00006003200cdc8bf008080fb006d
:1038f00060672f00e1407800216f980002003700d8
:103900000040eb00206f9800ae689000316f980087
:103910003e689000506f98002e009000de68900086
:10392000014878002e0090000000e8002007980071
:103930002e409000e44f500010003a00cec8bf0067
:103940000004e00008003200cec8bf008080fb0009
:1039500060672f00e140780000c4b30080c07000b1
:10396000016f980002003700f0ceb300006f98009e
:103970008e689000116f98001b0037002e40900059
:10398000e44f500006003600cec8bf008080fb0028
:1039900060672f00e14078007167980010003700e1
:1039a000cdc8bf000004e00003003a00cec8bf004d
:1039b0000004e00006003200cec8bf008080fb009b
:1039c00060672f00e14078006167980002003700cf
:1039d0000040eb0060679800ee609000716798000f
:1039e0007e609000106f98002e0090009e689000fe
:1039f000014878002e0090000000e80020079800a1
:103a00002e409000e34f500010003a00cfc8bf0096
:103a10000004e00008003200cfc8bf008080fb0037
:103a200060672f00e140780000c4b30080c07000e0
:103a30004167980002003700f0ceb300406798005d
:103a4000ce609000516798001e0037002e40900015
:103a5000e34f500006003600cfc8bf008080fb0057
:103a600060672f00e140780031679800130037004d
:103a7000cdc8bf000004e00006003a00cec8bf0079
:103a80000004e00003003a00cfc8bf000004e000db
:103a900006003200cfc8bf008080fb0060672f00a7
:103aa000e140780021679800020037000040eb00f9
:103ab00020679800ae609000316798003e609000eb
:103ac000506798002e009000de609000014878005a
:103ad0002e0090000000e800200798002e40900083
:103ae000e24f500010003a00d0c8bf000004e000d0
:103af00008003200d0c8bf008080fb0060672f0044
:103b0000e140780000c4b30080c0700001679800f5
:103b100002003700f0ceb300006798008e6090007e
:103b200011679800210037002e409000e24f5000ae
:103b300006003600d0c8bf008080fb0060672f0001
:103b4000e1407800715f980016003700cdc8bf00d3
:103b50000004e00009003a00cec8bf000004e00005
:103b600006003a00cfc8bf000004e00003003a009e
:103b7000d0c8bf000004e00006003200d0c8bf007b
:103b80008080fb0060672f00e1407800615f980053
:103b9000020037000040eb00605f9800ee58900094
:103ba000715f98007e589000106798002e0090007a
:103bb0009e609000014878002e0090000000e80010
:103bc000200798002e409000e14f500010003a006e
:103bd000d1c8bf000004e00008003200d1c8bf0017
:103be0008080fb0060672f00e140780000c4b300d4
:103bf00080c07000415f980002003700f0ceb30033
:103c0000405f9800ce589000515f98002400370024
:103c10002e409000e14f500006003600d1c8bf0092
:103c20008080fb0060672f00e1407800315f9800e2
:103c300019003700cdc8bf000004e0000c003a00b6
:103c4000cec8bf000004e00009003a00cfc8bf00a2
:103c50000004e00006003a00d0c8bf000004e00005
:103c600003003a00d1c8bf000004e00006003200a3
:103c7000d1c8bf008080fb0060672f00e140780062
:103c8000215f9800020037000040eb00205f9800a1
:103c9000ae589000315f98003e589000505f9800f9
:103ca0002e009000de589000014878002e00900011
:103cb0000000e80020079800d2c8bf008080fb0009
:103cc00060672f00e14078002e00900001487800e6
:103cd0001d0137002e409000e54f500010003a00c3
:103ce000cdc8bf000004e00008003200cdc8bf000e
:103cf0008080fb0060672f00e140780000c5b300c2
:103d000080c07000015f98000200370000c5b3005a
:103d1000005f98008e589000115f98001c003700db
:103d20002e409000e54f500008003600cdc8bf007f
:103d30008080fb0060672f00614078008040780041
:103d40000144a000715798000f003700cdc8bf0094
:103d50000004e00008003200cdc8bf008080fb00f6
:103d600060672f0061407800804078000144a00027
:103d7000615798000200370000c1b30060579800f7
:103d8000ee509000715798007e509000105f9800a0
:103d90002e0090009e589000014878002e00900060
:103da0000000e800200798002e409000e44f5000eb
:103db00010003a00cec8bf000004e0000800320046
:103dc000cec8bf008080fb0060672f00e140780014
:103dd00000c4b30080c07000415798000200370053
:103de000f0ceb30040579800ce5090005157980045
:103df0001b0037002e409000e44f500006003600b4
:103e0000cec8bf008080fb0060672f00e1407800d3
:103e10003157980010003700cdc8bf000004e00003
:103e200003003a00cec8bf000004e00006003200e4
:103e3000cec8bf008080fb0060672f00e1407800a3
:103e400021579800020037000040eb0020579800ef
:103e5000ae509000315798003e5090005057980057
:103e60002e009000de509000014878002e00900057
:103e70000000e800200798002e409000e34f50001b
:103e800010003a00cfc8bf000004e0000800320074
:103e9000cfc8bf008080fb0060672f00e140780042
:103ea00000c4b30080c070000157980002003700c2
:103eb000f0ceb300005798008e5090001157980034
:103ec0001e0037002e409000e34f500006003600e1
:103ed000cfc8bf008080fb0060672f00e140780002
:103ee000714f980013003700cdc8bf000004e000f8
:103ef00006003a00cec8bf000004e00003003a000c
:103f0000cfc8bf000004e00006003200cfc8bf00e9
:103f10008080fb0060672f00e1407800614f9800cf
:103f2000020037000040eb00604f9800ee48900020
:103f3000714f98007e489000105798002e00900016
:103f40009e509000014878002e0090000000e8008c
:103f5000200798002e409000e24f500010003a00d9
:103f6000d0c8bf000004e00008003200d0c8bf0085
:103f70008080fb0060672f00e140780000c4b30040
:103f800080c07000414f980002003700f0ceb300af
:103f9000404f9800ce489000514f980021003700c4
:103fa0002e409000e24f500006003600d0c8bf00ff
:103fb0008080fb0060672f00e1407800314f98005f
:103fc00016003700cdc8bf000004e00009003a0029
:103fd000cec8bf000004e00006003a00cfc8bf0012
:103fe0000004e00003003a00d0c8bf000004e00075
:103ff00006003200d0c8bf008080fb0060672f0041
:10400000e1407800214f9800020037000040eb00ab
:10401000204f9800ae489000314f98003e489000e5
:10402000504f98002e009000de4890000148780024
:104030002e0090000000e800200798002e4090001d
:10404000e14f500010003a00d1c8bf000004e0006a
:1040500008003200d1c8bf008080fb0060672f00dd
:10406000e140780000c4b30080c07000014f9800a8
:1040700002003700f0ceb300004f98008e48900049
:10408000114f9800240037002e409000e14f50005f
:1040900006003600d1c8bf008080fb0060672f009b
:1040a000e14078007147980019003700cdc8bf0083
:1040b0000004e0000c003a00cec8bf000004e0009d
:1040c00009003a00cfc8bf000004e00006003a0033
:1040d000d0c8bf000004e00003003a00d1c8bf0010
:1040e0000004e00006003200d1c8bf008080fb0061
:1040f00060672f00e14078006147980002003700b8
:104100000040eb0060479800ee4090007147980037
:104110007e409000104f98002e0090009e48900026
:10412000014878002e0090000000e8002007980069
:10413000d2c8bf008080fb0060672f00e14078009c
:104140002e009000014878000080fa000000060070
:104150000000fa00ebf00700a1cbbf006440600054
:104160000004e0003c003a009fcbbf0061406000cb
:104170000004e0001c003a00d48b200080c1eb005a
:1041800000c1eb0080c0eb0000c0eb005af107005b
:10419000108c20000002780080c1eb0000c1eb0011
:1041a00080c0eb0000c0eb0053f10700508c2000f2
:1041b0000002780080c1eb0000c1eb0080c0eb0082
:1041c00000c0eb004cf10700908c2000000278004a
:1041d00080c1eb0000c1eb0080c0eb0000c0eb0031
:1041e00045f1070037003700d48b20008041eb00f9
:1041f0000041eb008040eb000040eb003ef1070087
:10420000108c2000000278008041eb000041eb00a0
:104210008040eb000040eb0037f10700508c20009d
:10422000000278008041eb000041eb008040eb0091
:104230000040eb0030f10700908c20000002780075
:104240008041eb000041eb008040eb000040eb00c0
:1042500029f107001b003700d48b2000d3c9b3001d
:10426000f2cab30031c3b300c0cab30022f10700e1
:10427000108c200000027800f3cab300e2c0b30043
:104280008040eb000040eb001bf10700508c200049
:104290000002780063cbb300f2cbb30031c3b300ac
:1042a0000040eb0014f10700908c20000002780021
:1042b0008041eb000041eb008040eb000040eb0050
:1042c0000df107000080fa00000006000000fa006f
:1042d000a1cbbf00644060000004e0002a003a0067
:1042e000d48b20008041eb000041eb008040eb00cc
:1042f0000040eb0000f10700108c20000002780065
:104300008041eb000041eb008040eb000040eb00ff
:10431000f9f00700508c2000000278008041eb008b
:104320000041eb008040eb000040eb00f2f00700a2
:10433000908c2000000278008041eb000041eb00ef
:104340008040eb000040eb00ebf00700a1cbbf008a
:10435000614060000004e0008500320010408000f1
:104360000000e80010408800114080001003200089
:10437000808f50007e0036000000eb001040880067
:10438000a14ba8007a003700514d8000f070220048
:10439000808f500007003400d48b200003c8b30086
:1043a00002c8b30001c8b30000c8b300d2f00700d0
:1043b00010003700514d800010832f00808f500077
:1043c00007003d00d48b200043c0b30042c0b300bf
:1043d00041c0b30040c0b300c7f00700050037007c
:1043e000e04c800080407800504d8000d28b20004f
:1043f00023f30700414d8000f0702200808f5000b1
:1044000008003400108c20000002780003c8b300bc
:1044100002c8b30001c8b30000c8b300b6f007007b
:1044200011003700414d800010832f00808f500015
:1044300008003d00108c20000002780043c0b3004b
:1044400042c0b30041c0b30040c0b300aaf00700af
:1044500005003700128c2000e04c8000804078007e
:10446000404d800006f30700314d8000f0702200bf
:10447000808f500008003400508c2000000278002b
:1044800003c8b30002c8b30001c8b30000c8b3003a
:1044900099f0070011003700314d800010832f0084
:1044a000808f500008003d00508c200000027800f2
:1044b00043c0b30042c0b30041c0b30040c0b3002a
:1044c0008df0070005003700528c2000e04c800082
:1044d00080407800304d8000e9f2070002648000df
:1044e00013648000f070220001002000800f510052
:1044f000818f590008003400908c20000002780061
:1045000003c8b30002c8b30001c8b30000c8b300b9
:1045100079f0070016003700026480001364800001
:1045200010832f00f1ff2f00800f5100818f590061
:1045300008003d00908c20000002780043c0b300ca
:1045400042c0b30041c0b30040c0b3006af00700ee
:1045500007003700928c200084ccbf008041780097
:10456000006480001164800083407800c4f207007a
:104570000080fa00000006000000fa000080fa0047
:10458000000006000000fa00deef0700d48b2000d8
:104590008041eb00c2c2b300f1c2b300a0c8b300b7
:1045a00055f00700118c20000040eb008cf907004b
:1045b000508c2000000278008041eb000041eb00ad
:1045c0008040eb000040eb004bf00700908c200097
:1045d000000278008041eb000041eb008040eb00de
:1045e0000040eb0044f00700a1cbbf006440600036
:1045f0000004e0000b0032009fcbbf006140600070
:104600000004e00007003200108c20000002780057
:104610008041eb000041eb008040eb000040eb00ec
:1046200035f007000080fa00000006000000fa00e4
:10463000b4ef0700d48b20008041eb00e2c0b30050
:1046400081c2b300f0c1b3002bf00700508c2000f2
:10465000000278008041eb000041eb008040eb005d
:104660000040eb0024f00700908c2000000278004e
:104670008041eb000041eb008040eb000040eb008c
:104680001df00700118c20000040eb0054f90700da
:10469000a1cbbf00644060000004e0000b003200ca
:1046a0009fcbbf00614060000004e00007003200c3
:1046b000108c2000000278008041eb000041eb00ec
:1046c0008040eb000040eb000bf007000080fa0098
:1046d000000006000000fa000080fa00000006005a
:1046e0000000fa0087ef0700d48b200093cbb300c3
:1046f000a2c1b30081c2b3000040eb00feef07008f
:10470000108c2000000278008041eb00c2c2b30090
:10471000f1c1b3000040eb00f7ef0700908c2000e0
:10472000000278008041eb000041eb008040eb008c
:104730000040eb00f0ef0700518c200020c0b300d8
:1047400027f907009fcbbf00614060000004e00034
:1047500007003200508c2000000278008041eb00fe
:104760000041eb008040eb000040eb00e2ef07006f
:104770000080fa00000006000000fa0061ef070068
:10478000d48b2000f3c1b300f2c1b300b1cbb300ae
:104790000040eb00d8ef0700508c200000027800aa
:1047a0008041eb000041eb008040eb000040eb005b
:1047b000d1ef0700908c2000000278008041eb00d0
:1047c0000041eb008040eb000040eb00caef070027
:1047d000118c20000040eb0001f907009fcbbf00c7
:1047e000614060000004e00007003200108c2000ef
:1047f000000278008041eb000041eb008040eb00bc
:104800000040eb00bcef07000080fa00000006004b
:104810000200fa003bef0700d48b200063cbb3000b
:1048200092cbb300e1c3b3000040eb00b2ef07004e
:10483000508c2000000278008041eb000041eb002a
:104840008040eb000040eb00abef0700908c2000b5
:10485000000278008041eb000041eb008040eb005b
:104860000040eb00a4ef0700d0c8bf000080fb00b1
:10487000000f78001e007800e20f50002100320087
:104880001e007800e20f500007003c001e00780078
:104890000000e0000b0032001e007800e10f500025
:1048a000100032002e0037001e007800e30f500089
:1048b0001c0032001e007800e40f5000210032007e
:1048c00027003700108c200000027800f3cbb300e3
:1048d00032c7b3008040eb000040eb0086ef0700da
:1048e0001f003700108c200000027800e3cbb300db
:1048f00072cfb3008040eb000040eb007eef07007a
:1049000017003700108c200000027800d3c9b300d4
:1049100072cfb30031c0b3000040eb0076ef070068
:104920000f003700108c20000002780033c3b30062
:1049300000c1eb0071c9b3000040eb006eef07004f
:1049400007003700108c200000027800e3cbb30092
:1049500032ccb30061cbb3000040eb0066ef070040
:104960009fcbbf00614060000004e0000700320000
:10497000108c2000000278008041eb000041eb0029
:104980008040eb000040eb005bef07000080fa0086
:10499000000006000200fa00daee0700d48b2000c7
:1049a000a3c8b300a2c8b300e1c1b300c0cab3003a
:1049b00051ef0700d0c8bf000080fb00000f780057
:1049c0001e007800e10f5000170032001e00780032
:1049d000e20f50000c0032001e0078000000e000e2
:1049e0000100320017003700108c20000002780010
:1049f00033c0b300a2c1b300f1cbb300e0c3b30036
:104a00003def07000f003700108c200000027800f7
:104a100033c0b300e2c1b300f1cbb300e0c3b300d5
:104a200035ef070007003700108c200000027800e7
:104a300033c0b300c2cbb300f1cbb300e0c3b300cb
:104a40002def0700508c2000000278008041eb0021
:104a50000041eb008040eb000040eb0026ef070038
:104a6000908c2000000278008041eb000041eb00b8
:104a70008040eb000040eb001fef07009fcbbf0022
:104a8000614060000004e00007003200108c20004c
:104a9000000278008041eb000041eb008040eb0019
:104aa0000040eb0014ef07000080fa000000060051
:104ab0000000fa000080fa00000006000000fa0082
:104ac0000080fa00000006000000fa000080fa00f2
:104ad000000006000000fa00d48b200003c1b300e0
:104ae0000041eb008040eb000040eb0002ef0700cc
:104af000108c20000002780003c1b3000041eb00dd
:104b00008040eb000040eb00fbee0700508c2000e3
:104b10000002780003c1b3000041eb008040eb00cd
:104b20000040eb00f4ee0700908c200000027800bb
:104b300003c1b3000041eb008040eb000040eb00fc
:104b4000edee07000080fa00000006000000fa0009
:104b50006cee0700e04c8000d18b200020f80700ad
:104b6000a1cbbf00644060000004e0000a003200f6
:104b70009fcbbf00614060000004e00006003200ef
:104b8000d48b20008041eb000041eb008040eb0023
:104b90000040eb00d8ee07000080fa00000006009d
:104ba0000000fa0057ee0700118c2000e04c800056
:104bb0000bf80700a1cbbf00644060000004e000d8
:104bc0000b0032009fcbbf00614060000004e0009a
:104bd00007003200108c2000000278008041eb00ba
:104be0000041eb008040eb000040eb00c2ee07000c
:104bf0000080fa00000006000000fa0041ee070005
:104c0000d58b2000c4cbb300a3c8b30082c2b300cd
:104c1000c1c3b3000040eb00d3ee0700208c20009e
:104c200080027800a4c1b300f3c2b30082c1b30014
:104c30008040eb000040eb00cbee0700718c2000c1
:104c40000040eb0000fb0700a1cbbf006440600008
:104c50000004e0000d0032009fcbbf006140600007
:104c60000004e00009003200708c2000000378008e
:104c70008042eb000042eb008041eb000041eb0082
:104c80008040eb000040eb00daee0700d08c200003
:104c9000000378008042eb000042eb008041eb0013
:104ca0000041eb008040eb000040eb00d1ee07003c
:104cb0000080fa00000006000000fa0011ee070074
:104cc000918c2000e04c8000c5f70700a1cbbf000d
:104cd000644060000004e0000b0032009fcbbf0086
:104ce000614060000004e00007003200908c20006a
:104cf000000278008041eb000041eb008040eb00b7
:104d00000040eb007cee07000080fa000000060087
:104d10000000fa00fbed0700d48b20008041eb007f
:104d2000c2c3b300c1cab3000040eb0072ee07007b
:104d3000108c20000002780083c1b300b2cbb30016
:104d4000c1c3b3000040eb006bee0700908c200065
:104d5000000278008041eb000041eb008040eb0056
:104d60000040eb0064ee0700518c200020c0b3002f
:104d70009bf70700a1cbbf00644060000004e00087
:104d80000b0032009fcbbf00614060000004e000d8
:104d900007003200508c2000000278008041eb00b8
:104da0000041eb008040eb000040eb0052ee0700ba
:104db0000080fa00000006000200fa00d1ed0700b2
:104dc000d48b2000c3cbb300a2c8b30081c2b30010
:104dd000c0c3b30048ee0700108c2000000278002a
:104de000c3c3b30062cbb30081c1b3000040eb008a
:104df00041ee0700538c2000404c8000a2002000b0
:104e0000110009000280d8008000fd0080007800b9
:104e100060672f00614078000302780080417800cd
:104e20000041eb00f1c1b300a0c8b30032ee0700af
:104e3000a1cbbf00644060000004e0000b003a001a
:104e40009fcbbf00614060000004e000070032001b
:104e5000508c2000000278008041eb000041eb0004
:104e60008040eb000040eb0023ee0700cdc8bf0000
:104e70008080fb0060672f0061407800c9e8b700c0
:104e8000cec8bf008080fb0060672f00e140780043
:104e900000c4b30000c07000cae8b700cfc8bf00ac
:104ea0008080fb0060672f0061407800cbe8b7008e
:104eb000d0c8bf008080fb0060672f006140780091
:104ec000cce8b700a1cbbf00644060000004e00064
:104ed000230032009fcbbf00614060000004e0006f
:104ee0001f003200d4c8bf000080fb00000f780014
:104ef0001e007800e20f5000110032001e00780002
:104f0000e20f500004003c001e007800e10f50004a
:104f100008003200120037001e007800e30f500036
:104f20000a0032001e007800e40f50000a00320030
:104f30000b0037000040eb00c9e8b700080037005d
:104f400000c4b300cae8b700050037000040eb001a
:104f5000cbe8b700020037000040eb00cce8b70018
:104f60000080fa00000006000200fa0065ed07006c
:104f7000d48b2000c3cbb300a2c8b30081c2b3005e
:104f8000c0c3b300dced0700508c200000027800a5
:104f90008041eb000041eb008040eb000040eb0063
:104fa000d5ed0700908c2000000278008041eb00d6
:104fb0000041eb008040eb000040eb00ceed07002d
:104fc000cdc8bf008080fb0060672f006140780083
:104fd000c1e8b700cec8bf008080fb0060672f002b
:104fe000e140780000c4b30000c07000c2e8b70020
:104ff000cfc8bf008080fb0060672f006140780051
:10500000c3e8b700d0c8bf008080fb0060672f00f6
:1050100061407800c4e8b700a1cbbf0064406000e5
:105020000004e000230032009fcbbf00614060001d
:105030000004e0001f003200d4c8bf000080fb0065
:10504000000f78001e007800e20f500011003200bf
:105050001e007800e20f500004003c001e007800a3
:10506000e10f500008003200120037001e007800e7
:10507000e30f50000a0032001e007800e40f5000d9
:105080000a0032000b0037000040eb00c1e8b70017
:105090000800370000c4b300c2e8b70005003700bd
:1050a0000040eb00c3e8b700020037000040eb000f
:1050b000c4e8b7000080fa00000006000400fa000f
:1050c00010ed0700d48b2000d3c3b30082c1b3001e
:1050d000e1c3b3000040eb0087ed0700108c200017
:1050e0000002780083cbb30082cbb300e1c1b300f0
:1050f0000040eb0080ed07000040eb00c5e8b70082
:105100000040eb00c6e8b700a1cbbf0064406000e0
:105110000004e00004003a009fcbbf006140600043
:105120000004e0000d003a00704d8000a200200055
:10513000110009000280d800a2002000110009001f
:105140000280d8008000fd008000780060672f009a
:10515000e140780031479800020037000040eb0042
:10516000304798003e409000c7e8b700a1cbbf0091
:10517000644060000004e00004003a009fcbbf00e0
:10518000614060000004e0000a003a00704d8000b9
:10519000a2002000110009000280d8008000fd005c
:1051a0008000780060672f00e14078002147980078
:1051b000020037000040eb00204798002e4090008e
:1051c000c8e8b700cdc8bf008080fb0060672f0033
:1051d00061407800c9e8b700cec8bf008080fb00fe
:1051e00060672f00e140780000c4b30000c0700089
:1051f000cae8b700cfc8bf008080fb0060672f00ff
:1052000061407800cbe8b700d0c8bf008080fb00c9
:1052100060672f0061407800cce8b700a1cbbf00e9
:10522000644060000004e000230032009fcbbf0018
:10523000614060000004e0001f003200d4c8bf00dd
:105240000080fb00000f78001e007800e20f500085
:10525000110032001e007800e20f500004003c00f4
:105260001e007800e10f50000800320012003700e5
:105270001e007800e30f50000a0032001e00780084
:10528000e40f50000a0032000b0037000040eb0032
:10529000c9e8b7000800370000c4b300cae8b70087
:1052a000050037000040eb00cbe8b70002003700f4
:1052b0000040eb00cce8b7000080fa0000000600d8
:1052c0000400fa008fec0700d48b2000d3c3b30096
:1052d00082c1b300e1c3b3000040eb0006ed07005c
:1052e000108c200000027800a3c1b300e2c1b3001b
:1052f0008040eb000040eb00ffec07000040eb00bb
:10530000c5e8b7000040eb00c6e8b700a1cbbf007e
:10531000644060000004e00004003a009fcbbf003e
:10532000614060000004e0000d003a00704d800014
:10533000a2002000110009000280d800a200200075
:10534000110009000280d8008000fd008000780074
:1053500060672f00e1407800314798000200370075
:105360000040eb00304798003e409000c7e8b7008f
:10537000a1cbbf00644060000004e00004003a00dc
:105380009fcbbf00614060000004e0000a003a00cb
:10539000704d8000a2002000110009000280d8009a
:1053a0008000fd008000780060672f00e1407800f9
:1053b00021479800020037000040eb00204798008a
:1053c0002e409000c8e8b700cdc8bf008080fb0029
:1053d00060672f0061407800c9e8b700cec8bf0001
:1053e0008080fb0060672f00e140780000c4b300bc
:1053f00000c07000cae8b700cfc8bf008080fb00c3
:1054000060672f0061407800cbe8b700d0c8bf00cc
:105410008080fb0060672f0061407800cce8b70017
:10542000a1cbbf00644060000004e0002300320014
:105430009fcbbf00614060000004e0001f0032000d
:10544000d4c8bf000080fb00000f78001e00780069
:10545000e20f5000110032001e007800e20f5000f1
:1054600004003c001e007800e10f500008003200ec
:10547000120037001e007800e30f50000a003200cf
:105480001e007800e40f50000a0032000b003700c5
:105490000040eb00c9e8b7000800370000c4b300c3
:1054a000cae8b700050037000040eb00cbe8b700c2
:1054b000020037000040eb00cce8b7000080fa00a3
:1054c000000006000000fa000eec0700d48b20005c
:1054d000d3c3b30082c1b300e1c3b3000040eb000b
:1054e00085ec0700508c2000000278008041eb0022
:1054f0000041eb008040eb000040eb007eec070039
:10550000908c2000000278008041eb000041eb000d
:105510008040eb000040eb0077ec0700504c80002f
:105520000000e00008003200108c2000000278002b
:10553000a3c1b300c2cbb3008040eb000040eb003e
:105540006dec070007003700108c20000002780087
:1055500063cbb30082c2b300f1c1b3000040eb00e3
:1055600065ec0700a1cbbf00644060000004e000d0
:105570000b0032009fcbbf00614060000004e000e0
:1055800007003200108c2000000278008041eb0000
:105590000041eb008040eb000040eb0056ec0700c0
:1055a0000080fa00000006000000fa00d5eb0700ba
:1055b000d48b20008041eb00c2c3b300c1cab3004a
:1055c0000040eb004cec0700108c2000000278003b
:1055d000c3c3b300c2cab300b1cbb300c0c3b300ee
:1055e00045ec0700908c2000000278008041eb0021
:1055f0000041eb008040eb000040eb003eec070078
:10560000518c20000040eb0075f507009fcbbf00d8
:10561000614060000004e0000b003200a1cbbf003d
:10562000644060000004e00007003200508c20005d
:10563000000278008041eb000041eb008040eb006d
:105640000040eb002cec07000080fa000000060090
:105650000000fa000080fa00000006000000fa00d6
:105660000080fa00000006000000fa000080fa0046
:10567000000006000000fa000080fa0000000600aa
:105680000000fa000080fa00000006000400fa00a2
:10569000008fbe00213b8800103b8800400424009e
:1056a000003b88000500fc0050052000303b8800ce
:1056b000a10a2000313b880061e7a80061c7bf0054
:1056c00001c8b300014060000004e000fbff3a00a5
:1056d00061c7a9000080fa00000006000600fa0079
:1056e000008fbe0022079800910188000208bb00cd
:1056f00040002400003b88000500fc00500520000d
:10570000303b8800a10a2000313b880061e7a800f7
:1057100061c7bf0001c8b300014060000004e000a1
:10572000fbff3a0061c7a9000080fa0000000600f4
:105730000400fa00008fbe00910188001002ba0038
:10574000400080000080fa00000006000600fa0019
:10575000008fbe002207980000c02f00f107200034
:105760001e0f40005e9748001e00be00c7ff0700e6
:105770002e0190001e00be00d8ff07000080fa0036
:10578000000006000600fa001007980021079800a4
:105790001e019000ae01900000c02f00f107200014
:1057a00002004000838048001007980021079800fd
:1057b0001e009000ae009000ddff0700000f780093
:1057c0001e0078000080fa00000006000a00fa00bf
:1057d000004f78001e80fb006101b900320798007d
:1057e00043079800f0012000010020003e019000d6
:1057f000ce019000800f5100818f590083003e0040
:105800003e009000ce009000006001001f003700b5
:10581000210037002300370025003700270037001c
:10582000290037002b0037002d0037002f003700ec
:1058300031003700330037003500370037003700bc
:10584000390037003b0037003d0037003f0037008c
:10585000410037004300370045003700470037005c
:10586000490037004b0037004d0037004f0037002c
:1058700051003700530037005500370057003700fc
:10588000590037005b0037005d0037000110200031
:10589000110798005e0037002210200012079800c0
:1058a0005b003700431020001307980058003700b2
:1058b000601020001007980055003700811020006c
:1058c0001107980052003700a2102000120798001c
:1058d0004f003700c3102000130798004c0037001a
:1058e000e010200010079800490037000111200047
:1058f0001107980046003700221120001207980077
:105900004300370043112000130798004000370080
:1059100060112000100798003d0037008111200021
:10592000110798003a003700a211200012079800d2
:1059300037003700c31120001307980034003700e8
:10594000e0112000100798003100370001122000fc
:10595000110798002e00370022122000120798002d
:105960002b0037004312200013079800280037004f
:1059700060122000100798002500370081122000d7
:105980001107980022003700a21220001207980089
:105990001f003700c3122000130798001c003700b7
:1059a000e0122000100798001900370001132000b2
:1059b00011079800160037002213200012079800e4
:1059c000130037004313200013079800100037001e
:1059d00060132000100798000d003700811320008d
:1059e000110798000a003700a21320001207980040
:1059f00007003700c3132000130798000400370086
:105a0000e013200010079800010037000200370063
:105a10009e009000210798002e0090000080fa0060
:105a2000000006000a00fa00004f78001e80fb000c
:105a30006101b9003207980043079800f001200087
:105a4000010020003e019000ce019000800f510027
:105a5000818f590083003e003e009000ce009000f0
:105a6000006001001f0037002100370023003700cd
:105a70002500370027003700290037002b003700aa
:105a80002d0037002f00370031003700330037007a
:105a90003500370037003700390037003b0037004a
:105aa0003d0037003f00370041003700430037001a
:105ab0004500370047003700490037004b003700ea
:105ac0004d0037004f0037005100370053003700ba
:105ad0005500370057003700590037005b0037008a
:105ae0005d00370001142000110798005e003700a8
:105af00022142000120798005b0037004314200096
:105b00001307980058003700601420001007980011
:105b1000550037008114200011079800520037000b
:105b2000a2142000120798004f003700c314200071
:105b3000130798004c003700e0142000100798006d
:105b40004900370001152000110798004600370072
:105b5000221520001207980043003700431520004b
:105b600013079800400037006015200010079800c8
:105b70003d00370081152000110798003a003700da
:105b8000a21520001207980037003700c315200027
:105b90001307980034003700e01520001007980024
:105ba0003100370001162000110798002e00370041
:105bb00022162000120798002b0037004316200001
:105bc000130798002800370060162000100798007f
:105bd00025003700811620001107980022003700a9
:105be000a2162000120798001f003700c3162000dd
:105bf000130798001c003700e016200010079800db
:105c0000190037000117200011079800160037000f
:105c100022172000120798001300370043172000b6
:105c20001307980010003700601720001007980035
:105c30000d00370081172000110798000a00370077
:105c4000a21720001207980007003700c317200092
:105c50001307980004003700e01720001007980091
:105c600001003700020037009e00900021079800d5
:105c70002e0090000080fa00000006000200fa00ea
:105c80000040eb00004f78000a0037001e01fb00c7
:105c90001e00fb008000e800d08c20000080400047
:105ca00090407800d08c200000004100014878002e
:105cb0001e4fe80030c0b3009e4f1000f3ff3400c9
:105cc0000080fa00000006000200fa000040eb002d
